{
  "contractName": "AAiTElection",
  "abi": [
    {
      "inputs": [
        {
          "internalType": "address",
          "name": "_AAiTVoteTokenAddress",
          "type": "address"
        }
      ],
      "stateMutability": "nonpayable",
      "type": "constructor"
    },
    {
      "anonymous": false,
      "inputs": [
        {
          "indexed": false,
          "internalType": "string",
          "name": "currentPhase",
          "type": "string"
        }
      ],
      "name": "LogCurrentElectionPhase",
      "type": "event"
    },
    {
      "inputs": [],
      "name": "phase",
      "outputs": [
        {
          "internalType": "enum AAiTElection.PHASE_NAME",
          "name": "phaseName",
          "type": "uint8"
        },
        {
          "internalType": "uint256",
          "name": "start",
          "type": "uint256"
        },
        {
          "internalType": "uint256",
          "name": "end",
          "type": "uint256"
        }
      ],
      "stateMutability": "view",
      "type": "function",
      "constant": true
    },
    {
      "inputs": [],
      "name": "getCurrentPhase",
      "outputs": [
        {
          "components": [
            {
              "internalType": "enum AAiTElection.PHASE_NAME",
              "name": "phaseName",
              "type": "uint8"
            },
            {
              "internalType": "uint256",
              "name": "start",
              "type": "uint256"
            },
            {
              "internalType": "uint256",
              "name": "end",
              "type": "uint256"
            }
          ],
          "internalType": "struct AAiTElection.ElectionPhase",
          "name": "",
          "type": "tuple"
        }
      ],
      "stateMutability": "view",
      "type": "function",
      "constant": true
    },
    {
      "inputs": [
        {
          "internalType": "uint256",
          "name": "startDate",
          "type": "uint256"
        },
        {
          "internalType": "uint256",
          "name": "endDate",
          "type": "uint256"
        }
      ],
      "name": "changePhase",
      "outputs": [],
      "stateMutability": "nonpayable",
      "type": "function"
    },
    {
      "inputs": [],
      "name": "getRemainingTime",
      "outputs": [
        {
          "internalType": "uint256",
          "name": "",
          "type": "uint256"
        }
      ],
      "stateMutability": "view",
      "type": "function",
      "constant": true
    },
    {
      "inputs": [
        {
          "internalType": "string",
          "name": "name",
          "type": "string"
        },
        {
          "internalType": "uint256",
          "name": "startDate",
          "type": "uint256"
        },
        {
          "internalType": "uint256",
          "name": "endDate",
          "type": "uint256"
        },
        {
          "internalType": "address[]",
          "name": "candidates",
          "type": "address[]"
        },
        {
          "internalType": "uint256",
          "name": "year",
          "type": "uint256"
        },
        {
          "internalType": "uint256",
          "name": "section",
          "type": "uint256"
        },
        {
          "internalType": "enum AAiTElection.DEPTARTMENT_TYPE",
          "name": "department",
          "type": "uint8"
        }
      ],
      "name": "createElection",
      "outputs": [],
      "stateMutability": "nonpayable",
      "type": "function"
    },
    {
      "inputs": [
        {
          "internalType": "address",
          "name": "voterAddress",
          "type": "address"
        },
        {
          "internalType": "address",
          "name": "candidateAddress",
          "type": "address"
        }
      ],
      "name": "vote",
      "outputs": [],
      "stateMutability": "nonpayable",
      "type": "function"
    },
    {
      "inputs": [
        {
          "internalType": "uint256",
          "name": "endDate",
          "type": "uint256"
        }
      ],
      "name": "extendPhase",
      "outputs": [],
      "stateMutability": "nonpayable",
      "type": "function"
    },
    {
      "inputs": [
        {
          "internalType": "string",
          "name": "electionName",
          "type": "string"
        }
      ],
      "name": "pauseElection",
      "outputs": [],
      "stateMutability": "nonpayable",
      "type": "function"
    },
    {
      "inputs": [
        {
          "internalType": "string",
          "name": "electionName",
          "type": "string"
        }
      ],
      "name": "continueElection",
      "outputs": [],
      "stateMutability": "nonpayable",
      "type": "function"
    },
    {
      "inputs": [
        {
          "internalType": "string",
          "name": "electionName",
          "type": "string"
        }
      ],
      "name": "endElection",
      "outputs": [
        {
          "internalType": "bool",
          "name": "",
          "type": "bool"
        }
      ],
      "stateMutability": "nonpayable",
      "type": "function"
    },
    {
      "inputs": [],
      "name": "removeAllCompletedElections",
      "outputs": [],
      "stateMutability": "nonpayable",
      "type": "function"
    },
    {
      "inputs": [
        {
          "internalType": "address",
          "name": "candidateAddress",
          "type": "address"
        }
      ],
      "name": "blacklistCandidate",
      "outputs": [
        {
          "internalType": "bool",
          "name": "",
          "type": "bool"
        }
      ],
      "stateMutability": "nonpayable",
      "type": "function"
    },
    {
      "inputs": [
        {
          "internalType": "address[]",
          "name": "users",
          "type": "address[]"
        }
      ],
      "name": "burnAllTokens",
      "outputs": [],
      "stateMutability": "nonpayable",
      "type": "function"
    },
    {
      "inputs": [
        {
          "internalType": "address[]",
          "name": "voters",
          "type": "address[]"
        }
      ],
      "name": "mintAndSendTokens",
      "outputs": [],
      "stateMutability": "nonpayable",
      "type": "function"
    },
    {
      "inputs": [],
      "name": "getAllCurrentElections",
      "outputs": [
        {
          "components": [
            {
              "internalType": "uint256",
              "name": "index",
              "type": "uint256"
            },
            {
              "internalType": "string",
              "name": "name",
              "type": "string"
            },
            {
              "internalType": "enum AAiTElection.ELECTION_TYPE",
              "name": "status",
              "type": "uint8"
            },
            {
              "internalType": "uint256",
              "name": "startDate",
              "type": "uint256"
            },
            {
              "internalType": "uint256",
              "name": "endDate",
              "type": "uint256"
            },
            {
              "internalType": "address[]",
              "name": "candidates",
              "type": "address[]"
            },
            {
              "internalType": "address[]",
              "name": "winners",
              "type": "address[]"
            },
            {
              "internalType": "uint256",
              "name": "year",
              "type": "uint256"
            },
            {
              "internalType": "uint256",
              "name": "section",
              "type": "uint256"
            },
            {
              "internalType": "enum AAiTElection.DEPTARTMENT_TYPE",
              "name": "department",
              "type": "uint8"
            }
          ],
          "internalType": "struct AAiTElection.ElectionStruct[]",
          "name": "",
          "type": "tuple[]"
        }
      ],
      "stateMutability": "view",
      "type": "function",
      "constant": true
    },
    {
      "inputs": [],
      "name": "getAllCompletedElections",
      "outputs": [
        {
          "components": [
            {
              "internalType": "uint256",
              "name": "index",
              "type": "uint256"
            },
            {
              "internalType": "string",
              "name": "name",
              "type": "string"
            },
            {
              "internalType": "enum AAiTElection.ELECTION_TYPE",
              "name": "status",
              "type": "uint8"
            },
            {
              "internalType": "uint256",
              "name": "startDate",
              "type": "uint256"
            },
            {
              "internalType": "uint256",
              "name": "endDate",
              "type": "uint256"
            },
            {
              "internalType": "address[]",
              "name": "candidates",
              "type": "address[]"
            },
            {
              "internalType": "address[]",
              "name": "winners",
              "type": "address[]"
            },
            {
              "internalType": "uint256",
              "name": "year",
              "type": "uint256"
            },
            {
              "internalType": "uint256",
              "name": "section",
              "type": "uint256"
            },
            {
              "internalType": "enum AAiTElection.DEPTARTMENT_TYPE",
              "name": "department",
              "type": "uint8"
            }
          ],
          "internalType": "struct AAiTElection.ElectionStruct[]",
          "name": "",
          "type": "tuple[]"
        }
      ],
      "stateMutability": "view",
      "type": "function",
      "constant": true
    },
    {
      "inputs": [
        {
          "internalType": "string",
          "name": "electionName",
          "type": "string"
        }
      ],
      "name": "getElectionByName",
      "outputs": [
        {
          "components": [
            {
              "internalType": "uint256",
              "name": "index",
              "type": "uint256"
            },
            {
              "internalType": "string",
              "name": "name",
              "type": "string"
            },
            {
              "internalType": "enum AAiTElection.ELECTION_TYPE",
              "name": "status",
              "type": "uint8"
            },
            {
              "internalType": "uint256",
              "name": "startDate",
              "type": "uint256"
            },
            {
              "internalType": "uint256",
              "name": "endDate",
              "type": "uint256"
            },
            {
              "internalType": "address[]",
              "name": "candidates",
              "type": "address[]"
            },
            {
              "internalType": "address[]",
              "name": "winners",
              "type": "address[]"
            },
            {
              "internalType": "uint256",
              "name": "year",
              "type": "uint256"
            },
            {
              "internalType": "uint256",
              "name": "section",
              "type": "uint256"
            },
            {
              "internalType": "enum AAiTElection.DEPTARTMENT_TYPE",
              "name": "department",
              "type": "uint8"
            }
          ],
          "internalType": "struct AAiTElection.ElectionStruct",
          "name": "",
          "type": "tuple"
        }
      ],
      "stateMutability": "view",
      "type": "function",
      "constant": true
    },
    {
      "inputs": [
        {
          "internalType": "uint256",
          "name": "year",
          "type": "uint256"
        },
        {
          "internalType": "uint256",
          "name": "section",
          "type": "uint256"
        },
        {
          "internalType": "enum AAiTElection.DEPTARTMENT_TYPE",
          "name": "department",
          "type": "uint8"
        }
      ],
      "name": "getElectionByType",
      "outputs": [
        {
          "components": [
            {
              "internalType": "uint256",
              "name": "index",
              "type": "uint256"
            },
            {
              "internalType": "string",
              "name": "name",
              "type": "string"
            },
            {
              "internalType": "enum AAiTElection.ELECTION_TYPE",
              "name": "status",
              "type": "uint8"
            },
            {
              "internalType": "uint256",
              "name": "startDate",
              "type": "uint256"
            },
            {
              "internalType": "uint256",
              "name": "endDate",
              "type": "uint256"
            },
            {
              "internalType": "address[]",
              "name": "candidates",
              "type": "address[]"
            },
            {
              "internalType": "address[]",
              "name": "winners",
              "type": "address[]"
            },
            {
              "internalType": "uint256",
              "name": "year",
              "type": "uint256"
            },
            {
              "internalType": "uint256",
              "name": "section",
              "type": "uint256"
            },
            {
              "internalType": "enum AAiTElection.DEPTARTMENT_TYPE",
              "name": "department",
              "type": "uint8"
            }
          ],
          "internalType": "struct AAiTElection.ElectionStruct",
          "name": "result",
          "type": "tuple"
        }
      ],
      "stateMutability": "view",
      "type": "function",
      "constant": true
    }
  ],
  "bytecode": "0x60a06040526040518060c001604052806040518060400160405280601681526020017f42696f6d65646963616c20456e67696e656572696e670000000000000000000081525081526020016040518060400160405280601481526020017f4368656d6963616c20456e67696e656572696e6700000000000000000000000081525081526020016040518060400160405280601181526020017f436976696c20456e67696e656572696e6700000000000000000000000000000081525081526020016040518060400160405280601681526020017f456c656374726963616c20456e67696e656572696e670000000000000000000081525081526020016040518060400160405280601681526020017f4d656368616e6963616c20456e67696e656572696e670000000000000000000081525081526020016040518060400160405280601481526020017f536f66747761726520456e67696e656572696e67000000000000000000000000815250815250600090600662000181929190620002af565b503480156200018f57600080fd5b5060405162005f1838038062005f188339818101604052810190620001b591906200049e565b3373ffffffffffffffffffffffffffffffffffffffff1660808173ffffffffffffffffffffffffffffffffffffffff168152505080600c60006101000a81548173ffffffffffffffffffffffffffffffffffffffff021916908373ffffffffffffffffffffffffffffffffffffffff16021790555060405180606001604052806007808111156200024b576200024a620004d0565b5b8152602001600081526020016000815250600160008201518160000160006101000a81548160ff021916908360078111156200028c576200028b620004d0565b5b021790555060208201518160010155604082015181600201559050505062000564565b82805482825590600052602060002090810192821562000303579160200282015b8281111562000302578251829080519060200190620002f192919062000316565b5091602001919060010190620002d0565b5b509050620003129190620003a7565b5090565b82805462000324906200052e565b90600052602060002090601f01602090048101928262000348576000855562000394565b82601f106200036357805160ff191683800117855562000394565b8280016001018555821562000394579182015b828111156200039357825182559160200191906001019062000376565b5b509050620003a39190620003cf565b5090565b5b80821115620003cb5760008181620003c19190620003ee565b50600101620003a8565b5090565b5b80821115620003ea576000816000905550600101620003d0565b5090565b508054620003fc906200052e565b6000825580601f1062000410575062000431565b601f016020900490600052602060002090810190620004309190620003cf565b5b50565b600080fd5b600073ffffffffffffffffffffffffffffffffffffffff82169050919050565b6000620004668262000439565b9050919050565b620004788162000459565b81146200048457600080fd5b50565b60008151905062000498816200046d565b92915050565b600060208284031215620004b757620004b662000434565b5b6000620004c78482850162000487565b91505092915050565b7f4e487b7100000000000000000000000000000000000000000000000000000000600052602160045260246000fd5b7f4e487b7100000000000000000000000000000000000000000000000000000000600052602260045260246000fd5b600060028204905060018216806200054757607f821691505b602082108114156200055e576200055d620004ff565b5b50919050565b608051615944620005d46000396000818161035f015281816103c401528181610469015281816104f80152818161055001528181610b220152818161108301528181611248015281816112ed0152818161154101528181611ea4015281816120010152612f3e01526159446000f3fe608060405234801561001057600080fd5b50600436106101165760003560e01c80639a67e4c6116100a2578063d877416f11610071578063d877416f146102a7578063e9cb0c74146102c3578063efb98bcf146102f3578063f16219da14610311578063fe43bc071461032d57610116565b80639a67e4c61461022d578063a09824681461024b578063a3a40ea514610269578063b1c9fe6e1461028757610116565b806332c667f9116100e957806332c667f91461019f57806333b89d8b146101bb5780633ef599ca146101d7578063558c2898146101f357806398747d8e146101fd57610116565b806316e033491461011b57806319ea3200146101375780631afa74e51461015357806324d6562c1461016f575b600080fd5b610135600480360381019061013091906144ec565b61035d565b005b610151600480360381019061014c919061465f565b6103c2565b005b61016d60048036038101906101689190614706565b610467565b005b61018960048036038101906101849190614746565b610b1e565b604051610196919061478e565b60405180910390f35b6101b960048036038101906101b49190614871565b611081565b005b6101d560048036038101906101d0919061465f565b611246565b005b6101f160048036038101906101ec91906148ba565b6112eb565b005b6101fb61153f565b005b6102176004803603810190610212919061465f565b6115d1565b6040516102249190614bf6565b60405180910390f35b6102356118a8565b6040516102429190614dc2565b60405180910390f35b610253611b5e565b6040516102609190614dc2565b60405180910390f35b610271611e14565b60405161027e9190614e6e565b60405180910390f35b61028f611e7d565b60405161029e93929190614ea7565b60405180910390f35b6102c160048036038101906102bc9190614871565b611ea2565b005b6102dd60048036038101906102d89190614f03565b612071565b6040516102ea9190614bf6565b60405180910390f35b6102fb612b8e565b6040516103089190614f56565b60405180910390f35b61032b60048036038101906103269190614f71565b612bee565b005b6103476004803603810190610342919061465f565b612f3a565b604051610354919061478e565b60405180910390f35b7f000000000000000000000000000000000000000000000000000000000000000073ffffffffffffffffffffffffffffffffffffffff163373ffffffffffffffffffffffffffffffffffffffff16146103b557600080fd5b8060016002018190555050565b7f000000000000000000000000000000000000000000000000000000000000000073ffffffffffffffffffffffffffffffffffffffff163373ffffffffffffffffffffffffffffffffffffffff161461041a57600080fd5b600160068260405161042c9190615087565b908152602001604051809103902060020160006101000a81548160ff0219169083600281111561045f5761045e614991565b5b021790555050565b7f000000000000000000000000000000000000000000000000000000000000000073ffffffffffffffffffffffffffffffffffffffff163373ffffffffffffffffffffffffffffffffffffffff16146104bf57600080fd5b8073ffffffffffffffffffffffffffffffffffffffff168273ffffffffffffffffffffffffffffffffffffffff161415801561054757507f000000000000000000000000000000000000000000000000000000000000000073ffffffffffffffffffffffffffffffffffffffff168273ffffffffffffffffffffffffffffffffffffffff1614155b801561059f57507f000000000000000000000000000000000000000000000000000000000000000073ffffffffffffffffffffffffffffffffffffffff168173ffffffffffffffffffffffffffffffffffffffff1614155b6105de576040517f08c379a00000000000000000000000000000000000000000000000000000000081526004016105d5906150fb565b60405180910390fd5b61066e600480548060200260200160405190810160405280929190818152602001828054801561066357602002820191906000526020600020905b8160009054906101000a900473ffffffffffffffffffffffffffffffffffffffff1673ffffffffffffffffffffffffffffffffffffffff1681526020019060010190808311610619575b505050505083613525565b156106ae576040517f08c379a00000000000000000000000000000000000000000000000000000000081526004016106a590615167565b60405180910390fd5b61073e600580548060200260200160405190810160405280929190818152602001828054801561073357602002820191906000526020600020905b8160009054906101000a900473ffffffffffffffffffffffffffffffffffffffff1673ffffffffffffffffffffffffffffffffffffffff16815260200190600101908083116106e9575b505050505082613525565b1561077e576040517f08c379a0000000000000000000000000000000000000000000000000000000008152600401610775906151d3565b60405180910390fd5b6000600c60009054906101000a900473ffffffffffffffffffffffffffffffffffffffff1673ffffffffffffffffffffffffffffffffffffffff166370a08231846040518263ffffffff1660e01b81526004016107db9190615202565b602060405180830381865afa1580156107f8573d6000803e3d6000fd5b505050506040513d601f19601f8201168201806040525081019061081c9190615232565b1161085c576040517f08c379a0000000000000000000000000000000000000000000000000000000008152600401610853906152ab565b60405180910390fd5b60005b600880549050811015610ade5761091f60088281548110610883576108826152cb565b5b90600052602060002090600a020160050180548060200260200160405190810160405280929190818152602001828054801561091457602002820191906000526020600020905b8160009054906101000a900473ffffffffffffffffffffffffffffffffffffffff1673ffffffffffffffffffffffffffffffffffffffff16815260200190600101908083116108ca575b505050505083613525565b15610acb576001600281111561093857610937614991565b5b6008828154811061094c5761094b6152cb565b5b90600052602060002090600a020160020160009054906101000a900460ff16600281111561097d5761097c614991565b5b1415610a9057600c60009054906101000a900473ffffffffffffffffffffffffffffffffffffffff1673ffffffffffffffffffffffffffffffffffffffff166323b872dd848460016040518463ffffffff1660e01b81526004016109e39392919061533f565b6020604051808303816000875af1158015610a02573d6000803e3d6000fd5b505050506040513d601f19601f82011682018060405250810190610a2691906153a2565b506004839080600181540180825580915050600190039060005260206000200160009091909190916101000a81548173ffffffffffffffffffffffffffffffffffffffff021916908373ffffffffffffffffffffffffffffffffffffffff16021790555050610b1a565b6040517f08c379a0000000000000000000000000000000000000000000000000000000008152600401610ac29061541b565b60405180910390fd5b8080610ad69061546a565b91505061085f565b506040517f08c379a0000000000000000000000000000000000000000000000000000000008152600401610b11906154ff565b60405180910390fd5b5050565b60007f000000000000000000000000000000000000000000000000000000000000000073ffffffffffffffffffffffffffffffffffffffff163373ffffffffffffffffffffffffffffffffffffffff1614610b7857600080fd5b610c086005805480602002602001604051908101604052809291908181526020018280548015610bfd57602002820191906000526020600020905b8160009054906101000a900473ffffffffffffffffffffffffffffffffffffffff1673ffffffffffffffffffffffffffffffffffffffff1681526020019060010190808311610bb3575b505050505083613525565b15610c48576040517f08c379a0000000000000000000000000000000000000000000000000000000008152600401610c3f9061556b565b60405180910390fd5b60005b60088054905081101561104057610d0b60088281548110610c6f57610c6e6152cb565b5b90600052602060002090600a0201600501805480602002602001604051908101604052809291908181526020018280548015610d0057602002820191906000526020600020905b8160009054906101000a900473ffffffffffffffffffffffffffffffffffffffff1673ffffffffffffffffffffffffffffffffffffffff1681526020019060010190808311610cb6575b505050505084613525565b1561102d576000610dc560088381548110610d2957610d286152cb565b5b90600052602060002090600a0201600501805480602002602001604051908101604052809291908181526020018280548015610dba57602002820191906000526020600020905b8160009054906101000a900473ffffffffffffffffffffffffffffffffffffffff1673ffffffffffffffffffffffffffffffffffffffff1681526020019060010190808311610d70575b5050505050856135ad565b905060088281548110610ddb57610dda6152cb565b5b90600052602060002090600a0201600501600160088481548110610e0257610e016152cb565b5b90600052602060002090600a020160050180549050610e21919061558b565b81548110610e3257610e316152cb565b5b9060005260206000200160009054906101000a900473ffffffffffffffffffffffffffffffffffffffff1660088381548110610e7157610e706152cb565b5b90600052602060002090600a02016005018281548110610e9457610e936152cb565b5b9060005260206000200160006101000a81548173ffffffffffffffffffffffffffffffffffffffff021916908373ffffffffffffffffffffffffffffffffffffffff16021790555060088281548110610ef057610eef6152cb565b5b90600052602060002090600a0201600501805480610f1157610f106155bf565b5b6001900381819060005260206000200160006101000a81549073ffffffffffffffffffffffffffffffffffffffff0219169055905560088281548110610f5a57610f596152cb565b5b90600052602060002090600a0201600501600660088481548110610f8157610f806152cb565b5b90600052602060002090600a0201600101604051610f9f91906156e3565b9081526020016040518091039020600501908054610fbe929190614039565b506005849080600181540180825580915050600190039060005260206000200160009091909190916101000a81548173ffffffffffffffffffffffffffffffffffffffff021916908373ffffffffffffffffffffffffffffffffffffffff16021790555060019250505061107c565b80806110389061546a565b915050610c4b565b506040517f08c379a0000000000000000000000000000000000000000000000000000000008152600401611073906150fb565b60405180910390fd5b919050565b7f000000000000000000000000000000000000000000000000000000000000000073ffffffffffffffffffffffffffffffffffffffff163373ffffffffffffffffffffffffffffffffffffffff16146110d957600080fd5b600c60009054906101000a900473ffffffffffffffffffffffffffffffffffffffff1673ffffffffffffffffffffffffffffffffffffffff1663a0712d6882516040518263ffffffff1660e01b81526004016111359190614f56565b600060405180830381600087803b15801561114f57600080fd5b505af1158015611163573d6000803e3d6000fd5b5050505060005b815181101561124257600c60009054906101000a900473ffffffffffffffffffffffffffffffffffffffff1673ffffffffffffffffffffffffffffffffffffffff1663a9059cbb8383815181106111c4576111c36152cb565b5b602002602001015160016040518363ffffffff1660e01b81526004016111eb9291906156fa565b6020604051808303816000875af115801561120a573d6000803e3d6000fd5b505050506040513d601f19601f8201168201806040525081019061122e91906153a2565b50808061123a9061546a565b91505061116a565b5050565b7f000000000000000000000000000000000000000000000000000000000000000073ffffffffffffffffffffffffffffffffffffffff163373ffffffffffffffffffffffffffffffffffffffff161461129e57600080fd5b60006006826040516112b09190615087565b908152602001604051809103902060020160006101000a81548160ff021916908360028111156112e3576112e2614991565b5b021790555050565b7f000000000000000000000000000000000000000000000000000000000000000073ffffffffffffffffffffffffffffffffffffffff163373ffffffffffffffffffffffffffffffffffffffff161461134357600080fd5b6006600781111561135757611356614991565b5b600160000160009054906101000a900460ff16600781111561137c5761137b614991565b5b14156113ff5760405180606001604052806007808111156113a05761139f614991565b5b8152602001600081526020016000815250600160008201518160000160006101000a81548160ff021916908360078111156113de576113dd614991565b5b0217905550602082015181600101556040820151816002015590505061153b565b60078081111561141257611411614991565b5b600160000160009054906101000a900460ff16600781111561143757611436614991565b5b14156114b95760405180606001604052806000600781111561145c5761145b614991565b5b815260200183815260200182815250600160008201518160000160006101000a81548160ff0219169083600781111561149857611497614991565b5b0217905550602082015181600101556040820151816002015590505061153b565b60018060000160009054906101000a900460ff1660078111156114df576114de614991565b5b6114e99190615723565b60078111156114fb576114fa614991565b5b600160000160006101000a81548160ff0219169083600781111561152257611521614991565b5b0217905550816001800181905550806001600201819055505b5050565b7f000000000000000000000000000000000000000000000000000000000000000073ffffffffffffffffffffffffffffffffffffffff163373ffffffffffffffffffffffffffffffffffffffff161461159757600080fd5b600960006115a5919061408b565b600860006115b3919061408b565b600760006115c191906140af565b600460006115cf91906140d0565b565b6115d96140f1565b6115e282613634565b611621576040517f08c379a0000000000000000000000000000000000000000000000000000000008152600401611618906157c5565b60405180910390fd5b6006826040516116319190615087565b908152602001604051809103902060405180610140016040529081600082015481526020016001820180546116659061561d565b80601f01602080910402602001604051908101604052809291908181526020018280546116919061561d565b80156116de5780601f106116b3576101008083540402835291602001916116de565b820191906000526020600020905b8154815290600101906020018083116116c157829003601f168201915b505050505081526020016002820160009054906101000a900460ff16600281111561170c5761170b614991565b5b600281111561171e5761171d614991565b5b81526020016003820154815260200160048201548152602001600582018054806020026020016040519081016040528092919081815260200182805480156117bb57602002820191906000526020600020905b8160009054906101000a900473ffffffffffffffffffffffffffffffffffffffff1673ffffffffffffffffffffffffffffffffffffffff1681526020019060010190808311611771575b505050505081526020016006820180548060200260200160405190810160405280929190818152602001828054801561184957602002820191906000526020600020905b8160009054906101000a900473ffffffffffffffffffffffffffffffffffffffff1673ffffffffffffffffffffffffffffffffffffffff16815260200190600101908083116117ff575b5050505050815260200160078201548152602001600882015481526020016009820160009054906101000a900460ff16600581111561188b5761188a614991565b5b600581111561189d5761189c614991565b5b815250509050919050565b60606009805480602002602001604051908101604052809291908181526020016000905b82821015611b5557838290600052602060002090600a0201604051806101400160405290816000820154815260200160018201805461190a9061561d565b80601f01602080910402602001604051908101604052809291908181526020018280546119369061561d565b80156119835780601f1061195857610100808354040283529160200191611983565b820191906000526020600020905b81548152906001019060200180831161196657829003601f168201915b505050505081526020016002820160009054906101000a900460ff1660028111156119b1576119b0614991565b5b60028111156119c3576119c2614991565b5b8152602001600382015481526020016004820154815260200160058201805480602002602001604051908101604052809291908181526020018280548015611a6057602002820191906000526020600020905b8160009054906101000a900473ffffffffffffffffffffffffffffffffffffffff1673ffffffffffffffffffffffffffffffffffffffff1681526020019060010190808311611a16575b5050505050815260200160068201805480602002602001604051908101604052809291908181526020018280548015611aee57602002820191906000526020600020905b8160009054906101000a900473ffffffffffffffffffffffffffffffffffffffff1673ffffffffffffffffffffffffffffffffffffffff1681526020019060010190808311611aa4575b5050505050815260200160078201548152602001600882015481526020016009820160009054906101000a900460ff166005811115611b3057611b2f614991565b5b6005811115611b4257611b41614991565b5b81525050815260200190600101906118cc565b50505050905090565b60606008805480602002602001604051908101604052809291908181526020016000905b82821015611e0b57838290600052602060002090600a02016040518061014001604052908160008201548152602001600182018054611bc09061561d565b80601f0160208091040260200160405190810160405280929190818152602001828054611bec9061561d565b8015611c395780601f10611c0e57610100808354040283529160200191611c39565b820191906000526020600020905b815481529060010190602001808311611c1c57829003601f168201915b505050505081526020016002820160009054906101000a900460ff166002811115611c6757611c66614991565b5b6002811115611c7957611c78614991565b5b8152602001600382015481526020016004820154815260200160058201805480602002602001604051908101604052809291908181526020018280548015611d1657602002820191906000526020600020905b8160009054906101000a900473ffffffffffffffffffffffffffffffffffffffff1673ffffffffffffffffffffffffffffffffffffffff1681526020019060010190808311611ccc575b5050505050815260200160068201805480602002602001604051908101604052809291908181526020018280548015611da457602002820191906000526020600020905b8160009054906101000a900473ffffffffffffffffffffffffffffffffffffffff1673ffffffffffffffffffffffffffffffffffffffff1681526020019060010190808311611d5a575b5050505050815260200160078201548152602001600882015481526020016009820160009054906101000a900460ff166005811115611de657611de5614991565b5b6005811115611df857611df7614991565b5b8152505081526020019060010190611b82565b50505050905090565b611e1c614168565b60016040518060600160405290816000820160009054906101000a900460ff166007811115611e4e57611e4d614991565b5b6007811115611e6057611e5f614991565b5b815260200160018201548152602001600282015481525050905090565b60018060000160009054906101000a900460ff16908060010154908060020154905083565b7f000000000000000000000000000000000000000000000000000000000000000073ffffffffffffffffffffffffffffffffffffffff163373ffffffffffffffffffffffffffffffffffffffff1614611efa57600080fd5b60005b8151811015611fc057600c60009054906101000a900473ffffffffffffffffffffffffffffffffffffffff1673ffffffffffffffffffffffffffffffffffffffff166389afcb44838381518110611f5757611f566152cb565b5b60200260200101516040518263ffffffff1660e01b8152600401611f7b9190615202565b600060405180830381600087803b158015611f9557600080fd5b505af1158015611fa9573d6000803e3d6000fd5b505050508080611fb89061546a565b915050611efd565b50600c60009054906101000a900473ffffffffffffffffffffffffffffffffffffffff1673ffffffffffffffffffffffffffffffffffffffff166389afcb447f00000000000000000000000000000000000000000000000000000000000000006040518263ffffffff1660e01b815260040161203c9190615202565b600060405180830381600087803b15801561205657600080fd5b505af115801561206a573d6000803e3d6000fd5b5050505050565b6120796140f1565b6120848484846136e9565b6120c3576040517f08c379a00000000000000000000000000000000000000000000000000000000081526004016120ba906157c5565b60405180910390fd5b600660078111156120d7576120d6614991565b5b600160000160009054906101000a900460ff1660078111156120fc576120fb614991565b5b14156124155760005b60088054905081101561240f5782600581111561212557612124614991565b5b60088281548110612139576121386152cb565b5b90600052602060002090600a020160090160009054906101000a900460ff16600581111561216a57612169614991565b5b14156123fc5760088181548110612184576121836152cb565b5b90600052602060002090600a020160405180610140016040529081600082015481526020016001820180546121b89061561d565b80601f01602080910402602001604051908101604052809291908181526020018280546121e49061561d565b80156122315780601f1061220657610100808354040283529160200191612231565b820191906000526020600020905b81548152906001019060200180831161221457829003601f168201915b505050505081526020016002820160009054906101000a900460ff16600281111561225f5761225e614991565b5b600281111561227157612270614991565b5b815260200160038201548152602001600482015481526020016005820180548060200260200160405190810160405280929190818152602001828054801561230e57602002820191906000526020600020905b8160009054906101000a900473ffffffffffffffffffffffffffffffffffffffff1673ffffffffffffffffffffffffffffffffffffffff16815260200190600101908083116122c4575b505050505081526020016006820180548060200260200160405190810160405280929190818152602001828054801561239c57602002820191906000526020600020905b8160009054906101000a900473ffffffffffffffffffffffffffffffffffffffff1673ffffffffffffffffffffffffffffffffffffffff1681526020019060010190808311612352575b5050505050815260200160078201548152602001600882015481526020016009820160009054906101000a900460ff1660058111156123de576123dd614991565b5b60058111156123f0576123ef614991565b5b81525050915050612b87565b80806124079061546a565b915050612105565b50612b86565b6004600781111561242957612428614991565b5b600160000160009054906101000a900460ff16600781111561244e5761244d614991565b5b14156127975760005b6008805490508110156127915782600581111561247757612476614991565b5b6008828154811061248b5761248a6152cb565b5b90600052602060002090600a020160090160009054906101000a900460ff1660058111156124bc576124bb614991565b5b1480156124ed575084600882815481106124d9576124d86152cb565b5b90600052602060002090600a020160070154145b1561277e5760088181548110612506576125056152cb565b5b90600052602060002090600a0201604051806101400160405290816000820154815260200160018201805461253a9061561d565b80601f01602080910402602001604051908101604052809291908181526020018280546125669061561d565b80156125b35780601f10612588576101008083540402835291602001916125b3565b820191906000526020600020905b81548152906001019060200180831161259657829003601f168201915b505050505081526020016002820160009054906101000a900460ff1660028111156125e1576125e0614991565b5b60028111156125f3576125f2614991565b5b815260200160038201548152602001600482015481526020016005820180548060200260200160405190810160405280929190818152602001828054801561269057602002820191906000526020600020905b8160009054906101000a900473ffffffffffffffffffffffffffffffffffffffff1673ffffffffffffffffffffffffffffffffffffffff1681526020019060010190808311612646575b505050505081526020016006820180548060200260200160405190810160405280929190818152602001828054801561271e57602002820191906000526020600020905b8160009054906101000a900473ffffffffffffffffffffffffffffffffffffffff1673ffffffffffffffffffffffffffffffffffffffff16815260200190600101908083116126d4575b5050505050815260200160078201548152602001600882015481526020016009820160009054906101000a900460ff1660058111156127605761275f614991565b5b600581111561277257612771614991565b5b81525050915050612b87565b80806127899061546a565b915050612457565b50612b85565b600260078111156127ab576127aa614991565b5b600160000160009054906101000a900460ff1660078111156127d0576127cf614991565b5b1415612b495760005b600880549050811015612b43578260058111156127f9576127f8614991565b5b6008828154811061280d5761280c6152cb565b5b90600052602060002090600a020160090160009054906101000a900460ff16600581111561283e5761283d614991565b5b14801561286f5750846008828154811061285b5761285a6152cb565b5b90600052602060002090600a020160070154145b801561289f5750836008828154811061288b5761288a6152cb565b5b90600052602060002090600a020160080154145b15612b3057600881815481106128b8576128b76152cb565b5b90600052602060002090600a020160405180610140016040529081600082015481526020016001820180546128ec9061561d565b80601f01602080910402602001604051908101604052809291908181526020018280546129189061561d565b80156129655780601f1061293a57610100808354040283529160200191612965565b820191906000526020600020905b81548152906001019060200180831161294857829003601f168201915b505050505081526020016002820160009054906101000a900460ff16600281111561299357612992614991565b5b60028111156129a5576129a4614991565b5b8152602001600382015481526020016004820154815260200160058201805480602002602001604051908101604052809291908181526020018280548015612a4257602002820191906000526020600020905b8160009054906101000a900473ffffffffffffffffffffffffffffffffffffffff1673ffffffffffffffffffffffffffffffffffffffff16815260200190600101908083116129f8575b5050505050815260200160068201805480602002602001604051908101604052809291908181526020018280548015612ad057602002820191906000526020600020905b8160009054906101000a900473ffffffffffffffffffffffffffffffffffffffff1673ffffffffffffffffffffffffffffffffffffffff1681526020019060010190808311612a86575b5050505050815260200160078201548152602001600882015481526020016009820160009054906101000a900460ff166005811115612b1257612b11614991565b5b6005811115612b2457612b23614991565b5b81525050915050612b87565b8080612b3b9061546a565b9150506127d9565b50612b84565b6040517f08c379a0000000000000000000000000000000000000000000000000000000008152600401612b7b906150fb565b60405180910390fd5b5b5b5b9392505050565b6000600780811115612ba357612ba2614991565b5b600160000160009054906101000a900460ff166007811115612bc857612bc7614991565b5b1415612bd75760009050612beb565b42600160020154612be8919061558b565b90505b90565b6060612bf988613634565b158015612c0e5750612c0c8484846136e9565b155b612c4d576040517f08c379a0000000000000000000000000000000000000000000000000000000008152600401612c4490615831565b60405180910390fd5b600788908060018154018082558091505060019003906000526020600020016000909190919091509080519060200190612c8892919061419b565b5060006040518061014001604052806001600780549050612ca9919061558b565b81526020018a815260200160016002811115612cc857612cc7614991565b5b8152602001898152602001888152602001878152602001838152602001868152602001858152602001846005811115612d0457612d03614991565b5b81525090508060068a604051612d1a9190615087565b9081526020016040518091039020600082015181600001556020820151816001019080519060200190612d4e92919061419b565b5060408201518160020160006101000a81548160ff02191690836002811115612d7a57612d79614991565b5b0217905550606082015181600301556080820151816004015560a0820151816005019080519060200190612daf929190614221565b5060c0820151816006019080519060200190612dcc929190614221565b5060e0820151816007015561010082015181600801556101208201518160090160006101000a81548160ff02191690836005811115612e0e57612e0d614991565b5b021790555090505060088190806001815401808255809150506001900390600052602060002090600a0201600090919091909150600082015181600001556020820151816001019080519060200190612e6892919061419b565b5060408201518160020160006101000a81548160ff02191690836002811115612e9457612e93614991565b5b0217905550606082015181600301556080820151816004015560a0820151816005019080519060200190612ec9929190614221565b5060c0820151816006019080519060200190612ee6929190614221565b5060e0820151816007015561010082015181600801556101208201518160090160006101000a81548160ff02191690836005811115612f2857612f27614991565b5b02179055505050505050505050505050565b60007f000000000000000000000000000000000000000000000000000000000000000073ffffffffffffffffffffffffffffffffffffffff163373ffffffffffffffffffffffffffffffffffffffff1614612f9457600080fd5b612f9d82613634565b612fdc576040517f08c379a0000000000000000000000000000000000000000000000000000000008152600401612fd39061589d565b60405180910390fd5b612fe58261380e565b6009600683604051612ff79190615087565b908152602001604051809103902090806001815401808255809150506001900390600052602060002090600a020160009091909190915060008201548160000155600182018160010190805461304c9061561d565b6130579291906142ab565b506002820160009054906101000a900460ff168160020160006101000a81548160ff021916908360028111156130905761308f614991565b5b0217905550600382015481600301556004820154816004015560058201816005019080546130bf929190614338565b5060068201816006019080546130d6929190614338565b5060078201548160070155600882015481600801556009820160009054906101000a900460ff168160090160006101000a81548160ff0219169083600581111561312357613122614991565b5b02179055505050600a6040518060400160405280848152602001613146856115d1565b60a001518152509080600181540180825580915050600190039060005260206000209060020201600090919091909150600082015181600001908051906020019061319292919061419b565b5060208201518160010190805190602001906131af929190614221565b50505060006006836040516131c49190615087565b90815260200160405180910390206000015490506000600760016007805490506131ee919061558b565b815481106131ff576131fe6152cb565b5b9060005260206000200180546132149061561d565b80601f01602080910402602001604051908101604052809291908181526020018280546132409061561d565b801561328d5780601f106132625761010080835404028352916020019161328d565b820191906000526020600020905b81548152906001019060200180831161327057829003601f168201915b5050505050905080600783815481106132a9576132a86152cb565b5b9060005260206000200190805190602001906132c692919061419b565b50816006826040516132d89190615087565b90815260200160405180910390206000018190555060078054806132ff576132fe6155bf565b5b60019003818190600052602060002001600061331b919061438a565b905560086001600880549050613331919061558b565b81548110613342576133416152cb565b5b90600052602060002090600a020160088381548110613364576133636152cb565b5b90600052602060002090600a02016000820154816000015560018201816001019080546133909061561d565b61339b9291906142ab565b506002820160009054906101000a900460ff168160020160006101000a81548160ff021916908360028111156133d4576133d3614991565b5b021790555060038201548160030155600482015481600401556005820181600501908054613403929190614338565b50600682018160060190805461341a929190614338565b5060078201548160070155600882015481600801556009820160009054906101000a900460ff168160090160006101000a81548160ff0219169083600581111561346757613466614991565b5b02179055509050506008805480613481576134806155bf565b5b60019003818190600052602060002090600a02016000808201600090556001820160006134ae919061438a565b6002820160006101000a81549060ff0219169055600382016000905560048201600090556005820160006134e291906140d0565b6006820160006134f291906140d0565b600782016000905560088201600090556009820160006101000a81549060ff021916905550509055600192505050919050565b600080600090505b83518110156135a1578273ffffffffffffffffffffffffffffffffffffffff168482815181106135605761355f6152cb565b5b602002602001015173ffffffffffffffffffffffffffffffffffffffff16141561358e5760019150506135a7565b80806135999061546a565b91505061352d565b50600090505b92915050565b600080600090505b8351811015613628578273ffffffffffffffffffffffffffffffffffffffff168482815181106135e8576135e76152cb565b5b602002602001015173ffffffffffffffffffffffffffffffffffffffff161415613615578091505061362e565b80806136209061546a565b9150506135b5565b50825190505b92915050565b600080600090505b6008805490508110156136de578260405160200161365a9190615087565b6040516020818303038152906040528051906020012060088281548110613684576136836152cb565b5b90600052602060002090600a02016001016040516020016136a591906156e3565b6040516020818303038152906040528051906020012014156136cb5760019150506136e4565b80806136d69061546a565b91505061363c565b50600090505b919050565b600080600090505b600880549050811015613801578460088281548110613713576137126152cb565b5b90600052602060002090600a02016007015414801561375657508360088281548110613742576137416152cb565b5b90600052602060002090600a020160080154145b80156137df57508260405160200161376e91906158f3565b6040516020818303038152906040528051906020012060088281548110613798576137976152cb565b5b90600052602060002090600a020160090160009054906101000a900460ff166040516020016137c791906158f3565b60405160208183030381529060405280519060200120145b156137ee576001915050613807565b80806137f99061546a565b9150506136f1565b50600090505b9392505050565b60006006826040516138209190615087565b908152602001604051809103902060405180610140016040529081600082015481526020016001820180546138549061561d565b80601f01602080910402602001604051908101604052809291908181526020018280546138809061561d565b80156138cd5780601f106138a2576101008083540402835291602001916138cd565b820191906000526020600020905b8154815290600101906020018083116138b057829003601f168201915b505050505081526020016002820160009054906101000a900460ff1660028111156138fb576138fa614991565b5b600281111561390d5761390c614991565b5b81526020016003820154815260200160048201548152602001600582018054806020026020016040519081016040528092919081815260200182805480156139aa57602002820191906000526020600020905b8160009054906101000a900473ffffffffffffffffffffffffffffffffffffffff1673ffffffffffffffffffffffffffffffffffffffff1681526020019060010190808311613960575b5050505050815260200160068201805480602002602001604051908101604052809291908181526020018280548015613a3857602002820191906000526020600020905b8160009054906101000a900473ffffffffffffffffffffffffffffffffffffffff1673ffffffffffffffffffffffffffffffffffffffff16815260200190600101908083116139ee575b5050505050815260200160078201548152602001600882015481526020016009820160009054906101000a900460ff166005811115613a7a57613a79614991565b5b6005811115613a8c57613a8b614991565b5b815250509050600b6000613aa091906140d0565b60008160a001515167ffffffffffffffff811115613ac157613ac0614534565b5b604051908082528060200260200182016040528015613aef5781602001602082028036833780820191505090505b50905060005b8260a0015151811015613bee57600c60009054906101000a900473ffffffffffffffffffffffffffffffffffffffff1673ffffffffffffffffffffffffffffffffffffffff166370a082318460a001518381518110613b5757613b566152cb565b5b60200260200101516040518263ffffffff1660e01b8152600401613b7b9190615202565b602060405180830381865afa158015613b98573d6000803e3d6000fd5b505050506040513d601f19601f82011682018060405250810190613bbc9190615232565b828281518110613bcf57613bce6152cb565b5b6020026020010181815250508080613be69061546a565b915050613af5565b506000613bfa82613fc9565b905060005b8360a0015151811015613cc35781838281518110613c2057613c1f6152cb565b5b60200260200101511415613cb057600b8460a001518281518110613c4757613c466152cb565b5b60200260200101519080600181540180825580915050600190039060005260206000200160009091909190916101000a81548173ffffffffffffffffffffffffffffffffffffffff021916908373ffffffffffffffffffffffffffffffffffffffff1602179055505b8080613cbb9061546a565b915050613bff565b50600b805480602002602001604051908101604052809291908181526020018280548015613d4657602002820191906000526020600020905b8160009054906101000a900473ffffffffffffffffffffffffffffffffffffffff1673ffffffffffffffffffffffffffffffffffffffff1681526020019060010190808311613cfc575b50505050508360c00181905250600283604001906002811115613d6c57613d6b614991565b5b90816002811115613d8057613d7f614991565b5b8152505082600685604051613d959190615087565b9081526020016040518091039020600082015181600001556020820151816001019080519060200190613dc992919061419b565b5060408201518160020160006101000a81548160ff02191690836002811115613df557613df4614991565b5b0217905550606082015181600301556080820151816004015560a0820151816005019080519060200190613e2a929190614221565b5060c0820151816006019080519060200190613e47929190614221565b5060e0820151816007015561010082015181600801556101208201518160090160006101000a81548160ff02191690836005811115613e8957613e88614991565b5b0217905550905050826008600686604051613ea49190615087565b90815260200160405180910390206000015481548110613ec757613ec66152cb565b5b90600052602060002090600a0201600082015181600001556020820151816001019080519060200190613efb92919061419b565b5060408201518160020160006101000a81548160ff02191690836002811115613f2757613f26614991565b5b0217905550606082015181600301556080820151816004015560a0820151816005019080519060200190613f5c929190614221565b5060c0820151816006019080519060200190613f79929190614221565b5060e0820151816007015561010082015181600801556101208201518160090160006101000a81548160ff02191690836005811115613fbb57613fba614991565b5b021790555090505050505050565b6000806000905060005b835181101561402f5781848281518110613ff057613fef6152cb565b5b6020026020010151111561401c57838181518110614011576140106152cb565b5b602002602001015191505b80806140279061546a565b915050613fd3565b5080915050919050565b82805482825590600052602060002090810192821561407a5760005260206000209182015b8281111561407957825482559160010191906001019061405e565b5b50905061408791906143ca565b5090565b50805460008255600a02906000526020600020908101906140ac91906143e7565b50565b50805460008255906000526020600020908101906140cd919061447e565b50565b50805460008255906000526020600020908101906140ee91906143ca565b50565b60405180610140016040528060008152602001606081526020016000600281111561411f5761411e614991565b5b81526020016000815260200160008152602001606081526020016060815260200160008152602001600081526020016000600581111561416257614161614991565b5b81525090565b60405180606001604052806000600781111561418757614186614991565b5b815260200160008152602001600081525090565b8280546141a79061561d565b90600052602060002090601f0160209004810192826141c95760008555614210565b82601f106141e257805160ff1916838001178555614210565b82800160010185558215614210579182015b8281111561420f5782518255916020019190600101906141f4565b5b50905061421d91906143ca565b5090565b82805482825590600052602060002090810192821561429a579160200282015b828111156142995782518260006101000a81548173ffffffffffffffffffffffffffffffffffffffff021916908373ffffffffffffffffffffffffffffffffffffffff16021790555091602001919060010190614241565b5b5090506142a791906143ca565b5090565b8280546142b79061561d565b90600052602060002090601f0160209004810192826142d95760008555614327565b82601f106142ea5780548555614327565b8280016001018555821561432757600052602060002091601f016020900482015b8281111561432657825482559160010191906001019061430b565b5b50905061433491906143ca565b5090565b8280548282559060005260206000209081019282156143795760005260206000209182015b8281111561437857825482559160010191906001019061435d565b5b50905061438691906143ca565b5090565b5080546143969061561d565b6000825580601f106143a857506143c7565b601f0160209004906000526020600020908101906143c691906143ca565b5b50565b5b808211156143e35760008160009055506001016143cb565b5090565b5b8082111561447a57600080820160009055600182016000614409919061438a565b6002820160006101000a81549060ff02191690556003820160009055600482016000905560058201600061443d91906140d0565b60068201600061444d91906140d0565b600782016000905560088201600090556009820160006101000a81549060ff021916905550600a016143e8565b5090565b5b8082111561449e5760008181614495919061438a565b5060010161447f565b5090565b6000604051905090565b600080fd5b600080fd5b6000819050919050565b6144c9816144b6565b81146144d457600080fd5b50565b6000813590506144e6816144c0565b92915050565b600060208284031215614502576145016144ac565b5b6000614510848285016144d7565b91505092915050565b600080fd5b600080fd5b6000601f19601f8301169050919050565b7f4e487b7100000000000000000000000000000000000000000000000000000000600052604160045260246000fd5b61456c82614523565b810181811067ffffffffffffffff8211171561458b5761458a614534565b5b80604052505050565b600061459e6144a2565b90506145aa8282614563565b919050565b600067ffffffffffffffff8211156145ca576145c9614534565b5b6145d382614523565b9050602081019050919050565b82818337600083830152505050565b60006146026145fd846145af565b614594565b90508281526020810184848401111561461e5761461d61451e565b5b6146298482856145e0565b509392505050565b600082601f83011261464657614645614519565b5b81356146568482602086016145ef565b91505092915050565b600060208284031215614675576146746144ac565b5b600082013567ffffffffffffffff811115614693576146926144b1565b5b61469f84828501614631565b91505092915050565b600073ffffffffffffffffffffffffffffffffffffffff82169050919050565b60006146d3826146a8565b9050919050565b6146e3816146c8565b81146146ee57600080fd5b50565b600081359050614700816146da565b92915050565b6000806040838503121561471d5761471c6144ac565b5b600061472b858286016146f1565b925050602061473c858286016146f1565b9150509250929050565b60006020828403121561475c5761475b6144ac565b5b600061476a848285016146f1565b91505092915050565b60008115159050919050565b61478881614773565b82525050565b60006020820190506147a3600083018461477f565b92915050565b600067ffffffffffffffff8211156147c4576147c3614534565b5b602082029050602081019050919050565b600080fd5b60006147ed6147e8846147a9565b614594565b905080838252602082019050602084028301858111156148105761480f6147d5565b5b835b81811015614839578061482588826146f1565b845260208401935050602081019050614812565b5050509392505050565b600082601f83011261485857614857614519565b5b81356148688482602086016147da565b91505092915050565b600060208284031215614887576148866144ac565b5b600082013567ffffffffffffffff8111156148a5576148a46144b1565b5b6148b184828501614843565b91505092915050565b600080604083850312156148d1576148d06144ac565b5b60006148df858286016144d7565b92505060206148f0858286016144d7565b9150509250929050565b614903816144b6565b82525050565b600081519050919050565b600082825260208201905092915050565b60005b83811015614943578082015181840152602081019050614928565b83811115614952576000848401525b50505050565b600061496382614909565b61496d8185614914565b935061497d818560208601614925565b61498681614523565b840191505092915050565b7f4e487b7100000000000000000000000000000000000000000000000000000000600052602160045260246000fd5b600381106149d1576149d0614991565b5b50565b60008190506149e2826149c0565b919050565b60006149f2826149d4565b9050919050565b614a02816149e7565b82525050565b600081519050919050565b600082825260208201905092915050565b6000819050602082019050919050565b614a3d816146c8565b82525050565b6000614a4f8383614a34565b60208301905092915050565b6000602082019050919050565b6000614a7382614a08565b614a7d8185614a13565b9350614a8883614a24565b8060005b83811015614ab9578151614aa08882614a43565b9750614aab83614a5b565b925050600181019050614a8c565b5085935050505092915050565b60068110614ad757614ad6614991565b5b50565b6000819050614ae882614ac6565b919050565b6000614af882614ada565b9050919050565b614b0881614aed565b82525050565b600061014083016000830151614b2760008601826148fa565b5060208301518482036020860152614b3f8282614958565b9150506040830151614b5460408601826149f9565b506060830151614b6760608601826148fa565b506080830151614b7a60808601826148fa565b5060a083015184820360a0860152614b928282614a68565b91505060c083015184820360c0860152614bac8282614a68565b91505060e0830151614bc160e08601826148fa565b50610100830151614bd66101008601826148fa565b50610120830151614beb610120860182614aff565b508091505092915050565b60006020820190508181036000830152614c108184614b0e565b905092915050565b600081519050919050565b600082825260208201905092915050565b6000819050602082019050919050565b600061014083016000830151614c5d60008601826148fa565b5060208301518482036020860152614c758282614958565b9150506040830151614c8a60408601826149f9565b506060830151614c9d60608601826148fa565b506080830151614cb060808601826148fa565b5060a083015184820360a0860152614cc88282614a68565b91505060c083015184820360c0860152614ce28282614a68565b91505060e0830151614cf760e08601826148fa565b50610100830151614d0c6101008601826148fa565b50610120830151614d21610120860182614aff565b508091505092915050565b6000614d388383614c44565b905092915050565b6000602082019050919050565b6000614d5882614c18565b614d628185614c23565b935083602082028501614d7485614c34565b8060005b85811015614db05784840389528151614d918582614d2c565b9450614d9c83614d40565b925060208a01995050600181019050614d78565b50829750879550505050505092915050565b60006020820190508181036000830152614ddc8184614d4d565b905092915050565b60088110614df557614df4614991565b5b50565b6000819050614e0682614de4565b919050565b6000614e1682614df8565b9050919050565b614e2681614e0b565b82525050565b606082016000820151614e426000850182614e1d565b506020820151614e5560208501826148fa565b506040820151614e6860408501826148fa565b50505050565b6000606082019050614e836000830184614e2c565b92915050565b614e9281614e0b565b82525050565b614ea1816144b6565b82525050565b6000606082019050614ebc6000830186614e89565b614ec96020830185614e98565b614ed66040830184614e98565b949350505050565b60068110614eeb57600080fd5b50565b600081359050614efd81614ede565b92915050565b600080600060608486031215614f1c57614f1b6144ac565b5b6000614f2a868287016144d7565b9350506020614f3b868287016144d7565b9250506040614f4c86828701614eee565b9150509250925092565b6000602082019050614f6b6000830184614e98565b92915050565b600080600080600080600060e0888a031215614f9057614f8f6144ac565b5b600088013567ffffffffffffffff811115614fae57614fad6144b1565b5b614fba8a828b01614631565b9750506020614fcb8a828b016144d7565b9650506040614fdc8a828b016144d7565b955050606088013567ffffffffffffffff811115614ffd57614ffc6144b1565b5b6150098a828b01614843565b945050608061501a8a828b016144d7565b93505060a061502b8a828b016144d7565b92505060c061503c8a828b01614eee565b91505092959891949750929550565b600081905092915050565b600061506182614909565b61506b818561504b565b935061507b818560208601614925565b80840191505092915050565b60006150938284615056565b915081905092915050565b600082825260208201905092915050565b7f496e76616c6964204f7065726174696f6e000000000000000000000000000000600082015250565b60006150e560118361509e565b91506150f0826150af565b602082019050919050565b60006020820190508181036000830152615114816150d8565b9050919050565b7f566f74657220416c726561647920566f74656400000000000000000000000000600082015250565b600061515160138361509e565b915061515c8261511b565b602082019050919050565b6000602082019050818103600083015261518081615144565b9050919050565b7f43616e646964617465204469737175616c696669656400000000000000000000600082015250565b60006151bd60168361509e565b91506151c882615187565b602082019050919050565b600060208201905081810360008301526151ec816151b0565b9050919050565b6151fc816146c8565b82525050565b600060208201905061521760008301846151f3565b92915050565b60008151905061522c816144c0565b92915050565b600060208284031215615248576152476144ac565b5b60006152568482850161521d565b91505092915050565b7f496e73756666696369656e7420546f6b656e0000000000000000000000000000600082015250565b600061529560128361509e565b91506152a08261525f565b602082019050919050565b600060208201905081810360008301526152c481615288565b9050919050565b7f4e487b7100000000000000000000000000000000000000000000000000000000600052603260045260246000fd5b6000819050919050565b6000819050919050565b600061532961532461531f846152fa565b615304565b6144b6565b9050919050565b6153398161530e565b82525050565b600060608201905061535460008301866151f3565b61536160208301856151f3565b61536e6040830184615330565b949350505050565b61537f81614773565b811461538a57600080fd5b50565b60008151905061539c81615376565b92915050565b6000602082840312156153b8576153b76144ac565b5b60006153c68482850161538d565b91505092915050565b7f496e76616c696420506861736500000000000000000000000000000000000000600082015250565b6000615405600d8361509e565b9150615410826153cf565b602082019050919050565b60006020820190508181036000830152615434816153f8565b9050919050565b7f4e487b7100000000000000000000000000000000000000000000000000000000600052601160045260246000fd5b6000615475826144b6565b91507fffffffffffffffffffffffffffffffffffffffffffffffffffffffffffffffff8214156154a8576154a761543b565b5b600182019050919050565b7f436f756c646e277420566f746500000000000000000000000000000000000000600082015250565b60006154e9600d8361509e565b91506154f4826154b3565b602082019050919050565b60006020820190508181036000830152615518816154dc565b9050919050565b7f43616e64696461746520616c726561647920626c61636b6c6973746564000000600082015250565b6000615555601d8361509e565b91506155608261551f565b602082019050919050565b6000602082019050818103600083015261558481615548565b9050919050565b6000615596826144b6565b91506155a1836144b6565b9250828210156155b4576155b361543b565b5b828203905092915050565b7f4e487b7100000000000000000000000000000000000000000000000000000000600052603160045260246000fd5b7f4e487b7100000000000000000000000000000000000000000000000000000000600052602260045260246000fd5b6000600282049050600182168061563557607f821691505b60208210811415615649576156486155ee565b5b50919050565b60008190508160005260206000209050919050565b600081546156718161561d565b61567b818661504b565b9450600182166000811461569657600181146156a7576156da565b60ff198316865281860193506156da565b6156b08561564f565b60005b838110156156d2578154818901526001820191506020810190506156b3565b838801955050505b50505092915050565b60006156ef8284615664565b915081905092915050565b600060408201905061570f60008301856151f3565b61571c6020830184615330565b9392505050565b600061572e826144b6565b9150615739836144b6565b9250827fffffffffffffffffffffffffffffffffffffffffffffffffffffffffffffffff0382111561576e5761576d61543b565b5b828201905092915050565b7f456c656374696f6e206e6f7420666f756e640000000000000000000000000000600082015250565b60006157af60128361509e565b91506157ba82615779565b602082019050919050565b600060208201905081810360008301526157de816157a2565b9050919050565b7f456c656374696f6e20416c726561647920457869737473000000000000000000600082015250565b600061581b60178361509e565b9150615826826157e5565b602082019050919050565b6000602082019050818103600083015261584a8161580e565b9050919050565b7f456c656374696f6e20446f6573204e6f74204578697374000000000000000000600082015250565b600061588760178361509e565b915061589282615851565b602082019050919050565b600060208201905081810360008301526158b68161587a565b9050919050565b60008160f81b9050919050565b60006158d5826158bd565b9050919050565b6158ed6158e882614aed565b6158ca565b82525050565b60006158ff82846158dc565b6001820191508190509291505056fea26469706673582212209894b4ca58bcf2c32d214395376c4f81432ed4613cbdffb1af160709df7bfde064736f6c634300080a0033",
  "immutableReferences": {
    "1034": [
      {
        "length": 32,
        "start": 863
      },
      {
        "length": 32,
        "start": 964
      },
      {
        "length": 32,
        "start": 1129
      },
      {
        "length": 32,
        "start": 1272
      },
      {
        "length": 32,
        "start": 1360
      },
      {
        "length": 32,
        "start": 2850
      },
      {
        "length": 32,
        "start": 4227
      },
      {
        "length": 32,
        "start": 4680
      },
      {
        "length": 32,
        "start": 4845
      },
      {
        "length": 32,
        "start": 5441
      },
      {
        "length": 32,
        "start": 7844
      },
      {
        "length": 32,
        "start": 8193
      },
      {
        "length": 32,
        "start": 12094
      }
    ]
  },
  "source": "// SPDX-License-Identifier: MIT\npragma solidity ^0.8.9;\n\n// import \"./Candidate.sol\";\n// import \"./Voter.sol\";\nimport \"./AAiTVoteToken.sol\";\n\n// import \"./AAiTStudent.sol\";\n// import \"./AAiTElectionHandler.sol\";\n\nlibrary AAiTElectionLibrary {\n    function contains(address[] memory array, address value)\n        internal\n        pure\n        returns (bool)\n    {\n        for (uint256 i = 0; i < array.length; i++) {\n            if (array[i] == value) {\n                return true;\n            }\n        }\n        return false;\n    }\n\n    function indexOf(address[] memory array, address value)\n        internal\n        pure\n        returns (uint256)\n    {\n        for (uint256 i = 0; i < array.length; i++) {\n            if (array[i] == value) {\n                return i;\n            }\n        }\n        return array.length;\n    }\n\n    function findLargest(uint256[] memory array)\n        internal\n        pure\n        returns (uint256)\n    {\n        uint256 largest = 0;\n        for (uint256 i = 0; i < array.length; i++) {\n            if (array[i] > largest) {\n                largest = array[i];\n            }\n        }\n        return largest;\n    }\n\n    // function bytes32ToString(bytes32 _bytes32)\n    //     internal\n    //     pure\n    //     returns (string memory)\n    // {\n    //     uint8 i = 0;\n    //     while (i < 32 && _bytes32[i] != 0) {\n    //         i++;\n    //     }\n    //     bytes memory bytesArray = new bytes(i);\n    //     for (i = 0; i < 32 && _bytes32[i] != 0; i++) {\n    //         bytesArray[i] = _bytes32[i];\n    //     }\n    //     return string(bytesArray);\n    // }\n}\n\ncontract AAiTElection {\n    enum DEPTARTMENT_TYPE {\n        BIOMED,\n        CHEMICAL,\n        CIVIL,\n        ELEC,\n        MECHANICAL,\n        SITE\n    }\n    enum ELECTION_TYPE {\n        PENDING,\n        ONGOING,\n        COMPLETED\n    }\n    enum PHASE_NAME {\n        REGISTRATION,\n        REGISTRATION_BREAK,\n        SECTION_ELECTION,\n        SECTION_ELECTION_BREAK,\n        BATCH_ELECTION,\n        BATCH_ELECTION_BREAK,\n        DEPARTMENT_ELECTION,\n        COMPLETED\n    }\n    string[] private deptTypes = [\n        \"Biomedical Engineering\",\n        \"Chemical Engineering\",\n        \"Civil Engineering\",\n        \"Electrical Engineering\",\n        \"Mechanical Engineering\",\n        \"Software Engineering\"\n    ];\n\n    struct ElectionStruct {\n        uint256 index;\n        string name;\n        ELECTION_TYPE status;\n        uint256 startDate;\n        uint256 endDate;\n        address[] candidates;\n        address[] winners;\n        uint256 year;\n        uint256 section;\n        DEPTARTMENT_TYPE department;\n    }\n    struct ElectionPhase {\n        PHASE_NAME phaseName;\n        uint256 start;\n        uint256 end;\n    }\n\n    ElectionPhase public phase;\n\n    event LogCurrentElectionPhase(string currentPhase);\n\n    struct ElectionResultStruct {\n        string electionName;\n        // string candidateFullName;\n        // string candidateLName;\n        // string candidateGName;\n        address[] candidateAddress;\n        // uint256 votes;\n    }\n\n    address private immutable owner;\n    address[] private voted;\n    address[] private blacklist;\n\n    // address private AAiTVoteTokenAddress;\n    // address private AAiTStudentAddress;\n    // address private AAiTElectionTimerAddress;\n\n    mapping(string => ElectionStruct) private electionStructsMapping;\n    string[] private electionIndex;\n    ElectionStruct[] private electionValue;\n    ElectionStruct[] private completedElections;\n    ElectionResultStruct[] private completedElectionResults;\n    address[] tempWinners;\n\n    // AAiTElectionHandler electionHandler;\n    // AAiTElectionTimer electionTimer;\n    // AAiTStudent student;\n    AAiTVoteToken voteToken;\n\n    // event LogNewElection(\n    //     uint256 index,\n    //     string name,\n    //     ELECTION_TYPE status,\n    //     string startDate,\n    //     string endDate,\n    //     address[] candidates,\n    //     address[] winners,\n    //     address[] voters,\n    //     address[] voted,\n    //     uint256 year,\n    //     uint256 section,\n    //     DEPTARTMENT_TYPE department\n    // );\n    // event LogUpdateElection(\n    //     uint256 index,\n    //     string name,\n    //     ELECTION_TYPE status,\n    //     string startDate,\n    //     string endDate,\n    //     address[] candidates,\n    //     address[] winners,\n    //     address[] voters,\n    //     address[] voted,\n    //     uint256 year,\n    //     uint256 section,\n    //     DEPTARTMENT_TYPE department\n    // );\n\n    modifier onlyOwner() {\n        require(msg.sender == owner);\n        _;\n    }\n\n    constructor(\n        address _AAiTVoteTokenAddress // address _AAiTStudentAddress, // address _AAiTElectionTimerAddress\n    ) {\n        owner = msg.sender;\n        // AAiTVoteTokenAddress = _AAiTVoteTokenAddress;\n        // AAiTStudentAddress = _AAiTStudentAddress;\n        // AAiTElectionTimerAddress = _AAiTElectionTimerAddress;\n        // electionHandler = AAiTElectionHandler(AAiTElectionHandlerAddress);\n        // electionTimer = AAiTElectionTimer(_AAiTElectionTimerAddress);\n        // student = AAiTStudent(_AAiTStudentAddress);\n        voteToken = AAiTVoteToken(_AAiTVoteTokenAddress);\n        phase = ElectionPhase(PHASE_NAME.COMPLETED, 0, 0);\n    }\n\n    //  REGISTRATION,\n    //     REGISTRATION_BREAK,\n    //     SECTION_ELECTION,\n    //     // SECTION_ELECTION_DONE,\n    //     SECTION_ELECTION_BREAK,\n    //     BATCH_ELECTION,\n    //     BATCH_ELECTION_BREAK,\n    //     // BATCH_ELECTION_DONE,\n    //     DEPARTMENT_ELECTION,\n    //     // DEPARTMENT_ELECTION_DONE,\n    //     COMPLETED\n\n    // function changeVal(string memory _newVal) internal {\n    //     require(msg.sender == owner, \"Only the owner can change the value\");\n    //     val = _newVal;\n    //     // IERC20(token).transferFrom(msg.sender, address(this), amount);\n    // }\n\n    // function getPhaseEnd() public view returns (uint256) {\n    //     return end;\n    // }\n\n    // function startTimer(uint256 _votingDuration, uint256 _breakDuration)\n    //     public\n    //     onlyOwner\n    // {\n    //     if (phase.phaseName == PHASE_NAME.COMPLETED) {\n    //         votingDuration = _votingDuration;\n    //         breakDuration = _breakDuration;\n    //         phase = ElectionPhase(\n    //             PHASE_NAME.REGISTRATION,\n    //             block.timestamp,\n    //             block.timestamp + votingDuration\n    //         );\n    //     }\n    // }\n\n    // function stopTimer() public onlyOwner {\n    //     phase = ElectionPhase(PHASE_NAME.COMPLETED, 0, 0);\n    // }\nfunction getCurrentPhase() public view returns (ElectionPhase memory) {\n        return phase;\n    }\n    function changePhase(uint256 startDate, uint256 endDate) public onlyOwner {\n        // require(msg.sender == owner, \"Only the owner can change the phase\");\n\n        if (phase.phaseName == PHASE_NAME.DEPARTMENT_ELECTION) {\n            phase = ElectionPhase(PHASE_NAME.COMPLETED, 0, 0);\n            // changeVal(\"unos\");\n            return;\n        } else if (phase.phaseName == PHASE_NAME.COMPLETED) {\n            phase = ElectionPhase(\n                PHASE_NAME.REGISTRATION,\n                startDate,\n                endDate\n            );\n            return;\n        }\n        // return uint(phase.phaseName)+1;\n        phase.phaseName = PHASE_NAME(uint256(phase.phaseName) + 1);\n        // phase.phaseName = PHASE_NAME.REGISTRATION_BREAK;\n        phase.start = startDate;\n        // phase.end = block.timestamp + _newEnd;\n        phase.end = endDate;\n    }\n\n    function getRemainingTime() external view returns (uint256) {\n        if (phase.phaseName == PHASE_NAME.COMPLETED) {\n            return 0;\n        }\n        return phase.end - block.timestamp;\n    }\n\n    // ELECTION FUNCTIONS\n\n    function findElectionByName(string memory _name)\n        private\n        view\n        returns (bool)\n    {\n        for (uint256 i = 0; i < electionValue.length; i++) {\n            if (\n                keccak256(abi.encodePacked(electionValue[i].name)) ==\n                keccak256(abi.encodePacked(_name))\n            ) {\n                return true;\n            }\n        }\n        return false;\n    }\n\n    function findElectionByType(\n        uint256 year,\n        uint256 section,\n        DEPTARTMENT_TYPE department\n    ) private view returns (bool) {\n        for (uint256 i = 0; i < electionValue.length; i++) {\n            if (\n                electionValue[i].year == year &&\n                electionValue[i].section == section &&\n                keccak256(abi.encodePacked(electionValue[i].department)) ==\n                keccak256(abi.encodePacked(department))\n            ) {\n                return true;\n            }\n        }\n        return false;\n    }\n\n    // function addElection(\n    //     string memory name,\n    //     ELECTION_TYPE status,\n    //     string memory startDate,\n    //     string memory endDate,\n    //     address[] memory candidates,\n    //     address[] memory voters,\n    //     uint256 year,\n    //     uint256 section,\n    //     DEPTARTMENT_TYPE department\n    // ) public {\n    //     require(\n    //         !findElectionByName(name) ||\n    //             !findElectionByType(year, section, department),\n    //         \"exists\"\n    //     );\n\n    //     uint256 index = allElections.length;\n    //     address[] memory empty;\n    //     electionStructsMapping[name] = ElectionStruct(\n    //         allElections.length,\n    //         name,\n    //         status,\n    //         startDate,\n    //         endDate,\n    //         candidates,\n    //         empty,\n    //         voters,\n    //         empty,\n    //         year,\n    //         section,\n    //         department\n    //     );\n    //     allElections.push(\n    //         ElectionStruct({\n    //             index: allElections.length,\n    //             name: name,\n    //             status: status,\n    //             startDate: startDate,\n    //             endDate: endDate,\n    //             candidates: candidates,\n    //             winners: empty,\n    //             voters: voters,\n    //             voted: empty,\n    //             year: year,\n    //             section: section,\n    //             department: department\n    //         })\n    //     );\n    // }\n\n    // function setElectionHandler(address _AAiTElectionHandlerAddress)\n    //     public\n    //     onlyOwner\n    // {\n    //     electionHandler = AAiTElectionHandler(_AAiTElectionHandlerAddress);\n    // }\n\n    function createElection(\n        string memory name,\n        uint256 startDate,\n        uint256 endDate,\n        address[] memory candidates,\n        uint256 year,\n        uint256 section,\n        DEPTARTMENT_TYPE department\n    ) external {\n        address[] memory empty;\n        // electionStructsMapping[name].name =\n\n        require(\n            !findElectionByName(name) &&\n                !findElectionByType(year, section, department),\n            \"Election Already Exists\"\n        );\n        electionIndex.push(name);\n        ElectionStruct memory tempElection = ElectionStruct(\n            electionIndex.length - 1,\n            name,\n            ELECTION_TYPE.ONGOING,\n            startDate,\n            endDate,\n            candidates,\n            empty,\n            year,\n            section,\n            department\n        );\n        electionStructsMapping[name] = tempElection;\n        electionValue.push(tempElection);\n        // emit LogNewElection(electionStruct);\n\n        // return electionStruct;\n        // revert(\"Invalid Operation\");\n        // return true;\n    }\n\n    // function retrieveElections() public {\n    //     // allElections = ;\n    //     delete allElections;\n    //     delete electionIndex;\n    //     delete electionValue;\n    //     // delete electionStructsMapping;\n    //     ElectionStruct[] memory temp = electionHandler.getPendingElections();\n    //     for (uint256 i = 0; i < temp.length; i++) {\n    //         electionStructsMapping[temp[i].name] = temp[i];\n    //         allElections.push(temp[i]);\n    //         electionIndex.push(temp[i].name);\n    //         electionValue.push(temp[i]);\n    //         // electionStructsMapping[allElections[i].name] = allElections[i];\n    //         // electionIndex.push(allElections[i].name);\n    //         // electionValue.push(allElections[i]);\n    //     }\n    // }\n\n    // function removeElection(string memory name) internal onlyOwner {\n    //     require(findElectionByName(name), \"No Election\");\n    // uint256 rowToDelete = electionStructsMapping[name].index;\n    // // string memory keyToMove = electionIndex[electionIndex.length - 1];\n    // electionIndex[electionStructsMapping[name].index] = electionIndex[\n    //     electionIndex.length - 1\n    // ];\n    // electionStructsMapping[electionIndex[electionIndex.length - 1]]\n    //     .index = electionStructsMapping[name].index;\n\n    // electionValue[electionStructsMapping[name].index] = electionValue[\n    //     electionValue.length - 1\n    // ];\n    // electionValue[electionStructsMapping[name].index]\n    //     .index = electionStructsMapping[name].index;\n    // electionValue.pop();\n    // electionIndex.pop();\n    // delete allElections[electionStructsMapping[name].index];\n    // previousElections.push(\n    //     electionStructsMapping[electionIndex[electionIndex.length - 1]]\n    // );\n    // delete electionStructsMapping[electionIndex[electionIndex.length - 1]];\n    // }\n\n    function vote(address voterAddress, address candidateAddress)\n        public\n        onlyOwner\n    {\n        // AAiTVoteToken tempToken = AAiTVoteToken(AAiTVoteTokenAddress);\n        // AAiTStudent student = AAiTStudent(AAiTStudentAddress);\n        // AAiTStudent.VoterStruct memory tempVoter = student.getVoter(\n        //     voterAddress\n        // );\n        require(\n            voterAddress != candidateAddress &&\n                voterAddress != owner &&\n                candidateAddress != owner,\n            \"Invalid Operation\"\n        );\n        require(\n            !AAiTElectionLibrary.contains(voted, voterAddress),\n            \"Voter Already Voted\"\n        );\n        require(\n            !AAiTElectionLibrary.contains(blacklist, candidateAddress),\n            \"Candidate Disqualified\"\n        );\n        // require()\n\n        require(voteToken.balanceOf(voterAddress) > 0, \"Insufficient Token\");\n\n        for (uint256 i = 0; i < electionValue.length; i++) {\n            if (\n                AAiTElectionLibrary.contains(\n                    electionValue[i].candidates,\n                    candidateAddress\n                )\n            ) {\n                if (electionValue[i].status == ELECTION_TYPE.ONGOING) {\n                    voteToken.transferFrom(voterAddress, candidateAddress, 1);\n\n                    voted.push(voterAddress);\n                    return;\n                } else {\n                    revert(\"Invalid Phase\");\n                }\n            }\n            continue;\n        }\n\n        revert(\"Couldn't Vote\");\n\n        // require(\n        //     ,\n        //     \"You have already voted\"\n        // );\n        // moveToVoted(\n        //     voterAddress,\n        //     getElectionByType(\n        //         tempVoter.voterInfo.voterInfo.currentYear,\n        //         tempVoter.voterInfo.voterInfo.currentSection,\n        //         DEPTARTMENT_TYPE(\n        //             uint256(tempVoter.voterInfo.voterInfo.currentDepartment)\n        //         )\n        //     ).name\n        // // );\n        // string memory tempName = getElectionByType(\n        //     tempVoter.voterInfo.voterInfo.currentYear,\n        //     tempVoter.voterInfo.voterInfo.currentSection,\n        //     DEPTARTMENT_TYPE(\n        //         uint256(tempVoter.voterInfo.voterInfo.currentDepartment)\n        //     )\n        // ).name;\n\n        // // electionStructsMapping[tempName].voted.push(voterAddress);\n        // delete electionStructsMapping[electionName].voters[index];\n        // uint256 index = electionStructsMapping[electionName].index;\n        // electionValue[electionStructsMapping[tempName].index]\n        //     .voted = electionStructsMapping[tempName].voted;\n        // allElections[electionStructsMapping[tempName].index]\n        //     .voted = electionStructsMapping[tempName].voted;\n    }\n\n    function extendPhase(uint256 endDate)\n        external\n        onlyOwner\n    {\n        phase.end = endDate;\n        // electionStructsMapping[electionName].endDate =\n        //     block.timestamp +\n        //     duration;\n        // electionValue[electionStructsMapping[electionName].index]\n        //     .endDate = electionStructsMapping[electionName].endDate;\n\n    }\n\n    function pauseElection(string memory electionName) external onlyOwner {\n        electionStructsMapping[electionName].status = ELECTION_TYPE.PENDING;\n    }\n\n    function continueElection(string memory electionName) external onlyOwner {\n        electionStructsMapping[electionName].status = ELECTION_TYPE.ONGOING;\n    }\n\n    function endElection(string memory electionName)\n        external\n        onlyOwner\n        returns (bool)\n    {\n        // electionStructsMapping[electionName].status = ELECTION_TYPE.ENDED;\n        // electionValue[electionStructsMapping[electionName].index]\n        //     .status = ELECTION_TYPE.ENDED;\n        require(findElectionByName(electionName), \"Election Does Not Exist\");\n        declareWinner(electionName);\n        completedElections.push(electionStructsMapping[electionName]);\n        completedElectionResults.push(\n            ElectionResultStruct(\n                electionName,\n                getElectionByName(electionName).candidates\n            )\n        );\n        uint256 rowToDelete = electionStructsMapping[electionName].index;\n        string memory keyToMove = electionIndex[electionIndex.length - 1];\n        electionIndex[rowToDelete] = keyToMove;\n        electionStructsMapping[keyToMove].index = rowToDelete;\n        electionIndex.pop();\n        electionValue[rowToDelete] = electionValue[electionValue.length - 1];\n        electionValue.pop();\n        return true;\n    }\n\n    function removeAllCompletedElections() external onlyOwner {\n        delete completedElections;\n        // delete electionStructsMapping;\n        delete electionValue;\n        delete electionIndex;\n        delete voted;\n    }\n\n    function declareWinner(string memory electionName) internal {\n        // AAiTVoteToken tempToken = AAiTVoteToken(AAiTVoteTokenAddress);\n        ElectionStruct memory temp = electionStructsMapping[electionName];\n        delete tempWinners;\n        uint256[] memory tempVoteCount = new uint256[](temp.candidates.length);\n        for (uint256 i = 0; i < temp.candidates.length; i++) {\n            tempVoteCount[i] = voteToken.balanceOf(temp.candidates[i]);\n            // tempVoteCount.push(tempToken.balanceOf(temp.candidates[i]));\n        }\n        uint256 max = AAiTElectionLibrary.findLargest(tempVoteCount);\n        for (uint256 i = 0; i < temp.candidates.length; i++) {\n            if (tempVoteCount[i] == max) {\n                // winners[i] = temp.candidates[i];\n                tempWinners.push(temp.candidates[i]);\n            }\n        }\n\n        temp.winners = tempWinners;\n        temp.status = ELECTION_TYPE.COMPLETED;\n\n        electionStructsMapping[electionName] = temp;\n        electionValue[electionStructsMapping[electionName].index] = temp;\n        // allElections[electionStructsMapping[electionName].index] = temp;\n\n        // sort candidates\n        // uint256[] memory sortedCandidates = temp.candidates;\n\n        // removeElection(electionName);\n\n        // uint256 index = electionStructsMapping[electionName].index;\n        // uint256 winnerIndex = electionStructsMapping[electionName].winners.length;\n        // electionStructsMapping[electionName].winners.push(electionStructsMapping[electionName].candidates[winnerIndex]);\n    }\n\n    function blacklistCandidate(address candidateAddress)\n        public\n        onlyOwner\n        returns (bool)\n    {\n        // AAiTStudent student = AAiTStudent(AAiTStudentAddress);\n        // AAiTStudent.CandidateStruct memory tempCandidate = student.getCandidate(\n        //     candidateAddress\n        // );\n        // ElectionStruct[] memory tempElection = allElections;\n        require(\n            !AAiTElectionLibrary.contains(blacklist, candidateAddress),\n            \"Candidate already blacklisted\"\n        );\n        for (uint256 i = 0; i < electionValue.length; i++) {\n            if (\n                AAiTElectionLibrary.contains(\n                    electionValue[i].candidates,\n                    candidateAddress\n                )\n            ) {\n                uint256 index = AAiTElectionLibrary.indexOf(\n                    electionValue[i].candidates,\n                    candidateAddress\n                );\n\n                // require(index < electionValue[i].candidates.length);\n                electionValue[i].candidates[index] = electionValue[i]\n                    .candidates[electionValue[i].candidates.length - 1];\n                electionValue[i].candidates.pop();\n                electionStructsMapping[electionValue[i].name]\n                    .candidates = electionValue[i].candidates;\n\n                // student.removeCandidate(\n                //     // tempCandidate.candidateInfo.candidateInfo.fName,\n                //     // tempCandidate.candidateInfo.candidateInfo.lName,\n                //     // tempCandidate.candidateInfo.candidateInfo.gName,\n                //     candidateAddress\n                // );\n\n                blacklist.push(candidateAddress);\n                return true;\n            }\n        }\n        revert(\"Invalid Operation\");\n    }\n\n    function burnAllTokens(address[] memory users) public onlyOwner {\n        // AAiTVoteToken tempToken = AAiTVoteToken(AAiTVoteTokenAddress);\n        // AAiTStudent tempStudent = AAiTStudent(AAiTStudentAddress);\n        // AAiTStudent.CandidateStruct[] memory tempCandidate = student\n        //     .getAllCandidates();\n        // AAiTStudent.VoterStruct[] memory tempVoter = student.getAllVoters();\n        for (uint256 i = 0; i < users.length; i++) {\n            voteToken.burn(users[i]);\n        }\n\n        voteToken.burn(owner);\n        // temp.burnRemainingTokens(owner);\n    }\n\n    function mintAndSendTokens(address[] memory voters) public onlyOwner {\n        // AAiTVoteToken tempToken = AAiTVoteToken(AAiTVoteTokenAddress);\n        // AAiTStudent tempStudent = AAiTStudent(AAiTStudentAddress);\n        // AAiTStudent.VoterStruct[] memory tempVoters = student.getAllVoters();\n        // uint256 totalTokenCount = tempVoters.length;\n        voteToken.mint(voters.length);\n        for (uint256 i = 0; i < voters.length; i++) {\n            voteToken.transfer(voters[i], 1);\n        }\n    }\n\n    // function endElection(string memory electionName) public onlyOwner {\n    //     declareWinner(electionName);\n    //     removeElection(electionName);\n    // }\n\n    // function getElectionResult(string memory electionName)\n    //     public\n    //     view\n    //     returns (ElectionResultStruct[] memory)\n    // {\n    //     // ElectionStruct memory temp = electionStructsMapping[electionName];\n    //     ElectionResultStruct[] memory result = new ElectionResultStruct[](\n    //         electionStructsMapping[electionName].candidates.length\n    //     );\n    //     // AAiTVoteToken tempToken = AAiTVoteToken(AAiTVoteTokenAddress);\n    //     // AAiTStudent student = AAiTStudent(AAiTStudentAddress);\n\n    //     for (\n    //         uint256 i = 0;\n    //         i < electionStructsMapping[electionName].candidates.length;\n    //         i++\n    //     ) {\n    //         AAiTStudent.CandidateStruct memory tempCandidate = student\n    //             .getCandidate(\n    //                 electionStructsMapping[electionName].candidates[i]\n    //             );\n    //         ElectionResultStruct memory tempResult = ElectionResultStruct(\n    //             tempCandidate.candidateInfo.candidateInfo.fullName,\n    //             // tempCandidate.candidateInfo.candidateInfo.lName,\n    //             // tempCandidate.candidateInfo.candidateInfo.gName,\n    //             electionStructsMapping[electionName].candidates[i],\n    //             voteToken.balanceOf(\n    //                 electionStructsMapping[electionName].candidates[i]\n    //             )\n    //         );\n    //         result[i] = tempResult;\n    //     }\n    //     return result;\n    // }\n\n    // function goToNextPhase() public onlyOwner {\n    //     AAiTElectionTimer.ElectionPhase memory tempPhase = electionTimer\n    //         .getCurrentPhase();\n    //     if (tempPhase.phaseName == AAiTElectionTimer.PHASE_NAME.REGISTRATION) {\n    //         electionTimer.changePhase();\n    //         // electionTimer.goToNextPhase();\n    //     } else if (\n    //         tempPhase.phaseName ==\n    //         AAiTElectionTimer.PHASE_NAME.REGISTRATION_BREAK\n    //     ) {\n    //         electionTimer.changePhase();\n    //         // electionHandler.generateElectionsPerPhase();\n    //         // retrieveElections();\n    //         // electionHandler.mintAndSendTokens();\n    //     } else if (\n    //         tempPhase.phaseName == AAiTElectionTimer.PHASE_NAME.SECTION_ELECTION\n    //     ) {\n    //         electionTimer.changePhase();\n    //         electionHandler.endAllOngoingElections();\n    //         electionHandler.burnAllTokens();\n    //     } else if (\n    //         tempPhase.phaseName ==\n    //         AAiTElectionTimer.PHASE_NAME.SECTION_ELECTION_BREAK\n    //     ) {\n    //         electionTimer.changePhase();\n    //         retrieveElections();\n    //         electionHandler.mintAndSendTokens();\n    //     } else if (\n    //         tempPhase.phaseName == AAiTElectionTimer.PHASE_NAME.BATCH_ELECTION\n    //     ) {\n    //         electionTimer.changePhase();\n    //         electionHandler.endAllOngoingElections();\n    //         electionHandler.burnAllTokens();\n    //     } else if (\n    //         tempPhase.phaseName ==\n    //         AAiTElectionTimer.PHASE_NAME.BATCH_ELECTION_BREAK\n    //     ) {\n    //         electionTimer.changePhase();\n    //         retrieveElections();\n    //         electionHandler.mintAndSendTokens();\n    //     } else if (\n    //         tempPhase.phaseName ==\n    //         AAiTElectionTimer.PHASE_NAME.DEPARTMENT_ELECTION\n    //     ) {\n    //         electionTimer.changePhase();\n    //         electionHandler.endAllOngoingElections();\n    //         electionHandler.burnAllTokens();\n    //     } else if (\n    //         tempPhase.phaseName == AAiTElectionTimer.PHASE_NAME.COMPLETED\n    //     ) {\n    //         electionTimer.changePhase();\n    //     } else {\n    //         revert(\"Invalid Operation\");\n    //     }\n    // }\n\n    // function moveToVoted(address voterAddress, string memory electionName)\n    //     private\n    // {\n    //     // uint256 index = electionStructsMapping[electionName].index;\n\n    //     electionStructsMapping[electionName].voted.push(voterAddress);\n    //     // delete electionStructsMapping[electionName].voters[index];\n    //     // uint256 index = electionStructsMapping[electionName].index;\n    //     electionValue[electionStructsMapping[electionName].index]\n    //         .voted = electionStructsMapping[electionName].voted;\n    //     // emit LogUpdateElection(\n    //     //     index,\n    //     //     electionStructsMapping[electionName].name,\n    //     //     electionStructsMapping[electionName].status,\n    //     //     electionStructsMapping[electionName].startDate,\n    //     //     electionStructsMapping[electionName].endDate,\n    //     //     electionStructsMapping[electionName].candidates,\n    //     //     electionStructsMapping[electionName].winners,\n    //     //     electionStructsMapping[electionName].voters,\n    //     //     electionStructsMapping[electionName].voted,\n    //     //     electionStructsMapping[electionName].year,\n    //     //     electionStructsMapping[electionName].section,\n    //     //     electionStructsMapping[electionName].department\n    //     // );\n    // }\n\n    // GET FUNCTIONS\n\n    function getAllCurrentElections()\n        public\n        view\n        returns (ElectionStruct[] memory)\n    {\n        return electionValue;\n    }\n\n    function getAllCompletedElections()\n        public\n        view\n        returns (ElectionStruct[] memory)\n    {\n        return completedElections;\n    }\n\n    function getElectionByName(string memory electionName)\n        public\n        view\n        returns (ElectionStruct memory)\n    {\n        require(findElectionByName(electionName), \"Election not found\");\n        return electionStructsMapping[electionName];\n    }\n\n    function getElectionByType(\n        uint256 year,\n        uint256 section,\n        DEPTARTMENT_TYPE department\n    ) public view returns (ElectionStruct memory result) {\n        require(\n            findElectionByType(year, section, department),\n            \"Election not found\"\n        );\n        // AAiTElectionTimer electionTimer = AAiTElectionTimer(\n        //     AAiTElectionTimerAddress\n        // );\n        // AAiTElection tempElection = AAiTElection(AAiTElectionAddress);\n        // AAiTElection.ElectionStruct[] memory allElections = tempElection\n        //     .getAllElections();\n        // ElectionPhase memory phase = getCurrentPhase();\n        if (\n            phase.phaseName == PHASE_NAME.DEPARTMENT_ELECTION\n            // ||\n            // phase.phaseName ==\n            // PHASE_NAME.DEPARTMENT_ELECTION_DONE\n        ) {\n            for (uint256 i = 0; i < electionValue.length; i++) {\n                if (electionValue[i].department == department) {\n                    return electionValue[i];\n                }\n            }\n        } else if (\n            phase.phaseName == PHASE_NAME.BATCH_ELECTION\n            // ||\n            // phase.phaseName ==\n            // PHASE_NAME.BATCH_ELECTION_DONE\n        ) {\n            for (uint256 i = 0; i < electionValue.length; i++) {\n                if (\n                    electionValue[i].department == department &&\n                    electionValue[i].year == year\n                ) {\n                    return electionValue[i];\n                }\n            }\n        } else if (\n            phase.phaseName == PHASE_NAME.SECTION_ELECTION\n            // ||\n            // phase.phaseName ==\n            // PHASE_NAME.SECTION_ELECTION_DONE\n        ) {\n            for (uint256 i = 0; i < electionValue.length; i++) {\n                if (\n                    electionValue[i].department == department &&\n                    electionValue[i].year == year &&\n                    electionValue[i].section == section\n                ) {\n                    return electionValue[i];\n                }\n            }\n        } else {\n            revert(\"Invalid Operation\");\n        }\n    }\n}\n",
  "sourcePath": "/home/dannyterefe/Documents/VSCode_Projects/Final_Project/authStateMukera/final-project-updated/dvbst_smart_contracts/contracts/AAiTElection.sol",
  "compiler": {
    "name": "solc",
    "version": "0.8.10+commit.fc410830.Emscripten.clang"
  },
  "schemaVersion": "3.4.4",
  "updatedAt": "2022-06-19T20:54:51.160Z",
  "networkType": "ethereum",
  "devdoc": {
    "kind": "dev",
    "methods": {},
    "version": 1
  },
  "userdoc": {
    "kind": "user",
    "methods": {},
    "version": 1
  }
}