{
  "contractName": "AAiTElection",
  "abi": [
    {
      "inputs": [
        {
          "internalType": "address",
          "name": "_AAiTVoteTokenAddress",
          "type": "address"
        }
      ],
      "stateMutability": "nonpayable",
      "type": "constructor"
    },
    {
      "anonymous": false,
      "inputs": [
        {
          "indexed": false,
          "internalType": "string",
          "name": "currentPhase",
          "type": "string"
        }
      ],
      "name": "LogCurrentElectionPhase",
      "type": "event"
    },
    {
      "inputs": [],
      "name": "phase",
      "outputs": [
        {
          "internalType": "enum AAiTElection.PHASE_NAME",
          "name": "phaseName",
          "type": "uint8"
        },
        {
          "internalType": "uint256",
          "name": "start",
          "type": "uint256"
        },
        {
          "internalType": "uint256",
          "name": "end",
          "type": "uint256"
        }
      ],
      "stateMutability": "view",
      "type": "function",
      "constant": true
    },
    {
      "inputs": [],
      "name": "getCurrentPhase",
      "outputs": [
        {
          "components": [
            {
              "internalType": "enum AAiTElection.PHASE_NAME",
              "name": "phaseName",
              "type": "uint8"
            },
            {
              "internalType": "uint256",
              "name": "start",
              "type": "uint256"
            },
            {
              "internalType": "uint256",
              "name": "end",
              "type": "uint256"
            }
          ],
          "internalType": "struct AAiTElection.ElectionPhase",
          "name": "",
          "type": "tuple"
        }
      ],
      "stateMutability": "view",
      "type": "function",
      "constant": true
    },
    {
      "inputs": [
        {
          "internalType": "uint256",
          "name": "startDate",
          "type": "uint256"
        },
        {
          "internalType": "uint256",
          "name": "endDate",
          "type": "uint256"
        }
      ],
      "name": "changePhase",
      "outputs": [],
      "stateMutability": "nonpayable",
      "type": "function"
    },
    {
      "inputs": [
        {
          "internalType": "string",
          "name": "name",
          "type": "string"
        },
        {
          "internalType": "uint256",
          "name": "startDate",
          "type": "uint256"
        },
        {
          "internalType": "uint256",
          "name": "endDate",
          "type": "uint256"
        },
        {
          "internalType": "address[]",
          "name": "candidates",
          "type": "address[]"
        },
        {
          "internalType": "uint256",
          "name": "year",
          "type": "uint256"
        },
        {
          "internalType": "uint256",
          "name": "section",
          "type": "uint256"
        },
        {
          "internalType": "enum AAiTElection.DEPTARTMENT_TYPE",
          "name": "department",
          "type": "uint8"
        }
      ],
      "name": "createElection",
      "outputs": [],
      "stateMutability": "nonpayable",
      "type": "function"
    },
    {
      "inputs": [
        {
          "internalType": "address",
          "name": "voterAddress",
          "type": "address"
        },
        {
          "internalType": "address",
          "name": "candidateAddress",
          "type": "address"
        }
      ],
      "name": "vote",
      "outputs": [],
      "stateMutability": "nonpayable",
      "type": "function"
    },
    {
      "inputs": [
        {
          "internalType": "address",
          "name": "voterAddress",
          "type": "address"
        },
        {
          "internalType": "address",
          "name": "candidateAddress",
          "type": "address"
        }
      ],
      "name": "candidateVote",
      "outputs": [],
      "stateMutability": "nonpayable",
      "type": "function"
    },
    {
      "inputs": [
        {
          "internalType": "uint256",
          "name": "endDate",
          "type": "uint256"
        }
      ],
      "name": "extendPhase",
      "outputs": [],
      "stateMutability": "nonpayable",
      "type": "function"
    },
    {
      "inputs": [
        {
          "internalType": "string",
          "name": "electionName",
          "type": "string"
        }
      ],
      "name": "endElection",
      "outputs": [],
      "stateMutability": "nonpayable",
      "type": "function"
    },
    {
      "inputs": [],
      "name": "removeAllCompletedElections",
      "outputs": [],
      "stateMutability": "nonpayable",
      "type": "function"
    },
    {
      "inputs": [
        {
          "internalType": "address",
          "name": "candidateAddress",
          "type": "address"
        }
      ],
      "name": "blacklistCandidate",
      "outputs": [],
      "stateMutability": "nonpayable",
      "type": "function"
    },
    {
      "inputs": [
        {
          "internalType": "address[]",
          "name": "users",
          "type": "address[]"
        }
      ],
      "name": "burnAllTokens",
      "outputs": [],
      "stateMutability": "nonpayable",
      "type": "function"
    },
    {
      "inputs": [
        {
          "internalType": "address[]",
          "name": "voters",
          "type": "address[]"
        }
      ],
      "name": "mintAndSendTokens",
      "outputs": [],
      "stateMutability": "nonpayable",
      "type": "function"
    },
    {
      "inputs": [
        {
          "internalType": "address",
          "name": "voterAddress",
          "type": "address"
        }
      ],
      "name": "getVotesRemaining",
      "outputs": [
        {
          "internalType": "uint256",
          "name": "",
          "type": "uint256"
        }
      ],
      "stateMutability": "view",
      "type": "function",
      "constant": true
    },
    {
      "inputs": [],
      "name": "getAllCurrentElections",
      "outputs": [
        {
          "components": [
            {
              "internalType": "uint256",
              "name": "index",
              "type": "uint256"
            },
            {
              "internalType": "string",
              "name": "name",
              "type": "string"
            },
            {
              "internalType": "enum AAiTElection.ELECTION_TYPE",
              "name": "status",
              "type": "uint8"
            },
            {
              "internalType": "uint256",
              "name": "startDate",
              "type": "uint256"
            },
            {
              "internalType": "uint256",
              "name": "endDate",
              "type": "uint256"
            },
            {
              "internalType": "address[]",
              "name": "candidates",
              "type": "address[]"
            },
            {
              "internalType": "address[]",
              "name": "winners",
              "type": "address[]"
            },
            {
              "internalType": "uint256",
              "name": "year",
              "type": "uint256"
            },
            {
              "internalType": "uint256",
              "name": "section",
              "type": "uint256"
            },
            {
              "internalType": "enum AAiTElection.DEPTARTMENT_TYPE",
              "name": "department",
              "type": "uint8"
            }
          ],
          "internalType": "struct AAiTElection.ElectionStruct[]",
          "name": "",
          "type": "tuple[]"
        }
      ],
      "stateMutability": "view",
      "type": "function",
      "constant": true
    },
    {
      "inputs": [],
      "name": "getAllCompletedElections",
      "outputs": [
        {
          "components": [
            {
              "internalType": "uint256",
              "name": "index",
              "type": "uint256"
            },
            {
              "internalType": "string",
              "name": "name",
              "type": "string"
            },
            {
              "internalType": "enum AAiTElection.ELECTION_TYPE",
              "name": "status",
              "type": "uint8"
            },
            {
              "internalType": "uint256",
              "name": "startDate",
              "type": "uint256"
            },
            {
              "internalType": "uint256",
              "name": "endDate",
              "type": "uint256"
            },
            {
              "internalType": "address[]",
              "name": "candidates",
              "type": "address[]"
            },
            {
              "internalType": "address[]",
              "name": "winners",
              "type": "address[]"
            },
            {
              "internalType": "uint256",
              "name": "year",
              "type": "uint256"
            },
            {
              "internalType": "uint256",
              "name": "section",
              "type": "uint256"
            },
            {
              "internalType": "enum AAiTElection.DEPTARTMENT_TYPE",
              "name": "department",
              "type": "uint8"
            }
          ],
          "internalType": "struct AAiTElection.ElectionStruct[]",
          "name": "",
          "type": "tuple[]"
        }
      ],
      "stateMutability": "view",
      "type": "function",
      "constant": true
    },
    {
      "inputs": [
        {
          "internalType": "string",
          "name": "electionName",
          "type": "string"
        }
      ],
      "name": "getElectionByName",
      "outputs": [
        {
          "components": [
            {
              "internalType": "uint256",
              "name": "index",
              "type": "uint256"
            },
            {
              "internalType": "string",
              "name": "name",
              "type": "string"
            },
            {
              "internalType": "enum AAiTElection.ELECTION_TYPE",
              "name": "status",
              "type": "uint8"
            },
            {
              "internalType": "uint256",
              "name": "startDate",
              "type": "uint256"
            },
            {
              "internalType": "uint256",
              "name": "endDate",
              "type": "uint256"
            },
            {
              "internalType": "address[]",
              "name": "candidates",
              "type": "address[]"
            },
            {
              "internalType": "address[]",
              "name": "winners",
              "type": "address[]"
            },
            {
              "internalType": "uint256",
              "name": "year",
              "type": "uint256"
            },
            {
              "internalType": "uint256",
              "name": "section",
              "type": "uint256"
            },
            {
              "internalType": "enum AAiTElection.DEPTARTMENT_TYPE",
              "name": "department",
              "type": "uint8"
            }
          ],
          "internalType": "struct AAiTElection.ElectionStruct",
          "name": "",
          "type": "tuple"
        }
      ],
      "stateMutability": "view",
      "type": "function",
      "constant": true
    },
    {
      "inputs": [
        {
          "internalType": "uint256",
          "name": "year",
          "type": "uint256"
        },
        {
          "internalType": "uint256",
          "name": "section",
          "type": "uint256"
        },
        {
          "internalType": "enum AAiTElection.DEPTARTMENT_TYPE",
          "name": "department",
          "type": "uint8"
        }
      ],
      "name": "getElectionByType",
      "outputs": [
        {
          "components": [
            {
              "internalType": "uint256",
              "name": "index",
              "type": "uint256"
            },
            {
              "internalType": "string",
              "name": "name",
              "type": "string"
            },
            {
              "internalType": "enum AAiTElection.ELECTION_TYPE",
              "name": "status",
              "type": "uint8"
            },
            {
              "internalType": "uint256",
              "name": "startDate",
              "type": "uint256"
            },
            {
              "internalType": "uint256",
              "name": "endDate",
              "type": "uint256"
            },
            {
              "internalType": "address[]",
              "name": "candidates",
              "type": "address[]"
            },
            {
              "internalType": "address[]",
              "name": "winners",
              "type": "address[]"
            },
            {
              "internalType": "uint256",
              "name": "year",
              "type": "uint256"
            },
            {
              "internalType": "uint256",
              "name": "section",
              "type": "uint256"
            },
            {
              "internalType": "enum AAiTElection.DEPTARTMENT_TYPE",
              "name": "department",
              "type": "uint8"
            }
          ],
          "internalType": "struct AAiTElection.ElectionStruct",
          "name": "result",
          "type": "tuple"
        }
      ],
      "stateMutability": "view",
      "type": "function",
      "constant": true
    }
  ],
  "bytecode": "0x60a06040526040518060c001604052806040518060400160405280601681526020017f42696f6d65646963616c20456e67696e656572696e670000000000000000000081525081526020016040518060400160405280601481526020017f4368656d6963616c20456e67696e656572696e6700000000000000000000000081525081526020016040518060400160405280601181526020017f436976696c20456e67696e656572696e6700000000000000000000000000000081525081526020016040518060400160405280601681526020017f456c656374726963616c20456e67696e656572696e670000000000000000000081525081526020016040518060400160405280601681526020017f4d656368616e6963616c20456e67696e656572696e670000000000000000000081525081526020016040518060400160405280601481526020017f536f66747761726520456e67696e656572696e67000000000000000000000000815250815250600090600662000181929190620002af565b503480156200018f57600080fd5b506040516200648e3803806200648e8339818101604052810190620001b591906200049e565b3373ffffffffffffffffffffffffffffffffffffffff1660808173ffffffffffffffffffffffffffffffffffffffff168152505080600d60006101000a81548173ffffffffffffffffffffffffffffffffffffffff021916908373ffffffffffffffffffffffffffffffffffffffff16021790555060405180606001604052806007808111156200024b576200024a620004d0565b5b8152602001600081526020016000815250600160008201518160000160006101000a81548160ff021916908360078111156200028c576200028b620004d0565b5b021790555060208201518160010155604082015181600201559050505062000564565b82805482825590600052602060002090810192821562000303579160200282015b8281111562000302578251829080519060200190620002f192919062000316565b5091602001919060010190620002d0565b5b509050620003129190620003a7565b5090565b82805462000324906200052e565b90600052602060002090601f01602090048101928262000348576000855562000394565b82601f106200036357805160ff191683800117855562000394565b8280016001018555821562000394579182015b828111156200039357825182559160200191906001019062000376565b5b509050620003a39190620003cf565b5090565b5b80821115620003cb5760008181620003c19190620003ee565b50600101620003a8565b5090565b5b80821115620003ea576000816000905550600101620003d0565b5090565b508054620003fc906200052e565b6000825580601f1062000410575062000431565b601f016020900490600052602060002090810190620004309190620003cf565b5b50565b600080fd5b600073ffffffffffffffffffffffffffffffffffffffff82169050919050565b6000620004668262000439565b9050919050565b620004788162000459565b81146200048457600080fd5b50565b60008151905062000498816200046d565b92915050565b600060208284031215620004b757620004b662000434565b5b6000620004c78482850162000487565b91505092915050565b7f4e487b7100000000000000000000000000000000000000000000000000000000600052602160045260246000fd5b7f4e487b7100000000000000000000000000000000000000000000000000000000600052602260045260246000fd5b600060028204905060018216806200054757607f821691505b602082108114156200055e576200055d620004ff565b5b50919050565b608051615ec1620005cd6000396000818161032201528181610387015281816103df0152818161043601528181610da2015281816112bd0152818161148e015281816116e2015281816120f20152818161224f015281816122c101526133a60152615ec16000f3fe608060405234801561001057600080fd5b506004361061010b5760003560e01c8063a0982468116100a2578063dc6d7de311610071578063dc6d7de31461026c578063e9cb0c7414610288578063f16219da146102b8578063f225af61146102d4578063fe43bc07146103045761010b565b8063a0982468146101f4578063a3a40ea514610212578063b1c9fe6e14610230578063d877416f146102505761010b565b80633ef599ca116100de5780633ef599ca14610180578063558c28981461019c57806398747d8e146101a65780639a67e4c6146101d65761010b565b806316e03349146101105780631afa74e51461012c57806324d6562c1461014857806332c667f914610164575b600080fd5b61012a6004803603810190610125919061494e565b610320565b005b610146600480360381019061014191906149d9565b610385565b005b610162600480360381019061015d9190614a19565b610da0565b005b61017e60048036038101906101799190614b9f565b6112bb565b005b61019a60048036038101906101959190614be8565b61148c565b005b6101a46116e0565b005b6101c060048036038101906101bb9190614cdd565b61181f565b6040516101cd9190615022565b60405180910390f35b6101de611af6565b6040516101eb91906151ee565b60405180910390f35b6101fc611dac565b60405161020991906151ee565b60405180910390f35b61021a612062565b604051610227919061529a565b60405180910390f35b6102386120cb565b604051610247939291906152d3565b60405180910390f35b61026a60048036038101906102659190614b9f565b6120f0565b005b610286600480360381019061028191906149d9565b6122bf565b005b6102a2600480360381019061029d919061532f565b6124ef565b6040516102af9190615022565b60405180910390f35b6102d260048036038101906102cd9190615382565b61300c565b005b6102ee60048036038101906102e99190614a19565b613358565b6040516102fb919061545c565b60405180910390f35b61031e60048036038101906103199190614cdd565b6133a4565b005b7f000000000000000000000000000000000000000000000000000000000000000073ffffffffffffffffffffffffffffffffffffffff163373ffffffffffffffffffffffffffffffffffffffff161461037857600080fd5b8060016002018190555050565b7f000000000000000000000000000000000000000000000000000000000000000073ffffffffffffffffffffffffffffffffffffffff163373ffffffffffffffffffffffffffffffffffffffff16146103dd57600080fd5b7f000000000000000000000000000000000000000000000000000000000000000073ffffffffffffffffffffffffffffffffffffffff168273ffffffffffffffffffffffffffffffffffffffff161415801561048557507f000000000000000000000000000000000000000000000000000000000000000073ffffffffffffffffffffffffffffffffffffffff168173ffffffffffffffffffffffffffffffffffffffff1614155b6104c4576040517f08c379a00000000000000000000000000000000000000000000000000000000081526004016104bb906154d4565b60405180910390fd5b6002600760008473ffffffffffffffffffffffffffffffffffffffff1673ffffffffffffffffffffffffffffffffffffffff1681526020019081526020016000208054905010610549576040517f08c379a000000000000000000000000000000000000000000000000000000000815260040161054090615540565b60405180910390fd5b6105d960058054806020026020016040519081016040528092919081815260200182805480156105ce57602002820191906000526020600020905b8160009054906101000a900473ffffffffffffffffffffffffffffffffffffffff1673ffffffffffffffffffffffffffffffffffffffff1681526020019060010190808311610584575b505050505082613987565b15610619576040517f08c379a0000000000000000000000000000000000000000000000000000000008152600401610610906155ac565b60405180910390fd5b6106e6600760008473ffffffffffffffffffffffffffffffffffffffff1673ffffffffffffffffffffffffffffffffffffffff1681526020019081526020016000208054806020026020016040519081016040528092919081815260200182805480156106db57602002820191906000526020600020905b8160009054906101000a900473ffffffffffffffffffffffffffffffffffffffff1673ffffffffffffffffffffffffffffffffffffffff1681526020019060010190808311610691575b505050505082613987565b15610726576040517f08c379a000000000000000000000000000000000000000000000000000000000815260040161071d90615618565b60405180910390fd5b6000600d60009054906101000a900473ffffffffffffffffffffffffffffffffffffffff1673ffffffffffffffffffffffffffffffffffffffff166370a08231846040518263ffffffff1660e01b81526004016107839190615647565b602060405180830381865afa1580156107a0573d6000803e3d6000fd5b505050506040513d601f19601f820116820180604052508101906107c49190615677565b11610804576040517f08c379a00000000000000000000000000000000000000000000000000000000081526004016107fb906156f0565b60405180910390fd5b60005b600980549050811015610d60576108c76009828154811061082b5761082a615710565b5b90600052602060002090600a02016005018054806020026020016040519081016040528092919081815260200182805480156108bc57602002820191906000526020600020905b8160009054906101000a900473ffffffffffffffffffffffffffffffffffffffff1673ffffffffffffffffffffffffffffffffffffffff1681526020019060010190808311610872575b505050505083613987565b15610d4d57600160028111156108e0576108df614dbd565b5b600982815481106108f4576108f3615710565b5b90600052602060002090600a020160020160009054906101000a900460ff16600281111561092557610924614dbd565b5b1415610d12576109de6009828154811061094257610941615710565b5b90600052602060002090600a02016005018054806020026020016040519081016040528092919081815260200182805480156109d357602002820191906000526020600020905b8160009054906101000a900473ffffffffffffffffffffffffffffffffffffffff1673ffffffffffffffffffffffffffffffffffffffff1681526020019060010190808311610989575b505050505084613987565b15610af5576109ed83836122bf565b600760008473ffffffffffffffffffffffffffffffffffffffff1673ffffffffffffffffffffffffffffffffffffffff168152602001908152602001600020829080600181540180825580915050600190039060005260206000200160009091909190916101000a81548173ffffffffffffffffffffffffffffffffffffffff021916908373ffffffffffffffffffffffffffffffffffffffff1602179055506004839080600181540180825580915050600190039060005260206000200160009091909190916101000a81548173ffffffffffffffffffffffffffffffffffffffff021916908373ffffffffffffffffffffffffffffffffffffffff160217905550610d0c565b8173ffffffffffffffffffffffffffffffffffffffff168373ffffffffffffffffffffffffffffffffffffffff161415610b64576040517f08c379a0000000000000000000000000000000000000000000000000000000008152600401610b5b906154d4565b60405180910390fd5b600d60009054906101000a900473ffffffffffffffffffffffffffffffffffffffff1673ffffffffffffffffffffffffffffffffffffffff166323b872dd848460016040518463ffffffff1660e01b8152600401610bc493929190615784565b6020604051808303816000875af1158015610be3573d6000803e3d6000fd5b505050506040513d601f19601f82011682018060405250810190610c0791906157f3565b50600760008473ffffffffffffffffffffffffffffffffffffffff1673ffffffffffffffffffffffffffffffffffffffff168152602001908152602001600020829080600181540180825580915050600190039060005260206000200160009091909190916101000a81548173ffffffffffffffffffffffffffffffffffffffff021916908373ffffffffffffffffffffffffffffffffffffffff1602179055506004839080600181540180825580915050600190039060005260206000200160009091909190916101000a81548173ffffffffffffffffffffffffffffffffffffffff021916908373ffffffffffffffffffffffffffffffffffffffff1602179055505b50610d9c565b6040517f08c379a0000000000000000000000000000000000000000000000000000000008152600401610d449061586c565b60405180910390fd5b8080610d58906158bb565b915050610807565b506040517f08c379a0000000000000000000000000000000000000000000000000000000008152600401610d9390615950565b60405180910390fd5b5050565b7f000000000000000000000000000000000000000000000000000000000000000073ffffffffffffffffffffffffffffffffffffffff163373ffffffffffffffffffffffffffffffffffffffff1614610df857600080fd5b610e886005805480602002602001604051908101604052809291908181526020018280548015610e7d57602002820191906000526020600020905b8160009054906101000a900473ffffffffffffffffffffffffffffffffffffffff1673ffffffffffffffffffffffffffffffffffffffff1681526020019060010190808311610e33575b505050505082613987565b15610ec8576040517f08c379a0000000000000000000000000000000000000000000000000000000008152600401610ebf906159bc565b60405180910390fd5b60005b6009805490508110156112b757610f8b60098281548110610eef57610eee615710565b5b90600052602060002090600a0201600501805480602002602001604051908101604052809291908181526020018280548015610f8057602002820191906000526020600020905b8160009054906101000a900473ffffffffffffffffffffffffffffffffffffffff1673ffffffffffffffffffffffffffffffffffffffff1681526020019060010190808311610f36575b505050505083613987565b156112a457600061104560098381548110610fa957610fa8615710565b5b90600052602060002090600a020160050180548060200260200160405190810160405280929190818152602001828054801561103a57602002820191906000526020600020905b8160009054906101000a900473ffffffffffffffffffffffffffffffffffffffff1673ffffffffffffffffffffffffffffffffffffffff1681526020019060010190808311610ff0575b505050505084613a0f565b90506009828154811061105b5761105a615710565b5b90600052602060002090600a020160050160016009848154811061108257611081615710565b5b90600052602060002090600a0201600501805490506110a191906159dc565b815481106110b2576110b1615710565b5b9060005260206000200160009054906101000a900473ffffffffffffffffffffffffffffffffffffffff16600983815481106110f1576110f0615710565b5b90600052602060002090600a0201600501828154811061111457611113615710565b5b9060005260206000200160006101000a81548173ffffffffffffffffffffffffffffffffffffffff021916908373ffffffffffffffffffffffffffffffffffffffff160217905550600982815481106111705761116f615710565b5b90600052602060002090600a020160050180548061119157611190615a10565b5b6001900381819060005260206000200160006101000a81549073ffffffffffffffffffffffffffffffffffffffff02191690559055600982815481106111da576111d9615710565b5b90600052602060002090600a020160050160066009848154811061120157611200615710565b5b90600052602060002090600a020160010160405161121f9190615b3f565b908152602001604051809103902060050190805461123e92919061449b565b506005839080600181540180825580915050600190039060005260206000200160009091909190916101000a81548173ffffffffffffffffffffffffffffffffffffffff021916908373ffffffffffffffffffffffffffffffffffffffff160217905550505b80806112af906158bb565b915050610ecb565b5050565b7f000000000000000000000000000000000000000000000000000000000000000073ffffffffffffffffffffffffffffffffffffffff163373ffffffffffffffffffffffffffffffffffffffff161461131357600080fd5b600d60009054906101000a900473ffffffffffffffffffffffffffffffffffffffff1673ffffffffffffffffffffffffffffffffffffffff1663a0712d686002835161135f9190615b56565b6040518263ffffffff1660e01b815260040161137b919061545c565b600060405180830381600087803b15801561139557600080fd5b505af11580156113a9573d6000803e3d6000fd5b5050505060005b815181101561148857600d60009054906101000a900473ffffffffffffffffffffffffffffffffffffffff1673ffffffffffffffffffffffffffffffffffffffff1663a9059cbb83838151811061140a57611409615710565b5b602002602001015160026040518363ffffffff1660e01b8152600401611431929190615beb565b6020604051808303816000875af1158015611450573d6000803e3d6000fd5b505050506040513d601f19601f8201168201806040525081019061147491906157f3565b508080611480906158bb565b9150506113b0565b5050565b7f000000000000000000000000000000000000000000000000000000000000000073ffffffffffffffffffffffffffffffffffffffff163373ffffffffffffffffffffffffffffffffffffffff16146114e457600080fd5b600660078111156114f8576114f7614dbd565b5b600160000160009054906101000a900460ff16600781111561151d5761151c614dbd565b5b14156115a057604051806060016040528060078081111561154157611540614dbd565b5b8152602001600081526020016000815250600160008201518160000160006101000a81548160ff0219169083600781111561157f5761157e614dbd565b5b021790555060208201518160010155604082015181600201559050506116dc565b6007808111156115b3576115b2614dbd565b5b600160000160009054906101000a900460ff1660078111156115d8576115d7614dbd565b5b141561165a576040518060600160405280600060078111156115fd576115fc614dbd565b5b815260200183815260200182815250600160008201518160000160006101000a81548160ff0219169083600781111561163957611638614dbd565b5b021790555060208201518160010155604082015181600201559050506116dc565b60018060000160009054906101000a900460ff1660078111156116805761167f614dbd565b5b61168a9190615c14565b600781111561169c5761169b614dbd565b5b600160000160006101000a81548160ff021916908360078111156116c3576116c2614dbd565b5b0217905550816001800181905550806001600201819055505b5050565b7f000000000000000000000000000000000000000000000000000000000000000073ffffffffffffffffffffffffffffffffffffffff163373ffffffffffffffffffffffffffffffffffffffff161461173857600080fd5b600a600061174691906144ed565b6009600061175491906144ed565b600860006117629190614511565b60005b60048054905081101561180e57600760006004838154811061178a57611789615710565b5b9060005260206000200160009054906101000a900473ffffffffffffffffffffffffffffffffffffffff1673ffffffffffffffffffffffffffffffffffffffff1673ffffffffffffffffffffffffffffffffffffffff16815260200190815260200160002060006117fb9190614532565b8080611806906158bb565b915050611765565b506004600061181d9190614532565b565b611827614553565b61183082613a96565b61186f576040517f08c379a000000000000000000000000000000000000000000000000000000000815260040161186690615cb6565b60405180910390fd5b60068260405161187f9190615d07565b908152602001604051809103902060405180610140016040529081600082015481526020016001820180546118b390615a6e565b80601f01602080910402602001604051908101604052809291908181526020018280546118df90615a6e565b801561192c5780601f106119015761010080835404028352916020019161192c565b820191906000526020600020905b81548152906001019060200180831161190f57829003601f168201915b505050505081526020016002820160009054906101000a900460ff16600281111561195a57611959614dbd565b5b600281111561196c5761196b614dbd565b5b8152602001600382015481526020016004820154815260200160058201805480602002602001604051908101604052809291908181526020018280548015611a0957602002820191906000526020600020905b8160009054906101000a900473ffffffffffffffffffffffffffffffffffffffff1673ffffffffffffffffffffffffffffffffffffffff16815260200190600101908083116119bf575b5050505050815260200160068201805480602002602001604051908101604052809291908181526020018280548015611a9757602002820191906000526020600020905b8160009054906101000a900473ffffffffffffffffffffffffffffffffffffffff1673ffffffffffffffffffffffffffffffffffffffff1681526020019060010190808311611a4d575b5050505050815260200160078201548152602001600882015481526020016009820160009054906101000a900460ff166005811115611ad957611ad8614dbd565b5b6005811115611aeb57611aea614dbd565b5b815250509050919050565b6060600a805480602002602001604051908101604052809291908181526020016000905b82821015611da357838290600052602060002090600a02016040518061014001604052908160008201548152602001600182018054611b5890615a6e565b80601f0160208091040260200160405190810160405280929190818152602001828054611b8490615a6e565b8015611bd15780601f10611ba657610100808354040283529160200191611bd1565b820191906000526020600020905b815481529060010190602001808311611bb457829003601f168201915b505050505081526020016002820160009054906101000a900460ff166002811115611bff57611bfe614dbd565b5b6002811115611c1157611c10614dbd565b5b8152602001600382015481526020016004820154815260200160058201805480602002602001604051908101604052809291908181526020018280548015611cae57602002820191906000526020600020905b8160009054906101000a900473ffffffffffffffffffffffffffffffffffffffff1673ffffffffffffffffffffffffffffffffffffffff1681526020019060010190808311611c64575b5050505050815260200160068201805480602002602001604051908101604052809291908181526020018280548015611d3c57602002820191906000526020600020905b8160009054906101000a900473ffffffffffffffffffffffffffffffffffffffff1673ffffffffffffffffffffffffffffffffffffffff1681526020019060010190808311611cf2575b5050505050815260200160078201548152602001600882015481526020016009820160009054906101000a900460ff166005811115611d7e57611d7d614dbd565b5b6005811115611d9057611d8f614dbd565b5b8152505081526020019060010190611b1a565b50505050905090565b60606009805480602002602001604051908101604052809291908181526020016000905b8282101561205957838290600052602060002090600a02016040518061014001604052908160008201548152602001600182018054611e0e90615a6e565b80601f0160208091040260200160405190810160405280929190818152602001828054611e3a90615a6e565b8015611e875780601f10611e5c57610100808354040283529160200191611e87565b820191906000526020600020905b815481529060010190602001808311611e6a57829003601f168201915b505050505081526020016002820160009054906101000a900460ff166002811115611eb557611eb4614dbd565b5b6002811115611ec757611ec6614dbd565b5b8152602001600382015481526020016004820154815260200160058201805480602002602001604051908101604052809291908181526020018280548015611f6457602002820191906000526020600020905b8160009054906101000a900473ffffffffffffffffffffffffffffffffffffffff1673ffffffffffffffffffffffffffffffffffffffff1681526020019060010190808311611f1a575b5050505050815260200160068201805480602002602001604051908101604052809291908181526020018280548015611ff257602002820191906000526020600020905b8160009054906101000a900473ffffffffffffffffffffffffffffffffffffffff1673ffffffffffffffffffffffffffffffffffffffff1681526020019060010190808311611fa8575b5050505050815260200160078201548152602001600882015481526020016009820160009054906101000a900460ff16600581111561203457612033614dbd565b5b600581111561204657612045614dbd565b5b8152505081526020019060010190611dd0565b50505050905090565b61206a6145ca565b60016040518060600160405290816000820160009054906101000a900460ff16600781111561209c5761209b614dbd565b5b60078111156120ae576120ad614dbd565b5b815260200160018201548152602001600282015481525050905090565b60018060000160009054906101000a900460ff16908060010154908060020154905083565b7f000000000000000000000000000000000000000000000000000000000000000073ffffffffffffffffffffffffffffffffffffffff163373ffffffffffffffffffffffffffffffffffffffff161461214857600080fd5b60005b815181101561220e57600d60009054906101000a900473ffffffffffffffffffffffffffffffffffffffff1673ffffffffffffffffffffffffffffffffffffffff166389afcb448383815181106121a5576121a4615710565b5b60200260200101516040518263ffffffff1660e01b81526004016121c99190615647565b600060405180830381600087803b1580156121e357600080fd5b505af11580156121f7573d6000803e3d6000fd5b505050508080612206906158bb565b91505061214b565b50600d60009054906101000a900473ffffffffffffffffffffffffffffffffffffffff1673ffffffffffffffffffffffffffffffffffffffff166389afcb447f00000000000000000000000000000000000000000000000000000000000000006040518263ffffffff1660e01b815260040161228a9190615647565b600060405180830381600087803b1580156122a457600080fd5b505af11580156122b8573d6000803e3d6000fd5b5050505050565b7f000000000000000000000000000000000000000000000000000000000000000073ffffffffffffffffffffffffffffffffffffffff163373ffffffffffffffffffffffffffffffffffffffff161461231757600080fd5b600d60009054906101000a900473ffffffffffffffffffffffffffffffffffffffff1673ffffffffffffffffffffffffffffffffffffffff1663a0712d6860016040518263ffffffff1660e01b81526004016123739190615d1e565b600060405180830381600087803b15801561238d57600080fd5b505af11580156123a1573d6000803e3d6000fd5b50505050600d60009054906101000a900473ffffffffffffffffffffffffffffffffffffffff1673ffffffffffffffffffffffffffffffffffffffff1663a9059cbb8360016040518363ffffffff1660e01b8152600401612403929190615d39565b6020604051808303816000875af1158015612422573d6000803e3d6000fd5b505050506040513d601f19601f8201168201806040525081019061244691906157f3565b50600d60009054906101000a900473ffffffffffffffffffffffffffffffffffffffff1673ffffffffffffffffffffffffffffffffffffffff166323b872dd838360016040518463ffffffff1660e01b81526004016124a793929190615784565b6020604051808303816000875af11580156124c6573d6000803e3d6000fd5b505050506040513d601f19601f820116820180604052508101906124ea91906157f3565b505050565b6124f7614553565b612502848484613b4b565b612541576040517f08c379a000000000000000000000000000000000000000000000000000000000815260040161253890615cb6565b60405180910390fd5b6006600781111561255557612554614dbd565b5b600160000160009054906101000a900460ff16600781111561257a57612579614dbd565b5b14156128935760005b60098054905081101561288d578260058111156125a3576125a2614dbd565b5b600982815481106125b7576125b6615710565b5b90600052602060002090600a020160090160009054906101000a900460ff1660058111156125e8576125e7614dbd565b5b141561287a576009818154811061260257612601615710565b5b90600052602060002090600a0201604051806101400160405290816000820154815260200160018201805461263690615a6e565b80601f016020809104026020016040519081016040528092919081815260200182805461266290615a6e565b80156126af5780601f10612684576101008083540402835291602001916126af565b820191906000526020600020905b81548152906001019060200180831161269257829003601f168201915b505050505081526020016002820160009054906101000a900460ff1660028111156126dd576126dc614dbd565b5b60028111156126ef576126ee614dbd565b5b815260200160038201548152602001600482015481526020016005820180548060200260200160405190810160405280929190818152602001828054801561278c57602002820191906000526020600020905b8160009054906101000a900473ffffffffffffffffffffffffffffffffffffffff1673ffffffffffffffffffffffffffffffffffffffff1681526020019060010190808311612742575b505050505081526020016006820180548060200260200160405190810160405280929190818152602001828054801561281a57602002820191906000526020600020905b8160009054906101000a900473ffffffffffffffffffffffffffffffffffffffff1673ffffffffffffffffffffffffffffffffffffffff16815260200190600101908083116127d0575b5050505050815260200160078201548152602001600882015481526020016009820160009054906101000a900460ff16600581111561285c5761285b614dbd565b5b600581111561286e5761286d614dbd565b5b81525050915050613005565b8080612885906158bb565b915050612583565b50613004565b600460078111156128a7576128a6614dbd565b5b600160000160009054906101000a900460ff1660078111156128cc576128cb614dbd565b5b1415612c155760005b600980549050811015612c0f578260058111156128f5576128f4614dbd565b5b6009828154811061290957612908615710565b5b90600052602060002090600a020160090160009054906101000a900460ff16600581111561293a57612939614dbd565b5b14801561296b5750846009828154811061295757612956615710565b5b90600052602060002090600a020160070154145b15612bfc576009818154811061298457612983615710565b5b90600052602060002090600a020160405180610140016040529081600082015481526020016001820180546129b890615a6e565b80601f01602080910402602001604051908101604052809291908181526020018280546129e490615a6e565b8015612a315780601f10612a0657610100808354040283529160200191612a31565b820191906000526020600020905b815481529060010190602001808311612a1457829003601f168201915b505050505081526020016002820160009054906101000a900460ff166002811115612a5f57612a5e614dbd565b5b6002811115612a7157612a70614dbd565b5b8152602001600382015481526020016004820154815260200160058201805480602002602001604051908101604052809291908181526020018280548015612b0e57602002820191906000526020600020905b8160009054906101000a900473ffffffffffffffffffffffffffffffffffffffff1673ffffffffffffffffffffffffffffffffffffffff1681526020019060010190808311612ac4575b5050505050815260200160068201805480602002602001604051908101604052809291908181526020018280548015612b9c57602002820191906000526020600020905b8160009054906101000a900473ffffffffffffffffffffffffffffffffffffffff1673ffffffffffffffffffffffffffffffffffffffff1681526020019060010190808311612b52575b5050505050815260200160078201548152602001600882015481526020016009820160009054906101000a900460ff166005811115612bde57612bdd614dbd565b5b6005811115612bf057612bef614dbd565b5b81525050915050613005565b8080612c07906158bb565b9150506128d5565b50613003565b60026007811115612c2957612c28614dbd565b5b600160000160009054906101000a900460ff166007811115612c4e57612c4d614dbd565b5b1415612fc75760005b600980549050811015612fc157826005811115612c7757612c76614dbd565b5b60098281548110612c8b57612c8a615710565b5b90600052602060002090600a020160090160009054906101000a900460ff166005811115612cbc57612cbb614dbd565b5b148015612ced57508460098281548110612cd957612cd8615710565b5b90600052602060002090600a020160070154145b8015612d1d57508360098281548110612d0957612d08615710565b5b90600052602060002090600a020160080154145b15612fae5760098181548110612d3657612d35615710565b5b90600052602060002090600a02016040518061014001604052908160008201548152602001600182018054612d6a90615a6e565b80601f0160208091040260200160405190810160405280929190818152602001828054612d9690615a6e565b8015612de35780601f10612db857610100808354040283529160200191612de3565b820191906000526020600020905b815481529060010190602001808311612dc657829003601f168201915b505050505081526020016002820160009054906101000a900460ff166002811115612e1157612e10614dbd565b5b6002811115612e2357612e22614dbd565b5b8152602001600382015481526020016004820154815260200160058201805480602002602001604051908101604052809291908181526020018280548015612ec057602002820191906000526020600020905b8160009054906101000a900473ffffffffffffffffffffffffffffffffffffffff1673ffffffffffffffffffffffffffffffffffffffff1681526020019060010190808311612e76575b5050505050815260200160068201805480602002602001604051908101604052809291908181526020018280548015612f4e57602002820191906000526020600020905b8160009054906101000a900473ffffffffffffffffffffffffffffffffffffffff1673ffffffffffffffffffffffffffffffffffffffff1681526020019060010190808311612f04575b5050505050815260200160078201548152602001600882015481526020016009820160009054906101000a900460ff166005811115612f9057612f8f614dbd565b5b6005811115612fa257612fa1614dbd565b5b81525050915050613005565b8080612fb9906158bb565b915050612c57565b50613002565b6040517f08c379a0000000000000000000000000000000000000000000000000000000008152600401612ff9906154d4565b60405180910390fd5b5b5b5b9392505050565b606061301788613a96565b15801561302c575061302a848484613b4b565b155b61306b576040517f08c379a000000000000000000000000000000000000000000000000000000000815260040161306290615dae565b60405180910390fd5b6008889080600181540180825580915050600190039060005260206000200160009091909190915090805190602001906130a69291906145fd565b50600060405180610140016040528060016008805490506130c791906159dc565b81526020018a8152602001600160028111156130e6576130e5614dbd565b5b815260200189815260200188815260200187815260200183815260200186815260200185815260200184600581111561312257613121614dbd565b5b81525090508060068a6040516131389190615d07565b908152602001604051809103902060008201518160000155602082015181600101908051906020019061316c9291906145fd565b5060408201518160020160006101000a81548160ff0219169083600281111561319857613197614dbd565b5b0217905550606082015181600301556080820151816004015560a08201518160050190805190602001906131cd929190614683565b5060c08201518160060190805190602001906131ea929190614683565b5060e0820151816007015561010082015181600801556101208201518160090160006101000a81548160ff0219169083600581111561322c5761322b614dbd565b5b021790555090505060098190806001815401808255809150506001900390600052602060002090600a02016000909190919091506000820151816000015560208201518160010190805190602001906132869291906145fd565b5060408201518160020160006101000a81548160ff021916908360028111156132b2576132b1614dbd565b5b0217905550606082015181600301556080820151816004015560a08201518160050190805190602001906132e7929190614683565b5060c0820151816006019080519060200190613304929190614683565b5060e0820151816007015561010082015181600801556101208201518160090160006101000a81548160ff0219169083600581111561334657613345614dbd565b5b02179055505050505050505050505050565b6000600760008373ffffffffffffffffffffffffffffffffffffffff1673ffffffffffffffffffffffffffffffffffffffff168152602001908152602001600020805490509050919050565b7f000000000000000000000000000000000000000000000000000000000000000073ffffffffffffffffffffffffffffffffffffffff163373ffffffffffffffffffffffffffffffffffffffff16146133fc57600080fd5b61340581613a96565b613444576040517f08c379a000000000000000000000000000000000000000000000000000000000815260040161343b90615e1a565b60405180910390fd5b61344d81613c70565b600a60068260405161345f9190615d07565b908152602001604051809103902090806001815401808255809150506001900390600052602060002090600a02016000909190919091506000820154816000015560018201816001019080546134b490615a6e565b6134bf92919061470d565b506002820160009054906101000a900460ff168160020160006101000a81548160ff021916908360028111156134f8576134f7614dbd565b5b02179055506003820154816003015560048201548160040155600582018160050190805461352792919061479a565b50600682018160060190805461353e92919061479a565b5060078201548160070155600882015481600801556009820160009054906101000a900460ff168160090160006101000a81548160ff0219169083600581111561358b5761358a614dbd565b5b02179055505050600b60405180604001604052808381526020016135ae8461181f565b60a00151815250908060018154018082558091505060019003906000526020600020906002020160009091909190915060008201518160000190805190602001906135fa9291906145fd565b506020820151816001019080519060200190613617929190614683565b505050600060068260405161362c9190615d07565b908152602001604051809103902060000154905060006008600160088054905061365691906159dc565b8154811061366757613666615710565b5b90600052602060002001805461367c90615a6e565b80601f01602080910402602001604051908101604052809291908181526020018280546136a890615a6e565b80156136f55780601f106136ca576101008083540402835291602001916136f5565b820191906000526020600020905b8154815290600101906020018083116136d857829003601f168201915b50505050509050806008838154811061371157613710615710565b5b90600052602060002001908051906020019061372e9291906145fd565b50816006826040516137409190615d07565b908152602001604051809103902060000181905550600880548061376757613766615a10565b5b60019003818190600052602060002001600061378391906147ec565b90556009600160098054905061379991906159dc565b815481106137aa576137a9615710565b5b90600052602060002090600a0201600983815481106137cc576137cb615710565b5b90600052602060002090600a02016000820154816000015560018201816001019080546137f890615a6e565b61380392919061470d565b506002820160009054906101000a900460ff168160020160006101000a81548160ff0219169083600281111561383c5761383b614dbd565b5b02179055506003820154816003015560048201548160040155600582018160050190805461386b92919061479a565b50600682018160060190805461388292919061479a565b5060078201548160070155600882015481600801556009820160009054906101000a900460ff168160090160006101000a81548160ff021916908360058111156138cf576138ce614dbd565b5b021790555090505060098054806138e9576138e8615a10565b5b60019003818190600052602060002090600a020160008082016000905560018201600061391691906147ec565b6002820160006101000a81549060ff02191690556003820160009055600482016000905560058201600061394a9190614532565b60068201600061395a9190614532565b600782016000905560088201600090556009820160006101000a81549060ff021916905550509055505050565b600080600090505b8351811015613a03578273ffffffffffffffffffffffffffffffffffffffff168482815181106139c2576139c1615710565b5b602002602001015173ffffffffffffffffffffffffffffffffffffffff1614156139f0576001915050613a09565b80806139fb906158bb565b91505061398f565b50600090505b92915050565b600080600090505b8351811015613a8a578273ffffffffffffffffffffffffffffffffffffffff16848281518110613a4a57613a49615710565b5b602002602001015173ffffffffffffffffffffffffffffffffffffffff161415613a775780915050613a90565b8080613a82906158bb565b915050613a17565b50825190505b92915050565b600080600090505b600980549050811015613b405782604051602001613abc9190615d07565b6040516020818303038152906040528051906020012060098281548110613ae657613ae5615710565b5b90600052602060002090600a0201600101604051602001613b079190615b3f565b604051602081830303815290604052805190602001201415613b2d576001915050613b46565b8080613b38906158bb565b915050613a9e565b50600090505b919050565b600080600090505b600980549050811015613c63578460098281548110613b7557613b74615710565b5b90600052602060002090600a020160070154148015613bb857508360098281548110613ba457613ba3615710565b5b90600052602060002090600a020160080154145b8015613c41575082604051602001613bd09190615e70565b6040516020818303038152906040528051906020012060098281548110613bfa57613bf9615710565b5b90600052602060002090600a020160090160009054906101000a900460ff16604051602001613c299190615e70565b60405160208183030381529060405280519060200120145b15613c50576001915050613c69565b8080613c5b906158bb565b915050613b53565b50600090505b9392505050565b6000600682604051613c829190615d07565b90815260200160405180910390206040518061014001604052908160008201548152602001600182018054613cb690615a6e565b80601f0160208091040260200160405190810160405280929190818152602001828054613ce290615a6e565b8015613d2f5780601f10613d0457610100808354040283529160200191613d2f565b820191906000526020600020905b815481529060010190602001808311613d1257829003601f168201915b505050505081526020016002820160009054906101000a900460ff166002811115613d5d57613d5c614dbd565b5b6002811115613d6f57613d6e614dbd565b5b8152602001600382015481526020016004820154815260200160058201805480602002602001604051908101604052809291908181526020018280548015613e0c57602002820191906000526020600020905b8160009054906101000a900473ffffffffffffffffffffffffffffffffffffffff1673ffffffffffffffffffffffffffffffffffffffff1681526020019060010190808311613dc2575b5050505050815260200160068201805480602002602001604051908101604052809291908181526020018280548015613e9a57602002820191906000526020600020905b8160009054906101000a900473ffffffffffffffffffffffffffffffffffffffff1673ffffffffffffffffffffffffffffffffffffffff1681526020019060010190808311613e50575b5050505050815260200160078201548152602001600882015481526020016009820160009054906101000a900460ff166005811115613edc57613edb614dbd565b5b6005811115613eee57613eed614dbd565b5b815250509050600c6000613f029190614532565b60008160a001515167ffffffffffffffff811115613f2357613f22614a5c565b5b604051908082528060200260200182016040528015613f515781602001602082028036833780820191505090505b50905060005b8260a001515181101561405057600d60009054906101000a900473ffffffffffffffffffffffffffffffffffffffff1673ffffffffffffffffffffffffffffffffffffffff166370a082318460a001518381518110613fb957613fb8615710565b5b60200260200101516040518263ffffffff1660e01b8152600401613fdd9190615647565b602060405180830381865afa158015613ffa573d6000803e3d6000fd5b505050506040513d601f19601f8201168201806040525081019061401e9190615677565b82828151811061403157614030615710565b5b6020026020010181815250508080614048906158bb565b915050613f57565b50600061405c8261442b565b905060005b8360a0015151811015614125578183828151811061408257614081615710565b5b6020026020010151141561411257600c8460a0015182815181106140a9576140a8615710565b5b60200260200101519080600181540180825580915050600190039060005260206000200160009091909190916101000a81548173ffffffffffffffffffffffffffffffffffffffff021916908373ffffffffffffffffffffffffffffffffffffffff1602179055505b808061411d906158bb565b915050614061565b50600c8054806020026020016040519081016040528092919081815260200182805480156141a857602002820191906000526020600020905b8160009054906101000a900473ffffffffffffffffffffffffffffffffffffffff1673ffffffffffffffffffffffffffffffffffffffff168152602001906001019080831161415e575b50505050508360c001819052506002836040019060028111156141ce576141cd614dbd565b5b908160028111156141e2576141e1614dbd565b5b81525050826006856040516141f79190615d07565b908152602001604051809103902060008201518160000155602082015181600101908051906020019061422b9291906145fd565b5060408201518160020160006101000a81548160ff0219169083600281111561425757614256614dbd565b5b0217905550606082015181600301556080820151816004015560a082015181600501908051906020019061428c929190614683565b5060c08201518160060190805190602001906142a9929190614683565b5060e0820151816007015561010082015181600801556101208201518160090160006101000a81548160ff021916908360058111156142eb576142ea614dbd565b5b02179055509050508260096006866040516143069190615d07565b9081526020016040518091039020600001548154811061432957614328615710565b5b90600052602060002090600a020160008201518160000155602082015181600101908051906020019061435d9291906145fd565b5060408201518160020160006101000a81548160ff0219169083600281111561438957614388614dbd565b5b0217905550606082015181600301556080820151816004015560a08201518160050190805190602001906143be929190614683565b5060c08201518160060190805190602001906143db929190614683565b5060e0820151816007015561010082015181600801556101208201518160090160006101000a81548160ff0219169083600581111561441d5761441c614dbd565b5b021790555090505050505050565b6000806000905060005b8351811015614491578184828151811061445257614451615710565b5b6020026020010151111561447e5783818151811061447357614472615710565b5b602002602001015191505b8080614489906158bb565b915050614435565b5080915050919050565b8280548282559060005260206000209081019282156144dc5760005260206000209182015b828111156144db5782548255916001019190600101906144c0565b5b5090506144e9919061482c565b5090565b50805460008255600a029060005260206000209081019061450e9190614849565b50565b508054600082559060005260206000209081019061452f91906148e0565b50565b5080546000825590600052602060002090810190614550919061482c565b50565b60405180610140016040528060008152602001606081526020016000600281111561458157614580614dbd565b5b8152602001600081526020016000815260200160608152602001606081526020016000815260200160008152602001600060058111156145c4576145c3614dbd565b5b81525090565b6040518060600160405280600060078111156145e9576145e8614dbd565b5b815260200160008152602001600081525090565b82805461460990615a6e565b90600052602060002090601f01602090048101928261462b5760008555614672565b82601f1061464457805160ff1916838001178555614672565b82800160010185558215614672579182015b82811115614671578251825591602001919060010190614656565b5b50905061467f919061482c565b5090565b8280548282559060005260206000209081019282156146fc579160200282015b828111156146fb5782518260006101000a81548173ffffffffffffffffffffffffffffffffffffffff021916908373ffffffffffffffffffffffffffffffffffffffff160217905550916020019190600101906146a3565b5b509050614709919061482c565b5090565b82805461471990615a6e565b90600052602060002090601f01602090048101928261473b5760008555614789565b82601f1061474c5780548555614789565b8280016001018555821561478957600052602060002091601f016020900482015b8281111561478857825482559160010191906001019061476d565b5b509050614796919061482c565b5090565b8280548282559060005260206000209081019282156147db5760005260206000209182015b828111156147da5782548255916001019190600101906147bf565b5b5090506147e8919061482c565b5090565b5080546147f890615a6e565b6000825580601f1061480a5750614829565b601f016020900490600052602060002090810190614828919061482c565b5b50565b5b8082111561484557600081600090555060010161482d565b5090565b5b808211156148dc5760008082016000905560018201600061486b91906147ec565b6002820160006101000a81549060ff02191690556003820160009055600482016000905560058201600061489f9190614532565b6006820160006148af9190614532565b600782016000905560088201600090556009820160006101000a81549060ff021916905550600a0161484a565b5090565b5b8082111561490057600081816148f791906147ec565b506001016148e1565b5090565b6000604051905090565b600080fd5b600080fd5b6000819050919050565b61492b81614918565b811461493657600080fd5b50565b60008135905061494881614922565b92915050565b6000602082840312156149645761496361490e565b5b600061497284828501614939565b91505092915050565b600073ffffffffffffffffffffffffffffffffffffffff82169050919050565b60006149a68261497b565b9050919050565b6149b68161499b565b81146149c157600080fd5b50565b6000813590506149d3816149ad565b92915050565b600080604083850312156149f0576149ef61490e565b5b60006149fe858286016149c4565b9250506020614a0f858286016149c4565b9150509250929050565b600060208284031215614a2f57614a2e61490e565b5b6000614a3d848285016149c4565b91505092915050565b600080fd5b6000601f19601f8301169050919050565b7f4e487b7100000000000000000000000000000000000000000000000000000000600052604160045260246000fd5b614a9482614a4b565b810181811067ffffffffffffffff82111715614ab357614ab2614a5c565b5b80604052505050565b6000614ac6614904565b9050614ad28282614a8b565b919050565b600067ffffffffffffffff821115614af257614af1614a5c565b5b602082029050602081019050919050565b600080fd5b6000614b1b614b1684614ad7565b614abc565b90508083825260208201905060208402830185811115614b3e57614b3d614b03565b5b835b81811015614b675780614b5388826149c4565b845260208401935050602081019050614b40565b5050509392505050565b600082601f830112614b8657614b85614a46565b5b8135614b96848260208601614b08565b91505092915050565b600060208284031215614bb557614bb461490e565b5b600082013567ffffffffffffffff811115614bd357614bd2614913565b5b614bdf84828501614b71565b91505092915050565b60008060408385031215614bff57614bfe61490e565b5b6000614c0d85828601614939565b9250506020614c1e85828601614939565b9150509250929050565b600080fd5b600067ffffffffffffffff821115614c4857614c47614a5c565b5b614c5182614a4b565b9050602081019050919050565b82818337600083830152505050565b6000614c80614c7b84614c2d565b614abc565b905082815260208101848484011115614c9c57614c9b614c28565b5b614ca7848285614c5e565b509392505050565b600082601f830112614cc457614cc3614a46565b5b8135614cd4848260208601614c6d565b91505092915050565b600060208284031215614cf357614cf261490e565b5b600082013567ffffffffffffffff811115614d1157614d10614913565b5b614d1d84828501614caf565b91505092915050565b614d2f81614918565b82525050565b600081519050919050565b600082825260208201905092915050565b60005b83811015614d6f578082015181840152602081019050614d54565b83811115614d7e576000848401525b50505050565b6000614d8f82614d35565b614d998185614d40565b9350614da9818560208601614d51565b614db281614a4b565b840191505092915050565b7f4e487b7100000000000000000000000000000000000000000000000000000000600052602160045260246000fd5b60038110614dfd57614dfc614dbd565b5b50565b6000819050614e0e82614dec565b919050565b6000614e1e82614e00565b9050919050565b614e2e81614e13565b82525050565b600081519050919050565b600082825260208201905092915050565b6000819050602082019050919050565b614e698161499b565b82525050565b6000614e7b8383614e60565b60208301905092915050565b6000602082019050919050565b6000614e9f82614e34565b614ea98185614e3f565b9350614eb483614e50565b8060005b83811015614ee5578151614ecc8882614e6f565b9750614ed783614e87565b925050600181019050614eb8565b5085935050505092915050565b60068110614f0357614f02614dbd565b5b50565b6000819050614f1482614ef2565b919050565b6000614f2482614f06565b9050919050565b614f3481614f19565b82525050565b600061014083016000830151614f536000860182614d26565b5060208301518482036020860152614f6b8282614d84565b9150506040830151614f806040860182614e25565b506060830151614f936060860182614d26565b506080830151614fa66080860182614d26565b5060a083015184820360a0860152614fbe8282614e94565b91505060c083015184820360c0860152614fd88282614e94565b91505060e0830151614fed60e0860182614d26565b50610100830151615002610100860182614d26565b50610120830151615017610120860182614f2b565b508091505092915050565b6000602082019050818103600083015261503c8184614f3a565b905092915050565b600081519050919050565b600082825260208201905092915050565b6000819050602082019050919050565b6000610140830160008301516150896000860182614d26565b50602083015184820360208601526150a18282614d84565b91505060408301516150b66040860182614e25565b5060608301516150c96060860182614d26565b5060808301516150dc6080860182614d26565b5060a083015184820360a08601526150f48282614e94565b91505060c083015184820360c086015261510e8282614e94565b91505060e083015161512360e0860182614d26565b50610100830151615138610100860182614d26565b5061012083015161514d610120860182614f2b565b508091505092915050565b60006151648383615070565b905092915050565b6000602082019050919050565b600061518482615044565b61518e818561504f565b9350836020820285016151a085615060565b8060005b858110156151dc57848403895281516151bd8582615158565b94506151c88361516c565b925060208a019950506001810190506151a4565b50829750879550505050505092915050565b600060208201905081810360008301526152088184615179565b905092915050565b6008811061522157615220614dbd565b5b50565b600081905061523282615210565b919050565b600061524282615224565b9050919050565b61525281615237565b82525050565b60608201600082015161526e6000850182615249565b5060208201516152816020850182614d26565b5060408201516152946040850182614d26565b50505050565b60006060820190506152af6000830184615258565b92915050565b6152be81615237565b82525050565b6152cd81614918565b82525050565b60006060820190506152e860008301866152b5565b6152f560208301856152c4565b61530260408301846152c4565b949350505050565b6006811061531757600080fd5b50565b6000813590506153298161530a565b92915050565b6000806000606084860312156153485761534761490e565b5b600061535686828701614939565b935050602061536786828701614939565b92505060406153788682870161531a565b9150509250925092565b600080600080600080600060e0888a0312156153a1576153a061490e565b5b600088013567ffffffffffffffff8111156153bf576153be614913565b5b6153cb8a828b01614caf565b97505060206153dc8a828b01614939565b96505060406153ed8a828b01614939565b955050606088013567ffffffffffffffff81111561540e5761540d614913565b5b61541a8a828b01614b71565b945050608061542b8a828b01614939565b93505060a061543c8a828b01614939565b92505060c061544d8a828b0161531a565b91505092959891949750929550565b600060208201905061547160008301846152c4565b92915050565b600082825260208201905092915050565b7f496e76616c6964204f7065726174696f6e000000000000000000000000000000600082015250565b60006154be601183615477565b91506154c982615488565b602082019050919050565b600060208201905081810360008301526154ed816154b1565b9050919050565b7f566f74657220416c726561647920566f74656400000000000000000000000000600082015250565b600061552a601383615477565b9150615535826154f4565b602082019050919050565b600060208201905081810360008301526155598161551d565b9050919050565b7f43616e646964617465204469737175616c696669656400000000000000000000600082015250565b6000615596601683615477565b91506155a182615560565b602082019050919050565b600060208201905081810360008301526155c581615589565b9050919050565b7f416c726561647920566f74656420466f7220546869732043616e646964617465600082015250565b6000615602602083615477565b915061560d826155cc565b602082019050919050565b60006020820190508181036000830152615631816155f5565b9050919050565b6156418161499b565b82525050565b600060208201905061565c6000830184615638565b92915050565b60008151905061567181614922565b92915050565b60006020828403121561568d5761568c61490e565b5b600061569b84828501615662565b91505092915050565b7f496e73756666696369656e7420546f6b656e0000000000000000000000000000600082015250565b60006156da601283615477565b91506156e5826156a4565b602082019050919050565b60006020820190508181036000830152615709816156cd565b9050919050565b7f4e487b7100000000000000000000000000000000000000000000000000000000600052603260045260246000fd5b6000819050919050565b6000819050919050565b600061576e6157696157648461573f565b615749565b614918565b9050919050565b61577e81615753565b82525050565b60006060820190506157996000830186615638565b6157a66020830185615638565b6157b36040830184615775565b949350505050565b60008115159050919050565b6157d0816157bb565b81146157db57600080fd5b50565b6000815190506157ed816157c7565b92915050565b6000602082840312156158095761580861490e565b5b6000615817848285016157de565b91505092915050565b7f496e76616c696420506861736500000000000000000000000000000000000000600082015250565b6000615856600d83615477565b915061586182615820565b602082019050919050565b6000602082019050818103600083015261588581615849565b9050919050565b7f4e487b7100000000000000000000000000000000000000000000000000000000600052601160045260246000fd5b60006158c682614918565b91507fffffffffffffffffffffffffffffffffffffffffffffffffffffffffffffffff8214156158f9576158f861588c565b5b600182019050919050565b7f436f756c646e277420566f746500000000000000000000000000000000000000600082015250565b600061593a600d83615477565b915061594582615904565b602082019050919050565b600060208201905081810360008301526159698161592d565b9050919050565b7f43616e64696461746520616c726561647920626c61636b6c6973746564000000600082015250565b60006159a6601d83615477565b91506159b182615970565b602082019050919050565b600060208201905081810360008301526159d581615999565b9050919050565b60006159e782614918565b91506159f283614918565b925082821015615a0557615a0461588c565b5b828203905092915050565b7f4e487b7100000000000000000000000000000000000000000000000000000000600052603160045260246000fd5b7f4e487b7100000000000000000000000000000000000000000000000000000000600052602260045260246000fd5b60006002820490506001821680615a8657607f821691505b60208210811415615a9a57615a99615a3f565b5b50919050565b600081905092915050565b60008190508160005260206000209050919050565b60008154615acd81615a6e565b615ad78186615aa0565b94506001821660008114615af25760018114615b0357615b36565b60ff19831686528186019350615b36565b615b0c85615aab565b60005b83811015615b2e57815481890152600182019150602081019050615b0f565b838801955050505b50505092915050565b6000615b4b8284615ac0565b915081905092915050565b6000615b6182614918565b9150615b6c83614918565b9250817fffffffffffffffffffffffffffffffffffffffffffffffffffffffffffffffff0483118215151615615ba557615ba461588c565b5b828202905092915050565b6000819050919050565b6000615bd5615bd0615bcb84615bb0565b615749565b614918565b9050919050565b615be581615bba565b82525050565b6000604082019050615c006000830185615638565b615c0d6020830184615bdc565b9392505050565b6000615c1f82614918565b9150615c2a83614918565b9250827fffffffffffffffffffffffffffffffffffffffffffffffffffffffffffffffff03821115615c5f57615c5e61588c565b5b828201905092915050565b7f456c656374696f6e206e6f7420666f756e640000000000000000000000000000600082015250565b6000615ca0601283615477565b9150615cab82615c6a565b602082019050919050565b60006020820190508181036000830152615ccf81615c93565b9050919050565b6000615ce182614d35565b615ceb8185615aa0565b9350615cfb818560208601614d51565b80840191505092915050565b6000615d138284615cd6565b915081905092915050565b6000602082019050615d336000830184615775565b92915050565b6000604082019050615d4e6000830185615638565b615d5b6020830184615775565b9392505050565b7f456c656374696f6e20416c726561647920457869737473000000000000000000600082015250565b6000615d98601783615477565b9150615da382615d62565b602082019050919050565b60006020820190508181036000830152615dc781615d8b565b9050919050565b7f456c656374696f6e20446f6573204e6f74204578697374000000000000000000600082015250565b6000615e04601783615477565b9150615e0f82615dce565b602082019050919050565b60006020820190508181036000830152615e3381615df7565b9050919050565b60008160f81b9050919050565b6000615e5282615e3a565b9050919050565b615e6a615e6582614f19565b615e47565b82525050565b6000615e7c8284615e59565b6001820191508190509291505056fea264697066735822122068fe1b673d53b40239d61a87575f6b04e1378a06ee5561c202546f171444cb2464736f6c634300080a0033",
  "immutableReferences": {
    "1034": [
      {
        "length": 32,
        "start": 802
      },
      {
        "length": 32,
        "start": 903
      },
      {
        "length": 32,
        "start": 991
      },
      {
        "length": 32,
        "start": 1078
      },
      {
        "length": 32,
        "start": 3490
      },
      {
        "length": 32,
        "start": 4797
      },
      {
        "length": 32,
        "start": 5262
      },
      {
        "length": 32,
        "start": 5858
      },
      {
        "length": 32,
        "start": 8434
      },
      {
        "length": 32,
        "start": 8783
      },
      {
        "length": 32,
        "start": 8897
      },
      {
        "length": 32,
        "start": 13222
      }
    ]
  },
  "source": "// SPDX-License-Identifier: MIT\npragma solidity ^0.8.9;\n\n// import \"./Candidate.sol\";\n// import \"./Voter.sol\";\nimport \"./AAiTVoteToken.sol\";\n\n// import \"./AAiTStudent.sol\";\n// import \"./AAiTElectionHandler.sol\";\n\nlibrary AAiTElectionLibrary {\n    function contains(address[] memory array, address value)\n        internal\n        pure\n        returns (bool)\n    {\n        for (uint256 i = 0; i < array.length; i++) {\n            if (array[i] == value) {\n                return true;\n            }\n        }\n        return false;\n    }\n\n    function indexOf(address[] memory array, address value)\n        internal\n        pure\n        returns (uint256)\n    {\n        for (uint256 i = 0; i < array.length; i++) {\n            if (array[i] == value) {\n                return i;\n            }\n        }\n        return array.length;\n    }\n\n    function findLargest(uint256[] memory array)\n        internal\n        pure\n        returns (uint256)\n    {\n        uint256 largest = 0;\n        for (uint256 i = 0; i < array.length; i++) {\n            if (array[i] > largest) {\n                largest = array[i];\n            }\n        }\n        return largest;\n    }\n\n    // function bytes32ToString(bytes32 _bytes32)\n    //     internal\n    //     pure\n    //     returns (string memory)\n    // {\n    //     uint8 i = 0;\n    //     while (i < 32 && _bytes32[i] != 0) {\n    //         i++;\n    //     }\n    //     bytes memory bytesArray = new bytes(i);\n    //     for (i = 0; i < 32 && _bytes32[i] != 0; i++) {\n    //         bytesArray[i] = _bytes32[i];\n    //     }\n    //     return string(bytesArray);\n    // }\n}\n\ncontract AAiTElection {\n    enum DEPTARTMENT_TYPE {\n        BIOMED,\n        CHEMICAL,\n        CIVIL,\n        ELEC,\n        MECHANICAL,\n        SITE\n    }\n    enum ELECTION_TYPE {\n        PENDING,\n        ONGOING,\n        COMPLETED\n    }\n    enum PHASE_NAME {\n        REGISTRATION,\n        REGISTRATION_BREAK,\n        SECTION_ELECTION,\n        SECTION_ELECTION_BREAK,\n        BATCH_ELECTION,\n        BATCH_ELECTION_BREAK,\n        DEPARTMENT_ELECTION,\n        COMPLETED\n    }\n    string[] private deptTypes = [\n        \"Biomedical Engineering\",\n        \"Chemical Engineering\",\n        \"Civil Engineering\",\n        \"Electrical Engineering\",\n        \"Mechanical Engineering\",\n        \"Software Engineering\"\n    ];\n\n    struct ElectionStruct {\n        uint256 index;\n        string name;\n        ELECTION_TYPE status;\n        uint256 startDate;\n        uint256 endDate;\n        address[] candidates;\n        address[] winners;\n        uint256 year;\n        uint256 section;\n        DEPTARTMENT_TYPE department;\n    }\n    struct ElectionPhase {\n        PHASE_NAME phaseName;\n        uint256 start;\n        uint256 end;\n    }\n\n    ElectionPhase public phase;\n\n    event LogCurrentElectionPhase(string currentPhase);\n\n    struct ElectionResultStruct {\n        string electionName;\n        // string candidateFullName;\n        // string candidateLName;\n        // string candidateGName;\n        address[] candidateAddress;\n        // uint256 votes;\n    }\n\n    address private immutable owner;\n    address[] private voted;\n    address[] private blacklist;\n\n    // address private AAiTVoteTokenAddress;\n    // address private AAiTStudentAddress;\n    // address private AAiTElectionTimerAddress;\n\n    mapping(string => ElectionStruct) private electionStructsMapping;\n    mapping(address => address[]) private voterToCandidatesMapping;\n    // mapping(address => uint256) private voterRemainingVotesMapping;\n    string[] private electionIndex;\n    ElectionStruct[] private electionValue;\n    ElectionStruct[] private completedElections;\n    ElectionResultStruct[] private completedElectionResults;\n    address[] tempWinners;\n\n    // AAiTElectionHandler electionHandler;\n    // AAiTElectionTimer electionTimer;\n    // AAiTStudent student;\n    AAiTVoteToken voteToken;\n\n    // event LogNewElection(\n    //     uint256 index,\n    //     string name,\n    //     ELECTION_TYPE status,\n    //     string startDate,\n    //     string endDate,\n    //     address[] candidates,\n    //     address[] winners,\n    //     address[] voters,\n    //     address[] voted,\n    //     uint256 year,\n    //     uint256 section,\n    //     DEPTARTMENT_TYPE department\n    // );\n    // event LogUpdateElection(\n    //     uint256 index,\n    //     string name,\n    //     ELECTION_TYPE status,\n    //     string startDate,\n    //     string endDate,\n    //     address[] candidates,\n    //     address[] winners,\n    //     address[] voters,\n    //     address[] voted,\n    //     uint256 year,\n    //     uint256 section,\n    //     DEPTARTMENT_TYPE department\n    // );\n\n    modifier onlyOwner() {\n        require(msg.sender == owner);\n        _;\n    }\n\n    constructor(\n        address _AAiTVoteTokenAddress // address _AAiTStudentAddress, // address _AAiTElectionTimerAddress\n    ) {\n        owner = msg.sender;\n        // AAiTVoteTokenAddress = _AAiTVoteTokenAddress;\n        // AAiTStudentAddress = _AAiTStudentAddress;\n        // AAiTElectionTimerAddress = _AAiTElectionTimerAddress;\n        // electionHandler = AAiTElectionHandler(AAiTElectionHandlerAddress);\n        // electionTimer = AAiTElectionTimer(_AAiTElectionTimerAddress);\n        // student = AAiTStudent(_AAiTStudentAddress);\n        voteToken = AAiTVoteToken(_AAiTVoteTokenAddress);\n        phase = ElectionPhase(PHASE_NAME.COMPLETED, 0, 0);\n    }\n\n    //  REGISTRATION,\n    //     REGISTRATION_BREAK,\n    //     SECTION_ELECTION,\n    //     // SECTION_ELECTION_DONE,\n    //     SECTION_ELECTION_BREAK,\n    //     BATCH_ELECTION,\n    //     BATCH_ELECTION_BREAK,\n    //     // BATCH_ELECTION_DONE,\n    //     DEPARTMENT_ELECTION,\n    //     // DEPARTMENT_ELECTION_DONE,\n    //     COMPLETED\n\n    // function changeVal(string memory _newVal) internal {\n    //     require(msg.sender == owner, \"Only the owner can change the value\");\n    //     val = _newVal;\n    //     // IERC20(token).transferFrom(msg.sender, address(this), amount);\n    // }\n\n    // function getPhaseEnd() public view returns (uint256) {\n    //     return end;\n    // }\n\n    // function startTimer(uint256 _votingDuration, uint256 _breakDuration)\n    //     public\n    //     onlyOwner\n    // {\n    //     if (phase.phaseName == PHASE_NAME.COMPLETED) {\n    //         votingDuration = _votingDuration;\n    //         breakDuration = _breakDuration;\n    //         phase = ElectionPhase(\n    //             PHASE_NAME.REGISTRATION,\n    //             block.timestamp,\n    //             block.timestamp + votingDuration\n    //         );\n    //     }\n    // }\n\n    // function stopTimer() public onlyOwner {\n    //     phase = ElectionPhase(PHASE_NAME.COMPLETED, 0, 0);\n    // }\n    function getCurrentPhase() public view returns (ElectionPhase memory) {\n        return phase;\n    }\n\n    function changePhase(uint256 startDate, uint256 endDate) public onlyOwner {\n        // require(msg.sender == owner, \"Only the owner can change the phase\");\n\n        if (phase.phaseName == PHASE_NAME.DEPARTMENT_ELECTION) {\n            phase = ElectionPhase(PHASE_NAME.COMPLETED, 0, 0);\n            // changeVal(\"unos\");\n            return;\n        } else if (phase.phaseName == PHASE_NAME.COMPLETED) {\n            phase = ElectionPhase(PHASE_NAME.REGISTRATION, startDate, endDate);\n            return;\n        }\n        // return uint(phase.phaseName)+1;\n        phase.phaseName = PHASE_NAME(uint256(phase.phaseName) + 1);\n        // phase.phaseName = PHASE_NAME.REGISTRATION_BREAK;\n        phase.start = startDate;\n        // phase.end = block.timestamp + _newEnd;\n        phase.end = endDate;\n    }\n\n    // function getRemainingTime() external view returns (uint256) {\n    //     if (phase.phaseName == PHASE_NAME.COMPLETED) {\n    //         return 0;\n    //     }\n    //     return phase.end - block.timestamp;\n    // }\n\n    // ELECTION FUNCTIONS\n\n    function findElectionByName(string memory _name)\n        private\n        view\n        returns (bool)\n    {\n        for (uint256 i = 0; i < electionValue.length; i++) {\n            if (\n                keccak256(abi.encodePacked(electionValue[i].name)) ==\n                keccak256(abi.encodePacked(_name))\n            ) {\n                return true;\n            }\n        }\n        return false;\n    }\n\n    function findElectionByType(\n        uint256 year,\n        uint256 section,\n        DEPTARTMENT_TYPE department\n    ) private view returns (bool) {\n        for (uint256 i = 0; i < electionValue.length; i++) {\n            if (\n                electionValue[i].year == year &&\n                electionValue[i].section == section &&\n                keccak256(abi.encodePacked(electionValue[i].department)) ==\n                keccak256(abi.encodePacked(department))\n            ) {\n                return true;\n            }\n        }\n        return false;\n    }\n\n    // function addElection(\n    //     string memory name,\n    //     ELECTION_TYPE status,\n    //     string memory startDate,\n    //     string memory endDate,\n    //     address[] memory candidates,\n    //     address[] memory voters,\n    //     uint256 year,\n    //     uint256 section,\n    //     DEPTARTMENT_TYPE department\n    // ) public {\n    //     require(\n    //         !findElectionByName(name) ||\n    //             !findElectionByType(year, section, department),\n    //         \"exists\"\n    //     );\n\n    //     uint256 index = allElections.length;\n    //     address[] memory empty;\n    //     electionStructsMapping[name] = ElectionStruct(\n    //         allElections.length,\n    //         name,\n    //         status,\n    //         startDate,\n    //         endDate,\n    //         candidates,\n    //         empty,\n    //         voters,\n    //         empty,\n    //         year,\n    //         section,\n    //         department\n    //     );\n    //     allElections.push(\n    //         ElectionStruct({\n    //             index: allElections.length,\n    //             name: name,\n    //             status: status,\n    //             startDate: startDate,\n    //             endDate: endDate,\n    //             candidates: candidates,\n    //             winners: empty,\n    //             voters: voters,\n    //             voted: empty,\n    //             year: year,\n    //             section: section,\n    //             department: department\n    //         })\n    //     );\n    // }\n\n    // function setElectionHandler(address _AAiTElectionHandlerAddress)\n    //     public\n    //     onlyOwner\n    // {\n    //     electionHandler = AAiTElectionHandler(_AAiTElectionHandlerAddress);\n    // }\n\n    function createElection(\n        string memory name,\n        uint256 startDate,\n        uint256 endDate,\n        address[] memory candidates,\n        uint256 year,\n        uint256 section,\n        DEPTARTMENT_TYPE department\n    ) external {\n        address[] memory empty;\n        // electionStructsMapping[name].name =\n\n        require(\n            !findElectionByName(name) &&\n                !findElectionByType(year, section, department),\n            \"Election Already Exists\"\n        );\n        electionIndex.push(name);\n        ElectionStruct memory tempElection = ElectionStruct(\n            electionIndex.length - 1,\n            name,\n            ELECTION_TYPE.ONGOING,\n            startDate,\n            endDate,\n            candidates,\n            empty,\n            year,\n            section,\n            department\n        );\n        electionStructsMapping[name] = tempElection;\n        electionValue.push(tempElection);\n        // emit LogNewElection(electionStruct);\n\n        // return electionStruct;\n        // revert(\"Invalid Operation\");\n        // return true;\n    }\n\n    // function retrieveElections() public {\n    //     // allElections = ;\n    //     delete allElections;\n    //     delete electionIndex;\n    //     delete electionValue;\n    //     // delete electionStructsMapping;\n    //     ElectionStruct[] memory temp = electionHandler.getPendingElections();\n    //     for (uint256 i = 0; i < temp.length; i++) {\n    //         electionStructsMapping[temp[i].name] = temp[i];\n    //         allElections.push(temp[i]);\n    //         electionIndex.push(temp[i].name);\n    //         electionValue.push(temp[i]);\n    //         // electionStructsMapping[allElections[i].name] = allElections[i];\n    //         // electionIndex.push(allElections[i].name);\n    //         // electionValue.push(allElections[i]);\n    //     }\n    // }\n\n    // function removeElection(string memory name) internal onlyOwner {\n    //     require(findElectionByName(name), \"No Election\");\n    // uint256 rowToDelete = electionStructsMapping[name].index;\n    // // string memory keyToMove = electionIndex[electionIndex.length - 1];\n    // electionIndex[electionStructsMapping[name].index] = electionIndex[\n    //     electionIndex.length - 1\n    // ];\n    // electionStructsMapping[electionIndex[electionIndex.length - 1]]\n    //     .index = electionStructsMapping[name].index;\n\n    // electionValue[electionStructsMapping[name].index] = electionValue[\n    //     electionValue.length - 1\n    // ];\n    // electionValue[electionStructsMapping[name].index]\n    //     .index = electionStructsMapping[name].index;\n    // electionValue.pop();\n    // electionIndex.pop();\n    // delete allElections[electionStructsMapping[name].index];\n    // previousElections.push(\n    //     electionStructsMapping[electionIndex[electionIndex.length - 1]]\n    // );\n    // delete electionStructsMapping[electionIndex[electionIndex.length - 1]];\n    // }\n\n    function vote(address voterAddress, address candidateAddress)\n        public\n        onlyOwner\n    {\n        // AAiTVoteToken tempToken = AAiTVoteToken(AAiTVoteTokenAddress);\n        // AAiTStudent student = AAiTStudent(AAiTStudentAddress);\n        // AAiTStudent.VoterStruct memory tempVoter = student.getVoter(\n        //     voterAddress\n        // );\n        // require(voterAddress != address(0), \"Invalid Address\");\n        // require(candidateAddress != address(0), \"Invalid Address\");\n        require(\n            voterAddress != owner && candidateAddress != owner,\n            \"Invalid Operation\"\n        );\n        require(\n            voterToCandidatesMapping[voterAddress].length < 2,\n            \"Voter Already Voted\"\n        );\n        require(\n            !AAiTElectionLibrary.contains(blacklist, candidateAddress),\n            \"Candidate Disqualified\"\n        );\n        require(\n            !AAiTElectionLibrary.contains(\n                voterToCandidatesMapping[voterAddress],\n                candidateAddress\n            ),\n            \"Already Voted For This Candidate\"\n        );\n        // require()\n\n        require(voteToken.balanceOf(voterAddress) > 0, \"Insufficient Token\");\n\n        for (uint256 i = 0; i < electionValue.length; i++) {\n            if (\n                AAiTElectionLibrary.contains(\n                    electionValue[i].candidates,\n                    candidateAddress\n                )\n            ) {\n                if (electionValue[i].status == ELECTION_TYPE.ONGOING) {\n                    if (\n                        AAiTElectionLibrary.contains(\n                            electionValue[i].candidates,\n                            voterAddress\n                        )\n                    ) {\n                        candidateVote(voterAddress, candidateAddress);\n                        voterToCandidatesMapping[voterAddress].push(\n                            candidateAddress\n                        );\n                        voted.push(voterAddress);\n                    } else {\n                        require(\n                            voterAddress != candidateAddress,\n                            \"Invalid Operation\"\n                        );\n                        voteToken.transferFrom(\n                            voterAddress,\n                            candidateAddress,\n                            1\n                        );\n                        voterToCandidatesMapping[voterAddress].push(\n                            candidateAddress\n                        );\n\n                        voted.push(voterAddress);\n                    }\n\n                    return;\n                } else {\n                    revert(\"Invalid Phase\");\n                }\n            }\n            continue;\n        }\n\n        revert(\"Couldn't Vote\");\n\n        // require(\n        //     ,\n        //     \"You have already voted\"\n        // );\n        // moveToVoted(\n        //     voterAddress,\n        //     getElectionByType(\n        //         tempVoter.voterInfo.voterInfo.currentYear,\n        //         tempVoter.voterInfo.voterInfo.currentSection,\n        //         DEPTARTMENT_TYPE(\n        //             uint256(tempVoter.voterInfo.voterInfo.currentDepartment)\n        //         )\n        //     ).name\n        // // );\n        // string memory tempName = getElectionByType(\n        //     tempVoter.voterInfo.voterInfo.currentYear,\n        //     tempVoter.voterInfo.voterInfo.currentSection,\n        //     DEPTARTMENT_TYPE(\n        //         uint256(tempVoter.voterInfo.voterInfo.currentDepartment)\n        //     )\n        // ).name;\n\n        // // electionStructsMapping[tempName].voted.push(voterAddress);\n        // delete electionStructsMapping[electionName].voters[index];\n        // uint256 index = electionStructsMapping[electionName].index;\n        // electionValue[electionStructsMapping[tempName].index]\n        //     .voted = electionStructsMapping[tempName].voted;\n        // allElections[electionStructsMapping[tempName].index]\n        //     .voted = electionStructsMapping[tempName].voted;\n    }\n\n    function candidateVote(address voterAddress, address candidateAddress)\n        public\n        onlyOwner\n    {\n        // AAiTVoteToken tempToken = AAiTVoteToken(AAiTVoteTokenAddress);\n        voteToken.mint(1);\n\n        voteToken.transfer(voterAddress, 1);\n        voteToken.transferFrom(voterAddress, candidateAddress, 1);\n    }\n\n    // function moveToVoted(address voterAddress, address candidateAddress)\n    //     internal\n    //     onlyOwner\n    // {\n    //     if (voterRemainingVotesMapping[voterAddress] == 0) {\n    //         voted.push(voterAddress);\n    //     }\n    // }\n\n    // AAiTVoteToken tempToken = AAiTVoteToken(AAiTVoteTokenAddress);\n\n    function extendPhase(uint256 endDate) external onlyOwner {\n        phase.end = endDate;\n        // electionStructsMapping[electionName].endDate =\n        //     block.timestamp +\n        //     duration;\n        // electionValue[electionStructsMapping[electionName].index]\n        //     .endDate = electionStructsMapping[electionName].endDate;\n    }\n\n    // function pauseElection(string memory electionName) external onlyOwner {\n    //     electionStructsMapping[electionName].status = ELECTION_TYPE.PENDING;\n    // }\n\n    // function continueElection(string memory electionName) external onlyOwner {\n    //     electionStructsMapping[electionName].status = ELECTION_TYPE.ONGOING;\n    // }\n\n    function endElection(string memory electionName) external onlyOwner {\n        // electionStructsMapping[electionName].status = ELECTION_TYPE.ENDED;\n        // electionValue[electionStructsMapping[electionName].index]\n        //     .status = ELECTION_TYPE.ENDED;\n        require(findElectionByName(electionName), \"Election Does Not Exist\");\n        declareWinner(electionName);\n        completedElections.push(electionStructsMapping[electionName]);\n        completedElectionResults.push(\n            ElectionResultStruct(\n                electionName,\n                getElectionByName(electionName).candidates\n            )\n        );\n        uint256 rowToDelete = electionStructsMapping[electionName].index;\n        string memory keyToMove = electionIndex[electionIndex.length - 1];\n        electionIndex[rowToDelete] = keyToMove;\n        electionStructsMapping[keyToMove].index = rowToDelete;\n        electionIndex.pop();\n        electionValue[rowToDelete] = electionValue[electionValue.length - 1];\n        electionValue.pop();\n    }\n\n    function removeAllCompletedElections() external onlyOwner {\n        delete completedElections;\n        // delete electionStructsMapping;\n        delete electionValue;\n        delete electionIndex;\n        // delete voterRemainingVotesMapping;\n        for (uint256 i = 0; i < voted.length; i++) {\n            delete voterToCandidatesMapping[voted[i]];\n        }\n        delete voted;\n    }\n\n    function declareWinner(string memory electionName) internal {\n        // AAiTVoteToken tempToken = AAiTVoteToken(AAiTVoteTokenAddress);\n        ElectionStruct memory temp = electionStructsMapping[electionName];\n        delete tempWinners;\n        uint256[] memory tempVoteCount = new uint256[](temp.candidates.length);\n        for (uint256 i = 0; i < temp.candidates.length; i++) {\n            tempVoteCount[i] = voteToken.balanceOf(temp.candidates[i]);\n            // tempVoteCount.push(tempToken.balanceOf(temp.candidates[i]));\n        }\n        uint256 max = AAiTElectionLibrary.findLargest(tempVoteCount);\n        for (uint256 i = 0; i < temp.candidates.length; i++) {\n            if (tempVoteCount[i] == max) {\n                // winners[i] = temp.candidates[i];\n                tempWinners.push(temp.candidates[i]);\n            }\n        }\n\n        temp.winners = tempWinners;\n        temp.status = ELECTION_TYPE.COMPLETED;\n\n        electionStructsMapping[electionName] = temp;\n        electionValue[electionStructsMapping[electionName].index] = temp;\n        // allElections[electionStructsMapping[electionName].index] = temp;\n\n        // sort candidates\n        // uint256[] memory sortedCandidates = temp.candidates;\n\n        // removeElection(electionName);\n\n        // uint256 index = electionStructsMapping[electionName].index;\n        // uint256 winnerIndex = electionStructsMapping[electionName].winners.length;\n        // electionStructsMapping[electionName].winners.push(electionStructsMapping[electionName].candidates[winnerIndex]);\n    }\n\n    function blacklistCandidate(address candidateAddress) public onlyOwner {\n        // AAiTStudent student = AAiTStudent(AAiTStudentAddress);\n        // AAiTStudent.CandidateStruct memory tempCandidate = student.getCandidate(\n        //     candidateAddress\n        // );\n        // ElectionStruct[] memory tempElection = allElections;\n        require(\n            !AAiTElectionLibrary.contains(blacklist, candidateAddress),\n            \"Candidate already blacklisted\"\n        );\n        for (uint256 i = 0; i < electionValue.length; i++) {\n            if (\n                AAiTElectionLibrary.contains(\n                    electionValue[i].candidates,\n                    candidateAddress\n                )\n            ) {\n                uint256 index = AAiTElectionLibrary.indexOf(\n                    electionValue[i].candidates,\n                    candidateAddress\n                );\n\n                // require(index < electionValue[i].candidates.length);\n                electionValue[i].candidates[index] = electionValue[i]\n                    .candidates[electionValue[i].candidates.length - 1];\n                electionValue[i].candidates.pop();\n                electionStructsMapping[electionValue[i].name]\n                    .candidates = electionValue[i].candidates;\n\n                // student.removeCandidate(\n                //     // tempCandidate.candidateInfo.candidateInfo.fName,\n                //     // tempCandidate.candidateInfo.candidateInfo.lName,\n                //     // tempCandidate.candidateInfo.candidateInfo.gName,\n                //     candidateAddress\n                // );\n\n                blacklist.push(candidateAddress);\n                // return true;\n            }\n        }\n        // revert(\"Invalid Operation\");\n    }\n\n    function burnAllTokens(address[] memory users) public onlyOwner {\n        // AAiTVoteToken tempToken = AAiTVoteToken(AAiTVoteTokenAddress);\n        // AAiTStudent tempStudent = AAiTStudent(AAiTStudentAddress);\n        // AAiTStudent.CandidateStruct[] memory tempCandidate = student\n        //     .getAllCandidates();\n        // AAiTStudent.VoterStruct[] memory tempVoter = student.getAllVoters();\n        for (uint256 i = 0; i < users.length; i++) {\n            voteToken.burn(users[i]);\n        }\n\n        voteToken.burn(owner);\n        // temp.burnRemainingTokens(owner);\n    }\n\n    function mintAndSendTokens(address[] memory voters) public onlyOwner {\n        // AAiTVoteToken tempToken = AAiTVoteToken(AAiTVoteTokenAddress);\n        // AAiTStudent tempStudent = AAiTStudent(AAiTStudentAddress);\n        // AAiTStudent.VoterStruct[] memory tempVoters = student.getAllVoters();\n        // uint256 totalTokenCount = tempVoters.length;\n        voteToken.mint((voters.length) * 2);\n        for (uint256 i = 0; i < voters.length; i++) {\n            voteToken.transfer(voters[i], 2);\n        }\n    }\n\n    // function endElection(string memory electionName) public onlyOwner {\n    //     declareWinner(electionName);\n    //     removeElection(electionName);\n    // }\n\n    // function getElectionResult(string memory electionName)\n    //     public\n    //     view\n    //     returns (ElectionResultStruct[] memory)\n    // {\n    //     // ElectionStruct memory temp = electionStructsMapping[electionName];\n    //     ElectionResultStruct[] memory result = new ElectionResultStruct[](\n    //         electionStructsMapping[electionName].candidates.length\n    //     );\n    //     // AAiTVoteToken tempToken = AAiTVoteToken(AAiTVoteTokenAddress);\n    //     // AAiTStudent student = AAiTStudent(AAiTStudentAddress);\n\n    //     for (\n    //         uint256 i = 0;\n    //         i < electionStructsMapping[electionName].candidates.length;\n    //         i++\n    //     ) {\n    //         AAiTStudent.CandidateStruct memory tempCandidate = student\n    //             .getCandidate(\n    //                 electionStructsMapping[electionName].candidates[i]\n    //             );\n    //         ElectionResultStruct memory tempResult = ElectionResultStruct(\n    //             tempCandidate.candidateInfo.candidateInfo.fullName,\n    //             // tempCandidate.candidateInfo.candidateInfo.lName,\n    //             // tempCandidate.candidateInfo.candidateInfo.gName,\n    //             electionStructsMapping[electionName].candidates[i],\n    //             voteToken.balanceOf(\n    //                 electionStructsMapping[electionName].candidates[i]\n    //             )\n    //         );\n    //         result[i] = tempResult;\n    //     }\n    //     return result;\n    // }\n\n    // function goToNextPhase() public onlyOwner {\n    //     AAiTElectionTimer.ElectionPhase memory tempPhase = electionTimer\n    //         .getCurrentPhase();\n    //     if (tempPhase.phaseName == AAiTElectionTimer.PHASE_NAME.REGISTRATION) {\n    //         electionTimer.changePhase();\n    //         // electionTimer.goToNextPhase();\n    //     } else if (\n    //         tempPhase.phaseName ==\n    //         AAiTElectionTimer.PHASE_NAME.REGISTRATION_BREAK\n    //     ) {\n    //         electionTimer.changePhase();\n    //         // electionHandler.generateElectionsPerPhase();\n    //         // retrieveElections();\n    //         // electionHandler.mintAndSendTokens();\n    //     } else if (\n    //         tempPhase.phaseName == AAiTElectionTimer.PHASE_NAME.SECTION_ELECTION\n    //     ) {\n    //         electionTimer.changePhase();\n    //         electionHandler.endAllOngoingElections();\n    //         electionHandler.burnAllTokens();\n    //     } else if (\n    //         tempPhase.phaseName ==\n    //         AAiTElectionTimer.PHASE_NAME.SECTION_ELECTION_BREAK\n    //     ) {\n    //         electionTimer.changePhase();\n    //         retrieveElections();\n    //         electionHandler.mintAndSendTokens();\n    //     } else if (\n    //         tempPhase.phaseName == AAiTElectionTimer.PHASE_NAME.BATCH_ELECTION\n    //     ) {\n    //         electionTimer.changePhase();\n    //         electionHandler.endAllOngoingElections();\n    //         electionHandler.burnAllTokens();\n    //     } else if (\n    //         tempPhase.phaseName ==\n    //         AAiTElectionTimer.PHASE_NAME.BATCH_ELECTION_BREAK\n    //     ) {\n    //         electionTimer.changePhase();\n    //         retrieveElections();\n    //         electionHandler.mintAndSendTokens();\n    //     } else if (\n    //         tempPhase.phaseName ==\n    //         AAiTElectionTimer.PHASE_NAME.DEPARTMENT_ELECTION\n    //     ) {\n    //         electionTimer.changePhase();\n    //         electionHandler.endAllOngoingElections();\n    //         electionHandler.burnAllTokens();\n    //     } else if (\n    //         tempPhase.phaseName == AAiTElectionTimer.PHASE_NAME.COMPLETED\n    //     ) {\n    //         electionTimer.changePhase();\n    //     } else {\n    //         revert(\"Invalid Operation\");\n    //     }\n    // }\n\n    // function moveToVoted(address voterAddress, string memory electionName)\n    //     private\n    // {\n    //     // uint256 index = electionStructsMapping[electionName].index;\n\n    //     electionStructsMapping[electionName].voted.push(voterAddress);\n    //     // delete electionStructsMapping[electionName].voters[index];\n    //     // uint256 index = electionStructsMapping[electionName].index;\n    //     electionValue[electionStructsMapping[electionName].index]\n    //         .voted = electionStructsMapping[electionName].voted;\n    //     // emit LogUpdateElection(\n    //     //     index,\n    //     //     electionStructsMapping[electionName].name,\n    //     //     electionStructsMapping[electionName].status,\n    //     //     electionStructsMapping[electionName].startDate,\n    //     //     electionStructsMapping[electionName].endDate,\n    //     //     electionStructsMapping[electionName].candidates,\n    //     //     electionStructsMapping[electionName].winners,\n    //     //     electionStructsMapping[electionName].voters,\n    //     //     electionStructsMapping[electionName].voted,\n    //     //     electionStructsMapping[electionName].year,\n    //     //     electionStructsMapping[electionName].section,\n    //     //     electionStructsMapping[electionName].department\n    //     // );\n    // }\n\n    // GET FUNCTIONS\n\n    function getVotesRemaining(address voterAddress)external view returns (uint256) {\n        return voterToCandidatesMapping[voterAddress].length;\n    }\n\n    function getAllCurrentElections()\n        public\n        view\n        returns (ElectionStruct[] memory)\n    {\n        return electionValue;\n    }\n\n    function getAllCompletedElections()\n        public\n        view\n        returns (ElectionStruct[] memory)\n    {\n        return completedElections;\n    }\n\n    function getElectionByName(string memory electionName)\n        public\n        view\n        returns (ElectionStruct memory)\n    {\n        require(findElectionByName(electionName), \"Election not found\");\n        return electionStructsMapping[electionName];\n    }\n\n    function getElectionByType(\n        uint256 year,\n        uint256 section,\n        DEPTARTMENT_TYPE department\n    ) public view returns (ElectionStruct memory result) {\n        require(\n            findElectionByType(year, section, department),\n            \"Election not found\"\n        );\n        // AAiTElectionTimer electionTimer = AAiTElectionTimer(\n        //     AAiTElectionTimerAddress\n        // );\n        // AAiTElection tempElection = AAiTElection(AAiTElectionAddress);\n        // AAiTElection.ElectionStruct[] memory allElections = tempElection\n        //     .getAllElections();\n        // ElectionPhase memory phase = getCurrentPhase();\n        if (\n            phase.phaseName == PHASE_NAME.DEPARTMENT_ELECTION\n            // ||\n            // phase.phaseName ==\n            // PHASE_NAME.DEPARTMENT_ELECTION_DONE\n        ) {\n            for (uint256 i = 0; i < electionValue.length; i++) {\n                if (electionValue[i].department == department) {\n                    return electionValue[i];\n                }\n            }\n        } else if (\n            phase.phaseName == PHASE_NAME.BATCH_ELECTION\n            // ||\n            // phase.phaseName ==\n            // PHASE_NAME.BATCH_ELECTION_DONE\n        ) {\n            for (uint256 i = 0; i < electionValue.length; i++) {\n                if (\n                    electionValue[i].department == department &&\n                    electionValue[i].year == year\n                ) {\n                    return electionValue[i];\n                }\n            }\n        } else if (\n            phase.phaseName == PHASE_NAME.SECTION_ELECTION\n            // ||\n            // phase.phaseName ==\n            // PHASE_NAME.SECTION_ELECTION_DONE\n        ) {\n            for (uint256 i = 0; i < electionValue.length; i++) {\n                if (\n                    electionValue[i].department == department &&\n                    electionValue[i].year == year &&\n                    electionValue[i].section == section\n                ) {\n                    return electionValue[i];\n                }\n            }\n        } else {\n            revert(\"Invalid Operation\");\n        }\n    }\n}\n",
  "sourcePath": "/home/dannyterefe/Documents/VSCode_Projects/Final_Project/authStateMukera/final-project-updated/dvbst_smart_contracts/contracts/AAiTElection.sol",
  "compiler": {
    "name": "solc",
    "version": "0.8.10+commit.fc410830.Emscripten.clang"
  },
  "schemaVersion": "3.4.4",
  "updatedAt": "2022-06-23T18:55:31.084Z",
  "networkType": "ethereum",
  "devdoc": {
    "kind": "dev",
    "methods": {},
    "version": 1
  },
  "userdoc": {
    "kind": "user",
    "methods": {},
    "version": 1
  }
}