{
  "contractName": "AAiTElection",
  "abi": [
    {
      "inputs": [
        {
          "internalType": "address",
          "name": "_AAiTVoteTokenAddress",
          "type": "address"
        }
      ],
      "stateMutability": "nonpayable",
      "type": "constructor"
    },
    {
      "anonymous": false,
      "inputs": [
        {
          "indexed": false,
          "internalType": "string",
          "name": "currentPhase",
          "type": "string"
        }
      ],
      "name": "LogCurrentElectionPhase",
      "type": "event"
    },
    {
      "inputs": [],
      "name": "phase",
      "outputs": [
        {
          "internalType": "enum AAiTElection.PHASE_NAME",
          "name": "phaseName",
          "type": "uint8"
        },
        {
          "internalType": "uint256",
          "name": "start",
          "type": "uint256"
        },
        {
          "internalType": "uint256",
          "name": "end",
          "type": "uint256"
        }
      ],
      "stateMutability": "view",
      "type": "function",
      "constant": true
    },
    {
      "inputs": [],
      "name": "getCurrentPhase",
      "outputs": [
        {
          "components": [
            {
              "internalType": "enum AAiTElection.PHASE_NAME",
              "name": "phaseName",
              "type": "uint8"
            },
            {
              "internalType": "uint256",
              "name": "start",
              "type": "uint256"
            },
            {
              "internalType": "uint256",
              "name": "end",
              "type": "uint256"
            }
          ],
          "internalType": "struct AAiTElection.ElectionPhase",
          "name": "",
          "type": "tuple"
        }
      ],
      "stateMutability": "view",
      "type": "function",
      "constant": true
    },
    {
      "inputs": [
        {
          "internalType": "uint256",
          "name": "startDate",
          "type": "uint256"
        },
        {
          "internalType": "uint256",
          "name": "endDate",
          "type": "uint256"
        }
      ],
      "name": "changePhase",
      "outputs": [],
      "stateMutability": "nonpayable",
      "type": "function"
    },
    {
      "inputs": [
        {
          "internalType": "uint256",
          "name": "phaseName",
          "type": "uint256"
        },
        {
          "internalType": "uint256",
          "name": "startDate",
          "type": "uint256"
        },
        {
          "internalType": "uint256",
          "name": "endDate",
          "type": "uint256"
        }
      ],
      "name": "revertPhase",
      "outputs": [],
      "stateMutability": "nonpayable",
      "type": "function"
    },
    {
      "inputs": [
        {
          "internalType": "string",
          "name": "name",
          "type": "string"
        },
        {
          "internalType": "uint256",
          "name": "startDate",
          "type": "uint256"
        },
        {
          "internalType": "uint256",
          "name": "endDate",
          "type": "uint256"
        },
        {
          "internalType": "address[]",
          "name": "candidates",
          "type": "address[]"
        },
        {
          "internalType": "uint256",
          "name": "year",
          "type": "uint256"
        },
        {
          "internalType": "uint256",
          "name": "section",
          "type": "uint256"
        },
        {
          "internalType": "enum AAiTElection.DEPTARTMENT_TYPE",
          "name": "department",
          "type": "uint8"
        }
      ],
      "name": "createElection",
      "outputs": [],
      "stateMutability": "nonpayable",
      "type": "function"
    },
    {
      "inputs": [
        {
          "internalType": "address",
          "name": "voterAddress",
          "type": "address"
        },
        {
          "internalType": "address",
          "name": "candidateAddress",
          "type": "address"
        }
      ],
      "name": "vote",
      "outputs": [],
      "stateMutability": "nonpayable",
      "type": "function"
    },
    {
      "inputs": [
        {
          "internalType": "address",
          "name": "voterAddress",
          "type": "address"
        },
        {
          "internalType": "address",
          "name": "candidateAddress",
          "type": "address"
        }
      ],
      "name": "candidateVote",
      "outputs": [],
      "stateMutability": "nonpayable",
      "type": "function"
    },
    {
      "inputs": [
        {
          "internalType": "uint256",
          "name": "endDate",
          "type": "uint256"
        }
      ],
      "name": "extendPhase",
      "outputs": [],
      "stateMutability": "nonpayable",
      "type": "function"
    },
    {
      "inputs": [
        {
          "internalType": "string",
          "name": "electionName",
          "type": "string"
        },
        {
          "internalType": "uint256",
          "name": "endDate",
          "type": "uint256"
        }
      ],
      "name": "extendElection",
      "outputs": [],
      "stateMutability": "nonpayable",
      "type": "function"
    },
    {
      "inputs": [
        {
          "internalType": "string",
          "name": "electionName",
          "type": "string"
        }
      ],
      "name": "pauseElection",
      "outputs": [],
      "stateMutability": "nonpayable",
      "type": "function"
    },
    {
      "inputs": [
        {
          "internalType": "string",
          "name": "electionName",
          "type": "string"
        }
      ],
      "name": "startElection",
      "outputs": [],
      "stateMutability": "nonpayable",
      "type": "function"
    },
    {
      "inputs": [
        {
          "internalType": "string",
          "name": "electionName",
          "type": "string"
        }
      ],
      "name": "completeElection",
      "outputs": [],
      "stateMutability": "nonpayable",
      "type": "function"
    },
    {
      "inputs": [
        {
          "internalType": "string",
          "name": "electionName",
          "type": "string"
        }
      ],
      "name": "endElection",
      "outputs": [],
      "stateMutability": "nonpayable",
      "type": "function"
    },
    {
      "inputs": [
        {
          "internalType": "string",
          "name": "electionName",
          "type": "string"
        }
      ],
      "name": "removeElection",
      "outputs": [],
      "stateMutability": "nonpayable",
      "type": "function"
    },
    {
      "inputs": [
        {
          "internalType": "address[]",
          "name": "voters",
          "type": "address[]"
        }
      ],
      "name": "removeVotesRemainingForVoters",
      "outputs": [],
      "stateMutability": "nonpayable",
      "type": "function"
    },
    {
      "inputs": [],
      "name": "removeAllCompletedElections",
      "outputs": [],
      "stateMutability": "nonpayable",
      "type": "function"
    },
    {
      "inputs": [
        {
          "internalType": "address",
          "name": "candidateAddress",
          "type": "address"
        }
      ],
      "name": "blacklistCandidate",
      "outputs": [],
      "stateMutability": "nonpayable",
      "type": "function"
    },
    {
      "inputs": [
        {
          "internalType": "address[]",
          "name": "users",
          "type": "address[]"
        }
      ],
      "name": "burnAllTokens",
      "outputs": [],
      "stateMutability": "nonpayable",
      "type": "function"
    },
    {
      "inputs": [
        {
          "internalType": "address[]",
          "name": "voters",
          "type": "address[]"
        }
      ],
      "name": "mintAndSendTokens",
      "outputs": [],
      "stateMutability": "nonpayable",
      "type": "function"
    },
    {
      "inputs": [
        {
          "internalType": "address",
          "name": "voterAddress",
          "type": "address"
        }
      ],
      "name": "getVotesRemaining",
      "outputs": [
        {
          "internalType": "uint256",
          "name": "",
          "type": "uint256"
        }
      ],
      "stateMutability": "view",
      "type": "function",
      "constant": true
    },
    {
      "inputs": [],
      "name": "getAllCurrentElections",
      "outputs": [
        {
          "components": [
            {
              "internalType": "uint256",
              "name": "index",
              "type": "uint256"
            },
            {
              "internalType": "string",
              "name": "name",
              "type": "string"
            },
            {
              "internalType": "enum AAiTElection.ELECTION_STATUS",
              "name": "status",
              "type": "uint8"
            },
            {
              "internalType": "uint256",
              "name": "startDate",
              "type": "uint256"
            },
            {
              "internalType": "uint256",
              "name": "endDate",
              "type": "uint256"
            },
            {
              "internalType": "address[]",
              "name": "candidates",
              "type": "address[]"
            },
            {
              "internalType": "address[]",
              "name": "winners",
              "type": "address[]"
            },
            {
              "internalType": "uint256",
              "name": "year",
              "type": "uint256"
            },
            {
              "internalType": "uint256",
              "name": "section",
              "type": "uint256"
            },
            {
              "internalType": "enum AAiTElection.DEPTARTMENT_TYPE",
              "name": "department",
              "type": "uint8"
            }
          ],
          "internalType": "struct AAiTElection.ElectionStruct[]",
          "name": "",
          "type": "tuple[]"
        }
      ],
      "stateMutability": "view",
      "type": "function",
      "constant": true
    },
    {
      "inputs": [],
      "name": "getAllCompletedElections",
      "outputs": [
        {
          "components": [
            {
              "internalType": "uint256",
              "name": "index",
              "type": "uint256"
            },
            {
              "internalType": "string",
              "name": "name",
              "type": "string"
            },
            {
              "internalType": "enum AAiTElection.ELECTION_STATUS",
              "name": "status",
              "type": "uint8"
            },
            {
              "internalType": "uint256",
              "name": "startDate",
              "type": "uint256"
            },
            {
              "internalType": "uint256",
              "name": "endDate",
              "type": "uint256"
            },
            {
              "internalType": "address[]",
              "name": "candidates",
              "type": "address[]"
            },
            {
              "internalType": "address[]",
              "name": "winners",
              "type": "address[]"
            },
            {
              "internalType": "uint256",
              "name": "year",
              "type": "uint256"
            },
            {
              "internalType": "uint256",
              "name": "section",
              "type": "uint256"
            },
            {
              "internalType": "enum AAiTElection.DEPTARTMENT_TYPE",
              "name": "department",
              "type": "uint8"
            }
          ],
          "internalType": "struct AAiTElection.ElectionStruct[]",
          "name": "",
          "type": "tuple[]"
        }
      ],
      "stateMutability": "view",
      "type": "function",
      "constant": true
    },
    {
      "inputs": [
        {
          "internalType": "string",
          "name": "electionName",
          "type": "string"
        }
      ],
      "name": "getElectionByName",
      "outputs": [
        {
          "components": [
            {
              "internalType": "uint256",
              "name": "index",
              "type": "uint256"
            },
            {
              "internalType": "string",
              "name": "name",
              "type": "string"
            },
            {
              "internalType": "enum AAiTElection.ELECTION_STATUS",
              "name": "status",
              "type": "uint8"
            },
            {
              "internalType": "uint256",
              "name": "startDate",
              "type": "uint256"
            },
            {
              "internalType": "uint256",
              "name": "endDate",
              "type": "uint256"
            },
            {
              "internalType": "address[]",
              "name": "candidates",
              "type": "address[]"
            },
            {
              "internalType": "address[]",
              "name": "winners",
              "type": "address[]"
            },
            {
              "internalType": "uint256",
              "name": "year",
              "type": "uint256"
            },
            {
              "internalType": "uint256",
              "name": "section",
              "type": "uint256"
            },
            {
              "internalType": "enum AAiTElection.DEPTARTMENT_TYPE",
              "name": "department",
              "type": "uint8"
            }
          ],
          "internalType": "struct AAiTElection.ElectionStruct",
          "name": "",
          "type": "tuple"
        }
      ],
      "stateMutability": "view",
      "type": "function",
      "constant": true
    },
    {
      "inputs": [
        {
          "internalType": "string",
          "name": "electionName",
          "type": "string"
        }
      ],
      "name": "getElectionStatus",
      "outputs": [
        {
          "internalType": "uint256",
          "name": "status",
          "type": "uint256"
        }
      ],
      "stateMutability": "view",
      "type": "function",
      "constant": true
    },
    {
      "inputs": [
        {
          "internalType": "string",
          "name": "electionName",
          "type": "string"
        }
      ],
      "name": "getElectionEndDate",
      "outputs": [
        {
          "internalType": "uint256",
          "name": "",
          "type": "uint256"
        }
      ],
      "stateMutability": "view",
      "type": "function",
      "constant": true
    }
  ],
  "bytecode": "0x60a06040526040518060c001604052806040518060400160405280601681526020017f42696f6d65646963616c20456e67696e656572696e670000000000000000000081525081526020016040518060400160405280601481526020017f4368656d6963616c20456e67696e656572696e6700000000000000000000000081525081526020016040518060400160405280601181526020017f436976696c20456e67696e656572696e6700000000000000000000000000000081525081526020016040518060400160405280601681526020017f456c656374726963616c20456e67696e656572696e670000000000000000000081525081526020016040518060400160405280601681526020017f4d656368616e6963616c20456e67696e656572696e670000000000000000000081525081526020016040518060400160405280601481526020017f536f66747761726520456e67696e656572696e67000000000000000000000000815250815250600090600662000181929190620002af565b503480156200018f57600080fd5b50604051620062bd380380620062bd8339818101604052810190620001b591906200049e565b3373ffffffffffffffffffffffffffffffffffffffff1660808173ffffffffffffffffffffffffffffffffffffffff168152505080600d60006101000a81548173ffffffffffffffffffffffffffffffffffffffff021916908373ffffffffffffffffffffffffffffffffffffffff16021790555060405180606001604052806007808111156200024b576200024a620004d0565b5b8152602001600081526020016000815250600160008201518160000160006101000a81548160ff021916908360078111156200028c576200028b620004d0565b5b021790555060208201518160010155604082015181600201559050505062000564565b82805482825590600052602060002090810192821562000303579160200282015b8281111562000302578251829080519060200190620002f192919062000316565b5091602001919060010190620002d0565b5b509050620003129190620003a7565b5090565b82805462000324906200052e565b90600052602060002090601f01602090048101928262000348576000855562000394565b82601f106200036357805160ff191683800117855562000394565b8280016001018555821562000394579182015b828111156200039357825182559160200191906001019062000376565b5b509050620003a39190620003cf565b5090565b5b80821115620003cb5760008181620003c19190620003ee565b50600101620003a8565b5090565b5b80821115620003ea576000816000905550600101620003d0565b5090565b508054620003fc906200052e565b6000825580601f1062000410575062000431565b601f016020900490600052602060002090810190620004309190620003cf565b5b50565b600080fd5b600073ffffffffffffffffffffffffffffffffffffffff82169050919050565b6000620004668262000439565b9050919050565b620004788162000459565b81146200048457600080fd5b50565b60008151905062000498816200046d565b92915050565b600060208284031215620004b757620004b662000434565b5b6000620004c78482850162000487565b91505092915050565b7f4e487b7100000000000000000000000000000000000000000000000000000000600052602160045260246000fd5b7f4e487b7100000000000000000000000000000000000000000000000000000000600052602260045260246000fd5b600060028204905060018216806200054757607f821691505b602082108114156200055e576200055d620004ff565b5b50919050565b608051615cbf620005fe6000396000818161047e015281816104e30152818161053b0152818161059201528181610efe0152818161148c0152818161165d0152818161180301528181611a5701528181611e6401528181611fa30152818161207001528181612a5501528181612b5a01528181612dd401528181612f3101528181612fa30152818161356b015261367f0152615cbf6000f3fe608060405234801561001057600080fd5b50600436106101735760003560e01c806398747d8e116100de578063ba1a5c4911610097578063f16219da11610071578063f16219da146103f8578063f225af6114610414578063f544bed814610444578063fe43bc071461046057610173565b8063ba1a5c49146103a4578063d877416f146103c0578063dc6d7de3146103dc57610173565b806398747d8e146102de5780639a67e4c61461030e578063a09824681461032c578063a3a40ea51461034a578063b1c9fe6e14610368578063b896c33c1461038857610173565b80633600f005116101305780633600f005146102345780633ef599ca14610264578063528e82f114610280578063558c28981461029c578063848c19ba146102a65780639267375a146102c257610173565b806316e03349146101785780631afa74e51461019457806324d6562c146101b05780632f5918cf146101cc57806332c667f9146101fc57806333b89d8b14610218575b600080fd5b610192600480360381019061018d91906146f0565b61047c565b005b6101ae60048036038101906101a9919061477b565b6104e1565b005b6101ca60048036038101906101c591906147bb565b610efc565b005b6101e660048036038101906101e1919061492e565b611417565b6040516101f39190614986565b60405180910390f35b61021660048036038101906102119190614a69565b61148a565b005b610232600480360381019061022d919061492e565b61165b565b005b61024e6004803603810190610249919061492e565b61176f565b60405161025b9190614986565b60405180910390f35b61027e60048036038101906102799190614ab2565b611801565b005b61029a6004803603810190610295919061492e565b611a55565b005b6102a4611e62565b005b6102c060048036038101906102bb9190614af2565b611fa1565b005b6102dc60048036038101906102d7919061492e565b61206e565b005b6102f860048036038101906102f3919061492e565b612182565b6040516103059190614e4a565b60405180910390f35b610316612459565b6040516103239190615016565b60405180910390f35b61033461270f565b6040516103419190615016565b60405180910390f35b6103526129c5565b60405161035f91906150c2565b60405180910390f35b610370612a2e565b60405161037f939291906150ec565b60405180910390f35b6103a2600480360381019061039d9190615123565b612a53565b005b6103be60048036038101906103b99190614a69565b612b58565b005b6103da60048036038101906103d59190614a69565b612dd2565b005b6103f660048036038101906103f1919061477b565b612fa1565b005b610412600480360381019061040d919061519b565b6131d1565b005b61042e600480360381019061042991906147bb565b61351d565b60405161043b9190614986565b60405180910390f35b61045e6004803603810190610459919061492e565b613569565b005b61047a6004803603810190610475919061492e565b61367d565b005b7f000000000000000000000000000000000000000000000000000000000000000073ffffffffffffffffffffffffffffffffffffffff163373ffffffffffffffffffffffffffffffffffffffff16146104d457600080fd5b8060016002018190555050565b7f000000000000000000000000000000000000000000000000000000000000000073ffffffffffffffffffffffffffffffffffffffff163373ffffffffffffffffffffffffffffffffffffffff161461053957600080fd5b7f000000000000000000000000000000000000000000000000000000000000000073ffffffffffffffffffffffffffffffffffffffff168273ffffffffffffffffffffffffffffffffffffffff16141580156105e157507f000000000000000000000000000000000000000000000000000000000000000073ffffffffffffffffffffffffffffffffffffffff168173ffffffffffffffffffffffffffffffffffffffff1614155b610620576040517f08c379a0000000000000000000000000000000000000000000000000000000008152600401610617906152d2565b60405180910390fd5b6002600760008473ffffffffffffffffffffffffffffffffffffffff1673ffffffffffffffffffffffffffffffffffffffff16815260200190815260200160002080549050106106a5576040517f08c379a000000000000000000000000000000000000000000000000000000000815260040161069c9061533e565b60405180910390fd5b610735600580548060200260200160405190810160405280929190818152602001828054801561072a57602002820191906000526020600020905b8160009054906101000a900473ffffffffffffffffffffffffffffffffffffffff1673ffffffffffffffffffffffffffffffffffffffff16815260200190600101908083116106e0575b505050505082613729565b15610775576040517f08c379a000000000000000000000000000000000000000000000000000000000815260040161076c906153aa565b60405180910390fd5b610842600760008473ffffffffffffffffffffffffffffffffffffffff1673ffffffffffffffffffffffffffffffffffffffff16815260200190815260200160002080548060200260200160405190810160405280929190818152602001828054801561083757602002820191906000526020600020905b8160009054906101000a900473ffffffffffffffffffffffffffffffffffffffff1673ffffffffffffffffffffffffffffffffffffffff16815260200190600101908083116107ed575b505050505082613729565b15610882576040517f08c379a000000000000000000000000000000000000000000000000000000000815260040161087990615416565b60405180910390fd5b6000600d60009054906101000a900473ffffffffffffffffffffffffffffffffffffffff1673ffffffffffffffffffffffffffffffffffffffff166370a08231846040518263ffffffff1660e01b81526004016108df9190615445565b602060405180830381865afa1580156108fc573d6000803e3d6000fd5b505050506040513d601f19601f820116820180604052508101906109209190615475565b11610960576040517f08c379a0000000000000000000000000000000000000000000000000000000008152600401610957906154ee565b60405180910390fd5b60005b600980549050811015610ebc57610a23600982815481106109875761098661550e565b5b90600052602060002090600a0201600501805480602002602001604051908101604052809291908181526020018280548015610a1857602002820191906000526020600020905b8160009054906101000a900473ffffffffffffffffffffffffffffffffffffffff1673ffffffffffffffffffffffffffffffffffffffff16815260200190600101908083116109ce575b505050505083613729565b15610ea95760016002811115610a3c57610a3b614be5565b5b60098281548110610a5057610a4f61550e565b5b90600052602060002090600a020160020160009054906101000a900460ff166002811115610a8157610a80614be5565b5b1415610e6e57610b3a60098281548110610a9e57610a9d61550e565b5b90600052602060002090600a0201600501805480602002602001604051908101604052809291908181526020018280548015610b2f57602002820191906000526020600020905b8160009054906101000a900473ffffffffffffffffffffffffffffffffffffffff1673ffffffffffffffffffffffffffffffffffffffff1681526020019060010190808311610ae5575b505050505084613729565b15610c5157610b498383612fa1565b600760008473ffffffffffffffffffffffffffffffffffffffff1673ffffffffffffffffffffffffffffffffffffffff168152602001908152602001600020829080600181540180825580915050600190039060005260206000200160009091909190916101000a81548173ffffffffffffffffffffffffffffffffffffffff021916908373ffffffffffffffffffffffffffffffffffffffff1602179055506004839080600181540180825580915050600190039060005260206000200160009091909190916101000a81548173ffffffffffffffffffffffffffffffffffffffff021916908373ffffffffffffffffffffffffffffffffffffffff160217905550610e68565b8173ffffffffffffffffffffffffffffffffffffffff168373ffffffffffffffffffffffffffffffffffffffff161415610cc0576040517f08c379a0000000000000000000000000000000000000000000000000000000008152600401610cb7906152d2565b60405180910390fd5b600d60009054906101000a900473ffffffffffffffffffffffffffffffffffffffff1673ffffffffffffffffffffffffffffffffffffffff166323b872dd848460016040518463ffffffff1660e01b8152600401610d2093929190615582565b6020604051808303816000875af1158015610d3f573d6000803e3d6000fd5b505050506040513d601f19601f82011682018060405250810190610d6391906155f1565b50600760008473ffffffffffffffffffffffffffffffffffffffff1673ffffffffffffffffffffffffffffffffffffffff168152602001908152602001600020829080600181540180825580915050600190039060005260206000200160009091909190916101000a81548173ffffffffffffffffffffffffffffffffffffffff021916908373ffffffffffffffffffffffffffffffffffffffff1602179055506004839080600181540180825580915050600190039060005260206000200160009091909190916101000a81548173ffffffffffffffffffffffffffffffffffffffff021916908373ffffffffffffffffffffffffffffffffffffffff1602179055505b50610ef8565b6040517f08c379a0000000000000000000000000000000000000000000000000000000008152600401610ea09061566a565b60405180910390fd5b8080610eb4906156b9565b915050610963565b506040517f08c379a0000000000000000000000000000000000000000000000000000000008152600401610eef9061574e565b60405180910390fd5b5050565b7f000000000000000000000000000000000000000000000000000000000000000073ffffffffffffffffffffffffffffffffffffffff163373ffffffffffffffffffffffffffffffffffffffff1614610f5457600080fd5b610fe46005805480602002602001604051908101604052809291908181526020018280548015610fd957602002820191906000526020600020905b8160009054906101000a900473ffffffffffffffffffffffffffffffffffffffff1673ffffffffffffffffffffffffffffffffffffffff1681526020019060010190808311610f8f575b505050505082613729565b15611024576040517f08c379a000000000000000000000000000000000000000000000000000000000815260040161101b906157ba565b60405180910390fd5b60005b600980549050811015611413576110e76009828154811061104b5761104a61550e565b5b90600052602060002090600a02016005018054806020026020016040519081016040528092919081815260200182805480156110dc57602002820191906000526020600020905b8160009054906101000a900473ffffffffffffffffffffffffffffffffffffffff1673ffffffffffffffffffffffffffffffffffffffff1681526020019060010190808311611092575b505050505083613729565b156114005760006111a1600983815481106111055761110461550e565b5b90600052602060002090600a020160050180548060200260200160405190810160405280929190818152602001828054801561119657602002820191906000526020600020905b8160009054906101000a900473ffffffffffffffffffffffffffffffffffffffff1673ffffffffffffffffffffffffffffffffffffffff168152602001906001019080831161114c575b5050505050846137b1565b9050600982815481106111b7576111b661550e565b5b90600052602060002090600a02016005016001600984815481106111de576111dd61550e565b5b90600052602060002090600a0201600501805490506111fd91906157da565b8154811061120e5761120d61550e565b5b9060005260206000200160009054906101000a900473ffffffffffffffffffffffffffffffffffffffff166009838154811061124d5761124c61550e565b5b90600052602060002090600a020160050182815481106112705761126f61550e565b5b9060005260206000200160006101000a81548173ffffffffffffffffffffffffffffffffffffffff021916908373ffffffffffffffffffffffffffffffffffffffff160217905550600982815481106112cc576112cb61550e565b5b90600052602060002090600a02016005018054806112ed576112ec61580e565b5b6001900381819060005260206000200160006101000a81549073ffffffffffffffffffffffffffffffffffffffff02191690559055600982815481106113365761133561550e565b5b90600052602060002090600a020160050160066009848154811061135d5761135c61550e565b5b90600052602060002090600a020160010160405161137b919061593d565b908152602001604051809103902060050190805461139a92919061423d565b506005839080600181540180825580915050600190039060005260206000200160009091909190916101000a81548173ffffffffffffffffffffffffffffffffffffffff021916908373ffffffffffffffffffffffffffffffffffffffff160217905550505b808061140b906156b9565b915050611027565b5050565b600061142282613838565b611461576040517f08c379a0000000000000000000000000000000000000000000000000000000008152600401611458906159a0565b60405180910390fd5b60068260405161147191906159f1565b9081526020016040518091039020600401549050919050565b7f000000000000000000000000000000000000000000000000000000000000000073ffffffffffffffffffffffffffffffffffffffff163373ffffffffffffffffffffffffffffffffffffffff16146114e257600080fd5b600d60009054906101000a900473ffffffffffffffffffffffffffffffffffffffff1673ffffffffffffffffffffffffffffffffffffffff1663a0712d686002835161152e9190615a08565b6040518263ffffffff1660e01b815260040161154a9190614986565b600060405180830381600087803b15801561156457600080fd5b505af1158015611578573d6000803e3d6000fd5b5050505060005b815181101561165757600d60009054906101000a900473ffffffffffffffffffffffffffffffffffffffff1673ffffffffffffffffffffffffffffffffffffffff1663a9059cbb8383815181106115d9576115d861550e565b5b602002602001015160026040518363ffffffff1660e01b8152600401611600929190615a9d565b6020604051808303816000875af115801561161f573d6000803e3d6000fd5b505050506040513d601f19601f8201168201806040525081019061164391906155f1565b50808061164f906156b9565b91505061157f565b5050565b7f000000000000000000000000000000000000000000000000000000000000000073ffffffffffffffffffffffffffffffffffffffff163373ffffffffffffffffffffffffffffffffffffffff16146116b357600080fd5b60006006826040516116c591906159f1565b908152602001604051809103902060020160006101000a81548160ff021916908360028111156116f8576116f7614be5565b5b02179055506000600960068360405161171191906159f1565b908152602001604051809103902060000154815481106117345761173361550e565b5b90600052602060002090600a020160020160006101000a81548160ff0219169083600281111561176757611766614be5565b5b021790555050565b600061177a82613838565b6117b9576040517f08c379a00000000000000000000000000000000000000000000000000000000081526004016117b0906159a0565b60405180910390fd5b6006826040516117c991906159f1565b908152602001604051809103902060020160009054906101000a900460ff1660028111156117fa576117f9614be5565b5b9050919050565b7f000000000000000000000000000000000000000000000000000000000000000073ffffffffffffffffffffffffffffffffffffffff163373ffffffffffffffffffffffffffffffffffffffff161461185957600080fd5b6006600781111561186d5761186c614be5565b5b600160000160009054906101000a900460ff16600781111561189257611891614be5565b5b14156119155760405180606001604052806007808111156118b6576118b5614be5565b5b8152602001600081526020016000815250600160008201518160000160006101000a81548160ff021916908360078111156118f4576118f3614be5565b5b02179055506020820151816001015560408201518160020155905050611a51565b60078081111561192857611927614be5565b5b600160000160009054906101000a900460ff16600781111561194d5761194c614be5565b5b14156119cf5760405180606001604052806000600781111561197257611971614be5565b5b815260200183815260200182815250600160008201518160000160006101000a81548160ff021916908360078111156119ae576119ad614be5565b5b02179055506020820151816001015560408201518160020155905050611a51565b60018060000160009054906101000a900460ff1660078111156119f5576119f4614be5565b5b6119ff9190615ac6565b6007811115611a1157611a10614be5565b5b600160000160006101000a81548160ff02191690836007811115611a3857611a37614be5565b5b0217905550816001800181905550806001600201819055505b5050565b7f000000000000000000000000000000000000000000000000000000000000000073ffffffffffffffffffffffffffffffffffffffff163373ffffffffffffffffffffffffffffffffffffffff1614611aad57600080fd5b611ab681613838565b611af5576040517f08c379a0000000000000000000000000000000000000000000000000000000008152600401611aec90615b68565b60405180910390fd5b6000600682604051611b0791906159f1565b9081526020016040518091039020600001549050600060086001600880549050611b3191906157da565b81548110611b4257611b4161550e565b5b906000526020600020018054611b579061586c565b80601f0160208091040260200160405190810160405280929190818152602001828054611b839061586c565b8015611bd05780601f10611ba557610100808354040283529160200191611bd0565b820191906000526020600020905b815481529060010190602001808311611bb357829003601f168201915b505050505090508060088381548110611bec57611beb61550e565b5b906000526020600020019080519060200190611c0992919061428f565b5081600682604051611c1b91906159f1565b9081526020016040518091039020600001819055506008805480611c4257611c4161580e565b5b600190038181906000526020600020016000611c5e9190614315565b905560096001600980549050611c7491906157da565b81548110611c8557611c8461550e565b5b90600052602060002090600a020160098381548110611ca757611ca661550e565b5b90600052602060002090600a0201600082015481600001556001820181600101908054611cd39061586c565b611cde929190614355565b506002820160009054906101000a900460ff168160020160006101000a81548160ff02191690836002811115611d1757611d16614be5565b5b021790555060038201548160030155600482015481600401556005820181600501908054611d469291906143e2565b506006820181600601908054611d5d9291906143e2565b5060078201548160070155600882015481600801556009820160009054906101000a900460ff168160090160006101000a81548160ff02191690836005811115611daa57611da9614be5565b5b02179055509050506009805480611dc457611dc361580e565b5b60019003818190600052602060002090600a0201600080820160009055600182016000611df19190614315565b6002820160006101000a81549060ff021916905560038201600090556004820160009055600582016000611e259190614434565b600682016000611e359190614434565b600782016000905560088201600090556009820160006101000a81549060ff021916905550509055505050565b7f000000000000000000000000000000000000000000000000000000000000000073ffffffffffffffffffffffffffffffffffffffff163373ffffffffffffffffffffffffffffffffffffffff1614611eba57600080fd5b600a6000611ec89190614455565b60096000611ed69190614455565b60086000611ee49190614479565b60005b600480549050811015611f90576007600060048381548110611f0c57611f0b61550e565b5b9060005260206000200160009054906101000a900473ffffffffffffffffffffffffffffffffffffffff1673ffffffffffffffffffffffffffffffffffffffff1673ffffffffffffffffffffffffffffffffffffffff1681526020019081526020016000206000611f7d9190614434565b8080611f88906156b9565b915050611ee7565b5060046000611f9f9190614434565b565b7f000000000000000000000000000000000000000000000000000000000000000073ffffffffffffffffffffffffffffffffffffffff163373ffffffffffffffffffffffffffffffffffffffff1614611ff957600080fd5b8060068360405161200a91906159f1565b90815260200160405180910390206004018190555080600960068460405161203291906159f1565b908152602001604051809103902060000154815481106120555761205461550e565b5b90600052602060002090600a0201600401819055505050565b7f000000000000000000000000000000000000000000000000000000000000000073ffffffffffffffffffffffffffffffffffffffff163373ffffffffffffffffffffffffffffffffffffffff16146120c657600080fd5b60026006826040516120d891906159f1565b908152602001604051809103902060020160006101000a81548160ff0219169083600281111561210b5761210a614be5565b5b02179055506002600960068360405161212491906159f1565b908152602001604051809103902060000154815481106121475761214661550e565b5b90600052602060002090600a020160020160006101000a81548160ff0219169083600281111561217a57612179614be5565b5b021790555050565b61218a61449a565b61219382613838565b6121d2576040517f08c379a00000000000000000000000000000000000000000000000000000000081526004016121c9906159a0565b60405180910390fd5b6006826040516121e291906159f1565b908152602001604051809103902060405180610140016040529081600082015481526020016001820180546122169061586c565b80601f01602080910402602001604051908101604052809291908181526020018280546122429061586c565b801561228f5780601f106122645761010080835404028352916020019161228f565b820191906000526020600020905b81548152906001019060200180831161227257829003601f168201915b505050505081526020016002820160009054906101000a900460ff1660028111156122bd576122bc614be5565b5b60028111156122cf576122ce614be5565b5b815260200160038201548152602001600482015481526020016005820180548060200260200160405190810160405280929190818152602001828054801561236c57602002820191906000526020600020905b8160009054906101000a900473ffffffffffffffffffffffffffffffffffffffff1673ffffffffffffffffffffffffffffffffffffffff1681526020019060010190808311612322575b50505050508152602001600682018054806020026020016040519081016040528092919081815260200182805480156123fa57602002820191906000526020600020905b8160009054906101000a900473ffffffffffffffffffffffffffffffffffffffff1673ffffffffffffffffffffffffffffffffffffffff16815260200190600101908083116123b0575b5050505050815260200160078201548152602001600882015481526020016009820160009054906101000a900460ff16600581111561243c5761243b614be5565b5b600581111561244e5761244d614be5565b5b815250509050919050565b6060600a805480602002602001604051908101604052809291908181526020016000905b8282101561270657838290600052602060002090600a020160405180610140016040529081600082015481526020016001820180546124bb9061586c565b80601f01602080910402602001604051908101604052809291908181526020018280546124e79061586c565b80156125345780601f1061250957610100808354040283529160200191612534565b820191906000526020600020905b81548152906001019060200180831161251757829003601f168201915b505050505081526020016002820160009054906101000a900460ff16600281111561256257612561614be5565b5b600281111561257457612573614be5565b5b815260200160038201548152602001600482015481526020016005820180548060200260200160405190810160405280929190818152602001828054801561261157602002820191906000526020600020905b8160009054906101000a900473ffffffffffffffffffffffffffffffffffffffff1673ffffffffffffffffffffffffffffffffffffffff16815260200190600101908083116125c7575b505050505081526020016006820180548060200260200160405190810160405280929190818152602001828054801561269f57602002820191906000526020600020905b8160009054906101000a900473ffffffffffffffffffffffffffffffffffffffff1673ffffffffffffffffffffffffffffffffffffffff1681526020019060010190808311612655575b5050505050815260200160078201548152602001600882015481526020016009820160009054906101000a900460ff1660058111156126e1576126e0614be5565b5b60058111156126f3576126f2614be5565b5b815250508152602001906001019061247d565b50505050905090565b60606009805480602002602001604051908101604052809291908181526020016000905b828210156129bc57838290600052602060002090600a020160405180610140016040529081600082015481526020016001820180546127719061586c565b80601f016020809104026020016040519081016040528092919081815260200182805461279d9061586c565b80156127ea5780601f106127bf576101008083540402835291602001916127ea565b820191906000526020600020905b8154815290600101906020018083116127cd57829003601f168201915b505050505081526020016002820160009054906101000a900460ff16600281111561281857612817614be5565b5b600281111561282a57612829614be5565b5b81526020016003820154815260200160048201548152602001600582018054806020026020016040519081016040528092919081815260200182805480156128c757602002820191906000526020600020905b8160009054906101000a900473ffffffffffffffffffffffffffffffffffffffff1673ffffffffffffffffffffffffffffffffffffffff168152602001906001019080831161287d575b505050505081526020016006820180548060200260200160405190810160405280929190818152602001828054801561295557602002820191906000526020600020905b8160009054906101000a900473ffffffffffffffffffffffffffffffffffffffff1673ffffffffffffffffffffffffffffffffffffffff168152602001906001019080831161290b575b5050505050815260200160078201548152602001600882015481526020016009820160009054906101000a900460ff16600581111561299757612996614be5565b5b60058111156129a9576129a8614be5565b5b8152505081526020019060010190612733565b50505050905090565b6129cd614511565b60016040518060600160405290816000820160009054906101000a900460ff1660078111156129ff576129fe614be5565b5b6007811115612a1157612a10614be5565b5b815260200160018201548152602001600282015481525050905090565b60018060000160009054906101000a900460ff16908060010154908060020154905083565b7f000000000000000000000000000000000000000000000000000000000000000073ffffffffffffffffffffffffffffffffffffffff163373ffffffffffffffffffffffffffffffffffffffff1614612aab57600080fd5b600160000160009054906101000a900460ff166007811115612ad057612acf614be5565b5b831415612adc57612b53565b600160000160009054906101000a900460ff166007811115612b0157612b00614be5565b5b6007811115612b1357612b12614be5565b5b600160000160006101000a81548160ff02191690836007811115612b3a57612b39614be5565b5b0217905550816001800181905550806001600201819055505b505050565b7f000000000000000000000000000000000000000000000000000000000000000073ffffffffffffffffffffffffffffffffffffffff163373ffffffffffffffffffffffffffffffffffffffff1614612bb057600080fd5b60005b8151811015612dce5760076000838381518110612bd357612bd261550e565b5b602002602001015173ffffffffffffffffffffffffffffffffffffffff1673ffffffffffffffffffffffffffffffffffffffff1681526020019081526020016000206000612c219190614434565b612ccb6004805480602002602001604051908101604052809291908181526020018280548015612ca657602002820191906000526020600020905b8160009054906101000a900473ffffffffffffffffffffffffffffffffffffffff1673ffffffffffffffffffffffffffffffffffffffff1681526020019060010190808311612c5c575b5050505050838381518110612cbe57612cbd61550e565b5b6020026020010151613729565b15612dbb576004612d7c6004805480602002602001604051908101604052809291908181526020018280548015612d5757602002820191906000526020600020905b8160009054906101000a900473ffffffffffffffffffffffffffffffffffffffff1673ffffffffffffffffffffffffffffffffffffffff1681526020019060010190808311612d0d575b5050505050848481518110612d6f57612d6e61550e565b5b60200260200101516137b1565b81548110612d8d57612d8c61550e565b5b9060005260206000200160006101000a81549073ffffffffffffffffffffffffffffffffffffffff02191690555b8080612dc6906156b9565b915050612bb3565b5050565b7f000000000000000000000000000000000000000000000000000000000000000073ffffffffffffffffffffffffffffffffffffffff163373ffffffffffffffffffffffffffffffffffffffff1614612e2a57600080fd5b60005b8151811015612ef057600d60009054906101000a900473ffffffffffffffffffffffffffffffffffffffff1673ffffffffffffffffffffffffffffffffffffffff166389afcb44838381518110612e8757612e8661550e565b5b60200260200101516040518263ffffffff1660e01b8152600401612eab9190615445565b600060405180830381600087803b158015612ec557600080fd5b505af1158015612ed9573d6000803e3d6000fd5b505050508080612ee8906156b9565b915050612e2d565b50600d60009054906101000a900473ffffffffffffffffffffffffffffffffffffffff1673ffffffffffffffffffffffffffffffffffffffff166389afcb447f00000000000000000000000000000000000000000000000000000000000000006040518263ffffffff1660e01b8152600401612f6c9190615445565b600060405180830381600087803b158015612f8657600080fd5b505af1158015612f9a573d6000803e3d6000fd5b5050505050565b7f000000000000000000000000000000000000000000000000000000000000000073ffffffffffffffffffffffffffffffffffffffff163373ffffffffffffffffffffffffffffffffffffffff1614612ff957600080fd5b600d60009054906101000a900473ffffffffffffffffffffffffffffffffffffffff1673ffffffffffffffffffffffffffffffffffffffff1663a0712d6860016040518263ffffffff1660e01b81526004016130559190615b88565b600060405180830381600087803b15801561306f57600080fd5b505af1158015613083573d6000803e3d6000fd5b50505050600d60009054906101000a900473ffffffffffffffffffffffffffffffffffffffff1673ffffffffffffffffffffffffffffffffffffffff1663a9059cbb8360016040518363ffffffff1660e01b81526004016130e5929190615ba3565b6020604051808303816000875af1158015613104573d6000803e3d6000fd5b505050506040513d601f19601f8201168201806040525081019061312891906155f1565b50600d60009054906101000a900473ffffffffffffffffffffffffffffffffffffffff1673ffffffffffffffffffffffffffffffffffffffff166323b872dd838360016040518463ffffffff1660e01b815260040161318993929190615582565b6020604051808303816000875af11580156131a8573d6000803e3d6000fd5b505050506040513d601f19601f820116820180604052508101906131cc91906155f1565b505050565b60606131dc88613838565b1580156131f157506131ef8484846138ed565b155b613230576040517f08c379a000000000000000000000000000000000000000000000000000000000815260040161322790615c18565b60405180910390fd5b60088890806001815401808255809150506001900390600052602060002001600090919091909150908051906020019061326b92919061428f565b506000604051806101400160405280600160088054905061328c91906157da565b81526020018a8152602001600160028111156132ab576132aa614be5565b5b81526020018981526020018881526020018781526020018381526020018681526020018581526020018460058111156132e7576132e6614be5565b5b81525090508060068a6040516132fd91906159f1565b908152602001604051809103902060008201518160000155602082015181600101908051906020019061333192919061428f565b5060408201518160020160006101000a81548160ff0219169083600281111561335d5761335c614be5565b5b0217905550606082015181600301556080820151816004015560a0820151816005019080519060200190613392929190614544565b5060c08201518160060190805190602001906133af929190614544565b5060e0820151816007015561010082015181600801556101208201518160090160006101000a81548160ff021916908360058111156133f1576133f0614be5565b5b021790555090505060098190806001815401808255809150506001900390600052602060002090600a020160009091909190915060008201518160000155602082015181600101908051906020019061344b92919061428f565b5060408201518160020160006101000a81548160ff0219169083600281111561347757613476614be5565b5b0217905550606082015181600301556080820151816004015560a08201518160050190805190602001906134ac929190614544565b5060c08201518160060190805190602001906134c9929190614544565b5060e0820151816007015561010082015181600801556101208201518160090160006101000a81548160ff0219169083600581111561350b5761350a614be5565b5b02179055505050505050505050505050565b6000600760008373ffffffffffffffffffffffffffffffffffffffff1673ffffffffffffffffffffffffffffffffffffffff168152602001908152602001600020805490509050919050565b7f000000000000000000000000000000000000000000000000000000000000000073ffffffffffffffffffffffffffffffffffffffff163373ffffffffffffffffffffffffffffffffffffffff16146135c157600080fd5b60016006826040516135d391906159f1565b908152602001604051809103902060020160006101000a81548160ff0219169083600281111561360657613605614be5565b5b02179055506001600960068360405161361f91906159f1565b908152602001604051809103902060000154815481106136425761364161550e565b5b90600052602060002090600a020160020160006101000a81548160ff0219169083600281111561367557613674614be5565b5b021790555050565b7f000000000000000000000000000000000000000000000000000000000000000073ffffffffffffffffffffffffffffffffffffffff163373ffffffffffffffffffffffffffffffffffffffff16146136d557600080fd5b6136de81613838565b61371d576040517f08c379a000000000000000000000000000000000000000000000000000000000815260040161371490615b68565b60405180910390fd5b61372681613a12565b50565b600080600090505b83518110156137a5578273ffffffffffffffffffffffffffffffffffffffff168482815181106137645761376361550e565b5b602002602001015173ffffffffffffffffffffffffffffffffffffffff1614156137925760019150506137ab565b808061379d906156b9565b915050613731565b50600090505b92915050565b600080600090505b835181101561382c578273ffffffffffffffffffffffffffffffffffffffff168482815181106137ec576137eb61550e565b5b602002602001015173ffffffffffffffffffffffffffffffffffffffff1614156138195780915050613832565b8080613824906156b9565b9150506137b9565b50825190505b92915050565b600080600090505b6009805490508110156138e2578260405160200161385e91906159f1565b60405160208183030381529060405280519060200120600982815481106138885761388761550e565b5b90600052602060002090600a02016001016040516020016138a9919061593d565b6040516020818303038152906040528051906020012014156138cf5760019150506138e8565b80806138da906156b9565b915050613840565b50600090505b919050565b600080600090505b600980549050811015613a055784600982815481106139175761391661550e565b5b90600052602060002090600a02016007015414801561395a575083600982815481106139465761394561550e565b5b90600052602060002090600a020160080154145b80156139e35750826040516020016139729190615c6e565b604051602081830303815290604052805190602001206009828154811061399c5761399b61550e565b5b90600052602060002090600a020160090160009054906101000a900460ff166040516020016139cb9190615c6e565b60405160208183030381529060405280519060200120145b156139f2576001915050613a0b565b80806139fd906156b9565b9150506138f5565b50600090505b9392505050565b6000600682604051613a2491906159f1565b90815260200160405180910390206040518061014001604052908160008201548152602001600182018054613a589061586c565b80601f0160208091040260200160405190810160405280929190818152602001828054613a849061586c565b8015613ad15780601f10613aa657610100808354040283529160200191613ad1565b820191906000526020600020905b815481529060010190602001808311613ab457829003601f168201915b505050505081526020016002820160009054906101000a900460ff166002811115613aff57613afe614be5565b5b6002811115613b1157613b10614be5565b5b8152602001600382015481526020016004820154815260200160058201805480602002602001604051908101604052809291908181526020018280548015613bae57602002820191906000526020600020905b8160009054906101000a900473ffffffffffffffffffffffffffffffffffffffff1673ffffffffffffffffffffffffffffffffffffffff1681526020019060010190808311613b64575b5050505050815260200160068201805480602002602001604051908101604052809291908181526020018280548015613c3c57602002820191906000526020600020905b8160009054906101000a900473ffffffffffffffffffffffffffffffffffffffff1673ffffffffffffffffffffffffffffffffffffffff1681526020019060010190808311613bf2575b5050505050815260200160078201548152602001600882015481526020016009820160009054906101000a900460ff166005811115613c7e57613c7d614be5565b5b6005811115613c9057613c8f614be5565b5b815250509050600c6000613ca49190614434565b60008160a001515167ffffffffffffffff811115613cc557613cc4614803565b5b604051908082528060200260200182016040528015613cf35781602001602082028036833780820191505090505b50905060005b8260a0015151811015613df257600d60009054906101000a900473ffffffffffffffffffffffffffffffffffffffff1673ffffffffffffffffffffffffffffffffffffffff166370a082318460a001518381518110613d5b57613d5a61550e565b5b60200260200101516040518263ffffffff1660e01b8152600401613d7f9190615445565b602060405180830381865afa158015613d9c573d6000803e3d6000fd5b505050506040513d601f19601f82011682018060405250810190613dc09190615475565b828281518110613dd357613dd261550e565b5b6020026020010181815250508080613dea906156b9565b915050613cf9565b506000613dfe826141cd565b905060005b8360a0015151811015613ec75781838281518110613e2457613e2361550e565b5b60200260200101511415613eb457600c8460a001518281518110613e4b57613e4a61550e565b5b60200260200101519080600181540180825580915050600190039060005260206000200160009091909190916101000a81548173ffffffffffffffffffffffffffffffffffffffff021916908373ffffffffffffffffffffffffffffffffffffffff1602179055505b8080613ebf906156b9565b915050613e03565b50600c805480602002602001604051908101604052809291908181526020018280548015613f4a57602002820191906000526020600020905b8160009054906101000a900473ffffffffffffffffffffffffffffffffffffffff1673ffffffffffffffffffffffffffffffffffffffff1681526020019060010190808311613f00575b50505050508360c00181905250600283604001906002811115613f7057613f6f614be5565b5b90816002811115613f8457613f83614be5565b5b8152505082600685604051613f9991906159f1565b9081526020016040518091039020600082015181600001556020820151816001019080519060200190613fcd92919061428f565b5060408201518160020160006101000a81548160ff02191690836002811115613ff957613ff8614be5565b5b0217905550606082015181600301556080820151816004015560a082015181600501908051906020019061402e929190614544565b5060c082015181600601908051906020019061404b929190614544565b5060e0820151816007015561010082015181600801556101208201518160090160006101000a81548160ff0219169083600581111561408d5761408c614be5565b5b02179055509050508260096006866040516140a891906159f1565b908152602001604051809103902060000154815481106140cb576140ca61550e565b5b90600052602060002090600a02016000820151816000015560208201518160010190805190602001906140ff92919061428f565b5060408201518160020160006101000a81548160ff0219169083600281111561412b5761412a614be5565b5b0217905550606082015181600301556080820151816004015560a0820151816005019080519060200190614160929190614544565b5060c082015181600601908051906020019061417d929190614544565b5060e0820151816007015561010082015181600801556101208201518160090160006101000a81548160ff021916908360058111156141bf576141be614be5565b5b021790555090505050505050565b6000806000905060005b835181101561423357818482815181106141f4576141f361550e565b5b60200260200101511115614220578381815181106142155761421461550e565b5b602002602001015191505b808061422b906156b9565b9150506141d7565b5080915050919050565b82805482825590600052602060002090810192821561427e5760005260206000209182015b8281111561427d578254825591600101919060010190614262565b5b50905061428b91906145ce565b5090565b82805461429b9061586c565b90600052602060002090601f0160209004810192826142bd5760008555614304565b82601f106142d657805160ff1916838001178555614304565b82800160010185558215614304579182015b828111156143035782518255916020019190600101906142e8565b5b50905061431191906145ce565b5090565b5080546143219061586c565b6000825580601f106143335750614352565b601f01602090049060005260206000209081019061435191906145ce565b5b50565b8280546143619061586c565b90600052602060002090601f01602090048101928261438357600085556143d1565b82601f1061439457805485556143d1565b828001600101855582156143d157600052602060002091601f016020900482015b828111156143d05782548255916001019190600101906143b5565b5b5090506143de91906145ce565b5090565b8280548282559060005260206000209081019282156144235760005260206000209182015b82811115614422578254825591600101919060010190614407565b5b50905061443091906145ce565b5090565b508054600082559060005260206000209081019061445291906145ce565b50565b50805460008255600a029060005260206000209081019061447691906145eb565b50565b50805460008255906000526020600020908101906144979190614682565b50565b6040518061014001604052806000815260200160608152602001600060028111156144c8576144c7614be5565b5b81526020016000815260200160008152602001606081526020016060815260200160008152602001600081526020016000600581111561450b5761450a614be5565b5b81525090565b6040518060600160405280600060078111156145305761452f614be5565b5b815260200160008152602001600081525090565b8280548282559060005260206000209081019282156145bd579160200282015b828111156145bc5782518260006101000a81548173ffffffffffffffffffffffffffffffffffffffff021916908373ffffffffffffffffffffffffffffffffffffffff16021790555091602001919060010190614564565b5b5090506145ca91906145ce565b5090565b5b808211156145e75760008160009055506001016145cf565b5090565b5b8082111561467e5760008082016000905560018201600061460d9190614315565b6002820160006101000a81549060ff0219169055600382016000905560048201600090556005820160006146419190614434565b6006820160006146519190614434565b600782016000905560088201600090556009820160006101000a81549060ff021916905550600a016145ec565b5090565b5b808211156146a257600081816146999190614315565b50600101614683565b5090565b6000604051905090565b600080fd5b600080fd5b6000819050919050565b6146cd816146ba565b81146146d857600080fd5b50565b6000813590506146ea816146c4565b92915050565b600060208284031215614706576147056146b0565b5b6000614714848285016146db565b91505092915050565b600073ffffffffffffffffffffffffffffffffffffffff82169050919050565b60006147488261471d565b9050919050565b6147588161473d565b811461476357600080fd5b50565b6000813590506147758161474f565b92915050565b60008060408385031215614792576147916146b0565b5b60006147a085828601614766565b92505060206147b185828601614766565b9150509250929050565b6000602082840312156147d1576147d06146b0565b5b60006147df84828501614766565b91505092915050565b600080fd5b600080fd5b6000601f19601f8301169050919050565b7f4e487b7100000000000000000000000000000000000000000000000000000000600052604160045260246000fd5b61483b826147f2565b810181811067ffffffffffffffff8211171561485a57614859614803565b5b80604052505050565b600061486d6146a6565b90506148798282614832565b919050565b600067ffffffffffffffff82111561489957614898614803565b5b6148a2826147f2565b9050602081019050919050565b82818337600083830152505050565b60006148d16148cc8461487e565b614863565b9050828152602081018484840111156148ed576148ec6147ed565b5b6148f88482856148af565b509392505050565b600082601f830112614915576149146147e8565b5b81356149258482602086016148be565b91505092915050565b600060208284031215614944576149436146b0565b5b600082013567ffffffffffffffff811115614962576149616146b5565b5b61496e84828501614900565b91505092915050565b614980816146ba565b82525050565b600060208201905061499b6000830184614977565b92915050565b600067ffffffffffffffff8211156149bc576149bb614803565b5b602082029050602081019050919050565b600080fd5b60006149e56149e0846149a1565b614863565b90508083825260208201905060208402830185811115614a0857614a076149cd565b5b835b81811015614a315780614a1d8882614766565b845260208401935050602081019050614a0a565b5050509392505050565b600082601f830112614a5057614a4f6147e8565b5b8135614a608482602086016149d2565b91505092915050565b600060208284031215614a7f57614a7e6146b0565b5b600082013567ffffffffffffffff811115614a9d57614a9c6146b5565b5b614aa984828501614a3b565b91505092915050565b60008060408385031215614ac957614ac86146b0565b5b6000614ad7858286016146db565b9250506020614ae8858286016146db565b9150509250929050565b60008060408385031215614b0957614b086146b0565b5b600083013567ffffffffffffffff811115614b2757614b266146b5565b5b614b3385828601614900565b9250506020614b44858286016146db565b9150509250929050565b614b57816146ba565b82525050565b600081519050919050565b600082825260208201905092915050565b60005b83811015614b97578082015181840152602081019050614b7c565b83811115614ba6576000848401525b50505050565b6000614bb782614b5d565b614bc18185614b68565b9350614bd1818560208601614b79565b614bda816147f2565b840191505092915050565b7f4e487b7100000000000000000000000000000000000000000000000000000000600052602160045260246000fd5b60038110614c2557614c24614be5565b5b50565b6000819050614c3682614c14565b919050565b6000614c4682614c28565b9050919050565b614c5681614c3b565b82525050565b600081519050919050565b600082825260208201905092915050565b6000819050602082019050919050565b614c918161473d565b82525050565b6000614ca38383614c88565b60208301905092915050565b6000602082019050919050565b6000614cc782614c5c565b614cd18185614c67565b9350614cdc83614c78565b8060005b83811015614d0d578151614cf48882614c97565b9750614cff83614caf565b925050600181019050614ce0565b5085935050505092915050565b60068110614d2b57614d2a614be5565b5b50565b6000819050614d3c82614d1a565b919050565b6000614d4c82614d2e565b9050919050565b614d5c81614d41565b82525050565b600061014083016000830151614d7b6000860182614b4e565b5060208301518482036020860152614d938282614bac565b9150506040830151614da86040860182614c4d565b506060830151614dbb6060860182614b4e565b506080830151614dce6080860182614b4e565b5060a083015184820360a0860152614de68282614cbc565b91505060c083015184820360c0860152614e008282614cbc565b91505060e0830151614e1560e0860182614b4e565b50610100830151614e2a610100860182614b4e565b50610120830151614e3f610120860182614d53565b508091505092915050565b60006020820190508181036000830152614e648184614d62565b905092915050565b600081519050919050565b600082825260208201905092915050565b6000819050602082019050919050565b600061014083016000830151614eb16000860182614b4e565b5060208301518482036020860152614ec98282614bac565b9150506040830151614ede6040860182614c4d565b506060830151614ef16060860182614b4e565b506080830151614f046080860182614b4e565b5060a083015184820360a0860152614f1c8282614cbc565b91505060c083015184820360c0860152614f368282614cbc565b91505060e0830151614f4b60e0860182614b4e565b50610100830151614f60610100860182614b4e565b50610120830151614f75610120860182614d53565b508091505092915050565b6000614f8c8383614e98565b905092915050565b6000602082019050919050565b6000614fac82614e6c565b614fb68185614e77565b935083602082028501614fc885614e88565b8060005b858110156150045784840389528151614fe58582614f80565b9450614ff083614f94565b925060208a01995050600181019050614fcc565b50829750879550505050505092915050565b600060208201905081810360008301526150308184614fa1565b905092915050565b6008811061504957615048614be5565b5b50565b600081905061505a82615038565b919050565b600061506a8261504c565b9050919050565b61507a8161505f565b82525050565b6060820160008201516150966000850182615071565b5060208201516150a96020850182614b4e565b5060408201516150bc6040850182614b4e565b50505050565b60006060820190506150d76000830184615080565b92915050565b6150e68161505f565b82525050565b600060608201905061510160008301866150dd565b61510e6020830185614977565b61511b6040830184614977565b949350505050565b60008060006060848603121561513c5761513b6146b0565b5b600061514a868287016146db565b935050602061515b868287016146db565b925050604061516c868287016146db565b9150509250925092565b6006811061518357600080fd5b50565b60008135905061519581615176565b92915050565b600080600080600080600060e0888a0312156151ba576151b96146b0565b5b600088013567ffffffffffffffff8111156151d8576151d76146b5565b5b6151e48a828b01614900565b97505060206151f58a828b016146db565b96505060406152068a828b016146db565b955050606088013567ffffffffffffffff811115615227576152266146b5565b5b6152338a828b01614a3b565b94505060806152448a828b016146db565b93505060a06152558a828b016146db565b92505060c06152668a828b01615186565b91505092959891949750929550565b600082825260208201905092915050565b7f496e76616c6964204f7065726174696f6e000000000000000000000000000000600082015250565b60006152bc601183615275565b91506152c782615286565b602082019050919050565b600060208201905081810360008301526152eb816152af565b9050919050565b7f566f74657220416c726561647920566f74656400000000000000000000000000600082015250565b6000615328601383615275565b9150615333826152f2565b602082019050919050565b600060208201905081810360008301526153578161531b565b9050919050565b7f43616e646964617465204469737175616c696669656400000000000000000000600082015250565b6000615394601683615275565b915061539f8261535e565b602082019050919050565b600060208201905081810360008301526153c381615387565b9050919050565b7f416c726561647920566f74656420466f7220546869732043616e646964617465600082015250565b6000615400602083615275565b915061540b826153ca565b602082019050919050565b6000602082019050818103600083015261542f816153f3565b9050919050565b61543f8161473d565b82525050565b600060208201905061545a6000830184615436565b92915050565b60008151905061546f816146c4565b92915050565b60006020828403121561548b5761548a6146b0565b5b600061549984828501615460565b91505092915050565b7f496e73756666696369656e7420546f6b656e0000000000000000000000000000600082015250565b60006154d8601283615275565b91506154e3826154a2565b602082019050919050565b60006020820190508181036000830152615507816154cb565b9050919050565b7f4e487b7100000000000000000000000000000000000000000000000000000000600052603260045260246000fd5b6000819050919050565b6000819050919050565b600061556c6155676155628461553d565b615547565b6146ba565b9050919050565b61557c81615551565b82525050565b60006060820190506155976000830186615436565b6155a46020830185615436565b6155b16040830184615573565b949350505050565b60008115159050919050565b6155ce816155b9565b81146155d957600080fd5b50565b6000815190506155eb816155c5565b92915050565b600060208284031215615607576156066146b0565b5b6000615615848285016155dc565b91505092915050565b7f496e76616c696420506861736500000000000000000000000000000000000000600082015250565b6000615654600d83615275565b915061565f8261561e565b602082019050919050565b6000602082019050818103600083015261568381615647565b9050919050565b7f4e487b7100000000000000000000000000000000000000000000000000000000600052601160045260246000fd5b60006156c4826146ba565b91507fffffffffffffffffffffffffffffffffffffffffffffffffffffffffffffffff8214156156f7576156f661568a565b5b600182019050919050565b7f436f756c646e277420566f746500000000000000000000000000000000000000600082015250565b6000615738600d83615275565b915061574382615702565b602082019050919050565b600060208201905081810360008301526157678161572b565b9050919050565b7f43616e64696461746520616c726561647920626c61636b6c6973746564000000600082015250565b60006157a4601d83615275565b91506157af8261576e565b602082019050919050565b600060208201905081810360008301526157d381615797565b9050919050565b60006157e5826146ba565b91506157f0836146ba565b9250828210156158035761580261568a565b5b828203905092915050565b7f4e487b7100000000000000000000000000000000000000000000000000000000600052603160045260246000fd5b7f4e487b7100000000000000000000000000000000000000000000000000000000600052602260045260246000fd5b6000600282049050600182168061588457607f821691505b602082108114156158985761589761583d565b5b50919050565b600081905092915050565b60008190508160005260206000209050919050565b600081546158cb8161586c565b6158d5818661589e565b945060018216600081146158f0576001811461590157615934565b60ff19831686528186019350615934565b61590a856158a9565b60005b8381101561592c5781548189015260018201915060208101905061590d565b838801955050505b50505092915050565b600061594982846158be565b915081905092915050565b7f456c656374696f6e206e6f7420666f756e640000000000000000000000000000600082015250565b600061598a601283615275565b915061599582615954565b602082019050919050565b600060208201905081810360008301526159b98161597d565b9050919050565b60006159cb82614b5d565b6159d5818561589e565b93506159e5818560208601614b79565b80840191505092915050565b60006159fd82846159c0565b915081905092915050565b6000615a13826146ba565b9150615a1e836146ba565b9250817fffffffffffffffffffffffffffffffffffffffffffffffffffffffffffffffff0483118215151615615a5757615a5661568a565b5b828202905092915050565b6000819050919050565b6000615a87615a82615a7d84615a62565b615547565b6146ba565b9050919050565b615a9781615a6c565b82525050565b6000604082019050615ab26000830185615436565b615abf6020830184615a8e565b9392505050565b6000615ad1826146ba565b9150615adc836146ba565b9250827fffffffffffffffffffffffffffffffffffffffffffffffffffffffffffffffff03821115615b1157615b1061568a565b5b828201905092915050565b7f456c656374696f6e20446f6573204e6f74204578697374000000000000000000600082015250565b6000615b52601783615275565b9150615b5d82615b1c565b602082019050919050565b60006020820190508181036000830152615b8181615b45565b9050919050565b6000602082019050615b9d6000830184615573565b92915050565b6000604082019050615bb86000830185615436565b615bc56020830184615573565b9392505050565b7f456c656374696f6e20416c726561647920457869737473000000000000000000600082015250565b6000615c02601783615275565b9150615c0d82615bcc565b602082019050919050565b60006020820190508181036000830152615c3181615bf5565b9050919050565b60008160f81b9050919050565b6000615c5082615c38565b9050919050565b615c68615c6382614d41565b615c45565b82525050565b6000615c7a8284615c57565b6001820191508190509291505056fea26469706673582212208c330119610ba3c947d383005150daa8a7519b9f6f08319f26a7817dd362abda64736f6c634300080a0033",
  "immutableReferences": {
    "1034": [
      {
        "length": 32,
        "start": 1150
      },
      {
        "length": 32,
        "start": 1251
      },
      {
        "length": 32,
        "start": 1339
      },
      {
        "length": 32,
        "start": 1426
      },
      {
        "length": 32,
        "start": 3838
      },
      {
        "length": 32,
        "start": 5260
      },
      {
        "length": 32,
        "start": 5725
      },
      {
        "length": 32,
        "start": 6147
      },
      {
        "length": 32,
        "start": 6743
      },
      {
        "length": 32,
        "start": 7780
      },
      {
        "length": 32,
        "start": 8099
      },
      {
        "length": 32,
        "start": 8304
      },
      {
        "length": 32,
        "start": 10837
      },
      {
        "length": 32,
        "start": 11098
      },
      {
        "length": 32,
        "start": 11732
      },
      {
        "length": 32,
        "start": 12081
      },
      {
        "length": 32,
        "start": 12195
      },
      {
        "length": 32,
        "start": 13675
      },
      {
        "length": 32,
        "start": 13951
      }
    ]
  },
  "source": "// SPDX-License-Identifier: MIT\r\npragma solidity ^0.8.9;\r\n\r\n// import \"./Candidate.sol\";\r\n// import \"./Voter.sol\";\r\nimport \"./AAiTVoteToken.sol\";\r\n\r\n// import \"./AAiTStudent.sol\";\r\n// import \"./AAiTElectionHandler.sol\";\r\n\r\nlibrary AAiTElectionLibrary {\r\n    function contains(address[] memory array, address value)\r\n        internal\r\n        pure\r\n        returns (bool)\r\n    {\r\n        for (uint256 i = 0; i < array.length; i++) {\r\n            if (array[i] == value) {\r\n                return true;\r\n            }\r\n        }\r\n        return false;\r\n    }\r\n\r\n    function indexOf(address[] memory array, address value)\r\n        internal\r\n        pure\r\n        returns (uint256)\r\n    {\r\n        for (uint256 i = 0; i < array.length; i++) {\r\n            if (array[i] == value) {\r\n                return i;\r\n            }\r\n        }\r\n        return array.length;\r\n    }\r\n\r\n    function findLargest(uint256[] memory array)\r\n        internal\r\n        pure\r\n        returns (uint256)\r\n    {\r\n        uint256 largest = 0;\r\n        for (uint256 i = 0; i < array.length; i++) {\r\n            if (array[i] > largest) {\r\n                largest = array[i];\r\n            }\r\n        }\r\n        return largest;\r\n    }\r\n\r\n    // function bytes32ToString(bytes32 _bytes32)\r\n    //     internal\r\n    //     pure\r\n    //     returns (string memory)\r\n    // {\r\n    //     uint8 i = 0;\r\n    //     while (i < 32 && _bytes32[i] != 0) {\r\n    //         i++;\r\n    //     }\r\n    //     bytes memory bytesArray = new bytes(i);\r\n    //     for (i = 0; i < 32 && _bytes32[i] != 0; i++) {\r\n    //         bytesArray[i] = _bytes32[i];\r\n    //     }\r\n    //     return string(bytesArray);\r\n    // }\r\n}\r\n\r\ncontract AAiTElection {\r\n    enum DEPTARTMENT_TYPE {\r\n        BIOMED,\r\n        CHEMICAL,\r\n        CIVIL,\r\n        ELEC,\r\n        MECHANICAL,\r\n        SITE\r\n    }\r\n    enum ELECTION_STATUS {\r\n        PENDING,\r\n        ONGOING,\r\n        COMPLETED\r\n    }\r\n    enum PHASE_NAME {\r\n        REGISTRATION,\r\n        REGISTRATION_BREAK,\r\n        SECTION_ELECTION,\r\n        SECTION_ELECTION_BREAK,\r\n        BATCH_ELECTION,\r\n        BATCH_ELECTION_BREAK,\r\n        DEPARTMENT_ELECTION,\r\n        COMPLETED\r\n    }\r\n    string[] private deptTypes = [\r\n        \"Biomedical Engineering\",\r\n        \"Chemical Engineering\",\r\n        \"Civil Engineering\",\r\n        \"Electrical Engineering\",\r\n        \"Mechanical Engineering\",\r\n        \"Software Engineering\"\r\n    ];\r\n\r\n    struct ElectionStruct {\r\n        uint256 index;\r\n        string name;\r\n        ELECTION_STATUS status;\r\n        uint256 startDate;\r\n        uint256 endDate;\r\n        address[] candidates;\r\n        address[] winners;\r\n        uint256 year;\r\n        uint256 section;\r\n        DEPTARTMENT_TYPE department;\r\n    }\r\n    struct ElectionPhase {\r\n        PHASE_NAME phaseName;\r\n        uint256 start;\r\n        uint256 end;\r\n    }\r\n\r\n    ElectionPhase public phase;\r\n\r\n    event LogCurrentElectionPhase(string currentPhase);\r\n\r\n    struct ElectionResultStruct {\r\n        string electionName;\r\n        // string candidateFullName;\r\n        // string candidateLName;\r\n        // string candidateGName;\r\n        address[] candidateAddress;\r\n        // uint256 votes;\r\n    }\r\n\r\n    address private immutable owner;\r\n    address[] private voted;\r\n    address[] private blacklist;\r\n\r\n    // address private AAiTVoteTokenAddress;\r\n    // address private AAiTStudentAddress;\r\n    // address private AAiTElectionTimerAddress;\r\n\r\n    mapping(string => ElectionStruct) private electionStructsMapping;\r\n    mapping(address => address[]) private voterToCandidatesMapping;\r\n    // mapping(address => uint256) private voterRemainingVotesMapping;\r\n    string[] private electionIndex;\r\n    ElectionStruct[] private electionValue;\r\n    ElectionStruct[] private completedElections;\r\n    ElectionResultStruct[] private completedElectionResults;\r\n    address[] tempWinners;\r\n\r\n    // AAiTElectionHandler electionHandler;\r\n    // AAiTElectionTimer electionTimer;\r\n    // AAiTStudent student;\r\n    AAiTVoteToken voteToken;\r\n\r\n    // event LogNewElection(\r\n    //     uint256 index,\r\n    //     string name,\r\n    //     ELECTION_STATUS status,\r\n    //     string startDate,\r\n    //     string endDate,\r\n    //     address[] candidates,\r\n    //     address[] winners,\r\n    //     address[] voters,\r\n    //     address[] voted,\r\n    //     uint256 year,\r\n    //     uint256 section,\r\n    //     DEPTARTMENT_TYPE department\r\n    // );\r\n    // event LogUpdateElection(\r\n    //     uint256 index,\r\n    //     string name,\r\n    //     ELECTION_STATUS status,\r\n    //     string startDate,\r\n    //     string endDate,\r\n    //     address[] candidates,\r\n    //     address[] winners,\r\n    //     address[] voters,\r\n    //     address[] voted,\r\n    //     uint256 year,\r\n    //     uint256 section,\r\n    //     DEPTARTMENT_TYPE department\r\n    // );\r\n\r\n    modifier onlyOwner() {\r\n        require(msg.sender == owner);\r\n        _;\r\n    }\r\n\r\n    constructor(\r\n        address _AAiTVoteTokenAddress // address _AAiTStudentAddress, // address _AAiTElectionTimerAddress\r\n    ) {\r\n        owner = msg.sender;\r\n        // AAiTVoteTokenAddress = _AAiTVoteTokenAddress;\r\n        // AAiTStudentAddress = _AAiTStudentAddress;\r\n        // AAiTElectionTimerAddress = _AAiTElectionTimerAddress;\r\n        // electionHandler = AAiTElectionHandler(AAiTElectionHandlerAddress);\r\n        // electionTimer = AAiTElectionTimer(_AAiTElectionTimerAddress);\r\n        // student = AAiTStudent(_AAiTStudentAddress);\r\n        voteToken = AAiTVoteToken(_AAiTVoteTokenAddress);\r\n        phase = ElectionPhase(PHASE_NAME.COMPLETED, 0, 0);\r\n    }\r\n\r\n    //  REGISTRATION,\r\n    //     REGISTRATION_BREAK,\r\n    //     SECTION_ELECTION,\r\n    //     // SECTION_ELECTION_DONE,\r\n    //     SECTION_ELECTION_BREAK,\r\n    //     BATCH_ELECTION,\r\n    //     BATCH_ELECTION_BREAK,\r\n    //     // BATCH_ELECTION_DONE,\r\n    //     DEPARTMENT_ELECTION,\r\n    //     // DEPARTMENT_ELECTION_DONE,\r\n    //     COMPLETED\r\n\r\n    // function changeVal(string memory _newVal) internal {\r\n    //     require(msg.sender == owner, \"Only the owner can change the value\");\r\n    //     val = _newVal;\r\n    //     // IERC20(token).transferFrom(msg.sender, address(this), amount);\r\n    // }\r\n\r\n    // function getPhaseEnd() public view returns (uint256) {\r\n    //     return end;\r\n    // }\r\n\r\n    // function startTimer(uint256 _votingDuration, uint256 _breakDuration)\r\n    //     public\r\n    //     onlyOwner\r\n    // {\r\n    //     if (phase.phaseName == PHASE_NAME.COMPLETED) {\r\n    //         votingDuration = _votingDuration;\r\n    //         breakDuration = _breakDuration;\r\n    //         phase = ElectionPhase(\r\n    //             PHASE_NAME.REGISTRATION,\r\n    //             block.timestamp,\r\n    //             block.timestamp + votingDuration\r\n    //         );\r\n    //     }\r\n    // }\r\n\r\n    // function stopTimer() public onlyOwner {\r\n    //     phase = ElectionPhase(PHASE_NAME.COMPLETED, 0, 0);\r\n    // }\r\n    function getCurrentPhase() public view returns (ElectionPhase memory) {\r\n        return phase;\r\n    }\r\n\r\n    function changePhase(uint256 startDate, uint256 endDate) public onlyOwner {\r\n        // require(msg.sender == owner, \"Only the owner can change the phase\");\r\n\r\n        if (phase.phaseName == PHASE_NAME.DEPARTMENT_ELECTION) {\r\n            phase = ElectionPhase(PHASE_NAME.COMPLETED, 0, 0);\r\n            // changeVal(\"unos\");\r\n            return;\r\n        } else if (phase.phaseName == PHASE_NAME.COMPLETED) {\r\n            phase = ElectionPhase(PHASE_NAME.REGISTRATION, startDate, endDate);\r\n            return;\r\n        }\r\n        // return uint(phase.phaseName)+1;\r\n        phase.phaseName = PHASE_NAME(uint256(phase.phaseName) + 1);\r\n        // phase.phaseName = PHASE_NAME.REGISTRATION_BREAK;\r\n        phase.start = startDate;\r\n        // phase.end = block.timestamp + _newEnd;\r\n        phase.end = endDate;\r\n    }\r\n\r\n    function revertPhase(\r\n        uint256 phaseName,\r\n        uint256 startDate,\r\n        uint256 endDate\r\n    ) external onlyOwner {\r\n        if (phaseName == uint256(phase.phaseName)) {\r\n            return;\r\n        } else {\r\n            phase.phaseName = PHASE_NAME(uint256(phase.phaseName));\r\n            phase.start = startDate;\r\n            phase.end = endDate;\r\n            return;\r\n        }\r\n    }\r\n\r\n    // function getRemainingTime() external view returns (uint256) {\r\n    //     if (phase.phaseName == PHASE_NAME.COMPLETED) {\r\n    //         return 0;\r\n    //     }\r\n    //     return phase.end - block.timestamp;\r\n    // }\r\n\r\n    // ELECTION FUNCTIONS\r\n\r\n    function findElectionByName(string memory _name)\r\n        private\r\n        view\r\n        returns (bool)\r\n    {\r\n        for (uint256 i = 0; i < electionValue.length; i++) {\r\n            if (\r\n                keccak256(abi.encodePacked(electionValue[i].name)) ==\r\n                keccak256(abi.encodePacked(_name))\r\n            ) {\r\n                return true;\r\n            }\r\n        }\r\n        return false;\r\n    }\r\n\r\n    function findElectionByType(\r\n        uint256 year,\r\n        uint256 section,\r\n        DEPTARTMENT_TYPE department\r\n    ) private view returns (bool) {\r\n        for (uint256 i = 0; i < electionValue.length; i++) {\r\n            if (\r\n                electionValue[i].year == year &&\r\n                electionValue[i].section == section &&\r\n                keccak256(abi.encodePacked(electionValue[i].department)) ==\r\n                keccak256(abi.encodePacked(department))\r\n            ) {\r\n                return true;\r\n            }\r\n        }\r\n        return false;\r\n    }\r\n\r\n    // function addElection(\r\n    //     string memory name,\r\n    //     ELECTION_STATUS status,\r\n    //     string memory startDate,\r\n    //     string memory endDate,\r\n    //     address[] memory candidates,\r\n    //     address[] memory voters,\r\n    //     uint256 year,\r\n    //     uint256 section,\r\n    //     DEPTARTMENT_TYPE department\r\n    // ) public {\r\n    //     require(\r\n    //         !findElectionByName(name) ||\r\n    //             !findElectionByType(year, section, department),\r\n    //         \"exists\"\r\n    //     );\r\n\r\n    //     uint256 index = allElections.length;\r\n    //     address[] memory empty;\r\n    //     electionStructsMapping[name] = ElectionStruct(\r\n    //         allElections.length,\r\n    //         name,\r\n    //         status,\r\n    //         startDate,\r\n    //         endDate,\r\n    //         candidates,\r\n    //         empty,\r\n    //         voters,\r\n    //         empty,\r\n    //         year,\r\n    //         section,\r\n    //         department\r\n    //     );\r\n    //     allElections.push(\r\n    //         ElectionStruct({\r\n    //             index: allElections.length,\r\n    //             name: name,\r\n    //             status: status,\r\n    //             startDate: startDate,\r\n    //             endDate: endDate,\r\n    //             candidates: candidates,\r\n    //             winners: empty,\r\n    //             voters: voters,\r\n    //             voted: empty,\r\n    //             year: year,\r\n    //             section: section,\r\n    //             department: department\r\n    //         })\r\n    //     );\r\n    // }\r\n\r\n    // function setElectionHandler(address _AAiTElectionHandlerAddress)\r\n    //     public\r\n    //     onlyOwner\r\n    // {\r\n    //     electionHandler = AAiTElectionHandler(_AAiTElectionHandlerAddress);\r\n    // }\r\n\r\n    function createElection(\r\n        string memory name,\r\n        uint256 startDate,\r\n        uint256 endDate,\r\n        address[] memory candidates,\r\n        uint256 year,\r\n        uint256 section,\r\n        DEPTARTMENT_TYPE department\r\n    ) external {\r\n        address[] memory empty;\r\n        // electionStructsMapping[name].name =\r\n\r\n        require(\r\n            !findElectionByName(name) &&\r\n                !findElectionByType(year, section, department),\r\n            \"Election Already Exists\"\r\n        );\r\n        electionIndex.push(name);\r\n        ElectionStruct memory tempElection = ElectionStruct(\r\n            electionIndex.length - 1,\r\n            name,\r\n            ELECTION_STATUS.ONGOING,\r\n            startDate,\r\n            endDate,\r\n            candidates,\r\n            empty,\r\n            year,\r\n            section,\r\n            department\r\n        );\r\n        electionStructsMapping[name] = tempElection;\r\n        electionValue.push(tempElection);\r\n        // emit LogNewElection(electionStruct);\r\n\r\n        // return electionStruct;\r\n        // revert(\"Invalid Operation\");\r\n        // return true;\r\n    }\r\n\r\n    // function retrieveElections() public {\r\n    //     // allElections = ;\r\n    //     delete allElections;\r\n    //     delete electionIndex;\r\n    //     delete electionValue;\r\n    //     // delete electionStructsMapping;\r\n    //     ElectionStruct[] memory temp = electionHandler.getPendingElections();\r\n    //     for (uint256 i = 0; i < temp.length; i++) {\r\n    //         electionStructsMapping[temp[i].name] = temp[i];\r\n    //         allElections.push(temp[i]);\r\n    //         electionIndex.push(temp[i].name);\r\n    //         electionValue.push(temp[i]);\r\n    //         // electionStructsMapping[allElections[i].name] = allElections[i];\r\n    //         // electionIndex.push(allElections[i].name);\r\n    //         // electionValue.push(allElections[i]);\r\n    //     }\r\n    // }\r\n\r\n    // function removeElection(string memory name) internal onlyOwner {\r\n    //     require(findElectionByName(name), \"No Election\");\r\n    // uint256 rowToDelete = electionStructsMapping[name].index;\r\n    // // string memory keyToMove = electionIndex[electionIndex.length - 1];\r\n    // electionIndex[electionStructsMapping[name].index] = electionIndex[\r\n    //     electionIndex.length - 1\r\n    // ];\r\n    // electionStructsMapping[electionIndex[electionIndex.length - 1]]\r\n    //     .index = electionStructsMapping[name].index;\r\n\r\n    // electionValue[electionStructsMapping[name].index] = electionValue[\r\n    //     electionValue.length - 1\r\n    // ];\r\n    // electionValue[electionStructsMapping[name].index]\r\n    //     .index = electionStructsMapping[name].index;\r\n    // electionValue.pop();\r\n    // electionIndex.pop();\r\n    // delete allElections[electionStructsMapping[name].index];\r\n    // previousElections.push(\r\n    //     electionStructsMapping[electionIndex[electionIndex.length - 1]]\r\n    // );\r\n    // delete electionStructsMapping[electionIndex[electionIndex.length - 1]];\r\n    // }\r\n\r\n    function vote(address voterAddress, address candidateAddress)\r\n        public\r\n        onlyOwner\r\n    {\r\n        // AAiTVoteToken tempToken = AAiTVoteToken(AAiTVoteTokenAddress);\r\n        // AAiTStudent student = AAiTStudent(AAiTStudentAddress);\r\n        // AAiTStudent.VoterStruct memory tempVoter = student.getVoter(\r\n        //     voterAddress\r\n        // );\r\n        // require(voterAddress != address(0), \"Invalid Address\");\r\n        // require(candidateAddress != address(0), \"Invalid Address\");\r\n        require(\r\n            voterAddress != owner && candidateAddress != owner,\r\n            \"Invalid Operation\"\r\n        );\r\n        require(\r\n            voterToCandidatesMapping[voterAddress].length < 2,\r\n            \"Voter Already Voted\"\r\n        );\r\n        require(\r\n            !AAiTElectionLibrary.contains(blacklist, candidateAddress),\r\n            \"Candidate Disqualified\"\r\n        );\r\n        require(\r\n            !AAiTElectionLibrary.contains(\r\n                voterToCandidatesMapping[voterAddress],\r\n                candidateAddress\r\n            ),\r\n            \"Already Voted For This Candidate\"\r\n        );\r\n        // require()\r\n\r\n        require(voteToken.balanceOf(voterAddress) > 0, \"Insufficient Token\");\r\n\r\n        for (uint256 i = 0; i < electionValue.length; i++) {\r\n            if (\r\n                AAiTElectionLibrary.contains(\r\n                    electionValue[i].candidates,\r\n                    candidateAddress\r\n                )\r\n            ) {\r\n                if (electionValue[i].status == ELECTION_STATUS.ONGOING) {\r\n                    if (\r\n                        AAiTElectionLibrary.contains(\r\n                            electionValue[i].candidates,\r\n                            voterAddress\r\n                        )\r\n                    ) {\r\n                        candidateVote(voterAddress, candidateAddress);\r\n                        voterToCandidatesMapping[voterAddress].push(\r\n                            candidateAddress\r\n                        );\r\n                        voted.push(voterAddress);\r\n                    } else {\r\n                        require(\r\n                            voterAddress != candidateAddress,\r\n                            \"Invalid Operation\"\r\n                        );\r\n                        voteToken.transferFrom(\r\n                            voterAddress,\r\n                            candidateAddress,\r\n                            1\r\n                        );\r\n                        voterToCandidatesMapping[voterAddress].push(\r\n                            candidateAddress\r\n                        );\r\n\r\n                        voted.push(voterAddress);\r\n                    }\r\n\r\n                    return;\r\n                } else {\r\n                    revert(\"Invalid Phase\");\r\n                }\r\n            }\r\n            continue;\r\n        }\r\n\r\n        revert(\"Couldn't Vote\");\r\n\r\n        // require(\r\n        //     ,\r\n        //     \"You have already voted\"\r\n        // );\r\n        // moveToVoted(\r\n        //     voterAddress,\r\n        //     getElectionByType(\r\n        //         tempVoter.voterInfo.voterInfo.currentYear,\r\n        //         tempVoter.voterInfo.voterInfo.currentSection,\r\n        //         DEPTARTMENT_TYPE(\r\n        //             uint256(tempVoter.voterInfo.voterInfo.currentDepartment)\r\n        //         )\r\n        //     ).name\r\n        // // );\r\n        // string memory tempName = getElectionByType(\r\n        //     tempVoter.voterInfo.voterInfo.currentYear,\r\n        //     tempVoter.voterInfo.voterInfo.currentSection,\r\n        //     DEPTARTMENT_TYPE(\r\n        //         uint256(tempVoter.voterInfo.voterInfo.currentDepartment)\r\n        //     )\r\n        // ).name;\r\n\r\n        // // electionStructsMapping[tempName].voted.push(voterAddress);\r\n        // delete electionStructsMapping[electionName].voters[index];\r\n        // uint256 index = electionStructsMapping[electionName].index;\r\n        // electionValue[electionStructsMapping[tempName].index]\r\n        //     .voted = electionStructsMapping[tempName].voted;\r\n        // allElections[electionStructsMapping[tempName].index]\r\n        //     .voted = electionStructsMapping[tempName].voted;\r\n    }\r\n\r\n    function candidateVote(address voterAddress, address candidateAddress)\r\n        public\r\n        onlyOwner\r\n    {\r\n        // AAiTVoteToken tempToken = AAiTVoteToken(AAiTVoteTokenAddress);\r\n        voteToken.mint(1);\r\n        voteToken.transfer(voterAddress, 1);\r\n        voteToken.transferFrom(voterAddress, candidateAddress, 1);\r\n    }\r\n\r\n    // function moveToVoted(address voterAddress, address candidateAddress)\r\n    //     internal\r\n    //     onlyOwner\r\n    // {\r\n    //     if (voterRemainingVotesMapping[voterAddress] == 0) {\r\n    //         voted.push(voterAddress);\r\n    //     }\r\n    // }\r\n\r\n    // AAiTVoteToken tempToken = AAiTVoteToken(AAiTVoteTokenAddress);\r\n\r\n    function extendPhase(uint256 endDate) external onlyOwner {\r\n        phase.end = endDate;        \r\n    }\r\n\r\n    function extendElection(string memory electionName, uint256 endDate) external onlyOwner {\r\n        electionStructsMapping[electionName].endDate = endDate;\r\n        electionValue[electionStructsMapping[electionName].index].endDate = endDate;\r\n    }\r\n\r\n    function pauseElection(string memory electionName) external onlyOwner {\r\n        electionStructsMapping[electionName].status = ELECTION_STATUS.PENDING;\r\n        electionValue[electionStructsMapping[electionName].index].status = ELECTION_STATUS.PENDING;\r\n    }\r\n\r\n    function startElection(string memory electionName) external onlyOwner {\r\n        electionStructsMapping[electionName].status = ELECTION_STATUS.ONGOING;\r\n        electionValue[electionStructsMapping[electionName].index].status = ELECTION_STATUS.ONGOING;\r\n    }\r\n\r\n    function completeElection(string memory electionName) public onlyOwner {\r\n        electionStructsMapping[electionName].status = ELECTION_STATUS.COMPLETED;\r\n        electionValue[electionStructsMapping[electionName].index].status = ELECTION_STATUS.COMPLETED;\r\n    }    \r\n\r\n    function endElection(string memory electionName) public onlyOwner {\r\n        // electionStructsMapping[electionName].status = ELECTION_STATUS.ENDED;\r\n        // electionValue[electionStructsMapping[electionName].index]\r\n        //     .status = ELECTION_STATUS.ENDED;\r\n        require(findElectionByName(electionName), \"Election Does Not Exist\");\r\n        declareWinner(electionName);\r\n        // completedElections.push(electionStructsMapping[electionName]);\r\n        // completedElectionResults.push(\r\n        //     ElectionResultStruct(\r\n        //         electionName,\r\n        //         getElectionByName(electionName).candidates\r\n        //     )\r\n        // );\r\n        // removeElection(electionName);\r\n    }\r\n\r\n    function removeElection(string memory electionName) public onlyOwner {        \r\n        require(findElectionByName(electionName), \"Election Does Not Exist\");\r\n\r\n        uint256 rowToDelete = electionStructsMapping[electionName].index;\r\n        string memory keyToMove = electionIndex[electionIndex.length - 1];\r\n        electionIndex[rowToDelete] = keyToMove;\r\n        electionStructsMapping[keyToMove].index = rowToDelete;\r\n        electionIndex.pop();\r\n        electionValue[rowToDelete] = electionValue[electionValue.length - 1];\r\n        electionValue.pop();\r\n    }\r\n\r\n    function removeVotesRemainingForVoters(address[] memory voters) public onlyOwner {\r\n        for (uint256 i = 0; i < voters.length; i++) {\r\n            delete voterToCandidatesMapping[voters[i]];\r\n            if(AAiTElectionLibrary.contains(voted, voters[i])){\r\n                delete voted[AAiTElectionLibrary.indexOf(voted, voters[i])];\r\n            }\r\n        }\r\n\r\n    }\r\n\r\n    function removeAllCompletedElections() external onlyOwner {\r\n        delete completedElections;\r\n        // delete electionStructsMapping;\r\n        delete electionValue;\r\n        delete electionIndex;\r\n        // delete voterRemainingVotesMapping;\r\n        for (uint256 i = 0; i < voted.length; i++) {\r\n            delete voterToCandidatesMapping[voted[i]];\r\n        }\r\n        delete voted;\r\n    }\r\n\r\n    function declareWinner(string memory electionName) internal {\r\n        // AAiTVoteToken tempToken = AAiTVoteToken(AAiTVoteTokenAddress);\r\n        ElectionStruct memory temp = electionStructsMapping[electionName];\r\n        delete tempWinners;\r\n        uint256[] memory tempVoteCount = new uint256[](temp.candidates.length);\r\n        for (uint256 i = 0; i < temp.candidates.length; i++) {\r\n            tempVoteCount[i] = voteToken.balanceOf(temp.candidates[i]);\r\n            // tempVoteCount.push(tempToken.balanceOf(temp.candidates[i]));\r\n        }\r\n        uint256 max = AAiTElectionLibrary.findLargest(tempVoteCount);\r\n        for (uint256 i = 0; i < temp.candidates.length; i++) {\r\n            if (tempVoteCount[i] == max) {\r\n                // winners[i] = temp.candidates[i];\r\n                tempWinners.push(temp.candidates[i]);\r\n            }\r\n        }\r\n\r\n        temp.winners = tempWinners;\r\n        temp.status = ELECTION_STATUS.COMPLETED;\r\n\r\n        electionStructsMapping[electionName] = temp;\r\n        electionValue[electionStructsMapping[electionName].index] = temp;\r\n        // allElections[electionStructsMapping[electionName].index] = temp;\r\n\r\n        // sort candidates\r\n        // uint256[] memory sortedCandidates = temp.candidates;\r\n\r\n        // removeElection(electionName);\r\n\r\n        // uint256 index = electionStructsMapping[electionName].index;\r\n        // uint256 winnerIndex = electionStructsMapping[electionName].winners.length;\r\n        // electionStructsMapping[electionName].winners.push(electionStructsMapping[electionName].candidates[winnerIndex]);\r\n    }\r\n\r\n    function blacklistCandidate(address candidateAddress) public onlyOwner {\r\n        // AAiTStudent student = AAiTStudent(AAiTStudentAddress);\r\n        // AAiTStudent.CandidateStruct memory tempCandidate = student.getCandidate(\r\n        //     candidateAddress\r\n        // );\r\n        // ElectionStruct[] memory tempElection = allElections;\r\n        require(\r\n            !AAiTElectionLibrary.contains(blacklist, candidateAddress),\r\n            \"Candidate already blacklisted\"\r\n        );\r\n        for (uint256 i = 0; i < electionValue.length; i++) {\r\n            if (\r\n                AAiTElectionLibrary.contains(\r\n                    electionValue[i].candidates,\r\n                    candidateAddress\r\n                )\r\n            ) {\r\n                uint256 index = AAiTElectionLibrary.indexOf(\r\n                    electionValue[i].candidates,\r\n                    candidateAddress\r\n                );\r\n\r\n                // require(index < electionValue[i].candidates.length);\r\n                electionValue[i].candidates[index] = electionValue[i]\r\n                    .candidates[electionValue[i].candidates.length - 1];\r\n                electionValue[i].candidates.pop();\r\n                electionStructsMapping[electionValue[i].name]\r\n                    .candidates = electionValue[i].candidates;\r\n\r\n                // student.removeCandidate(\r\n                //     // tempCandidate.candidateInfo.candidateInfo.fName,\r\n                //     // tempCandidate.candidateInfo.candidateInfo.lName,\r\n                //     // tempCandidate.candidateInfo.candidateInfo.gName,\r\n                //     candidateAddress\r\n                // );\r\n\r\n                blacklist.push(candidateAddress);\r\n                // return true;\r\n            }\r\n        }\r\n        // revert(\"Invalid Operation\");\r\n    }\r\n\r\n    function burnAllTokens(address[] memory users) public onlyOwner {\r\n        // AAiTVoteToken tempToken = AAiTVoteToken(AAiTVoteTokenAddress);\r\n        // AAiTStudent tempStudent = AAiTStudent(AAiTStudentAddress);\r\n        // AAiTStudent.CandidateStruct[] memory tempCandidate = student\r\n        //     .getAllCandidates();\r\n        // AAiTStudent.VoterStruct[] memory tempVoter = student.getAllVoters();\r\n        for (uint256 i = 0; i < users.length; i++) {\r\n            voteToken.burn(users[i]);\r\n        }\r\n\r\n        voteToken.burn(owner);\r\n        // temp.burnRemainingTokens(owner);\r\n    }\r\n\r\n    function mintAndSendTokens(address[] memory voters) public onlyOwner {\r\n        // AAiTVoteToken tempToken = AAiTVoteToken(AAiTVoteTokenAddress);\r\n        // AAiTStudent tempStudent = AAiTStudent(AAiTStudentAddress);\r\n        // AAiTStudent.VoterStruct[] memory tempVoters = student.getAllVoters();\r\n        // uint256 totalTokenCount = tempVoters.length;\r\n        voteToken.mint((voters.length) * 2);\r\n        for (uint256 i = 0; i < voters.length; i++) {\r\n            voteToken.transfer(voters[i], 2);\r\n        }\r\n    }\r\n\r\n    // function endElection(string memory electionName) public onlyOwner {\r\n    //     declareWinner(electionName);\r\n    //     removeElection(electionName);\r\n    // }\r\n\r\n    // function getElectionResult(string memory electionName)\r\n    //     public\r\n    //     view\r\n    //     returns (ElectionResultStruct[] memory)\r\n    // {\r\n    //     // ElectionStruct memory temp = electionStructsMapping[electionName];\r\n    //     ElectionResultStruct[] memory result = new ElectionResultStruct[](\r\n    //         electionStructsMapping[electionName].candidates.length\r\n    //     );\r\n    //     // AAiTVoteToken tempToken = AAiTVoteToken(AAiTVoteTokenAddress);\r\n    //     // AAiTStudent student = AAiTStudent(AAiTStudentAddress);\r\n\r\n    //     for (\r\n    //         uint256 i = 0;\r\n    //         i < electionStructsMapping[electionName].candidates.length;\r\n    //         i++\r\n    //     ) {\r\n    //         AAiTStudent.CandidateStruct memory tempCandidate = student\r\n    //             .getCandidate(\r\n    //                 electionStructsMapping[electionName].candidates[i]\r\n    //             );\r\n    //         ElectionResultStruct memory tempResult = ElectionResultStruct(\r\n    //             tempCandidate.candidateInfo.candidateInfo.fullName,\r\n    //             // tempCandidate.candidateInfo.candidateInfo.lName,\r\n    //             // tempCandidate.candidateInfo.candidateInfo.gName,\r\n    //             electionStructsMapping[electionName].candidates[i],\r\n    //             voteToken.balanceOf(\r\n    //                 electionStructsMapping[electionName].candidates[i]\r\n    //             )\r\n    //         );\r\n    //         result[i] = tempResult;\r\n    //     }\r\n    //     return result;\r\n    // }\r\n\r\n    // function goToNextPhase() public onlyOwner {\r\n    //     AAiTElectionTimer.ElectionPhase memory tempPhase = electionTimer\r\n    //         .getCurrentPhase();\r\n    //     if (tempPhase.phaseName == AAiTElectionTimer.PHASE_NAME.REGISTRATION) {\r\n    //         electionTimer.changePhase();\r\n    //         // electionTimer.goToNextPhase();\r\n    //     } else if (\r\n    //         tempPhase.phaseName ==\r\n    //         AAiTElectionTimer.PHASE_NAME.REGISTRATION_BREAK\r\n    //     ) {\r\n    //         electionTimer.changePhase();\r\n    //         // electionHandler.generateElectionsPerPhase();\r\n    //         // retrieveElections();\r\n    //         // electionHandler.mintAndSendTokens();\r\n    //     } else if (\r\n    //         tempPhase.phaseName == AAiTElectionTimer.PHASE_NAME.SECTION_ELECTION\r\n    //     ) {\r\n    //         electionTimer.changePhase();\r\n    //         electionHandler.endAllOngoingElections();\r\n    //         electionHandler.burnAllTokens();\r\n    //     } else if (\r\n    //         tempPhase.phaseName ==\r\n    //         AAiTElectionTimer.PHASE_NAME.SECTION_ELECTION_BREAK\r\n    //     ) {\r\n    //         electionTimer.changePhase();\r\n    //         retrieveElections();\r\n    //         electionHandler.mintAndSendTokens();\r\n    //     } else if (\r\n    //         tempPhase.phaseName == AAiTElectionTimer.PHASE_NAME.BATCH_ELECTION\r\n    //     ) {\r\n    //         electionTimer.changePhase();\r\n    //         electionHandler.endAllOngoingElections();\r\n    //         electionHandler.burnAllTokens();\r\n    //     } else if (\r\n    //         tempPhase.phaseName ==\r\n    //         AAiTElectionTimer.PHASE_NAME.BATCH_ELECTION_BREAK\r\n    //     ) {\r\n    //         electionTimer.changePhase();\r\n    //         retrieveElections();\r\n    //         electionHandler.mintAndSendTokens();\r\n    //     } else if (\r\n    //         tempPhase.phaseName ==\r\n    //         AAiTElectionTimer.PHASE_NAME.DEPARTMENT_ELECTION\r\n    //     ) {\r\n    //         electionTimer.changePhase();\r\n    //         electionHandler.endAllOngoingElections();\r\n    //         electionHandler.burnAllTokens();\r\n    //     } else if (\r\n    //         tempPhase.phaseName == AAiTElectionTimer.PHASE_NAME.COMPLETED\r\n    //     ) {\r\n    //         electionTimer.changePhase();\r\n    //     } else {\r\n    //         revert(\"Invalid Operation\");\r\n    //     }\r\n    // }\r\n\r\n    // function moveToVoted(address voterAddress, string memory electionName)\r\n    //     private\r\n    // {\r\n    //     // uint256 index = electionStructsMapping[electionName].index;\r\n\r\n    //     electionStructsMapping[electionName].voted.push(voterAddress);\r\n    //     // delete electionStructsMapping[electionName].voters[index];\r\n    //     // uint256 index = electionStructsMapping[electionName].index;\r\n    //     electionValue[electionStructsMapping[electionName].index]\r\n    //         .voted = electionStructsMapping[electionName].voted;\r\n    //     // emit LogUpdateElection(\r\n    //     //     index,\r\n    //     //     electionStructsMapping[electionName].name,\r\n    //     //     electionStructsMapping[electionName].status,\r\n    //     //     electionStructsMapping[electionName].startDate,\r\n    //     //     electionStructsMapping[electionName].endDate,\r\n    //     //     electionStructsMapping[electionName].candidates,\r\n    //     //     electionStructsMapping[electionName].winners,\r\n    //     //     electionStructsMapping[electionName].voters,\r\n    //     //     electionStructsMapping[electionName].voted,\r\n    //     //     electionStructsMapping[electionName].year,\r\n    //     //     electionStructsMapping[electionName].section,\r\n    //     //     electionStructsMapping[electionName].department\r\n    //     // );\r\n    // }\r\n\r\n    // GET FUNCTIONS\r\n\r\n    function getVotesRemaining(address voterAddress)\r\n        external\r\n        view\r\n        returns (uint256)\r\n    {\r\n        return voterToCandidatesMapping[voterAddress].length;\r\n    }\r\n\r\n    function getAllCurrentElections()\r\n        public\r\n        view\r\n        returns (ElectionStruct[] memory)\r\n    {\r\n        return electionValue;\r\n    }\r\n\r\n    function getAllCompletedElections()\r\n        public\r\n        view\r\n        returns (ElectionStruct[] memory)\r\n    {\r\n        return completedElections;\r\n    }\r\n\r\n    function getElectionByName(string memory electionName)\r\n        public\r\n        view\r\n        returns (ElectionStruct memory)\r\n    {\r\n        require(findElectionByName(electionName), \"Election not found\");\r\n        return electionStructsMapping[electionName];\r\n    }\r\n\r\n    function getElectionStatus(string memory electionName)\r\n        public\r\n        view\r\n        returns (uint256 status)\r\n    {\r\n        require(findElectionByName(electionName), \"Election not found\");\r\n        return uint256(electionStructsMapping[electionName].status);\r\n    }\r\n\r\n    function getElectionEndDate(string memory electionName)\r\n        public\r\n        view\r\n        returns (uint256)\r\n    {\r\n        require(findElectionByName(electionName), \"Election not found\");\r\n        return electionStructsMapping[electionName].endDate;\r\n    }\r\n\r\n    // function getElectionByType(\r\n    //     uint256 year,\r\n    //     uint256 section,\r\n    //     DEPTARTMENT_TYPE department\r\n    // ) public view returns (ElectionStruct memory result) {\r\n    //     require(\r\n    //         findElectionByType(year, section, department),\r\n    //         \"Election not found\"\r\n    //     );\r\n    //     // AAiTElectionTimer electionTimer = AAiTElectionTimer(\r\n    //     //     AAiTElectionTimerAddress\r\n    //     // );\r\n    //     // AAiTElection tempElection = AAiTElection(AAiTElectionAddress);\r\n    //     // AAiTElection.ElectionStruct[] memory allElections = tempElection\r\n    //     //     .getAllElections();\r\n    //     // ElectionPhase memory phase = getCurrentPhase();\r\n    //     if (\r\n    //         phase.phaseName == PHASE_NAME.DEPARTMENT_ELECTION\r\n    //         // ||\r\n    //         // phase.phaseName ==\r\n    //         // PHASE_NAME.DEPARTMENT_ELECTION_DONE\r\n    //     ) {\r\n    //         for (uint256 i = 0; i < electionValue.length; i++) {\r\n    //             if (electionValue[i].department == department) {\r\n    //                 return electionValue[i];\r\n    //             }\r\n    //         }\r\n    //     } else if (\r\n    //         phase.phaseName == PHASE_NAME.BATCH_ELECTION\r\n    //         // ||\r\n    //         // phase.phaseName ==\r\n    //         // PHASE_NAME.BATCH_ELECTION_DONE\r\n    //     ) {\r\n    //         for (uint256 i = 0; i < electionValue.length; i++) {\r\n    //             if (\r\n    //                 electionValue[i].department == department &&\r\n    //                 electionValue[i].year == year\r\n    //             ) {\r\n    //                 return electionValue[i];\r\n    //             }\r\n    //         }\r\n    //     } else if (\r\n    //         phase.phaseName == PHASE_NAME.SECTION_ELECTION\r\n    //         // ||\r\n    //         // phase.phaseName ==\r\n    //         // PHASE_NAME.SECTION_ELECTION_DONE\r\n    //     ) {\r\n    //         for (uint256 i = 0; i < electionValue.length; i++) {\r\n    //             if (\r\n    //                 electionValue[i].department == department &&\r\n    //                 electionValue[i].year == year &&\r\n    //                 electionValue[i].section == section\r\n    //             ) {\r\n    //                 return electionValue[i];\r\n    //             }\r\n    //         }\r\n    //     } else {\r\n    //         revert(\"Invalid Operation\");\r\n    //     }\r\n    // }\r\n}\r\n",
  "sourcePath": "C:\\Users\\Kaleb\\Desktop\\Final Project Updated\\dvbst_smart_contracts\\contracts\\AAiTElection.sol",
  "compiler": {
    "name": "solc",
    "version": "0.8.10+commit.fc410830.Emscripten.clang"
  },
  "schemaVersion": "3.4.4",
  "updatedAt": "2022-06-29T10:43:53.648Z",
  "networkType": "ethereum",
  "devdoc": {
    "kind": "dev",
    "methods": {},
    "version": 1
  },
  "userdoc": {
    "kind": "user",
    "methods": {},
    "version": 1
  }
}