{
  "contractName": "AAiTElection",
  "abi": [
    {
      "inputs": [
        {
          "internalType": "address",
          "name": "_AAiTVoteTokenAddress",
          "type": "address"
        }
      ],
      "stateMutability": "nonpayable",
      "type": "constructor"
    },
    {
      "anonymous": false,
      "inputs": [
        {
          "indexed": false,
          "internalType": "string",
          "name": "currentPhase",
          "type": "string"
        }
      ],
      "name": "LogCurrentElectionPhase",
      "type": "event"
    },
    {
      "inputs": [],
      "name": "phase",
      "outputs": [
        {
          "internalType": "enum AAiTElection.PHASE_NAME",
          "name": "phaseName",
          "type": "uint8"
        },
        {
          "internalType": "uint256",
          "name": "start",
          "type": "uint256"
        },
        {
          "internalType": "uint256",
          "name": "end",
          "type": "uint256"
        }
      ],
      "stateMutability": "view",
      "type": "function",
      "constant": true
    },
    {
      "inputs": [],
      "name": "getCurrentPhase",
      "outputs": [
        {
          "components": [
            {
              "internalType": "enum AAiTElection.PHASE_NAME",
              "name": "phaseName",
              "type": "uint8"
            },
            {
              "internalType": "uint256",
              "name": "start",
              "type": "uint256"
            },
            {
              "internalType": "uint256",
              "name": "end",
              "type": "uint256"
            }
          ],
          "internalType": "struct AAiTElection.ElectionPhase",
          "name": "",
          "type": "tuple"
        }
      ],
      "stateMutability": "view",
      "type": "function",
      "constant": true
    },
    {
      "inputs": [
        {
          "internalType": "uint256",
          "name": "startDate",
          "type": "uint256"
        },
        {
          "internalType": "uint256",
          "name": "endDate",
          "type": "uint256"
        }
      ],
      "name": "changePhase",
      "outputs": [],
      "stateMutability": "nonpayable",
      "type": "function"
    },
    {
      "inputs": [
        {
          "internalType": "string",
          "name": "name",
          "type": "string"
        },
        {
          "internalType": "uint256",
          "name": "startDate",
          "type": "uint256"
        },
        {
          "internalType": "uint256",
          "name": "endDate",
          "type": "uint256"
        },
        {
          "internalType": "address[]",
          "name": "candidates",
          "type": "address[]"
        },
        {
          "internalType": "uint256",
          "name": "year",
          "type": "uint256"
        },
        {
          "internalType": "uint256",
          "name": "section",
          "type": "uint256"
        },
        {
          "internalType": "enum AAiTElection.DEPTARTMENT_TYPE",
          "name": "department",
          "type": "uint8"
        }
      ],
      "name": "createElection",
      "outputs": [],
      "stateMutability": "nonpayable",
      "type": "function"
    },
    {
      "inputs": [
        {
          "internalType": "address",
          "name": "voterAddress",
          "type": "address"
        },
        {
          "internalType": "address",
          "name": "candidateAddress",
          "type": "address"
        }
      ],
      "name": "vote",
      "outputs": [],
      "stateMutability": "nonpayable",
      "type": "function"
    },
    {
      "inputs": [
        {
          "internalType": "address",
          "name": "voterAddress",
          "type": "address"
        },
        {
          "internalType": "address",
          "name": "candidateAddress",
          "type": "address"
        }
      ],
      "name": "candidateVote",
      "outputs": [],
      "stateMutability": "nonpayable",
      "type": "function"
    },
    {
      "inputs": [
        {
          "internalType": "uint256",
          "name": "endDate",
          "type": "uint256"
        }
      ],
      "name": "extendPhase",
      "outputs": [],
      "stateMutability": "nonpayable",
      "type": "function"
    },
    {
      "inputs": [
        {
          "internalType": "string",
          "name": "electionName",
          "type": "string"
        }
      ],
      "name": "endElection",
      "outputs": [],
      "stateMutability": "nonpayable",
      "type": "function"
    },
    {
      "inputs": [],
      "name": "removeAllCompletedElections",
      "outputs": [],
      "stateMutability": "nonpayable",
      "type": "function"
    },
    {
      "inputs": [
        {
          "internalType": "address",
          "name": "candidateAddress",
          "type": "address"
        }
      ],
      "name": "blacklistCandidate",
      "outputs": [],
      "stateMutability": "nonpayable",
      "type": "function"
    },
    {
      "inputs": [
        {
          "internalType": "address[]",
          "name": "users",
          "type": "address[]"
        }
      ],
      "name": "burnAllTokens",
      "outputs": [],
      "stateMutability": "nonpayable",
      "type": "function"
    },
    {
      "inputs": [
        {
          "internalType": "address[]",
          "name": "voters",
          "type": "address[]"
        }
      ],
      "name": "mintAndSendTokens",
      "outputs": [],
      "stateMutability": "nonpayable",
      "type": "function"
    },
    {
      "inputs": [],
      "name": "getAllCurrentElections",
      "outputs": [
        {
          "components": [
            {
              "internalType": "uint256",
              "name": "index",
              "type": "uint256"
            },
            {
              "internalType": "string",
              "name": "name",
              "type": "string"
            },
            {
              "internalType": "enum AAiTElection.ELECTION_TYPE",
              "name": "status",
              "type": "uint8"
            },
            {
              "internalType": "uint256",
              "name": "startDate",
              "type": "uint256"
            },
            {
              "internalType": "uint256",
              "name": "endDate",
              "type": "uint256"
            },
            {
              "internalType": "address[]",
              "name": "candidates",
              "type": "address[]"
            },
            {
              "internalType": "address[]",
              "name": "winners",
              "type": "address[]"
            },
            {
              "internalType": "uint256",
              "name": "year",
              "type": "uint256"
            },
            {
              "internalType": "uint256",
              "name": "section",
              "type": "uint256"
            },
            {
              "internalType": "enum AAiTElection.DEPTARTMENT_TYPE",
              "name": "department",
              "type": "uint8"
            }
          ],
          "internalType": "struct AAiTElection.ElectionStruct[]",
          "name": "",
          "type": "tuple[]"
        }
      ],
      "stateMutability": "view",
      "type": "function",
      "constant": true
    },
    {
      "inputs": [],
      "name": "getAllCompletedElections",
      "outputs": [
        {
          "components": [
            {
              "internalType": "uint256",
              "name": "index",
              "type": "uint256"
            },
            {
              "internalType": "string",
              "name": "name",
              "type": "string"
            },
            {
              "internalType": "enum AAiTElection.ELECTION_TYPE",
              "name": "status",
              "type": "uint8"
            },
            {
              "internalType": "uint256",
              "name": "startDate",
              "type": "uint256"
            },
            {
              "internalType": "uint256",
              "name": "endDate",
              "type": "uint256"
            },
            {
              "internalType": "address[]",
              "name": "candidates",
              "type": "address[]"
            },
            {
              "internalType": "address[]",
              "name": "winners",
              "type": "address[]"
            },
            {
              "internalType": "uint256",
              "name": "year",
              "type": "uint256"
            },
            {
              "internalType": "uint256",
              "name": "section",
              "type": "uint256"
            },
            {
              "internalType": "enum AAiTElection.DEPTARTMENT_TYPE",
              "name": "department",
              "type": "uint8"
            }
          ],
          "internalType": "struct AAiTElection.ElectionStruct[]",
          "name": "",
          "type": "tuple[]"
        }
      ],
      "stateMutability": "view",
      "type": "function",
      "constant": true
    },
    {
      "inputs": [
        {
          "internalType": "string",
          "name": "electionName",
          "type": "string"
        }
      ],
      "name": "getElectionByName",
      "outputs": [
        {
          "components": [
            {
              "internalType": "uint256",
              "name": "index",
              "type": "uint256"
            },
            {
              "internalType": "string",
              "name": "name",
              "type": "string"
            },
            {
              "internalType": "enum AAiTElection.ELECTION_TYPE",
              "name": "status",
              "type": "uint8"
            },
            {
              "internalType": "uint256",
              "name": "startDate",
              "type": "uint256"
            },
            {
              "internalType": "uint256",
              "name": "endDate",
              "type": "uint256"
            },
            {
              "internalType": "address[]",
              "name": "candidates",
              "type": "address[]"
            },
            {
              "internalType": "address[]",
              "name": "winners",
              "type": "address[]"
            },
            {
              "internalType": "uint256",
              "name": "year",
              "type": "uint256"
            },
            {
              "internalType": "uint256",
              "name": "section",
              "type": "uint256"
            },
            {
              "internalType": "enum AAiTElection.DEPTARTMENT_TYPE",
              "name": "department",
              "type": "uint8"
            }
          ],
          "internalType": "struct AAiTElection.ElectionStruct",
          "name": "",
          "type": "tuple"
        }
      ],
      "stateMutability": "view",
      "type": "function",
      "constant": true
    },
    {
      "inputs": [
        {
          "internalType": "uint256",
          "name": "year",
          "type": "uint256"
        },
        {
          "internalType": "uint256",
          "name": "section",
          "type": "uint256"
        },
        {
          "internalType": "enum AAiTElection.DEPTARTMENT_TYPE",
          "name": "department",
          "type": "uint8"
        }
      ],
      "name": "getElectionByType",
      "outputs": [
        {
          "components": [
            {
              "internalType": "uint256",
              "name": "index",
              "type": "uint256"
            },
            {
              "internalType": "string",
              "name": "name",
              "type": "string"
            },
            {
              "internalType": "enum AAiTElection.ELECTION_TYPE",
              "name": "status",
              "type": "uint8"
            },
            {
              "internalType": "uint256",
              "name": "startDate",
              "type": "uint256"
            },
            {
              "internalType": "uint256",
              "name": "endDate",
              "type": "uint256"
            },
            {
              "internalType": "address[]",
              "name": "candidates",
              "type": "address[]"
            },
            {
              "internalType": "address[]",
              "name": "winners",
              "type": "address[]"
            },
            {
              "internalType": "uint256",
              "name": "year",
              "type": "uint256"
            },
            {
              "internalType": "uint256",
              "name": "section",
              "type": "uint256"
            },
            {
              "internalType": "enum AAiTElection.DEPTARTMENT_TYPE",
              "name": "department",
              "type": "uint8"
            }
          ],
          "internalType": "struct AAiTElection.ElectionStruct",
          "name": "result",
          "type": "tuple"
        }
      ],
      "stateMutability": "view",
      "type": "function",
      "constant": true
    }
  ],
  "bytecode": "0x60a06040526040518060c001604052806040518060400160405280601681526020017f42696f6d65646963616c20456e67696e656572696e670000000000000000000081525081526020016040518060400160405280601481526020017f4368656d6963616c20456e67696e656572696e6700000000000000000000000081525081526020016040518060400160405280601181526020017f436976696c20456e67696e656572696e6700000000000000000000000000000081525081526020016040518060400160405280601681526020017f456c656374726963616c20456e67696e656572696e670000000000000000000081525081526020016040518060400160405280601681526020017f4d656368616e6963616c20456e67696e656572696e670000000000000000000081525081526020016040518060400160405280601481526020017f536f66747761726520456e67696e656572696e67000000000000000000000000815250815250600090600662000181929190620002af565b503480156200018f57600080fd5b5060405162006407380380620064078339818101604052810190620001b591906200049e565b3373ffffffffffffffffffffffffffffffffffffffff1660808173ffffffffffffffffffffffffffffffffffffffff168152505080600d60006101000a81548173ffffffffffffffffffffffffffffffffffffffff021916908373ffffffffffffffffffffffffffffffffffffffff16021790555060405180606001604052806007808111156200024b576200024a620004d0565b5b8152602001600081526020016000815250600160008201518160000160006101000a81548160ff021916908360078111156200028c576200028b620004d0565b5b021790555060208201518160010155604082015181600201559050505062000564565b82805482825590600052602060002090810192821562000303579160200282015b8281111562000302578251829080519060200190620002f192919062000316565b5091602001919060010190620002d0565b5b509050620003129190620003a7565b5090565b82805462000324906200052e565b90600052602060002090601f01602090048101928262000348576000855562000394565b82601f106200036357805160ff191683800117855562000394565b8280016001018555821562000394579182015b828111156200039357825182559160200191906001019062000376565b5b509050620003a39190620003cf565b5090565b5b80821115620003cb5760008181620003c19190620003ee565b50600101620003a8565b5090565b5b80821115620003ea576000816000905550600101620003d0565b5090565b508054620003fc906200052e565b6000825580601f1062000410575062000431565b601f016020900490600052602060002090810190620004309190620003cf565b5b50565b600080fd5b600073ffffffffffffffffffffffffffffffffffffffff82169050919050565b6000620004668262000439565b9050919050565b620004788162000459565b81146200048457600080fd5b50565b60008151905062000498816200046d565b92915050565b600060208284031215620004b757620004b662000434565b5b6000620004c78482850162000487565b91505092915050565b7f4e487b7100000000000000000000000000000000000000000000000000000000600052602160045260246000fd5b7f4e487b7100000000000000000000000000000000000000000000000000000000600052602260045260246000fd5b600060028204905060018216806200054757607f821691505b602082108114156200055e576200055d620004ff565b5b50919050565b608051615e3a620005cd600039600081816102e70152818161034c015281816103a4015281816103fb01528181610d670152818161128201528181611453015281816116a7015281816120b70152818161221401528181612286015261331f0152615e3a6000f3fe608060405234801561001057600080fd5b50600436106101005760003560e01c8063a098246811610097578063dc6d7de311610066578063dc6d7de314610261578063e9cb0c741461027d578063f16219da146102ad578063fe43bc07146102c957610100565b8063a0982468146101e9578063a3a40ea514610207578063b1c9fe6e14610225578063d877416f1461024557610100565b80633ef599ca116100d35780633ef599ca14610175578063558c28981461019157806398747d8e1461019b5780639a67e4c6146101cb57610100565b806316e03349146101055780631afa74e51461012157806324d6562c1461013d57806332c667f914610159575b600080fd5b61011f600480360381019061011a91906148c7565b6102e5565b005b61013b60048036038101906101369190614952565b61034a565b005b61015760048036038101906101529190614992565b610d65565b005b610173600480360381019061016e9190614b18565b611280565b005b61018f600480360381019061018a9190614b61565b611451565b005b6101996116a5565b005b6101b560048036038101906101b09190614c56565b6117e4565b6040516101c29190614f9b565b60405180910390f35b6101d3611abb565b6040516101e09190615167565b60405180910390f35b6101f1611d71565b6040516101fe9190615167565b60405180910390f35b61020f612027565b60405161021c9190615213565b60405180910390f35b61022d612090565b60405161023c9392919061524c565b60405180910390f35b61025f600480360381019061025a9190614b18565b6120b5565b005b61027b60048036038101906102769190614952565b612284565b005b610297600480360381019061029291906152a8565b6124b4565b6040516102a49190614f9b565b60405180910390f35b6102c760048036038101906102c291906152fb565b612fd1565b005b6102e360048036038101906102de9190614c56565b61331d565b005b7f000000000000000000000000000000000000000000000000000000000000000073ffffffffffffffffffffffffffffffffffffffff163373ffffffffffffffffffffffffffffffffffffffff161461033d57600080fd5b8060016002018190555050565b7f000000000000000000000000000000000000000000000000000000000000000073ffffffffffffffffffffffffffffffffffffffff163373ffffffffffffffffffffffffffffffffffffffff16146103a257600080fd5b7f000000000000000000000000000000000000000000000000000000000000000073ffffffffffffffffffffffffffffffffffffffff168273ffffffffffffffffffffffffffffffffffffffff161415801561044a57507f000000000000000000000000000000000000000000000000000000000000000073ffffffffffffffffffffffffffffffffffffffff168173ffffffffffffffffffffffffffffffffffffffff1614155b610489576040517f08c379a000000000000000000000000000000000000000000000000000000000815260040161048090615432565b60405180910390fd5b6002600760008473ffffffffffffffffffffffffffffffffffffffff1673ffffffffffffffffffffffffffffffffffffffff168152602001908152602001600020805490501061050e576040517f08c379a00000000000000000000000000000000000000000000000000000000081526004016105059061549e565b60405180910390fd5b61059e600580548060200260200160405190810160405280929190818152602001828054801561059357602002820191906000526020600020905b8160009054906101000a900473ffffffffffffffffffffffffffffffffffffffff1673ffffffffffffffffffffffffffffffffffffffff1681526020019060010190808311610549575b505050505082613900565b156105de576040517f08c379a00000000000000000000000000000000000000000000000000000000081526004016105d59061550a565b60405180910390fd5b6106ab600760008473ffffffffffffffffffffffffffffffffffffffff1673ffffffffffffffffffffffffffffffffffffffff1681526020019081526020016000208054806020026020016040519081016040528092919081815260200182805480156106a057602002820191906000526020600020905b8160009054906101000a900473ffffffffffffffffffffffffffffffffffffffff1673ffffffffffffffffffffffffffffffffffffffff1681526020019060010190808311610656575b505050505082613900565b156106eb576040517f08c379a00000000000000000000000000000000000000000000000000000000081526004016106e290615576565b60405180910390fd5b6000600d60009054906101000a900473ffffffffffffffffffffffffffffffffffffffff1673ffffffffffffffffffffffffffffffffffffffff166370a08231846040518263ffffffff1660e01b815260040161074891906155a5565b602060405180830381865afa158015610765573d6000803e3d6000fd5b505050506040513d601f19601f8201168201806040525081019061078991906155d5565b116107c9576040517f08c379a00000000000000000000000000000000000000000000000000000000081526004016107c09061564e565b60405180910390fd5b60005b600980549050811015610d255761088c600982815481106107f0576107ef61566e565b5b90600052602060002090600a020160050180548060200260200160405190810160405280929190818152602001828054801561088157602002820191906000526020600020905b8160009054906101000a900473ffffffffffffffffffffffffffffffffffffffff1673ffffffffffffffffffffffffffffffffffffffff1681526020019060010190808311610837575b505050505083613900565b15610d1257600160028111156108a5576108a4614d36565b5b600982815481106108b9576108b861566e565b5b90600052602060002090600a020160020160009054906101000a900460ff1660028111156108ea576108e9614d36565b5b1415610cd7576109a3600982815481106109075761090661566e565b5b90600052602060002090600a020160050180548060200260200160405190810160405280929190818152602001828054801561099857602002820191906000526020600020905b8160009054906101000a900473ffffffffffffffffffffffffffffffffffffffff1673ffffffffffffffffffffffffffffffffffffffff168152602001906001019080831161094e575b505050505084613900565b15610aba576109b28383612284565b600760008473ffffffffffffffffffffffffffffffffffffffff1673ffffffffffffffffffffffffffffffffffffffff168152602001908152602001600020829080600181540180825580915050600190039060005260206000200160009091909190916101000a81548173ffffffffffffffffffffffffffffffffffffffff021916908373ffffffffffffffffffffffffffffffffffffffff1602179055506004839080600181540180825580915050600190039060005260206000200160009091909190916101000a81548173ffffffffffffffffffffffffffffffffffffffff021916908373ffffffffffffffffffffffffffffffffffffffff160217905550610cd1565b8173ffffffffffffffffffffffffffffffffffffffff168373ffffffffffffffffffffffffffffffffffffffff161415610b29576040517f08c379a0000000000000000000000000000000000000000000000000000000008152600401610b2090615432565b60405180910390fd5b600d60009054906101000a900473ffffffffffffffffffffffffffffffffffffffff1673ffffffffffffffffffffffffffffffffffffffff166323b872dd848460016040518463ffffffff1660e01b8152600401610b89939291906156e2565b6020604051808303816000875af1158015610ba8573d6000803e3d6000fd5b505050506040513d601f19601f82011682018060405250810190610bcc9190615751565b50600760008473ffffffffffffffffffffffffffffffffffffffff1673ffffffffffffffffffffffffffffffffffffffff168152602001908152602001600020829080600181540180825580915050600190039060005260206000200160009091909190916101000a81548173ffffffffffffffffffffffffffffffffffffffff021916908373ffffffffffffffffffffffffffffffffffffffff1602179055506004839080600181540180825580915050600190039060005260206000200160009091909190916101000a81548173ffffffffffffffffffffffffffffffffffffffff021916908373ffffffffffffffffffffffffffffffffffffffff1602179055505b50610d61565b6040517f08c379a0000000000000000000000000000000000000000000000000000000008152600401610d09906157ca565b60405180910390fd5b8080610d1d90615819565b9150506107cc565b506040517f08c379a0000000000000000000000000000000000000000000000000000000008152600401610d58906158ae565b60405180910390fd5b5050565b7f000000000000000000000000000000000000000000000000000000000000000073ffffffffffffffffffffffffffffffffffffffff163373ffffffffffffffffffffffffffffffffffffffff1614610dbd57600080fd5b610e4d6005805480602002602001604051908101604052809291908181526020018280548015610e4257602002820191906000526020600020905b8160009054906101000a900473ffffffffffffffffffffffffffffffffffffffff1673ffffffffffffffffffffffffffffffffffffffff1681526020019060010190808311610df8575b505050505082613900565b15610e8d576040517f08c379a0000000000000000000000000000000000000000000000000000000008152600401610e849061591a565b60405180910390fd5b60005b60098054905081101561127c57610f5060098281548110610eb457610eb361566e565b5b90600052602060002090600a0201600501805480602002602001604051908101604052809291908181526020018280548015610f4557602002820191906000526020600020905b8160009054906101000a900473ffffffffffffffffffffffffffffffffffffffff1673ffffffffffffffffffffffffffffffffffffffff1681526020019060010190808311610efb575b505050505083613900565b1561126957600061100a60098381548110610f6e57610f6d61566e565b5b90600052602060002090600a0201600501805480602002602001604051908101604052809291908181526020018280548015610fff57602002820191906000526020600020905b8160009054906101000a900473ffffffffffffffffffffffffffffffffffffffff1673ffffffffffffffffffffffffffffffffffffffff1681526020019060010190808311610fb5575b505050505084613988565b9050600982815481106110205761101f61566e565b5b90600052602060002090600a02016005016001600984815481106110475761104661566e565b5b90600052602060002090600a020160050180549050611066919061593a565b815481106110775761107661566e565b5b9060005260206000200160009054906101000a900473ffffffffffffffffffffffffffffffffffffffff16600983815481106110b6576110b561566e565b5b90600052602060002090600a020160050182815481106110d9576110d861566e565b5b9060005260206000200160006101000a81548173ffffffffffffffffffffffffffffffffffffffff021916908373ffffffffffffffffffffffffffffffffffffffff160217905550600982815481106111355761113461566e565b5b90600052602060002090600a02016005018054806111565761115561596e565b5b6001900381819060005260206000200160006101000a81549073ffffffffffffffffffffffffffffffffffffffff021916905590556009828154811061119f5761119e61566e565b5b90600052602060002090600a02016005016006600984815481106111c6576111c561566e565b5b90600052602060002090600a02016001016040516111e49190615a9d565b9081526020016040518091039020600501908054611203929190614414565b506005839080600181540180825580915050600190039060005260206000200160009091909190916101000a81548173ffffffffffffffffffffffffffffffffffffffff021916908373ffffffffffffffffffffffffffffffffffffffff160217905550505b808061127490615819565b915050610e90565b5050565b7f000000000000000000000000000000000000000000000000000000000000000073ffffffffffffffffffffffffffffffffffffffff163373ffffffffffffffffffffffffffffffffffffffff16146112d857600080fd5b600d60009054906101000a900473ffffffffffffffffffffffffffffffffffffffff1673ffffffffffffffffffffffffffffffffffffffff1663a0712d68600283516113249190615ab4565b6040518263ffffffff1660e01b81526004016113409190615b0e565b600060405180830381600087803b15801561135a57600080fd5b505af115801561136e573d6000803e3d6000fd5b5050505060005b815181101561144d57600d60009054906101000a900473ffffffffffffffffffffffffffffffffffffffff1673ffffffffffffffffffffffffffffffffffffffff1663a9059cbb8383815181106113cf576113ce61566e565b5b602002602001015160026040518363ffffffff1660e01b81526004016113f6929190615b64565b6020604051808303816000875af1158015611415573d6000803e3d6000fd5b505050506040513d601f19601f820116820180604052508101906114399190615751565b50808061144590615819565b915050611375565b5050565b7f000000000000000000000000000000000000000000000000000000000000000073ffffffffffffffffffffffffffffffffffffffff163373ffffffffffffffffffffffffffffffffffffffff16146114a957600080fd5b600660078111156114bd576114bc614d36565b5b600160000160009054906101000a900460ff1660078111156114e2576114e1614d36565b5b141561156557604051806060016040528060078081111561150657611505614d36565b5b8152602001600081526020016000815250600160008201518160000160006101000a81548160ff0219169083600781111561154457611543614d36565b5b021790555060208201518160010155604082015181600201559050506116a1565b60078081111561157857611577614d36565b5b600160000160009054906101000a900460ff16600781111561159d5761159c614d36565b5b141561161f576040518060600160405280600060078111156115c2576115c1614d36565b5b815260200183815260200182815250600160008201518160000160006101000a81548160ff021916908360078111156115fe576115fd614d36565b5b021790555060208201518160010155604082015181600201559050506116a1565b60018060000160009054906101000a900460ff16600781111561164557611644614d36565b5b61164f9190615b8d565b600781111561166157611660614d36565b5b600160000160006101000a81548160ff0219169083600781111561168857611687614d36565b5b0217905550816001800181905550806001600201819055505b5050565b7f000000000000000000000000000000000000000000000000000000000000000073ffffffffffffffffffffffffffffffffffffffff163373ffffffffffffffffffffffffffffffffffffffff16146116fd57600080fd5b600a600061170b9190614466565b600960006117199190614466565b60086000611727919061448a565b60005b6004805490508110156117d357600760006004838154811061174f5761174e61566e565b5b9060005260206000200160009054906101000a900473ffffffffffffffffffffffffffffffffffffffff1673ffffffffffffffffffffffffffffffffffffffff1673ffffffffffffffffffffffffffffffffffffffff16815260200190815260200160002060006117c091906144ab565b80806117cb90615819565b91505061172a565b50600460006117e291906144ab565b565b6117ec6144cc565b6117f582613a0f565b611834576040517f08c379a000000000000000000000000000000000000000000000000000000000815260040161182b90615c2f565b60405180910390fd5b6006826040516118449190615c80565b90815260200160405180910390206040518061014001604052908160008201548152602001600182018054611878906159cc565b80601f01602080910402602001604051908101604052809291908181526020018280546118a4906159cc565b80156118f15780601f106118c6576101008083540402835291602001916118f1565b820191906000526020600020905b8154815290600101906020018083116118d457829003601f168201915b505050505081526020016002820160009054906101000a900460ff16600281111561191f5761191e614d36565b5b600281111561193157611930614d36565b5b81526020016003820154815260200160048201548152602001600582018054806020026020016040519081016040528092919081815260200182805480156119ce57602002820191906000526020600020905b8160009054906101000a900473ffffffffffffffffffffffffffffffffffffffff1673ffffffffffffffffffffffffffffffffffffffff1681526020019060010190808311611984575b5050505050815260200160068201805480602002602001604051908101604052809291908181526020018280548015611a5c57602002820191906000526020600020905b8160009054906101000a900473ffffffffffffffffffffffffffffffffffffffff1673ffffffffffffffffffffffffffffffffffffffff1681526020019060010190808311611a12575b5050505050815260200160078201548152602001600882015481526020016009820160009054906101000a900460ff166005811115611a9e57611a9d614d36565b5b6005811115611ab057611aaf614d36565b5b815250509050919050565b6060600a805480602002602001604051908101604052809291908181526020016000905b82821015611d6857838290600052602060002090600a02016040518061014001604052908160008201548152602001600182018054611b1d906159cc565b80601f0160208091040260200160405190810160405280929190818152602001828054611b49906159cc565b8015611b965780601f10611b6b57610100808354040283529160200191611b96565b820191906000526020600020905b815481529060010190602001808311611b7957829003601f168201915b505050505081526020016002820160009054906101000a900460ff166002811115611bc457611bc3614d36565b5b6002811115611bd657611bd5614d36565b5b8152602001600382015481526020016004820154815260200160058201805480602002602001604051908101604052809291908181526020018280548015611c7357602002820191906000526020600020905b8160009054906101000a900473ffffffffffffffffffffffffffffffffffffffff1673ffffffffffffffffffffffffffffffffffffffff1681526020019060010190808311611c29575b5050505050815260200160068201805480602002602001604051908101604052809291908181526020018280548015611d0157602002820191906000526020600020905b8160009054906101000a900473ffffffffffffffffffffffffffffffffffffffff1673ffffffffffffffffffffffffffffffffffffffff1681526020019060010190808311611cb7575b5050505050815260200160078201548152602001600882015481526020016009820160009054906101000a900460ff166005811115611d4357611d42614d36565b5b6005811115611d5557611d54614d36565b5b8152505081526020019060010190611adf565b50505050905090565b60606009805480602002602001604051908101604052809291908181526020016000905b8282101561201e57838290600052602060002090600a02016040518061014001604052908160008201548152602001600182018054611dd3906159cc565b80601f0160208091040260200160405190810160405280929190818152602001828054611dff906159cc565b8015611e4c5780601f10611e2157610100808354040283529160200191611e4c565b820191906000526020600020905b815481529060010190602001808311611e2f57829003601f168201915b505050505081526020016002820160009054906101000a900460ff166002811115611e7a57611e79614d36565b5b6002811115611e8c57611e8b614d36565b5b8152602001600382015481526020016004820154815260200160058201805480602002602001604051908101604052809291908181526020018280548015611f2957602002820191906000526020600020905b8160009054906101000a900473ffffffffffffffffffffffffffffffffffffffff1673ffffffffffffffffffffffffffffffffffffffff1681526020019060010190808311611edf575b5050505050815260200160068201805480602002602001604051908101604052809291908181526020018280548015611fb757602002820191906000526020600020905b8160009054906101000a900473ffffffffffffffffffffffffffffffffffffffff1673ffffffffffffffffffffffffffffffffffffffff1681526020019060010190808311611f6d575b5050505050815260200160078201548152602001600882015481526020016009820160009054906101000a900460ff166005811115611ff957611ff8614d36565b5b600581111561200b5761200a614d36565b5b8152505081526020019060010190611d95565b50505050905090565b61202f614543565b60016040518060600160405290816000820160009054906101000a900460ff16600781111561206157612060614d36565b5b600781111561207357612072614d36565b5b815260200160018201548152602001600282015481525050905090565b60018060000160009054906101000a900460ff16908060010154908060020154905083565b7f000000000000000000000000000000000000000000000000000000000000000073ffffffffffffffffffffffffffffffffffffffff163373ffffffffffffffffffffffffffffffffffffffff161461210d57600080fd5b60005b81518110156121d357600d60009054906101000a900473ffffffffffffffffffffffffffffffffffffffff1673ffffffffffffffffffffffffffffffffffffffff166389afcb4483838151811061216a5761216961566e565b5b60200260200101516040518263ffffffff1660e01b815260040161218e91906155a5565b600060405180830381600087803b1580156121a857600080fd5b505af11580156121bc573d6000803e3d6000fd5b5050505080806121cb90615819565b915050612110565b50600d60009054906101000a900473ffffffffffffffffffffffffffffffffffffffff1673ffffffffffffffffffffffffffffffffffffffff166389afcb447f00000000000000000000000000000000000000000000000000000000000000006040518263ffffffff1660e01b815260040161224f91906155a5565b600060405180830381600087803b15801561226957600080fd5b505af115801561227d573d6000803e3d6000fd5b5050505050565b7f000000000000000000000000000000000000000000000000000000000000000073ffffffffffffffffffffffffffffffffffffffff163373ffffffffffffffffffffffffffffffffffffffff16146122dc57600080fd5b600d60009054906101000a900473ffffffffffffffffffffffffffffffffffffffff1673ffffffffffffffffffffffffffffffffffffffff1663a0712d6860016040518263ffffffff1660e01b81526004016123389190615c97565b600060405180830381600087803b15801561235257600080fd5b505af1158015612366573d6000803e3d6000fd5b50505050600d60009054906101000a900473ffffffffffffffffffffffffffffffffffffffff1673ffffffffffffffffffffffffffffffffffffffff1663a9059cbb8360016040518363ffffffff1660e01b81526004016123c8929190615cb2565b6020604051808303816000875af11580156123e7573d6000803e3d6000fd5b505050506040513d601f19601f8201168201806040525081019061240b9190615751565b50600d60009054906101000a900473ffffffffffffffffffffffffffffffffffffffff1673ffffffffffffffffffffffffffffffffffffffff166323b872dd838360016040518463ffffffff1660e01b815260040161246c939291906156e2565b6020604051808303816000875af115801561248b573d6000803e3d6000fd5b505050506040513d601f19601f820116820180604052508101906124af9190615751565b505050565b6124bc6144cc565b6124c7848484613ac4565b612506576040517f08c379a00000000000000000000000000000000000000000000000000000000081526004016124fd90615c2f565b60405180910390fd5b6006600781111561251a57612519614d36565b5b600160000160009054906101000a900460ff16600781111561253f5761253e614d36565b5b14156128585760005b6009805490508110156128525782600581111561256857612567614d36565b5b6009828154811061257c5761257b61566e565b5b90600052602060002090600a020160090160009054906101000a900460ff1660058111156125ad576125ac614d36565b5b141561283f57600981815481106125c7576125c661566e565b5b90600052602060002090600a020160405180610140016040529081600082015481526020016001820180546125fb906159cc565b80601f0160208091040260200160405190810160405280929190818152602001828054612627906159cc565b80156126745780601f1061264957610100808354040283529160200191612674565b820191906000526020600020905b81548152906001019060200180831161265757829003601f168201915b505050505081526020016002820160009054906101000a900460ff1660028111156126a2576126a1614d36565b5b60028111156126b4576126b3614d36565b5b815260200160038201548152602001600482015481526020016005820180548060200260200160405190810160405280929190818152602001828054801561275157602002820191906000526020600020905b8160009054906101000a900473ffffffffffffffffffffffffffffffffffffffff1673ffffffffffffffffffffffffffffffffffffffff1681526020019060010190808311612707575b50505050508152602001600682018054806020026020016040519081016040528092919081815260200182805480156127df57602002820191906000526020600020905b8160009054906101000a900473ffffffffffffffffffffffffffffffffffffffff1673ffffffffffffffffffffffffffffffffffffffff1681526020019060010190808311612795575b5050505050815260200160078201548152602001600882015481526020016009820160009054906101000a900460ff16600581111561282157612820614d36565b5b600581111561283357612832614d36565b5b81525050915050612fca565b808061284a90615819565b915050612548565b50612fc9565b6004600781111561286c5761286b614d36565b5b600160000160009054906101000a900460ff16600781111561289157612890614d36565b5b1415612bda5760005b600980549050811015612bd4578260058111156128ba576128b9614d36565b5b600982815481106128ce576128cd61566e565b5b90600052602060002090600a020160090160009054906101000a900460ff1660058111156128ff576128fe614d36565b5b1480156129305750846009828154811061291c5761291b61566e565b5b90600052602060002090600a020160070154145b15612bc157600981815481106129495761294861566e565b5b90600052602060002090600a0201604051806101400160405290816000820154815260200160018201805461297d906159cc565b80601f01602080910402602001604051908101604052809291908181526020018280546129a9906159cc565b80156129f65780601f106129cb576101008083540402835291602001916129f6565b820191906000526020600020905b8154815290600101906020018083116129d957829003601f168201915b505050505081526020016002820160009054906101000a900460ff166002811115612a2457612a23614d36565b5b6002811115612a3657612a35614d36565b5b8152602001600382015481526020016004820154815260200160058201805480602002602001604051908101604052809291908181526020018280548015612ad357602002820191906000526020600020905b8160009054906101000a900473ffffffffffffffffffffffffffffffffffffffff1673ffffffffffffffffffffffffffffffffffffffff1681526020019060010190808311612a89575b5050505050815260200160068201805480602002602001604051908101604052809291908181526020018280548015612b6157602002820191906000526020600020905b8160009054906101000a900473ffffffffffffffffffffffffffffffffffffffff1673ffffffffffffffffffffffffffffffffffffffff1681526020019060010190808311612b17575b5050505050815260200160078201548152602001600882015481526020016009820160009054906101000a900460ff166005811115612ba357612ba2614d36565b5b6005811115612bb557612bb4614d36565b5b81525050915050612fca565b8080612bcc90615819565b91505061289a565b50612fc8565b60026007811115612bee57612bed614d36565b5b600160000160009054906101000a900460ff166007811115612c1357612c12614d36565b5b1415612f8c5760005b600980549050811015612f8657826005811115612c3c57612c3b614d36565b5b60098281548110612c5057612c4f61566e565b5b90600052602060002090600a020160090160009054906101000a900460ff166005811115612c8157612c80614d36565b5b148015612cb257508460098281548110612c9e57612c9d61566e565b5b90600052602060002090600a020160070154145b8015612ce257508360098281548110612cce57612ccd61566e565b5b90600052602060002090600a020160080154145b15612f735760098181548110612cfb57612cfa61566e565b5b90600052602060002090600a02016040518061014001604052908160008201548152602001600182018054612d2f906159cc565b80601f0160208091040260200160405190810160405280929190818152602001828054612d5b906159cc565b8015612da85780601f10612d7d57610100808354040283529160200191612da8565b820191906000526020600020905b815481529060010190602001808311612d8b57829003601f168201915b505050505081526020016002820160009054906101000a900460ff166002811115612dd657612dd5614d36565b5b6002811115612de857612de7614d36565b5b8152602001600382015481526020016004820154815260200160058201805480602002602001604051908101604052809291908181526020018280548015612e8557602002820191906000526020600020905b8160009054906101000a900473ffffffffffffffffffffffffffffffffffffffff1673ffffffffffffffffffffffffffffffffffffffff1681526020019060010190808311612e3b575b5050505050815260200160068201805480602002602001604051908101604052809291908181526020018280548015612f1357602002820191906000526020600020905b8160009054906101000a900473ffffffffffffffffffffffffffffffffffffffff1673ffffffffffffffffffffffffffffffffffffffff1681526020019060010190808311612ec9575b5050505050815260200160078201548152602001600882015481526020016009820160009054906101000a900460ff166005811115612f5557612f54614d36565b5b6005811115612f6757612f66614d36565b5b81525050915050612fca565b8080612f7e90615819565b915050612c1c565b50612fc7565b6040517f08c379a0000000000000000000000000000000000000000000000000000000008152600401612fbe90615432565b60405180910390fd5b5b5b5b9392505050565b6060612fdc88613a0f565b158015612ff15750612fef848484613ac4565b155b613030576040517f08c379a000000000000000000000000000000000000000000000000000000000815260040161302790615d27565b60405180910390fd5b60088890806001815401808255809150506001900390600052602060002001600090919091909150908051906020019061306b929190614576565b506000604051806101400160405280600160088054905061308c919061593a565b81526020018a8152602001600160028111156130ab576130aa614d36565b5b81526020018981526020018881526020018781526020018381526020018681526020018581526020018460058111156130e7576130e6614d36565b5b81525090508060068a6040516130fd9190615c80565b9081526020016040518091039020600082015181600001556020820151816001019080519060200190613131929190614576565b5060408201518160020160006101000a81548160ff0219169083600281111561315d5761315c614d36565b5b0217905550606082015181600301556080820151816004015560a08201518160050190805190602001906131929291906145fc565b5060c08201518160060190805190602001906131af9291906145fc565b5060e0820151816007015561010082015181600801556101208201518160090160006101000a81548160ff021916908360058111156131f1576131f0614d36565b5b021790555090505060098190806001815401808255809150506001900390600052602060002090600a020160009091909190915060008201518160000155602082015181600101908051906020019061324b929190614576565b5060408201518160020160006101000a81548160ff0219169083600281111561327757613276614d36565b5b0217905550606082015181600301556080820151816004015560a08201518160050190805190602001906132ac9291906145fc565b5060c08201518160060190805190602001906132c99291906145fc565b5060e0820151816007015561010082015181600801556101208201518160090160006101000a81548160ff0219169083600581111561330b5761330a614d36565b5b02179055505050505050505050505050565b7f000000000000000000000000000000000000000000000000000000000000000073ffffffffffffffffffffffffffffffffffffffff163373ffffffffffffffffffffffffffffffffffffffff161461337557600080fd5b61337e81613a0f565b6133bd576040517f08c379a00000000000000000000000000000000000000000000000000000000081526004016133b490615d93565b60405180910390fd5b6133c681613be9565b600a6006826040516133d89190615c80565b908152602001604051809103902090806001815401808255809150506001900390600052602060002090600a020160009091909190915060008201548160000155600182018160010190805461342d906159cc565b613438929190614686565b506002820160009054906101000a900460ff168160020160006101000a81548160ff0219169083600281111561347157613470614d36565b5b0217905550600382015481600301556004820154816004015560058201816005019080546134a0929190614713565b5060068201816006019080546134b7929190614713565b5060078201548160070155600882015481600801556009820160009054906101000a900460ff168160090160006101000a81548160ff0219169083600581111561350457613503614d36565b5b02179055505050600b6040518060400160405280838152602001613527846117e4565b60a0015181525090806001815401808255809150506001900390600052602060002090600202016000909190919091506000820151816000019080519060200190613573929190614576565b5060208201518160010190805190602001906135909291906145fc565b50505060006006826040516135a59190615c80565b90815260200160405180910390206000015490506000600860016008805490506135cf919061593a565b815481106135e0576135df61566e565b5b9060005260206000200180546135f5906159cc565b80601f0160208091040260200160405190810160405280929190818152602001828054613621906159cc565b801561366e5780601f106136435761010080835404028352916020019161366e565b820191906000526020600020905b81548152906001019060200180831161365157829003601f168201915b50505050509050806008838154811061368a5761368961566e565b5b9060005260206000200190805190602001906136a7929190614576565b50816006826040516136b99190615c80565b90815260200160405180910390206000018190555060088054806136e0576136df61596e565b5b6001900381819060005260206000200160006136fc9190614765565b905560096001600980549050613712919061593a565b815481106137235761372261566e565b5b90600052602060002090600a0201600983815481106137455761374461566e565b5b90600052602060002090600a0201600082015481600001556001820181600101908054613771906159cc565b61377c929190614686565b506002820160009054906101000a900460ff168160020160006101000a81548160ff021916908360028111156137b5576137b4614d36565b5b0217905550600382015481600301556004820154816004015560058201816005019080546137e4929190614713565b5060068201816006019080546137fb929190614713565b5060078201548160070155600882015481600801556009820160009054906101000a900460ff168160090160006101000a81548160ff0219169083600581111561384857613847614d36565b5b021790555090505060098054806138625761386161596e565b5b60019003818190600052602060002090600a020160008082016000905560018201600061388f9190614765565b6002820160006101000a81549060ff0219169055600382016000905560048201600090556005820160006138c391906144ab565b6006820160006138d391906144ab565b600782016000905560088201600090556009820160006101000a81549060ff021916905550509055505050565b600080600090505b835181101561397c578273ffffffffffffffffffffffffffffffffffffffff1684828151811061393b5761393a61566e565b5b602002602001015173ffffffffffffffffffffffffffffffffffffffff161415613969576001915050613982565b808061397490615819565b915050613908565b50600090505b92915050565b600080600090505b8351811015613a03578273ffffffffffffffffffffffffffffffffffffffff168482815181106139c3576139c261566e565b5b602002602001015173ffffffffffffffffffffffffffffffffffffffff1614156139f05780915050613a09565b80806139fb90615819565b915050613990565b50825190505b92915050565b600080600090505b600980549050811015613ab95782604051602001613a359190615c80565b6040516020818303038152906040528051906020012060098281548110613a5f57613a5e61566e565b5b90600052602060002090600a0201600101604051602001613a809190615a9d565b604051602081830303815290604052805190602001201415613aa6576001915050613abf565b8080613ab190615819565b915050613a17565b50600090505b919050565b600080600090505b600980549050811015613bdc578460098281548110613aee57613aed61566e565b5b90600052602060002090600a020160070154148015613b3157508360098281548110613b1d57613b1c61566e565b5b90600052602060002090600a020160080154145b8015613bba575082604051602001613b499190615de9565b6040516020818303038152906040528051906020012060098281548110613b7357613b7261566e565b5b90600052602060002090600a020160090160009054906101000a900460ff16604051602001613ba29190615de9565b60405160208183030381529060405280519060200120145b15613bc9576001915050613be2565b8080613bd490615819565b915050613acc565b50600090505b9392505050565b6000600682604051613bfb9190615c80565b90815260200160405180910390206040518061014001604052908160008201548152602001600182018054613c2f906159cc565b80601f0160208091040260200160405190810160405280929190818152602001828054613c5b906159cc565b8015613ca85780601f10613c7d57610100808354040283529160200191613ca8565b820191906000526020600020905b815481529060010190602001808311613c8b57829003601f168201915b505050505081526020016002820160009054906101000a900460ff166002811115613cd657613cd5614d36565b5b6002811115613ce857613ce7614d36565b5b8152602001600382015481526020016004820154815260200160058201805480602002602001604051908101604052809291908181526020018280548015613d8557602002820191906000526020600020905b8160009054906101000a900473ffffffffffffffffffffffffffffffffffffffff1673ffffffffffffffffffffffffffffffffffffffff1681526020019060010190808311613d3b575b5050505050815260200160068201805480602002602001604051908101604052809291908181526020018280548015613e1357602002820191906000526020600020905b8160009054906101000a900473ffffffffffffffffffffffffffffffffffffffff1673ffffffffffffffffffffffffffffffffffffffff1681526020019060010190808311613dc9575b5050505050815260200160078201548152602001600882015481526020016009820160009054906101000a900460ff166005811115613e5557613e54614d36565b5b6005811115613e6757613e66614d36565b5b815250509050600c6000613e7b91906144ab565b60008160a001515167ffffffffffffffff811115613e9c57613e9b6149d5565b5b604051908082528060200260200182016040528015613eca5781602001602082028036833780820191505090505b50905060005b8260a0015151811015613fc957600d60009054906101000a900473ffffffffffffffffffffffffffffffffffffffff1673ffffffffffffffffffffffffffffffffffffffff166370a082318460a001518381518110613f3257613f3161566e565b5b60200260200101516040518263ffffffff1660e01b8152600401613f5691906155a5565b602060405180830381865afa158015613f73573d6000803e3d6000fd5b505050506040513d601f19601f82011682018060405250810190613f9791906155d5565b828281518110613faa57613fa961566e565b5b6020026020010181815250508080613fc190615819565b915050613ed0565b506000613fd5826143a4565b905060005b8360a001515181101561409e5781838281518110613ffb57613ffa61566e565b5b6020026020010151141561408b57600c8460a0015182815181106140225761402161566e565b5b60200260200101519080600181540180825580915050600190039060005260206000200160009091909190916101000a81548173ffffffffffffffffffffffffffffffffffffffff021916908373ffffffffffffffffffffffffffffffffffffffff1602179055505b808061409690615819565b915050613fda565b50600c80548060200260200160405190810160405280929190818152602001828054801561412157602002820191906000526020600020905b8160009054906101000a900473ffffffffffffffffffffffffffffffffffffffff1673ffffffffffffffffffffffffffffffffffffffff16815260200190600101908083116140d7575b50505050508360c0018190525060028360400190600281111561414757614146614d36565b5b9081600281111561415b5761415a614d36565b5b81525050826006856040516141709190615c80565b90815260200160405180910390206000820151816000015560208201518160010190805190602001906141a4929190614576565b5060408201518160020160006101000a81548160ff021916908360028111156141d0576141cf614d36565b5b0217905550606082015181600301556080820151816004015560a08201518160050190805190602001906142059291906145fc565b5060c08201518160060190805190602001906142229291906145fc565b5060e0820151816007015561010082015181600801556101208201518160090160006101000a81548160ff0219169083600581111561426457614263614d36565b5b021790555090505082600960068660405161427f9190615c80565b908152602001604051809103902060000154815481106142a2576142a161566e565b5b90600052602060002090600a02016000820151816000015560208201518160010190805190602001906142d6929190614576565b5060408201518160020160006101000a81548160ff0219169083600281111561430257614301614d36565b5b0217905550606082015181600301556080820151816004015560a08201518160050190805190602001906143379291906145fc565b5060c08201518160060190805190602001906143549291906145fc565b5060e0820151816007015561010082015181600801556101208201518160090160006101000a81548160ff0219169083600581111561439657614395614d36565b5b021790555090505050505050565b6000806000905060005b835181101561440a57818482815181106143cb576143ca61566e565b5b602002602001015111156143f7578381815181106143ec576143eb61566e565b5b602002602001015191505b808061440290615819565b9150506143ae565b5080915050919050565b8280548282559060005260206000209081019282156144555760005260206000209182015b82811115614454578254825591600101919060010190614439565b5b50905061446291906147a5565b5090565b50805460008255600a029060005260206000209081019061448791906147c2565b50565b50805460008255906000526020600020908101906144a89190614859565b50565b50805460008255906000526020600020908101906144c991906147a5565b50565b6040518061014001604052806000815260200160608152602001600060028111156144fa576144f9614d36565b5b81526020016000815260200160008152602001606081526020016060815260200160008152602001600081526020016000600581111561453d5761453c614d36565b5b81525090565b60405180606001604052806000600781111561456257614561614d36565b5b815260200160008152602001600081525090565b828054614582906159cc565b90600052602060002090601f0160209004810192826145a457600085556145eb565b82601f106145bd57805160ff19168380011785556145eb565b828001600101855582156145eb579182015b828111156145ea5782518255916020019190600101906145cf565b5b5090506145f891906147a5565b5090565b828054828255906000526020600020908101928215614675579160200282015b828111156146745782518260006101000a81548173ffffffffffffffffffffffffffffffffffffffff021916908373ffffffffffffffffffffffffffffffffffffffff1602179055509160200191906001019061461c565b5b50905061468291906147a5565b5090565b828054614692906159cc565b90600052602060002090601f0160209004810192826146b45760008555614702565b82601f106146c55780548555614702565b8280016001018555821561470257600052602060002091601f016020900482015b828111156147015782548255916001019190600101906146e6565b5b50905061470f91906147a5565b5090565b8280548282559060005260206000209081019282156147545760005260206000209182015b82811115614753578254825591600101919060010190614738565b5b50905061476191906147a5565b5090565b508054614771906159cc565b6000825580601f1061478357506147a2565b601f0160209004906000526020600020908101906147a191906147a5565b5b50565b5b808211156147be5760008160009055506001016147a6565b5090565b5b80821115614855576000808201600090556001820160006147e49190614765565b6002820160006101000a81549060ff02191690556003820160009055600482016000905560058201600061481891906144ab565b60068201600061482891906144ab565b600782016000905560088201600090556009820160006101000a81549060ff021916905550600a016147c3565b5090565b5b8082111561487957600081816148709190614765565b5060010161485a565b5090565b6000604051905090565b600080fd5b600080fd5b6000819050919050565b6148a481614891565b81146148af57600080fd5b50565b6000813590506148c18161489b565b92915050565b6000602082840312156148dd576148dc614887565b5b60006148eb848285016148b2565b91505092915050565b600073ffffffffffffffffffffffffffffffffffffffff82169050919050565b600061491f826148f4565b9050919050565b61492f81614914565b811461493a57600080fd5b50565b60008135905061494c81614926565b92915050565b6000806040838503121561496957614968614887565b5b60006149778582860161493d565b92505060206149888582860161493d565b9150509250929050565b6000602082840312156149a8576149a7614887565b5b60006149b68482850161493d565b91505092915050565b600080fd5b6000601f19601f8301169050919050565b7f4e487b7100000000000000000000000000000000000000000000000000000000600052604160045260246000fd5b614a0d826149c4565b810181811067ffffffffffffffff82111715614a2c57614a2b6149d5565b5b80604052505050565b6000614a3f61487d565b9050614a4b8282614a04565b919050565b600067ffffffffffffffff821115614a6b57614a6a6149d5565b5b602082029050602081019050919050565b600080fd5b6000614a94614a8f84614a50565b614a35565b90508083825260208201905060208402830185811115614ab757614ab6614a7c565b5b835b81811015614ae05780614acc888261493d565b845260208401935050602081019050614ab9565b5050509392505050565b600082601f830112614aff57614afe6149bf565b5b8135614b0f848260208601614a81565b91505092915050565b600060208284031215614b2e57614b2d614887565b5b600082013567ffffffffffffffff811115614b4c57614b4b61488c565b5b614b5884828501614aea565b91505092915050565b60008060408385031215614b7857614b77614887565b5b6000614b86858286016148b2565b9250506020614b97858286016148b2565b9150509250929050565b600080fd5b600067ffffffffffffffff821115614bc157614bc06149d5565b5b614bca826149c4565b9050602081019050919050565b82818337600083830152505050565b6000614bf9614bf484614ba6565b614a35565b905082815260208101848484011115614c1557614c14614ba1565b5b614c20848285614bd7565b509392505050565b600082601f830112614c3d57614c3c6149bf565b5b8135614c4d848260208601614be6565b91505092915050565b600060208284031215614c6c57614c6b614887565b5b600082013567ffffffffffffffff811115614c8a57614c8961488c565b5b614c9684828501614c28565b91505092915050565b614ca881614891565b82525050565b600081519050919050565b600082825260208201905092915050565b60005b83811015614ce8578082015181840152602081019050614ccd565b83811115614cf7576000848401525b50505050565b6000614d0882614cae565b614d128185614cb9565b9350614d22818560208601614cca565b614d2b816149c4565b840191505092915050565b7f4e487b7100000000000000000000000000000000000000000000000000000000600052602160045260246000fd5b60038110614d7657614d75614d36565b5b50565b6000819050614d8782614d65565b919050565b6000614d9782614d79565b9050919050565b614da781614d8c565b82525050565b600081519050919050565b600082825260208201905092915050565b6000819050602082019050919050565b614de281614914565b82525050565b6000614df48383614dd9565b60208301905092915050565b6000602082019050919050565b6000614e1882614dad565b614e228185614db8565b9350614e2d83614dc9565b8060005b83811015614e5e578151614e458882614de8565b9750614e5083614e00565b925050600181019050614e31565b5085935050505092915050565b60068110614e7c57614e7b614d36565b5b50565b6000819050614e8d82614e6b565b919050565b6000614e9d82614e7f565b9050919050565b614ead81614e92565b82525050565b600061014083016000830151614ecc6000860182614c9f565b5060208301518482036020860152614ee48282614cfd565b9150506040830151614ef96040860182614d9e565b506060830151614f0c6060860182614c9f565b506080830151614f1f6080860182614c9f565b5060a083015184820360a0860152614f378282614e0d565b91505060c083015184820360c0860152614f518282614e0d565b91505060e0830151614f6660e0860182614c9f565b50610100830151614f7b610100860182614c9f565b50610120830151614f90610120860182614ea4565b508091505092915050565b60006020820190508181036000830152614fb58184614eb3565b905092915050565b600081519050919050565b600082825260208201905092915050565b6000819050602082019050919050565b6000610140830160008301516150026000860182614c9f565b506020830151848203602086015261501a8282614cfd565b915050604083015161502f6040860182614d9e565b5060608301516150426060860182614c9f565b5060808301516150556080860182614c9f565b5060a083015184820360a086015261506d8282614e0d565b91505060c083015184820360c08601526150878282614e0d565b91505060e083015161509c60e0860182614c9f565b506101008301516150b1610100860182614c9f565b506101208301516150c6610120860182614ea4565b508091505092915050565b60006150dd8383614fe9565b905092915050565b6000602082019050919050565b60006150fd82614fbd565b6151078185614fc8565b93508360208202850161511985614fd9565b8060005b85811015615155578484038952815161513685826150d1565b9450615141836150e5565b925060208a0199505060018101905061511d565b50829750879550505050505092915050565b6000602082019050818103600083015261518181846150f2565b905092915050565b6008811061519a57615199614d36565b5b50565b60008190506151ab82615189565b919050565b60006151bb8261519d565b9050919050565b6151cb816151b0565b82525050565b6060820160008201516151e760008501826151c2565b5060208201516151fa6020850182614c9f565b50604082015161520d6040850182614c9f565b50505050565b600060608201905061522860008301846151d1565b92915050565b615237816151b0565b82525050565b61524681614891565b82525050565b6000606082019050615261600083018661522e565b61526e602083018561523d565b61527b604083018461523d565b949350505050565b6006811061529057600080fd5b50565b6000813590506152a281615283565b92915050565b6000806000606084860312156152c1576152c0614887565b5b60006152cf868287016148b2565b93505060206152e0868287016148b2565b92505060406152f186828701615293565b9150509250925092565b600080600080600080600060e0888a03121561531a57615319614887565b5b600088013567ffffffffffffffff8111156153385761533761488c565b5b6153448a828b01614c28565b97505060206153558a828b016148b2565b96505060406153668a828b016148b2565b955050606088013567ffffffffffffffff8111156153875761538661488c565b5b6153938a828b01614aea565b94505060806153a48a828b016148b2565b93505060a06153b58a828b016148b2565b92505060c06153c68a828b01615293565b91505092959891949750929550565b600082825260208201905092915050565b7f496e76616c6964204f7065726174696f6e000000000000000000000000000000600082015250565b600061541c6011836153d5565b9150615427826153e6565b602082019050919050565b6000602082019050818103600083015261544b8161540f565b9050919050565b7f566f74657220416c726561647920566f74656400000000000000000000000000600082015250565b60006154886013836153d5565b915061549382615452565b602082019050919050565b600060208201905081810360008301526154b78161547b565b9050919050565b7f43616e646964617465204469737175616c696669656400000000000000000000600082015250565b60006154f46016836153d5565b91506154ff826154be565b602082019050919050565b60006020820190508181036000830152615523816154e7565b9050919050565b7f416c726561647920566f74656420466f7220546869732043616e646964617465600082015250565b60006155606020836153d5565b915061556b8261552a565b602082019050919050565b6000602082019050818103600083015261558f81615553565b9050919050565b61559f81614914565b82525050565b60006020820190506155ba6000830184615596565b92915050565b6000815190506155cf8161489b565b92915050565b6000602082840312156155eb576155ea614887565b5b60006155f9848285016155c0565b91505092915050565b7f496e73756666696369656e7420546f6b656e0000000000000000000000000000600082015250565b60006156386012836153d5565b915061564382615602565b602082019050919050565b600060208201905081810360008301526156678161562b565b9050919050565b7f4e487b7100000000000000000000000000000000000000000000000000000000600052603260045260246000fd5b6000819050919050565b6000819050919050565b60006156cc6156c76156c28461569d565b6156a7565b614891565b9050919050565b6156dc816156b1565b82525050565b60006060820190506156f76000830186615596565b6157046020830185615596565b61571160408301846156d3565b949350505050565b60008115159050919050565b61572e81615719565b811461573957600080fd5b50565b60008151905061574b81615725565b92915050565b60006020828403121561576757615766614887565b5b60006157758482850161573c565b91505092915050565b7f496e76616c696420506861736500000000000000000000000000000000000000600082015250565b60006157b4600d836153d5565b91506157bf8261577e565b602082019050919050565b600060208201905081810360008301526157e3816157a7565b9050919050565b7f4e487b7100000000000000000000000000000000000000000000000000000000600052601160045260246000fd5b600061582482614891565b91507fffffffffffffffffffffffffffffffffffffffffffffffffffffffffffffffff821415615857576158566157ea565b5b600182019050919050565b7f436f756c646e277420566f746500000000000000000000000000000000000000600082015250565b6000615898600d836153d5565b91506158a382615862565b602082019050919050565b600060208201905081810360008301526158c78161588b565b9050919050565b7f43616e64696461746520616c726561647920626c61636b6c6973746564000000600082015250565b6000615904601d836153d5565b915061590f826158ce565b602082019050919050565b60006020820190508181036000830152615933816158f7565b9050919050565b600061594582614891565b915061595083614891565b925082821015615963576159626157ea565b5b828203905092915050565b7f4e487b7100000000000000000000000000000000000000000000000000000000600052603160045260246000fd5b7f4e487b7100000000000000000000000000000000000000000000000000000000600052602260045260246000fd5b600060028204905060018216806159e457607f821691505b602082108114156159f8576159f761599d565b5b50919050565b600081905092915050565b60008190508160005260206000209050919050565b60008154615a2b816159cc565b615a3581866159fe565b94506001821660008114615a505760018114615a6157615a94565b60ff19831686528186019350615a94565b615a6a85615a09565b60005b83811015615a8c57815481890152600182019150602081019050615a6d565b838801955050505b50505092915050565b6000615aa98284615a1e565b915081905092915050565b6000615abf82614891565b9150615aca83614891565b9250817fffffffffffffffffffffffffffffffffffffffffffffffffffffffffffffffff0483118215151615615b0357615b026157ea565b5b828202905092915050565b6000602082019050615b23600083018461523d565b92915050565b6000819050919050565b6000615b4e615b49615b4484615b29565b6156a7565b614891565b9050919050565b615b5e81615b33565b82525050565b6000604082019050615b796000830185615596565b615b866020830184615b55565b9392505050565b6000615b9882614891565b9150615ba383614891565b9250827fffffffffffffffffffffffffffffffffffffffffffffffffffffffffffffffff03821115615bd857615bd76157ea565b5b828201905092915050565b7f456c656374696f6e206e6f7420666f756e640000000000000000000000000000600082015250565b6000615c196012836153d5565b9150615c2482615be3565b602082019050919050565b60006020820190508181036000830152615c4881615c0c565b9050919050565b6000615c5a82614cae565b615c6481856159fe565b9350615c74818560208601614cca565b80840191505092915050565b6000615c8c8284615c4f565b915081905092915050565b6000602082019050615cac60008301846156d3565b92915050565b6000604082019050615cc76000830185615596565b615cd460208301846156d3565b9392505050565b7f456c656374696f6e20416c726561647920457869737473000000000000000000600082015250565b6000615d116017836153d5565b9150615d1c82615cdb565b602082019050919050565b60006020820190508181036000830152615d4081615d04565b9050919050565b7f456c656374696f6e20446f6573204e6f74204578697374000000000000000000600082015250565b6000615d7d6017836153d5565b9150615d8882615d47565b602082019050919050565b60006020820190508181036000830152615dac81615d70565b9050919050565b60008160f81b9050919050565b6000615dcb82615db3565b9050919050565b615de3615dde82614e92565b615dc0565b82525050565b6000615df58284615dd2565b6001820191508190509291505056fea264697066735822122050615674181871b60c8ab2ecf4d27c2d4627e04355491aebd060cb64f1b9a0f664736f6c634300080a0033",
  "immutableReferences": {
    "1034": [
      {
        "length": 32,
        "start": 743
      },
      {
        "length": 32,
        "start": 844
      },
      {
        "length": 32,
        "start": 932
      },
      {
        "length": 32,
        "start": 1019
      },
      {
        "length": 32,
        "start": 3431
      },
      {
        "length": 32,
        "start": 4738
      },
      {
        "length": 32,
        "start": 5203
      },
      {
        "length": 32,
        "start": 5799
      },
      {
        "length": 32,
        "start": 8375
      },
      {
        "length": 32,
        "start": 8724
      },
      {
        "length": 32,
        "start": 8838
      },
      {
        "length": 32,
        "start": 13087
      }
    ]
  },
  "source": "// SPDX-License-Identifier: MIT\r\npragma solidity ^0.8.9;\r\n\r\n// import \"./Candidate.sol\";\r\n// import \"./Voter.sol\";\r\nimport \"./AAiTVoteToken.sol\";\r\n\r\n// import \"./AAiTStudent.sol\";\r\n// import \"./AAiTElectionHandler.sol\";\r\n\r\nlibrary AAiTElectionLibrary {\r\n    function contains(address[] memory array, address value)\r\n        internal\r\n        pure\r\n        returns (bool)\r\n    {\r\n        for (uint256 i = 0; i < array.length; i++) {\r\n            if (array[i] == value) {\r\n                return true;\r\n            }\r\n        }\r\n        return false;\r\n    }\r\n\r\n    function indexOf(address[] memory array, address value)\r\n        internal\r\n        pure\r\n        returns (uint256)\r\n    {\r\n        for (uint256 i = 0; i < array.length; i++) {\r\n            if (array[i] == value) {\r\n                return i;\r\n            }\r\n        }\r\n        return array.length;\r\n    }\r\n\r\n    function findLargest(uint256[] memory array)\r\n        internal\r\n        pure\r\n        returns (uint256)\r\n    {\r\n        uint256 largest = 0;\r\n        for (uint256 i = 0; i < array.length; i++) {\r\n            if (array[i] > largest) {\r\n                largest = array[i];\r\n            }\r\n        }\r\n        return largest;\r\n    }\r\n\r\n    // function bytes32ToString(bytes32 _bytes32)\r\n    //     internal\r\n    //     pure\r\n    //     returns (string memory)\r\n    // {\r\n    //     uint8 i = 0;\r\n    //     while (i < 32 && _bytes32[i] != 0) {\r\n    //         i++;\r\n    //     }\r\n    //     bytes memory bytesArray = new bytes(i);\r\n    //     for (i = 0; i < 32 && _bytes32[i] != 0; i++) {\r\n    //         bytesArray[i] = _bytes32[i];\r\n    //     }\r\n    //     return string(bytesArray);\r\n    // }\r\n}\r\n\r\ncontract AAiTElection {\r\n    enum DEPTARTMENT_TYPE {\r\n        BIOMED,\r\n        CHEMICAL,\r\n        CIVIL,\r\n        ELEC,\r\n        MECHANICAL,\r\n        SITE\r\n    }\r\n    enum ELECTION_TYPE {\r\n        PENDING,\r\n        ONGOING,\r\n        COMPLETED\r\n    }\r\n    enum PHASE_NAME {\r\n        REGISTRATION,\r\n        REGISTRATION_BREAK,\r\n        SECTION_ELECTION,\r\n        SECTION_ELECTION_BREAK,\r\n        BATCH_ELECTION,\r\n        BATCH_ELECTION_BREAK,\r\n        DEPARTMENT_ELECTION,\r\n        COMPLETED\r\n    }\r\n    string[] private deptTypes = [\r\n        \"Biomedical Engineering\",\r\n        \"Chemical Engineering\",\r\n        \"Civil Engineering\",\r\n        \"Electrical Engineering\",\r\n        \"Mechanical Engineering\",\r\n        \"Software Engineering\"\r\n    ];\r\n\r\n    struct ElectionStruct {\r\n        uint256 index;\r\n        string name;\r\n        ELECTION_TYPE status;\r\n        uint256 startDate;\r\n        uint256 endDate;\r\n        address[] candidates;\r\n        address[] winners;\r\n        uint256 year;\r\n        uint256 section;\r\n        DEPTARTMENT_TYPE department;\r\n    }\r\n    struct ElectionPhase {\r\n        PHASE_NAME phaseName;\r\n        uint256 start;\r\n        uint256 end;\r\n    }\r\n\r\n    ElectionPhase public phase;\r\n\r\n    event LogCurrentElectionPhase(string currentPhase);\r\n\r\n    struct ElectionResultStruct {\r\n        string electionName;\r\n        // string candidateFullName;\r\n        // string candidateLName;\r\n        // string candidateGName;\r\n        address[] candidateAddress;\r\n        // uint256 votes;\r\n    }\r\n\r\n    address private immutable owner;\r\n    address[] private voted;\r\n    address[] private blacklist;\r\n\r\n    // address private AAiTVoteTokenAddress;\r\n    // address private AAiTStudentAddress;\r\n    // address private AAiTElectionTimerAddress;\r\n\r\n    mapping(string => ElectionStruct) private electionStructsMapping;\r\n    mapping(address => address[]) private voterToCandidatesMapping;\r\n    // mapping(address => uint256) private voterRemainingVotesMapping;\r\n    string[] private electionIndex;\r\n    ElectionStruct[] private electionValue;\r\n    ElectionStruct[] private completedElections;\r\n    ElectionResultStruct[] private completedElectionResults;\r\n    address[] tempWinners;\r\n\r\n    // AAiTElectionHandler electionHandler;\r\n    // AAiTElectionTimer electionTimer;\r\n    // AAiTStudent student;\r\n    AAiTVoteToken voteToken;\r\n\r\n    // event LogNewElection(\r\n    //     uint256 index,\r\n    //     string name,\r\n    //     ELECTION_TYPE status,\r\n    //     string startDate,\r\n    //     string endDate,\r\n    //     address[] candidates,\r\n    //     address[] winners,\r\n    //     address[] voters,\r\n    //     address[] voted,\r\n    //     uint256 year,\r\n    //     uint256 section,\r\n    //     DEPTARTMENT_TYPE department\r\n    // );\r\n    // event LogUpdateElection(\r\n    //     uint256 index,\r\n    //     string name,\r\n    //     ELECTION_TYPE status,\r\n    //     string startDate,\r\n    //     string endDate,\r\n    //     address[] candidates,\r\n    //     address[] winners,\r\n    //     address[] voters,\r\n    //     address[] voted,\r\n    //     uint256 year,\r\n    //     uint256 section,\r\n    //     DEPTARTMENT_TYPE department\r\n    // );\r\n\r\n    modifier onlyOwner() {\r\n        require(msg.sender == owner);\r\n        _;\r\n    }\r\n\r\n    constructor(\r\n        address _AAiTVoteTokenAddress // address _AAiTStudentAddress, // address _AAiTElectionTimerAddress\r\n    ) {\r\n        owner = msg.sender;\r\n        // AAiTVoteTokenAddress = _AAiTVoteTokenAddress;\r\n        // AAiTStudentAddress = _AAiTStudentAddress;\r\n        // AAiTElectionTimerAddress = _AAiTElectionTimerAddress;\r\n        // electionHandler = AAiTElectionHandler(AAiTElectionHandlerAddress);\r\n        // electionTimer = AAiTElectionTimer(_AAiTElectionTimerAddress);\r\n        // student = AAiTStudent(_AAiTStudentAddress);\r\n        voteToken = AAiTVoteToken(_AAiTVoteTokenAddress);\r\n        phase = ElectionPhase(PHASE_NAME.COMPLETED, 0, 0);\r\n    }\r\n\r\n    //  REGISTRATION,\r\n    //     REGISTRATION_BREAK,\r\n    //     SECTION_ELECTION,\r\n    //     // SECTION_ELECTION_DONE,\r\n    //     SECTION_ELECTION_BREAK,\r\n    //     BATCH_ELECTION,\r\n    //     BATCH_ELECTION_BREAK,\r\n    //     // BATCH_ELECTION_DONE,\r\n    //     DEPARTMENT_ELECTION,\r\n    //     // DEPARTMENT_ELECTION_DONE,\r\n    //     COMPLETED\r\n\r\n    // function changeVal(string memory _newVal) internal {\r\n    //     require(msg.sender == owner, \"Only the owner can change the value\");\r\n    //     val = _newVal;\r\n    //     // IERC20(token).transferFrom(msg.sender, address(this), amount);\r\n    // }\r\n\r\n    // function getPhaseEnd() public view returns (uint256) {\r\n    //     return end;\r\n    // }\r\n\r\n    // function startTimer(uint256 _votingDuration, uint256 _breakDuration)\r\n    //     public\r\n    //     onlyOwner\r\n    // {\r\n    //     if (phase.phaseName == PHASE_NAME.COMPLETED) {\r\n    //         votingDuration = _votingDuration;\r\n    //         breakDuration = _breakDuration;\r\n    //         phase = ElectionPhase(\r\n    //             PHASE_NAME.REGISTRATION,\r\n    //             block.timestamp,\r\n    //             block.timestamp + votingDuration\r\n    //         );\r\n    //     }\r\n    // }\r\n\r\n    // function stopTimer() public onlyOwner {\r\n    //     phase = ElectionPhase(PHASE_NAME.COMPLETED, 0, 0);\r\n    // }\r\n    function getCurrentPhase() public view returns (ElectionPhase memory) {\r\n        return phase;\r\n    }\r\n\r\n    function changePhase(uint256 startDate, uint256 endDate) public onlyOwner {\r\n        // require(msg.sender == owner, \"Only the owner can change the phase\");\r\n\r\n        if (phase.phaseName == PHASE_NAME.DEPARTMENT_ELECTION) {\r\n            phase = ElectionPhase(PHASE_NAME.COMPLETED, 0, 0);\r\n            // changeVal(\"unos\");\r\n            return;\r\n        } else if (phase.phaseName == PHASE_NAME.COMPLETED) {\r\n            phase = ElectionPhase(PHASE_NAME.REGISTRATION, startDate, endDate);\r\n            return;\r\n        }\r\n        // return uint(phase.phaseName)+1;\r\n        phase.phaseName = PHASE_NAME(uint256(phase.phaseName) + 1);\r\n        // phase.phaseName = PHASE_NAME.REGISTRATION_BREAK;\r\n        phase.start = startDate;\r\n        // phase.end = block.timestamp + _newEnd;\r\n        phase.end = endDate;\r\n    }\r\n\r\n    // function getRemainingTime() external view returns (uint256) {\r\n    //     if (phase.phaseName == PHASE_NAME.COMPLETED) {\r\n    //         return 0;\r\n    //     }\r\n    //     return phase.end - block.timestamp;\r\n    // }\r\n\r\n    // ELECTION FUNCTIONS\r\n\r\n    function findElectionByName(string memory _name)\r\n        private\r\n        view\r\n        returns (bool)\r\n    {\r\n        for (uint256 i = 0; i < electionValue.length; i++) {\r\n            if (\r\n                keccak256(abi.encodePacked(electionValue[i].name)) ==\r\n                keccak256(abi.encodePacked(_name))\r\n            ) {\r\n                return true;\r\n            }\r\n        }\r\n        return false;\r\n    }\r\n\r\n    function findElectionByType(\r\n        uint256 year,\r\n        uint256 section,\r\n        DEPTARTMENT_TYPE department\r\n    ) private view returns (bool) {\r\n        for (uint256 i = 0; i < electionValue.length; i++) {\r\n            if (\r\n                electionValue[i].year == year &&\r\n                electionValue[i].section == section &&\r\n                keccak256(abi.encodePacked(electionValue[i].department)) ==\r\n                keccak256(abi.encodePacked(department))\r\n            ) {\r\n                return true;\r\n            }\r\n        }\r\n        return false;\r\n    }\r\n\r\n    // function addElection(\r\n    //     string memory name,\r\n    //     ELECTION_TYPE status,\r\n    //     string memory startDate,\r\n    //     string memory endDate,\r\n    //     address[] memory candidates,\r\n    //     address[] memory voters,\r\n    //     uint256 year,\r\n    //     uint256 section,\r\n    //     DEPTARTMENT_TYPE department\r\n    // ) public {\r\n    //     require(\r\n    //         !findElectionByName(name) ||\r\n    //             !findElectionByType(year, section, department),\r\n    //         \"exists\"\r\n    //     );\r\n\r\n    //     uint256 index = allElections.length;\r\n    //     address[] memory empty;\r\n    //     electionStructsMapping[name] = ElectionStruct(\r\n    //         allElections.length,\r\n    //         name,\r\n    //         status,\r\n    //         startDate,\r\n    //         endDate,\r\n    //         candidates,\r\n    //         empty,\r\n    //         voters,\r\n    //         empty,\r\n    //         year,\r\n    //         section,\r\n    //         department\r\n    //     );\r\n    //     allElections.push(\r\n    //         ElectionStruct({\r\n    //             index: allElections.length,\r\n    //             name: name,\r\n    //             status: status,\r\n    //             startDate: startDate,\r\n    //             endDate: endDate,\r\n    //             candidates: candidates,\r\n    //             winners: empty,\r\n    //             voters: voters,\r\n    //             voted: empty,\r\n    //             year: year,\r\n    //             section: section,\r\n    //             department: department\r\n    //         })\r\n    //     );\r\n    // }\r\n\r\n    // function setElectionHandler(address _AAiTElectionHandlerAddress)\r\n    //     public\r\n    //     onlyOwner\r\n    // {\r\n    //     electionHandler = AAiTElectionHandler(_AAiTElectionHandlerAddress);\r\n    // }\r\n\r\n    function createElection(\r\n        string memory name,\r\n        uint256 startDate,\r\n        uint256 endDate,\r\n        address[] memory candidates,\r\n        uint256 year,\r\n        uint256 section,\r\n        DEPTARTMENT_TYPE department\r\n    ) external {\r\n        address[] memory empty;\r\n        // electionStructsMapping[name].name =\r\n\r\n        require(\r\n            !findElectionByName(name) &&\r\n                !findElectionByType(year, section, department),\r\n            \"Election Already Exists\"\r\n        );\r\n        electionIndex.push(name);\r\n        ElectionStruct memory tempElection = ElectionStruct(\r\n            electionIndex.length - 1,\r\n            name,\r\n            ELECTION_TYPE.ONGOING,\r\n            startDate,\r\n            endDate,\r\n            candidates,\r\n            empty,\r\n            year,\r\n            section,\r\n            department\r\n        );\r\n        electionStructsMapping[name] = tempElection;\r\n        electionValue.push(tempElection);\r\n        // emit LogNewElection(electionStruct);\r\n\r\n        // return electionStruct;\r\n        // revert(\"Invalid Operation\");\r\n        // return true;\r\n    }\r\n\r\n    // function retrieveElections() public {\r\n    //     // allElections = ;\r\n    //     delete allElections;\r\n    //     delete electionIndex;\r\n    //     delete electionValue;\r\n    //     // delete electionStructsMapping;\r\n    //     ElectionStruct[] memory temp = electionHandler.getPendingElections();\r\n    //     for (uint256 i = 0; i < temp.length; i++) {\r\n    //         electionStructsMapping[temp[i].name] = temp[i];\r\n    //         allElections.push(temp[i]);\r\n    //         electionIndex.push(temp[i].name);\r\n    //         electionValue.push(temp[i]);\r\n    //         // electionStructsMapping[allElections[i].name] = allElections[i];\r\n    //         // electionIndex.push(allElections[i].name);\r\n    //         // electionValue.push(allElections[i]);\r\n    //     }\r\n    // }\r\n\r\n    // function removeElection(string memory name) internal onlyOwner {\r\n    //     require(findElectionByName(name), \"No Election\");\r\n    // uint256 rowToDelete = electionStructsMapping[name].index;\r\n    // // string memory keyToMove = electionIndex[electionIndex.length - 1];\r\n    // electionIndex[electionStructsMapping[name].index] = electionIndex[\r\n    //     electionIndex.length - 1\r\n    // ];\r\n    // electionStructsMapping[electionIndex[electionIndex.length - 1]]\r\n    //     .index = electionStructsMapping[name].index;\r\n\r\n    // electionValue[electionStructsMapping[name].index] = electionValue[\r\n    //     electionValue.length - 1\r\n    // ];\r\n    // electionValue[electionStructsMapping[name].index]\r\n    //     .index = electionStructsMapping[name].index;\r\n    // electionValue.pop();\r\n    // electionIndex.pop();\r\n    // delete allElections[electionStructsMapping[name].index];\r\n    // previousElections.push(\r\n    //     electionStructsMapping[electionIndex[electionIndex.length - 1]]\r\n    // );\r\n    // delete electionStructsMapping[electionIndex[electionIndex.length - 1]];\r\n    // }\r\n\r\n    function vote(address voterAddress, address candidateAddress)\r\n        public\r\n        onlyOwner\r\n    {\r\n        // AAiTVoteToken tempToken = AAiTVoteToken(AAiTVoteTokenAddress);\r\n        // AAiTStudent student = AAiTStudent(AAiTStudentAddress);\r\n        // AAiTStudent.VoterStruct memory tempVoter = student.getVoter(\r\n        //     voterAddress\r\n        // );\r\n        // require(voterAddress != address(0), \"Invalid Address\");\r\n        // require(candidateAddress != address(0), \"Invalid Address\");\r\n        require(\r\n            voterAddress != owner && candidateAddress != owner,\r\n            \"Invalid Operation\"\r\n        );\r\n        require(\r\n            voterToCandidatesMapping[voterAddress].length < 2,\r\n            \"Voter Already Voted\"\r\n        );\r\n        require(\r\n            !AAiTElectionLibrary.contains(blacklist, candidateAddress),\r\n            \"Candidate Disqualified\"\r\n        );\r\n        require(\r\n            !AAiTElectionLibrary.contains(\r\n                voterToCandidatesMapping[voterAddress],\r\n                candidateAddress\r\n            ),\r\n            \"Already Voted For This Candidate\"\r\n        );\r\n        // require()\r\n\r\n        require(voteToken.balanceOf(voterAddress) > 0, \"Insufficient Token\");\r\n\r\n        for (uint256 i = 0; i < electionValue.length; i++) {\r\n            if (\r\n                AAiTElectionLibrary.contains(\r\n                    electionValue[i].candidates,\r\n                    candidateAddress\r\n                )\r\n            ) {\r\n                if (electionValue[i].status == ELECTION_TYPE.ONGOING) {\r\n                    if (\r\n                        AAiTElectionLibrary.contains(\r\n                            electionValue[i].candidates,\r\n                            voterAddress\r\n                        )\r\n                    ) {\r\n                        candidateVote(voterAddress, candidateAddress);\r\n                        voterToCandidatesMapping[voterAddress].push(\r\n                            candidateAddress\r\n                        );\r\n                        voted.push(voterAddress);\r\n                    } else {\r\n                        require(\r\n                            voterAddress != candidateAddress,\r\n                            \"Invalid Operation\"\r\n                        );\r\n                        voteToken.transferFrom(\r\n                            voterAddress,\r\n                            candidateAddress,\r\n                            1\r\n                        );\r\n                        voterToCandidatesMapping[voterAddress].push(\r\n                            candidateAddress\r\n                        );\r\n\r\n                        voted.push(voterAddress);\r\n                    }\r\n\r\n                    return;\r\n                } else {\r\n                    revert(\"Invalid Phase\");\r\n                }\r\n            }\r\n            continue;\r\n        }\r\n\r\n        revert(\"Couldn't Vote\");\r\n\r\n        // require(\r\n        //     ,\r\n        //     \"You have already voted\"\r\n        // );\r\n        // moveToVoted(\r\n        //     voterAddress,\r\n        //     getElectionByType(\r\n        //         tempVoter.voterInfo.voterInfo.currentYear,\r\n        //         tempVoter.voterInfo.voterInfo.currentSection,\r\n        //         DEPTARTMENT_TYPE(\r\n        //             uint256(tempVoter.voterInfo.voterInfo.currentDepartment)\r\n        //         )\r\n        //     ).name\r\n        // // );\r\n        // string memory tempName = getElectionByType(\r\n        //     tempVoter.voterInfo.voterInfo.currentYear,\r\n        //     tempVoter.voterInfo.voterInfo.currentSection,\r\n        //     DEPTARTMENT_TYPE(\r\n        //         uint256(tempVoter.voterInfo.voterInfo.currentDepartment)\r\n        //     )\r\n        // ).name;\r\n\r\n        // // electionStructsMapping[tempName].voted.push(voterAddress);\r\n        // delete electionStructsMapping[electionName].voters[index];\r\n        // uint256 index = electionStructsMapping[electionName].index;\r\n        // electionValue[electionStructsMapping[tempName].index]\r\n        //     .voted = electionStructsMapping[tempName].voted;\r\n        // allElections[electionStructsMapping[tempName].index]\r\n        //     .voted = electionStructsMapping[tempName].voted;\r\n    }\r\n\r\n    function candidateVote(address voterAddress, address candidateAddress)\r\n        public\r\n        onlyOwner\r\n    {\r\n        // AAiTVoteToken tempToken = AAiTVoteToken(AAiTVoteTokenAddress);\r\n        voteToken.mint(1);\r\n\r\n        voteToken.transfer(voterAddress, 1);\r\n        voteToken.transferFrom(voterAddress, candidateAddress, 1);\r\n    }\r\n\r\n    // function moveToVoted(address voterAddress, address candidateAddress)\r\n    //     internal\r\n    //     onlyOwner\r\n    // {\r\n    //     if (voterRemainingVotesMapping[voterAddress] == 0) {\r\n    //         voted.push(voterAddress);\r\n    //     }\r\n    // }\r\n\r\n    // AAiTVoteToken tempToken = AAiTVoteToken(AAiTVoteTokenAddress);\r\n\r\n    function extendPhase(uint256 endDate) external onlyOwner {\r\n        phase.end = endDate;\r\n        // electionStructsMapping[electionName].endDate =\r\n        //     block.timestamp +\r\n        //     duration;\r\n        // electionValue[electionStructsMapping[electionName].index]\r\n        //     .endDate = electionStructsMapping[electionName].endDate;\r\n    }\r\n\r\n    // function pauseElection(string memory electionName) external onlyOwner {\r\n    //     electionStructsMapping[electionName].status = ELECTION_TYPE.PENDING;\r\n    // }\r\n\r\n    // function continueElection(string memory electionName) external onlyOwner {\r\n    //     electionStructsMapping[electionName].status = ELECTION_TYPE.ONGOING;\r\n    // }\r\n\r\n    function endElection(string memory electionName) external onlyOwner {\r\n        // electionStructsMapping[electionName].status = ELECTION_TYPE.ENDED;\r\n        // electionValue[electionStructsMapping[electionName].index]\r\n        //     .status = ELECTION_TYPE.ENDED;\r\n        require(findElectionByName(electionName), \"Election Does Not Exist\");\r\n        declareWinner(electionName);\r\n        completedElections.push(electionStructsMapping[electionName]);\r\n        completedElectionResults.push(\r\n            ElectionResultStruct(\r\n                electionName,\r\n                getElectionByName(electionName).candidates\r\n            )\r\n        );\r\n        uint256 rowToDelete = electionStructsMapping[electionName].index;\r\n        string memory keyToMove = electionIndex[electionIndex.length - 1];\r\n        electionIndex[rowToDelete] = keyToMove;\r\n        electionStructsMapping[keyToMove].index = rowToDelete;\r\n        electionIndex.pop();\r\n        electionValue[rowToDelete] = electionValue[electionValue.length - 1];\r\n        electionValue.pop();\r\n    }\r\n\r\n    function removeAllCompletedElections() external onlyOwner {\r\n        delete completedElections;\r\n        // delete electionStructsMapping;\r\n        delete electionValue;\r\n        delete electionIndex;\r\n        // delete voterRemainingVotesMapping;\r\n        for (uint256 i = 0; i < voted.length; i++) {\r\n            delete voterToCandidatesMapping[voted[i]];\r\n        }\r\n        delete voted;\r\n    }\r\n\r\n    function declareWinner(string memory electionName) internal {\r\n        // AAiTVoteToken tempToken = AAiTVoteToken(AAiTVoteTokenAddress);\r\n        ElectionStruct memory temp = electionStructsMapping[electionName];\r\n        delete tempWinners;\r\n        uint256[] memory tempVoteCount = new uint256[](temp.candidates.length);\r\n        for (uint256 i = 0; i < temp.candidates.length; i++) {\r\n            tempVoteCount[i] = voteToken.balanceOf(temp.candidates[i]);\r\n            // tempVoteCount.push(tempToken.balanceOf(temp.candidates[i]));\r\n        }\r\n        uint256 max = AAiTElectionLibrary.findLargest(tempVoteCount);\r\n        for (uint256 i = 0; i < temp.candidates.length; i++) {\r\n            if (tempVoteCount[i] == max) {\r\n                // winners[i] = temp.candidates[i];\r\n                tempWinners.push(temp.candidates[i]);\r\n            }\r\n        }\r\n\r\n        temp.winners = tempWinners;\r\n        temp.status = ELECTION_TYPE.COMPLETED;\r\n\r\n        electionStructsMapping[electionName] = temp;\r\n        electionValue[electionStructsMapping[electionName].index] = temp;\r\n        // allElections[electionStructsMapping[electionName].index] = temp;\r\n\r\n        // sort candidates\r\n        // uint256[] memory sortedCandidates = temp.candidates;\r\n\r\n        // removeElection(electionName);\r\n\r\n        // uint256 index = electionStructsMapping[electionName].index;\r\n        // uint256 winnerIndex = electionStructsMapping[electionName].winners.length;\r\n        // electionStructsMapping[electionName].winners.push(electionStructsMapping[electionName].candidates[winnerIndex]);\r\n    }\r\n\r\n    function blacklistCandidate(address candidateAddress) public onlyOwner {\r\n        // AAiTStudent student = AAiTStudent(AAiTStudentAddress);\r\n        // AAiTStudent.CandidateStruct memory tempCandidate = student.getCandidate(\r\n        //     candidateAddress\r\n        // );\r\n        // ElectionStruct[] memory tempElection = allElections;\r\n        require(\r\n            !AAiTElectionLibrary.contains(blacklist, candidateAddress),\r\n            \"Candidate already blacklisted\"\r\n        );\r\n        for (uint256 i = 0; i < electionValue.length; i++) {\r\n            if (\r\n                AAiTElectionLibrary.contains(\r\n                    electionValue[i].candidates,\r\n                    candidateAddress\r\n                )\r\n            ) {\r\n                uint256 index = AAiTElectionLibrary.indexOf(\r\n                    electionValue[i].candidates,\r\n                    candidateAddress\r\n                );\r\n\r\n                // require(index < electionValue[i].candidates.length);\r\n                electionValue[i].candidates[index] = electionValue[i]\r\n                    .candidates[electionValue[i].candidates.length - 1];\r\n                electionValue[i].candidates.pop();\r\n                electionStructsMapping[electionValue[i].name]\r\n                    .candidates = electionValue[i].candidates;\r\n\r\n                // student.removeCandidate(\r\n                //     // tempCandidate.candidateInfo.candidateInfo.fName,\r\n                //     // tempCandidate.candidateInfo.candidateInfo.lName,\r\n                //     // tempCandidate.candidateInfo.candidateInfo.gName,\r\n                //     candidateAddress\r\n                // );\r\n\r\n                blacklist.push(candidateAddress);\r\n                // return true;\r\n            }\r\n        }\r\n        // revert(\"Invalid Operation\");\r\n    }\r\n\r\n    function burnAllTokens(address[] memory users) public onlyOwner {\r\n        // AAiTVoteToken tempToken = AAiTVoteToken(AAiTVoteTokenAddress);\r\n        // AAiTStudent tempStudent = AAiTStudent(AAiTStudentAddress);\r\n        // AAiTStudent.CandidateStruct[] memory tempCandidate = student\r\n        //     .getAllCandidates();\r\n        // AAiTStudent.VoterStruct[] memory tempVoter = student.getAllVoters();\r\n        for (uint256 i = 0; i < users.length; i++) {\r\n            voteToken.burn(users[i]);\r\n        }\r\n\r\n        voteToken.burn(owner);\r\n        // temp.burnRemainingTokens(owner);\r\n    }\r\n\r\n    function mintAndSendTokens(address[] memory voters) public onlyOwner {\r\n        // AAiTVoteToken tempToken = AAiTVoteToken(AAiTVoteTokenAddress);\r\n        // AAiTStudent tempStudent = AAiTStudent(AAiTStudentAddress);\r\n        // AAiTStudent.VoterStruct[] memory tempVoters = student.getAllVoters();\r\n        // uint256 totalTokenCount = tempVoters.length;\r\n        voteToken.mint((voters.length) * 2);\r\n        for (uint256 i = 0; i < voters.length; i++) {\r\n            voteToken.transfer(voters[i], 2);\r\n        }\r\n    }\r\n\r\n    // function endElection(string memory electionName) public onlyOwner {\r\n    //     declareWinner(electionName);\r\n    //     removeElection(electionName);\r\n    // }\r\n\r\n    // function getElectionResult(string memory electionName)\r\n    //     public\r\n    //     view\r\n    //     returns (ElectionResultStruct[] memory)\r\n    // {\r\n    //     // ElectionStruct memory temp = electionStructsMapping[electionName];\r\n    //     ElectionResultStruct[] memory result = new ElectionResultStruct[](\r\n    //         electionStructsMapping[electionName].candidates.length\r\n    //     );\r\n    //     // AAiTVoteToken tempToken = AAiTVoteToken(AAiTVoteTokenAddress);\r\n    //     // AAiTStudent student = AAiTStudent(AAiTStudentAddress);\r\n\r\n    //     for (\r\n    //         uint256 i = 0;\r\n    //         i < electionStructsMapping[electionName].candidates.length;\r\n    //         i++\r\n    //     ) {\r\n    //         AAiTStudent.CandidateStruct memory tempCandidate = student\r\n    //             .getCandidate(\r\n    //                 electionStructsMapping[electionName].candidates[i]\r\n    //             );\r\n    //         ElectionResultStruct memory tempResult = ElectionResultStruct(\r\n    //             tempCandidate.candidateInfo.candidateInfo.fullName,\r\n    //             // tempCandidate.candidateInfo.candidateInfo.lName,\r\n    //             // tempCandidate.candidateInfo.candidateInfo.gName,\r\n    //             electionStructsMapping[electionName].candidates[i],\r\n    //             voteToken.balanceOf(\r\n    //                 electionStructsMapping[electionName].candidates[i]\r\n    //             )\r\n    //         );\r\n    //         result[i] = tempResult;\r\n    //     }\r\n    //     return result;\r\n    // }\r\n\r\n    // function goToNextPhase() public onlyOwner {\r\n    //     AAiTElectionTimer.ElectionPhase memory tempPhase = electionTimer\r\n    //         .getCurrentPhase();\r\n    //     if (tempPhase.phaseName == AAiTElectionTimer.PHASE_NAME.REGISTRATION) {\r\n    //         electionTimer.changePhase();\r\n    //         // electionTimer.goToNextPhase();\r\n    //     } else if (\r\n    //         tempPhase.phaseName ==\r\n    //         AAiTElectionTimer.PHASE_NAME.REGISTRATION_BREAK\r\n    //     ) {\r\n    //         electionTimer.changePhase();\r\n    //         // electionHandler.generateElectionsPerPhase();\r\n    //         // retrieveElections();\r\n    //         // electionHandler.mintAndSendTokens();\r\n    //     } else if (\r\n    //         tempPhase.phaseName == AAiTElectionTimer.PHASE_NAME.SECTION_ELECTION\r\n    //     ) {\r\n    //         electionTimer.changePhase();\r\n    //         electionHandler.endAllOngoingElections();\r\n    //         electionHandler.burnAllTokens();\r\n    //     } else if (\r\n    //         tempPhase.phaseName ==\r\n    //         AAiTElectionTimer.PHASE_NAME.SECTION_ELECTION_BREAK\r\n    //     ) {\r\n    //         electionTimer.changePhase();\r\n    //         retrieveElections();\r\n    //         electionHandler.mintAndSendTokens();\r\n    //     } else if (\r\n    //         tempPhase.phaseName == AAiTElectionTimer.PHASE_NAME.BATCH_ELECTION\r\n    //     ) {\r\n    //         electionTimer.changePhase();\r\n    //         electionHandler.endAllOngoingElections();\r\n    //         electionHandler.burnAllTokens();\r\n    //     } else if (\r\n    //         tempPhase.phaseName ==\r\n    //         AAiTElectionTimer.PHASE_NAME.BATCH_ELECTION_BREAK\r\n    //     ) {\r\n    //         electionTimer.changePhase();\r\n    //         retrieveElections();\r\n    //         electionHandler.mintAndSendTokens();\r\n    //     } else if (\r\n    //         tempPhase.phaseName ==\r\n    //         AAiTElectionTimer.PHASE_NAME.DEPARTMENT_ELECTION\r\n    //     ) {\r\n    //         electionTimer.changePhase();\r\n    //         electionHandler.endAllOngoingElections();\r\n    //         electionHandler.burnAllTokens();\r\n    //     } else if (\r\n    //         tempPhase.phaseName == AAiTElectionTimer.PHASE_NAME.COMPLETED\r\n    //     ) {\r\n    //         electionTimer.changePhase();\r\n    //     } else {\r\n    //         revert(\"Invalid Operation\");\r\n    //     }\r\n    // }\r\n\r\n    // function moveToVoted(address voterAddress, string memory electionName)\r\n    //     private\r\n    // {\r\n    //     // uint256 index = electionStructsMapping[electionName].index;\r\n\r\n    //     electionStructsMapping[electionName].voted.push(voterAddress);\r\n    //     // delete electionStructsMapping[electionName].voters[index];\r\n    //     // uint256 index = electionStructsMapping[electionName].index;\r\n    //     electionValue[electionStructsMapping[electionName].index]\r\n    //         .voted = electionStructsMapping[electionName].voted;\r\n    //     // emit LogUpdateElection(\r\n    //     //     index,\r\n    //     //     electionStructsMapping[electionName].name,\r\n    //     //     electionStructsMapping[electionName].status,\r\n    //     //     electionStructsMapping[electionName].startDate,\r\n    //     //     electionStructsMapping[electionName].endDate,\r\n    //     //     electionStructsMapping[electionName].candidates,\r\n    //     //     electionStructsMapping[electionName].winners,\r\n    //     //     electionStructsMapping[electionName].voters,\r\n    //     //     electionStructsMapping[electionName].voted,\r\n    //     //     electionStructsMapping[electionName].year,\r\n    //     //     electionStructsMapping[electionName].section,\r\n    //     //     electionStructsMapping[electionName].department\r\n    //     // );\r\n    // }\r\n\r\n    // GET FUNCTIONS\r\n\r\n    function getAllCurrentElections()\r\n        public\r\n        view\r\n        returns (ElectionStruct[] memory)\r\n    {\r\n        return electionValue;\r\n    }\r\n\r\n    function getAllCompletedElections()\r\n        public\r\n        view\r\n        returns (ElectionStruct[] memory)\r\n    {\r\n        return completedElections;\r\n    }\r\n\r\n    function getElectionByName(string memory electionName)\r\n        public\r\n        view\r\n        returns (ElectionStruct memory)\r\n    {\r\n        require(findElectionByName(electionName), \"Election not found\");\r\n        return electionStructsMapping[electionName];\r\n    }\r\n\r\n    function getElectionByType(\r\n        uint256 year,\r\n        uint256 section,\r\n        DEPTARTMENT_TYPE department\r\n    ) public view returns (ElectionStruct memory result) {\r\n        require(\r\n            findElectionByType(year, section, department),\r\n            \"Election not found\"\r\n        );\r\n        // AAiTElectionTimer electionTimer = AAiTElectionTimer(\r\n        //     AAiTElectionTimerAddress\r\n        // );\r\n        // AAiTElection tempElection = AAiTElection(AAiTElectionAddress);\r\n        // AAiTElection.ElectionStruct[] memory allElections = tempElection\r\n        //     .getAllElections();\r\n        // ElectionPhase memory phase = getCurrentPhase();\r\n        if (\r\n            phase.phaseName == PHASE_NAME.DEPARTMENT_ELECTION\r\n            // ||\r\n            // phase.phaseName ==\r\n            // PHASE_NAME.DEPARTMENT_ELECTION_DONE\r\n        ) {\r\n            for (uint256 i = 0; i < electionValue.length; i++) {\r\n                if (electionValue[i].department == department) {\r\n                    return electionValue[i];\r\n                }\r\n            }\r\n        } else if (\r\n            phase.phaseName == PHASE_NAME.BATCH_ELECTION\r\n            // ||\r\n            // phase.phaseName ==\r\n            // PHASE_NAME.BATCH_ELECTION_DONE\r\n        ) {\r\n            for (uint256 i = 0; i < electionValue.length; i++) {\r\n                if (\r\n                    electionValue[i].department == department &&\r\n                    electionValue[i].year == year\r\n                ) {\r\n                    return electionValue[i];\r\n                }\r\n            }\r\n        } else if (\r\n            phase.phaseName == PHASE_NAME.SECTION_ELECTION\r\n            // ||\r\n            // phase.phaseName ==\r\n            // PHASE_NAME.SECTION_ELECTION_DONE\r\n        ) {\r\n            for (uint256 i = 0; i < electionValue.length; i++) {\r\n                if (\r\n                    electionValue[i].department == department &&\r\n                    electionValue[i].year == year &&\r\n                    electionValue[i].section == section\r\n                ) {\r\n                    return electionValue[i];\r\n                }\r\n            }\r\n        } else {\r\n            revert(\"Invalid Operation\");\r\n        }\r\n    }\r\n}\r\n",
  "sourcePath": "C:\\Users\\Kaleb\\Desktop\\Final Project Updated\\dvbst_smart_contracts\\contracts\\AAiTElection.sol",
  "compiler": {
    "name": "solc",
    "version": "0.8.10+commit.fc410830.Emscripten.clang"
  },
  "schemaVersion": "3.4.4",
  "updatedAt": "2022-06-23T12:32:06.502Z",
  "networkType": "ethereum",
  "devdoc": {
    "kind": "dev",
    "methods": {},
    "version": 1
  },
  "userdoc": {
    "kind": "user",
    "methods": {},
    "version": 1
  }
}