{
  "contractName": "AAiTVoteToken",
  "abi": [
    {
      "inputs": [],
      "stateMutability": "nonpayable",
      "type": "constructor"
    },
    {
      "anonymous": false,
      "inputs": [
        {
          "indexed": true,
          "internalType": "address",
          "name": "owner",
          "type": "address"
        },
        {
          "indexed": true,
          "internalType": "address",
          "name": "spender",
          "type": "address"
        },
        {
          "indexed": false,
          "internalType": "uint256",
          "name": "value",
          "type": "uint256"
        }
      ],
      "name": "Approval",
      "type": "event"
    },
    {
      "anonymous": false,
      "inputs": [
        {
          "indexed": true,
          "internalType": "address",
          "name": "from",
          "type": "address"
        },
        {
          "indexed": true,
          "internalType": "address",
          "name": "to",
          "type": "address"
        },
        {
          "indexed": false,
          "internalType": "uint256",
          "name": "value",
          "type": "uint256"
        }
      ],
      "name": "Transfer",
      "type": "event"
    },
    {
      "inputs": [
        {
          "internalType": "address",
          "name": "owner",
          "type": "address"
        },
        {
          "internalType": "address",
          "name": "spender",
          "type": "address"
        }
      ],
      "name": "allowance",
      "outputs": [
        {
          "internalType": "uint256",
          "name": "",
          "type": "uint256"
        }
      ],
      "stateMutability": "view",
      "type": "function"
    },
    {
      "inputs": [
        {
          "internalType": "address",
          "name": "spender",
          "type": "address"
        },
        {
          "internalType": "uint256",
          "name": "amount",
          "type": "uint256"
        }
      ],
      "name": "approve",
      "outputs": [
        {
          "internalType": "bool",
          "name": "",
          "type": "bool"
        }
      ],
      "stateMutability": "nonpayable",
      "type": "function"
    },
    {
      "inputs": [
        {
          "internalType": "address",
          "name": "account",
          "type": "address"
        }
      ],
      "name": "balanceOf",
      "outputs": [
        {
          "internalType": "uint256",
          "name": "",
          "type": "uint256"
        }
      ],
      "stateMutability": "view",
      "type": "function"
    },
    {
      "inputs": [],
      "name": "decimals",
      "outputs": [
        {
          "internalType": "uint8",
          "name": "",
          "type": "uint8"
        }
      ],
      "stateMutability": "view",
      "type": "function"
    },
    {
      "inputs": [
        {
          "internalType": "address",
          "name": "spender",
          "type": "address"
        },
        {
          "internalType": "uint256",
          "name": "subtractedValue",
          "type": "uint256"
        }
      ],
      "name": "decreaseAllowance",
      "outputs": [
        {
          "internalType": "bool",
          "name": "",
          "type": "bool"
        }
      ],
      "stateMutability": "nonpayable",
      "type": "function"
    },
    {
      "inputs": [
        {
          "internalType": "address",
          "name": "spender",
          "type": "address"
        },
        {
          "internalType": "uint256",
          "name": "addedValue",
          "type": "uint256"
        }
      ],
      "name": "increaseAllowance",
      "outputs": [
        {
          "internalType": "bool",
          "name": "",
          "type": "bool"
        }
      ],
      "stateMutability": "nonpayable",
      "type": "function"
    },
    {
      "inputs": [
        {
          "internalType": "address",
          "name": "forwarder",
          "type": "address"
        }
      ],
      "name": "isTrustedForwarder",
      "outputs": [
        {
          "internalType": "bool",
          "name": "",
          "type": "bool"
        }
      ],
      "stateMutability": "view",
      "type": "function"
    },
    {
      "inputs": [],
      "name": "name",
      "outputs": [
        {
          "internalType": "string",
          "name": "",
          "type": "string"
        }
      ],
      "stateMutability": "view",
      "type": "function"
    },
    {
      "inputs": [],
      "name": "owner",
      "outputs": [
        {
          "internalType": "address",
          "name": "",
          "type": "address"
        }
      ],
      "stateMutability": "view",
      "type": "function"
    },
    {
      "inputs": [],
      "name": "symbol",
      "outputs": [
        {
          "internalType": "string",
          "name": "",
          "type": "string"
        }
      ],
      "stateMutability": "view",
      "type": "function"
    },
    {
      "inputs": [],
      "name": "totalSupply",
      "outputs": [
        {
          "internalType": "uint256",
          "name": "",
          "type": "uint256"
        }
      ],
      "stateMutability": "view",
      "type": "function"
    },
    {
      "inputs": [],
      "name": "trustedForwarder",
      "outputs": [
        {
          "internalType": "address",
          "name": "",
          "type": "address"
        }
      ],
      "stateMutability": "view",
      "type": "function"
    },
    {
      "inputs": [
        {
          "internalType": "uint256",
          "name": "supply",
          "type": "uint256"
        }
      ],
      "name": "mint",
      "outputs": [],
      "stateMutability": "nonpayable",
      "type": "function"
    },
    {
      "inputs": [
        {
          "internalType": "address",
          "name": "to",
          "type": "address"
        },
        {
          "internalType": "uint256",
          "name": "amount",
          "type": "uint256"
        }
      ],
      "name": "transfer",
      "outputs": [
        {
          "internalType": "bool",
          "name": "",
          "type": "bool"
        }
      ],
      "stateMutability": "nonpayable",
      "type": "function"
    },
    {
      "inputs": [
        {
          "internalType": "address",
          "name": "from",
          "type": "address"
        },
        {
          "internalType": "address",
          "name": "to",
          "type": "address"
        },
        {
          "internalType": "uint256",
          "name": "amount",
          "type": "uint256"
        }
      ],
      "name": "transferFrom",
      "outputs": [
        {
          "internalType": "bool",
          "name": "",
          "type": "bool"
        }
      ],
      "stateMutability": "nonpayable",
      "type": "function"
    },
    {
      "inputs": [
        {
          "internalType": "address",
          "name": "tokenOwner",
          "type": "address"
        }
      ],
      "name": "burn",
      "outputs": [],
      "stateMutability": "nonpayable",
      "type": "function"
    },
    {
      "inputs": [
        {
          "internalType": "address",
          "name": "_AAiTElectionAddress",
          "type": "address"
        }
      ],
      "name": "setAddresses",
      "outputs": [],
      "stateMutability": "nonpayable",
      "type": "function"
    },
    {
      "inputs": [
        {
          "internalType": "address",
          "name": "_trustedForwarder",
          "type": "address"
        }
      ],
      "name": "setTrustForwarder",
      "outputs": [],
      "stateMutability": "nonpayable",
      "type": "function"
    },
    {
      "inputs": [],
      "name": "versionRecipient",
      "outputs": [
        {
          "internalType": "string",
          "name": "",
          "type": "string"
        }
      ],
      "stateMutability": "pure",
      "type": "function"
    }
  ],
  "bytecode": "0x60806040523480156200001157600080fd5b506040518060400160405280600981526020017f4141695420566f746500000000000000000000000000000000000000000000008152506040518060400160405280600381526020017f564f540000000000000000000000000000000000000000000000000000000000815250816003908051906020019062000096929190620000f9565b508060049080519060200190620000af929190620000f9565b50505033600660006101000a81548173ffffffffffffffffffffffffffffffffffffffff021916908373ffffffffffffffffffffffffffffffffffffffff1602179055506200020e565b8280546200010790620001d8565b90600052602060002090601f0160209004810192826200012b576000855562000177565b82601f106200014657805160ff191683800117855562000177565b8280016001018555821562000177579182015b828111156200017657825182559160200191906001019062000159565b5b5090506200018691906200018a565b5090565b5b80821115620001a55760008160009055506001016200018b565b5090565b7f4e487b7100000000000000000000000000000000000000000000000000000000600052602260045260246000fd5b60006002820490506001821680620001f157607f821691505b60208210811415620002085762000207620001a9565b5b50919050565b6120fa806200021e6000396000f3fe608060405234801561001057600080fd5b50600436106101215760003560e01c80637da0a877116100ad578063a0712d6811610071578063a0712d6814610320578063a457c2d71461033c578063a9059cbb1461036c578063dd62ed3e1461039c578063ddf0b3da146103cc57610121565b80637da0a8771461028e57806381d3c435146102ac57806389afcb44146102c85780638da5cb5b146102e457806395d89b411461030257610121565b8063313ce567116100f4578063313ce567146101c257806339509351146101e0578063486ff0cd14610210578063572b6c051461022e57806370a082311461025e57610121565b806306fdde0314610126578063095ea7b31461014457806318160ddd1461017457806323b872dd14610192575b600080fd5b61012e6103e8565b60405161013b9190611707565b60405180910390f35b61015e600480360381019061015991906117c2565b61047a565b60405161016b919061181d565b60405180910390f35b61017c61049d565b6040516101899190611847565b60405180910390f35b6101ac60048036038101906101a79190611862565b6104a7565b6040516101b9919061181d565b60405180910390f35b6101ca6105ea565b6040516101d791906118d1565b60405180910390f35b6101fa60048036038101906101f591906117c2565b6105f3565b604051610207919061181d565b60405180910390f35b61021861062a565b6040516102259190611707565b60405180910390f35b610248600480360381019061024391906118ec565b610667565b604051610255919061181d565b60405180910390f35b610278600480360381019061027391906118ec565b6106c1565b6040516102859190611847565b60405180910390f35b610296610709565b6040516102a39190611928565b60405180910390f35b6102c660048036038101906102c191906118ec565b610733565b005b6102e260048036038101906102dd91906118ec565b61085f565b005b6102ec61096e565b6040516102f99190611928565b60405180910390f35b61030a610994565b6040516103179190611707565b60405180910390f35b61033a60048036038101906103359190611943565b610a26565b005b610356600480360381019061035191906117c2565b610b22565b604051610363919061181d565b60405180910390f35b610386600480360381019061038191906117c2565b610b99565b604051610393919061181d565b60405180910390f35b6103b660048036038101906103b19190611970565b610cdc565b6040516103c39190611847565b60405180910390f35b6103e660048036038101906103e191906118ec565b610d63565b005b6060600380546103f7906119df565b80601f0160208091040260200160405190810160405280929190818152602001828054610423906119df565b80156104705780601f1061044557610100808354040283529160200191610470565b820191906000526020600020905b81548152906001019060200180831161045357829003601f168201915b5050505050905090565b600080610485610e57565b9050610492818585610e66565b600191505092915050565b6000600254905090565b60003373ffffffffffffffffffffffffffffffffffffffff16600660009054906101000a900473ffffffffffffffffffffffffffffffffffffffff1673ffffffffffffffffffffffffffffffffffffffff1614806105525750600760009054906101000a900473ffffffffffffffffffffffffffffffffffffffff1673ffffffffffffffffffffffffffffffffffffffff163373ffffffffffffffffffffffffffffffffffffffff16145b610591576040517f08c379a000000000000000000000000000000000000000000000000000000000815260040161058890611a83565b60405180910390fd5b600182146105d4576040517f08c379a00000000000000000000000000000000000000000000000000000000081526004016105cb90611aef565b60405180910390fd5b6105df848484611031565b600190509392505050565b60006012905090565b6000806105fe610e57565b905061061f8185856106108589610cdc565b61061a9190611b3e565b610e66565b600191505092915050565b60606040518060400160405280600181526020017f3100000000000000000000000000000000000000000000000000000000000000815250905090565b6000600560009054906101000a900473ffffffffffffffffffffffffffffffffffffffff1673ffffffffffffffffffffffffffffffffffffffff168273ffffffffffffffffffffffffffffffffffffffff16149050919050565b60008060008373ffffffffffffffffffffffffffffffffffffffff1673ffffffffffffffffffffffffffffffffffffffff168152602001908152602001600020549050919050565b6000600560009054906101000a900473ffffffffffffffffffffffffffffffffffffffff16905090565b3373ffffffffffffffffffffffffffffffffffffffff16600660009054906101000a900473ffffffffffffffffffffffffffffffffffffffff1673ffffffffffffffffffffffffffffffffffffffff1614806107dc5750600760009054906101000a900473ffffffffffffffffffffffffffffffffffffffff1673ffffffffffffffffffffffffffffffffffffffff163373ffffffffffffffffffffffffffffffffffffffff16145b61081b576040517f08c379a000000000000000000000000000000000000000000000000000000000815260040161081290611a83565b60405180910390fd5b80600760006101000a81548173ffffffffffffffffffffffffffffffffffffffff021916908373ffffffffffffffffffffffffffffffffffffffff16021790555050565b3373ffffffffffffffffffffffffffffffffffffffff16600660009054906101000a900473ffffffffffffffffffffffffffffffffffffffff1673ffffffffffffffffffffffffffffffffffffffff1614806109085750600760009054906101000a900473ffffffffffffffffffffffffffffffffffffffff1673ffffffffffffffffffffffffffffffffffffffff163373ffffffffffffffffffffffffffffffffffffffff16145b610947576040517f08c379a000000000000000000000000000000000000000000000000000000000815260040161093e90611a83565b60405180910390fd5b6000610952826106c1565b111561096b5761096a81610965836106c1565b6112b2565b5b50565b600660009054906101000a900473ffffffffffffffffffffffffffffffffffffffff1681565b6060600480546109a3906119df565b80601f01602080910402602001604051908101604052809291908181526020018280546109cf906119df565b8015610a1c5780601f106109f157610100808354040283529160200191610a1c565b820191906000526020600020905b8154815290600101906020018083116109ff57829003601f168201915b5050505050905090565b3373ffffffffffffffffffffffffffffffffffffffff16600660009054906101000a900473ffffffffffffffffffffffffffffffffffffffff1673ffffffffffffffffffffffffffffffffffffffff161480610acf5750600760009054906101000a900473ffffffffffffffffffffffffffffffffffffffff1673ffffffffffffffffffffffffffffffffffffffff163373ffffffffffffffffffffffffffffffffffffffff16145b610b0e576040517f08c379a0000000000000000000000000000000000000000000000000000000008152600401610b0590611a83565b60405180910390fd5b610b1f610b19610e57565b82611489565b50565b600080610b2d610e57565b90506000610b3b8286610cdc565b905083811015610b80576040517f08c379a0000000000000000000000000000000000000000000000000000000008152600401610b7790611c06565b60405180910390fd5b610b8d8286868403610e66565b60019250505092915050565b60003373ffffffffffffffffffffffffffffffffffffffff16600660009054906101000a900473ffffffffffffffffffffffffffffffffffffffff1673ffffffffffffffffffffffffffffffffffffffff161480610c445750600760009054906101000a900473ffffffffffffffffffffffffffffffffffffffff1673ffffffffffffffffffffffffffffffffffffffff163373ffffffffffffffffffffffffffffffffffffffff16145b610c83576040517f08c379a0000000000000000000000000000000000000000000000000000000008152600401610c7a90611a83565b60405180910390fd5b6002821115610cc7576040517f08c379a0000000000000000000000000000000000000000000000000000000008152600401610cbe90611aef565b60405180910390fd5b610cd2338484611031565b6001905092915050565b6000600160008473ffffffffffffffffffffffffffffffffffffffff1673ffffffffffffffffffffffffffffffffffffffff16815260200190815260200160002060008373ffffffffffffffffffffffffffffffffffffffff1673ffffffffffffffffffffffffffffffffffffffff16815260200190815260200160002054905092915050565b3373ffffffffffffffffffffffffffffffffffffffff16600660009054906101000a900473ffffffffffffffffffffffffffffffffffffffff1673ffffffffffffffffffffffffffffffffffffffff161480610e0c5750600760009054906101000a900473ffffffffffffffffffffffffffffffffffffffff1673ffffffffffffffffffffffffffffffffffffffff163373ffffffffffffffffffffffffffffffffffffffff16145b610e4b576040517f08c379a0000000000000000000000000000000000000000000000000000000008152600401610e4290611a83565b60405180910390fd5b610e54816115e9565b50565b6000610e6161162d565b905090565b600073ffffffffffffffffffffffffffffffffffffffff168373ffffffffffffffffffffffffffffffffffffffff161415610ed6576040517f08c379a0000000000000000000000000000000000000000000000000000000008152600401610ecd90611c98565b60405180910390fd5b600073ffffffffffffffffffffffffffffffffffffffff168273ffffffffffffffffffffffffffffffffffffffff161415610f46576040517f08c379a0000000000000000000000000000000000000000000000000000000008152600401610f3d90611d2a565b60405180910390fd5b80600160008573ffffffffffffffffffffffffffffffffffffffff1673ffffffffffffffffffffffffffffffffffffffff16815260200190815260200160002060008473ffffffffffffffffffffffffffffffffffffffff1673ffffffffffffffffffffffffffffffffffffffff168152602001908152602001600020819055508173ffffffffffffffffffffffffffffffffffffffff168373ffffffffffffffffffffffffffffffffffffffff167f8c5be1e5ebec7d5bd14f71427d1e84f3dd0314c0f7b2291e5b200ac8c7c3b925836040516110249190611847565b60405180910390a3505050565b600073ffffffffffffffffffffffffffffffffffffffff168373ffffffffffffffffffffffffffffffffffffffff1614156110a1576040517f08c379a000000000000000000000000000000000000000000000000000000000815260040161109890611dbc565b60405180910390fd5b600073ffffffffffffffffffffffffffffffffffffffff168273ffffffffffffffffffffffffffffffffffffffff161415611111576040517f08c379a000000000000000000000000000000000000000000000000000000000815260040161110890611e4e565b60405180910390fd5b61111c838383611664565b60008060008573ffffffffffffffffffffffffffffffffffffffff1673ffffffffffffffffffffffffffffffffffffffff168152602001908152602001600020549050818110156111a2576040517f08c379a000000000000000000000000000000000000000000000000000000000815260040161119990611ee0565b60405180910390fd5b8181036000808673ffffffffffffffffffffffffffffffffffffffff1673ffffffffffffffffffffffffffffffffffffffff16815260200190815260200160002081905550816000808573ffffffffffffffffffffffffffffffffffffffff1673ffffffffffffffffffffffffffffffffffffffff16815260200190815260200160002060008282546112359190611b3e565b925050819055508273ffffffffffffffffffffffffffffffffffffffff168473ffffffffffffffffffffffffffffffffffffffff167fddf252ad1be2c89b69c2b068fc378daa952ba7f163c4a11628f55a4df523b3ef846040516112999190611847565b60405180910390a36112ac848484611669565b50505050565b600073ffffffffffffffffffffffffffffffffffffffff168273ffffffffffffffffffffffffffffffffffffffff161415611322576040517f08c379a000000000000000000000000000000000000000000000000000000000815260040161131990611f72565b60405180910390fd5b61132e82600083611664565b60008060008473ffffffffffffffffffffffffffffffffffffffff1673ffffffffffffffffffffffffffffffffffffffff168152602001908152602001600020549050818110156113b4576040517f08c379a00000000000000000000000000000000000000000000000000000000081526004016113ab90612004565b60405180910390fd5b8181036000808573ffffffffffffffffffffffffffffffffffffffff1673ffffffffffffffffffffffffffffffffffffffff16815260200190815260200160002081905550816002600082825461140b9190612024565b92505081905550600073ffffffffffffffffffffffffffffffffffffffff168373ffffffffffffffffffffffffffffffffffffffff167fddf252ad1be2c89b69c2b068fc378daa952ba7f163c4a11628f55a4df523b3ef846040516114709190611847565b60405180910390a361148483600084611669565b505050565b600073ffffffffffffffffffffffffffffffffffffffff168273ffffffffffffffffffffffffffffffffffffffff1614156114f9576040517f08c379a00000000000000000000000000000000000000000000000000000000081526004016114f0906120a4565b60405180910390fd5b61150560008383611664565b80600260008282546115179190611b3e565b92505081905550806000808473ffffffffffffffffffffffffffffffffffffffff1673ffffffffffffffffffffffffffffffffffffffff168152602001908152602001600020600082825461156c9190611b3e565b925050819055508173ffffffffffffffffffffffffffffffffffffffff16600073ffffffffffffffffffffffffffffffffffffffff167fddf252ad1be2c89b69c2b068fc378daa952ba7f163c4a11628f55a4df523b3ef836040516115d19190611847565b60405180910390a36115e560008383611669565b5050565b80600560006101000a81548173ffffffffffffffffffffffffffffffffffffffff021916908373ffffffffffffffffffffffffffffffffffffffff16021790555050565b60006014600036905010158015611649575061164833610667565b5b1561165d57601436033560601c9050611661565b3390505b90565b505050565b505050565b600081519050919050565b600082825260208201905092915050565b60005b838110156116a857808201518184015260208101905061168d565b838111156116b7576000848401525b50505050565b6000601f19601f8301169050919050565b60006116d98261166e565b6116e38185611679565b93506116f381856020860161168a565b6116fc816116bd565b840191505092915050565b6000602082019050818103600083015261172181846116ce565b905092915050565b600080fd5b600073ffffffffffffffffffffffffffffffffffffffff82169050919050565b60006117598261172e565b9050919050565b6117698161174e565b811461177457600080fd5b50565b60008135905061178681611760565b92915050565b6000819050919050565b61179f8161178c565b81146117aa57600080fd5b50565b6000813590506117bc81611796565b92915050565b600080604083850312156117d9576117d8611729565b5b60006117e785828601611777565b92505060206117f8858286016117ad565b9150509250929050565b60008115159050919050565b61181781611802565b82525050565b6000602082019050611832600083018461180e565b92915050565b6118418161178c565b82525050565b600060208201905061185c6000830184611838565b92915050565b60008060006060848603121561187b5761187a611729565b5b600061188986828701611777565b935050602061189a86828701611777565b92505060406118ab868287016117ad565b9150509250925092565b600060ff82169050919050565b6118cb816118b5565b82525050565b60006020820190506118e660008301846118c2565b92915050565b60006020828403121561190257611901611729565b5b600061191084828501611777565b91505092915050565b6119228161174e565b82525050565b600060208201905061193d6000830184611919565b92915050565b60006020828403121561195957611958611729565b5b6000611967848285016117ad565b91505092915050565b6000806040838503121561198757611986611729565b5b600061199585828601611777565b92505060206119a685828601611777565b9150509250929050565b7f4e487b7100000000000000000000000000000000000000000000000000000000600052602260045260246000fd5b600060028204905060018216806119f757607f821691505b60208210811415611a0b57611a0a6119b0565b5b50919050565b7f546869732066756e6374696f6e206973207265737472696374656420746f207460008201527f686520636f6e74726163742773206f776e657200000000000000000000000000602082015250565b6000611a6d603383611679565b9150611a7882611a11565b604082019050919050565b60006020820190508181036000830152611a9c81611a60565b9050919050565b7f496e76616c6964204f7065726174696f6e000000000000000000000000000000600082015250565b6000611ad9601183611679565b9150611ae482611aa3565b602082019050919050565b60006020820190508181036000830152611b0881611acc565b9050919050565b7f4e487b7100000000000000000000000000000000000000000000000000000000600052601160045260246000fd5b6000611b498261178c565b9150611b548361178c565b9250827fffffffffffffffffffffffffffffffffffffffffffffffffffffffffffffffff03821115611b8957611b88611b0f565b5b828201905092915050565b7f45524332303a2064656372656173656420616c6c6f77616e63652062656c6f7760008201527f207a65726f000000000000000000000000000000000000000000000000000000602082015250565b6000611bf0602583611679565b9150611bfb82611b94565b604082019050919050565b60006020820190508181036000830152611c1f81611be3565b9050919050565b7f45524332303a20617070726f76652066726f6d20746865207a65726f2061646460008201527f7265737300000000000000000000000000000000000000000000000000000000602082015250565b6000611c82602483611679565b9150611c8d82611c26565b604082019050919050565b60006020820190508181036000830152611cb181611c75565b9050919050565b7f45524332303a20617070726f766520746f20746865207a65726f20616464726560008201527f7373000000000000000000000000000000000000000000000000000000000000602082015250565b6000611d14602283611679565b9150611d1f82611cb8565b604082019050919050565b60006020820190508181036000830152611d4381611d07565b9050919050565b7f45524332303a207472616e736665722066726f6d20746865207a65726f20616460008201527f6472657373000000000000000000000000000000000000000000000000000000602082015250565b6000611da6602583611679565b9150611db182611d4a565b604082019050919050565b60006020820190508181036000830152611dd581611d99565b9050919050565b7f45524332303a207472616e7366657220746f20746865207a65726f206164647260008201527f6573730000000000000000000000000000000000000000000000000000000000602082015250565b6000611e38602383611679565b9150611e4382611ddc565b604082019050919050565b60006020820190508181036000830152611e6781611e2b565b9050919050565b7f45524332303a207472616e7366657220616d6f756e742065786365656473206260008201527f616c616e63650000000000000000000000000000000000000000000000000000602082015250565b6000611eca602683611679565b9150611ed582611e6e565b604082019050919050565b60006020820190508181036000830152611ef981611ebd565b9050919050565b7f45524332303a206275726e2066726f6d20746865207a65726f2061646472657360008201527f7300000000000000000000000000000000000000000000000000000000000000602082015250565b6000611f5c602183611679565b9150611f6782611f00565b604082019050919050565b60006020820190508181036000830152611f8b81611f4f565b9050919050565b7f45524332303a206275726e20616d6f756e7420657863656564732062616c616e60008201527f6365000000000000000000000000000000000000000000000000000000000000602082015250565b6000611fee602283611679565b9150611ff982611f92565b604082019050919050565b6000602082019050818103600083015261201d81611fe1565b9050919050565b600061202f8261178c565b915061203a8361178c565b92508282101561204d5761204c611b0f565b5b828203905092915050565b7f45524332303a206d696e7420746f20746865207a65726f206164647265737300600082015250565b600061208e601f83611679565b915061209982612058565b602082019050919050565b600060208201905081810360008301526120bd81612081565b905091905056fea2646970667358221220c2a8ec444940cf5c0c23284fbc9804c0f17d59567921e4c049b5187fdd6fd59464736f6c634300080a0033",
  "immutableReferences": {},
  "source": "// SPDX-License-Identifier: MIT\npragma solidity ^0.8.9;\n\nimport \"@opengsn/contracts/src/BaseRelayRecipient.sol\";\nimport \"@openzeppelin/contracts/token/ERC20/ERC20.sol\";\nimport \"./AAiTElection.sol\";\n\ncontract AAiTVoteToken is ERC20, BaseRelayRecipient {\n    address public owner;\n    address private AAiTElectionAddress;\n    modifier onlyOwner() {\n        require(\n            owner == msg.sender || msg.sender == AAiTElectionAddress,\n            \"This function is restricted to the contract's owner\"\n        );\n        _;\n    }\n\n    function mint(uint256 supply) public onlyOwner {\n        _mint(_msgSender(), supply);\n    }\n\n    function transfer(address to, uint256 amount)\n        public\n        override\n        onlyOwner\n        returns (bool)\n    {\n        require(amount <= 2, \"Invalid Operation\");\n\n        _transfer(msg.sender, to, amount);\n        return true;\n    }\n\n    function transferFrom(\n        address from,\n        address to,\n        uint256 amount\n    ) public override onlyOwner returns (bool) {\n        require(amount == 1, \"Invalid Operation\");\n        _transfer(from, to, amount);\n        return true;\n    }\n\n    function burn(address tokenOwner) public onlyOwner {\n        if (balanceOf(tokenOwner) > 0) {\n            _burn(tokenOwner, balanceOf(tokenOwner));\n        }\n    }\n\n    function setAddresses(\n        address _AAiTElectionAddress\n    ) public onlyOwner {\n        AAiTElectionAddress = _AAiTElectionAddress;\n    }\n\n    // function getRemainingToken(address voter) public view returns (uint256) {\n    //     return balanceOf(voter);\n    // }\n\n    // constructor(address _trustedForwarder) ERC20(\"AAiT Vote\", \"VOT\") {\n    //     _mint(msg.sender, 1000);\n    //     _setTrustedForwarder(_trustedForwarder);\n    //     owner = msg.sender;\n    // }\n\n    constructor() ERC20(\"AAiT Vote\", \"VOT\") {\n        owner = msg.sender;\n        // mint(1000);\n        // _setTrustedForwarder(_trustedForwarder);\n    }\n\n    /**\n     * OPTIONAL\n     * You should add one setTrustedForwarder(address _trustedForwarder)\n     * method with onlyOwner modifier so you can change the trusted\n     * forwarder address to switch to some other meta transaction protocol\n     * if any better protocol comes tomorrow or current one is upgraded.\n     */\n    function setTrustForwarder(address _trustedForwarder) public onlyOwner {\n        _setTrustedForwarder(_trustedForwarder);\n    }\n\n    /**\n     * Override this function.\n     * This version is to keep track of BaseRelayRecipient you are using\n     * in your contract.\n     */\n    function versionRecipient() external pure override returns (string memory) {\n        return \"1\";\n    }\n\n    function _msgSender()\n        internal\n        view\n        override(Context, BaseRelayRecipient)\n        returns (address sender)\n    {\n        sender = BaseRelayRecipient._msgSender();\n    }\n\n    function _msgData()\n        internal\n        view\n        override(Context, BaseRelayRecipient)\n        returns (bytes memory)\n    {\n        return BaseRelayRecipient._msgData();\n    }\n}\n",
  "sourcePath": "/home/dannyterefe/Documents/VSCode_Projects/Final_Project/authStateMukera/final-project-updated/dvbst_smart_contracts/contracts/AAiTVoteToken.sol",
  "compiler": {
    "name": "solc",
    "version": "0.8.10+commit.fc410830.Emscripten.clang"
  },
  "schemaVersion": "3.4.4",
  "updatedAt": "2022-06-23T17:05:11.115Z",
  "devdoc": {
    "kind": "dev",
    "methods": {
      "allowance(address,address)": {
        "details": "See {IERC20-allowance}."
      },
      "approve(address,uint256)": {
        "details": "See {IERC20-approve}. NOTE: If `amount` is the maximum `uint256`, the allowance is not updated on `transferFrom`. This is semantically equivalent to an infinite approval. Requirements: - `spender` cannot be the zero address."
      },
      "balanceOf(address)": {
        "details": "See {IERC20-balanceOf}."
      },
      "decimals()": {
        "details": "Returns the number of decimals used to get its user representation. For example, if `decimals` equals `2`, a balance of `505` tokens should be displayed to a user as `5.05` (`505 / 10 ** 2`). Tokens usually opt for a value of 18, imitating the relationship between Ether and Wei. This is the value {ERC20} uses, unless this function is overridden; NOTE: This information is only used for _display_ purposes: it in no way affects any of the arithmetic of the contract, including {IERC20-balanceOf} and {IERC20-transfer}."
      },
      "decreaseAllowance(address,uint256)": {
        "details": "Atomically decreases the allowance granted to `spender` by the caller. This is an alternative to {approve} that can be used as a mitigation for problems described in {IERC20-approve}. Emits an {Approval} event indicating the updated allowance. Requirements: - `spender` cannot be the zero address. - `spender` must have allowance for the caller of at least `subtractedValue`."
      },
      "increaseAllowance(address,uint256)": {
        "details": "Atomically increases the allowance granted to `spender` by the caller. This is an alternative to {approve} that can be used as a mitigation for problems described in {IERC20-approve}. Emits an {Approval} event indicating the updated allowance. Requirements: - `spender` cannot be the zero address."
      },
      "name()": {
        "details": "Returns the name of the token."
      },
      "symbol()": {
        "details": "Returns the symbol of the token, usually a shorter version of the name."
      },
      "totalSupply()": {
        "details": "See {IERC20-totalSupply}."
      },
      "transfer(address,uint256)": {
        "details": "See {IERC20-transfer}. Requirements: - `to` cannot be the zero address. - the caller must have a balance of at least `amount`."
      },
      "transferFrom(address,address,uint256)": {
        "details": "See {IERC20-transferFrom}. Emits an {Approval} event indicating the updated allowance. This is not required by the EIP. See the note at the beginning of {ERC20}. NOTE: Does not update the allowance if the current allowance is the maximum `uint256`. Requirements: - `from` and `to` cannot be the zero address. - `from` must have a balance of at least `amount`. - the caller must have allowance for ``from``'s tokens of at least `amount`."
      }
    },
    "version": 1
  },
  "userdoc": {
    "kind": "user",
    "methods": {
      "isTrustedForwarder(address)": {
        "notice": "return if the forwarder is trusted to forward relayed transactions to us. the forwarder is required to verify the sender's signature, and verify the call is not a replay."
      },
      "setTrustForwarder(address)": {
        "notice": "OPTIONAL You should add one setTrustedForwarder(address _trustedForwarder) method with onlyOwner modifier so you can change the trusted forwarder address to switch to some other meta transaction protocol if any better protocol comes tomorrow or current one is upgraded."
      },
      "versionRecipient()": {
        "notice": "Override this function. This version is to keep track of BaseRelayRecipient you are using in your contract."
      }
    },
    "version": 1
  }
}